:020000040800F2
:10000000A08C0024B9020008C92E00081B2B000890
:10001000D11F100821061008392810080000000020
:1000200000000000000000000000000001001008B7
:1000300023061008000000005D0010087D30000855
:10004000D3020008D3020008D3020008D30200083C
:10005000D3020008D3020008D3020008D30200082C
:10006000D3020008D3020008D3020008D30200081C
:10007000D3020008D3020008D3020008D30200080C
:10008000D3020008D3020008D3020008D3020008FC
:10009000D3020008D3020008D3020008D3020008EC
:1000A000D3020008D3020008D3020008D3020008DC
:1000B000D3020008D3020008D3020008D3020008CC
:1000C000D3020008D3020008D3020008D3020008BC
:1000D000D3020008D3020008D3020008D3020008AC
:1000E000D3020008D302000800000000D302000879
:1000F000D3020008D3020008D3020008D30200088C
:1001000025061008D3020008D3020008D302000815
:10011000D3020008D3020008D3020008F12210081D
:10012000D3020008D3020008D3020008D30200085B
:10013000D3020008D3020008D3020008D30200084B
:1001400000000000000000000000000000000000AF
:10015000D3020008D3020008D3020008D30200082B
:10016000D3020008D3020008D3020008D30200081B
:10017000D3020008D3020008D3020008D30200080B
:10018000D3020008D3020008D3020008D3020008FB
:10019000D3020008D3020008D3020008D3020008EB
:1001A000E52C0008D302000841060008D30200082D
:1001B000D3020008D3020008D3020008D3020008CB
:1001C000D3020008D3020008D3020008D3020008BB
:1001D000D3020008D3020008D3020008D3020008AB
:1001E000D3020008D3020008D3020008D30200089B
:1001F000D3020008D3020008D3020008D30200088B
:10020000D3020008D3020008D3020008D30200087A
:10021000D3020008D3020008D3020008D30200086A
:10022000D3020008D3020008D30200080000000037
:10023000D3020008D302000800000000D302000827
:10024000D3020008D3020008D3020008D30200083A
:10025000D3020008D3020008D3020008D30200082A
:10026000D3020008D3020008D3020008D30200081A
:10027000D3020008D3020008D302000800000000E7
:10028000D3020008D3020008D302000800000000D7
:1002900000000000D3020008DFF818D000F0E8F8F2
:1002A000FFF050FF0048004791930008AFF3008033
:1002B00000F036F8A08C0024064880470648004726
:1002C000FEE7FEE7FEE7FEE7FEE7FEE7FEE7FEE706
:1002D000FEE7FEE70D2210089902000840EA01033C
:1002E0009B0703D009E008C9121F08C0042AFAD2EC
:1002F00003E011F8013B00F8013B521EF9D27047B0
:10030000202A04DB203A21FA02F00021704721FA6A
:1003100002F3D040C2F120029140084319467047D1
:100320002DE9F0410646FFF059FF8046454613E0AF
:1003300016B1E068B0420ED120682860D4E901010E
:10034000D8F800708847204607F124FAD8F8000052
:10035000B842EBD100E025462C68002CE8D1BDE87E
:10036000F0812DE9F04D81EA030404F0004B21F007
:10037000004514464FF0000A23F0004150EA050200
:1003800020D054EA01021DD0C5F30A570246C5F336
:100390001303C1F31300C1F30A5640F4801543F46C
:1003A0008013A7EB0608101BD64608F2FD3873EB46
:1003B000050002D308F1010801E092185B41B8F191
:1003C000000F03DA00200146BDE8F08D00204FF455
:1003D0008011064684460EE0171B73EB050705D314
:1003E000121B63EB050306434CEA010C49084FEA74
:1003F000300092185B4150EA0107EDD152EA030048
:1004000012D082EA040083EA0501084305D0101BDC
:10041000AB4106D20122002306E000224FF0004348
:1004200002E06FF0010253101AEB06004CEB08518A
:1004300010EB0A0041EB0B01BDE8F04D00F116B8DE
:1004400030B5041E71F1000404DB4FF0004440425B
:1004500064EB0101141E73F1000405DB1C464FF030
:100460000043524263EB0403994208BF904230BDFF
:10047000064C074D06E0E06840F0010394E80700F1
:1004800098471034AC42F6D3FFF70AFF1C2101084D
:100490003C2101087047000070B53A4905460068E4
:1004A000884202D0384A904202D1D1F8080302E0D3
:1004B0003648D0F8080310F4403F11D001F116FA85
:1004C00004466868B0F5803F06D0B0F5003F03D021
:1004D000B0F5403F26D101E0000C17E0A40821E070
:1004E0004FF4002001F028F8044668688103890B66
:1004F00018D181140C2915D2DFE801F01406060684
:100500000606060B0D0F1113800C4000B4FBF0F42F
:1005100008E0240906E0640904E0A40902E0E40913
:1005200000E0240A00F098FD41F20301884208D857
:10053000174884422868816813D821F4807181604B
:1005400070BD14496008884204D82868816821F485
:100550004071F4E71049884206D82868816821F480
:10056000407141F48071EAE70C498842286881684B
:1005700004D821F4407141F40071E0E741F4407186
:10058000DDE7000000200240002102400060025828
:10059000002D3101105E5F0020BCBE0040787D015F
:1005A000214A30B5136823F0010313601F4A136812
:1005B000C3F30B140123A4F54065243D06D0126853
:1005C000C2F30B12A2F54064273C17D1184A1268F7
:1005D000A2B9184A14684FF08A45B5EB045F18D0E9
:1005E0001468C4F30B04A4F58065833D11D0126830
:1005F000C2F30B02A2F58064853C0AD00E4A9360D8
:100600009368002BFCD110601068884209D000204C
:1006100030BD0A4A13601368002BFCD1074A083A20
:10062000F1E7012030BD0000002000E000ED00E017
:10063000002004E00010005C00300240084C02582A
:10064000014800F003BB00008C020024426943F61D
:10065000FE739A4342EA4101416100207047000065
:100660007CB50E46154600210191020A8DF8050061
:10067000FF240D480223BA218DF8042001AA00941A
:1006800000F144FC10B109A008F084FA0648BB212F
:100690002B463246009400F1A7FB002802D003A0AD
:1006A00008F078FA7CBD0000F402002472656164F1
:1006B00020726567206572726F720D0A000000007B
:1006C0002DE9F84F4FF0000B0446E64E0D46CDF8ED
:1006D00000B05F4690F85000DFF88CA3012808D0E6
:1006E0004FF0010984F85090206801F12DFA18B1FB
:1006F0006BE10220BDE8F88F21682868CA6903030E
:1007000028D090FAA0F0B0FA80F000BF00F01F03EC
:1007100009FA03F00243CA61D5E900124FF00C0C4C
:1007200020681F23C1F384610CEA921C02F01F02AF
:10073000604493409140026B9A430A4302632068ED
:1007400001F102FA8046206802F0BFFA58EA000080
:1007500003D07FE0C0F38460D8E72068AA682968E6
:1007600001F1F6F9C1490968B9EB117F06D1216899
:100770006869C968C1F38201490008E02068C1685E
:10078000C906C1686869F5D501F0100149088840BB
:10079000296904292ED023682A6803EB810102F01D
:1007A000F8420B6E024303F0004010430866697E76
:1007B00020682A69012917D05FF0000100EB820050
:1007C000026E22F000420A430266297E20682A69EE
:1007D00001290CD00021036902F01F02914023F48B
:1007E000F0420A43026135E04FF00041E6E74FF482
:1007F0000061F0E720682978026E02F0F842B2EB5F
:10080000816F03D1016E21F00041016620682978D3
:10081000426E02F0F842B2EB816F03D1416E21F0DB
:100820000041416620682978826E02F0F842B2EBFE
:10083000816F03D1816E21F00041816620682978A3
:10084000C26E02F0F842B2EB816F03D1C16E21F0AB
:100850000041C1662068816811F0010F78D150F81D
:10086000C03F2A7BDFF808C2296802F018022CFA80
:1008700002FCC1F3130823EA08030CEA010C43EA63
:100880000C0303607B48E968814277D12868010343
:100890001BD090FAA0F1B1FA81F1491C01F01F01BF
:1008A00009294FEA003131D8002911D090FAA0F17E
:1008B000B1FA81F101F1010101F01F0109FA01F220
:1008C00009D100BFC0F3846109E0C0F38461E4E7AB
:1008D000C0F38461EEE790FAA0F1B1FA81F101F181
:1008E000010101F01F0142EA816102D1C0F384607D
:1008F00003E090FAA0F0B0FA80F000F1010000F0FF
:100900001F0000EB400041EA005133E000290ED007
:1009100090FAA0F1B1FA81F101F1010101F01F019A
:1009200009FA01F206D100BFC0F3846106E0C0F30A
:100930008461F1E790FAA0F1B1FA81F101F10101CE
:1009400001F01F0142EA816103D1C0F3846004E039
:1009500040E090FAA0F0B0FA80F0474A00F10100C0
:1009600000F01F0000EB400002EB005041EA0001E4
:1009700041F00071AA68206801F1EAF8D5F800C0DA
:10098000BCF1000F26DA3D4B20683D49DFF8F490BA
:10099000984201D0B04201D10A4600E04A4692682E
:1009A000984202F0E07201D0B04209D19D68D6F8B9
:1009B000088005F0010508F0010845EA080503E094
:1009C000DAF8085005F0010545B1606D012740F0E7
:1009D00020006065384684F850B08BE62A4DAC455F
:1009E0001BD1150219D45045F4D1984202D0B0421F
:1009F00000D049468B6842F4000023F0E0720243C5
:100A00008A60234921480968B1FBF0F0400000E00A
:100A1000401E00900028FBD1DCE71E4DAC450CD1F8
:100A2000D5010AD45045D5D1984202D0B04200D069
:100A300049468B6842F080700EE0174DAC45C9D135
:100A40005502C7D45045C5D1984202D0B04200D01B
:100A500049468B6842F4800023F0E07202438A60CA
:100A6000B8E7000000210240006002580010005C5E
:100A7000FFFF0F000000FF47000020FE00200240A3
:100A80000023024000630258000084CB400D0300A5
:100A900034000024000052C70000B8CF0068006C8A
:100AA0007047000010B586B0044614216846FFF078
:100AB0003EFB13492068884220D11248016841F06A
:100AC00020010160006800F0200005900D4808300A
:100AD000016841F00101016000680321002200F07B
:100AE0000100059080208DE807000748694600F066
:100AF00093F94FF00070014601F0BCFD06B010BD47
:100B000000210240D844025800000258F0B50126E6
:100B1000044600201E2301E05B1E05D303F01F07DF
:100B200006FA07F50D42F7D072B1082A0AD0102A4A
:100B300005D0182A01D1072B06D30120F0BD082BC0
:100B4000FBD201E0102BF8D22368596121688B6831
:100B500023F0180313438B60F0BD000008B5006854
:100B60000649884208D10648016841F40021016025
:100B7000006800F40020009008BD0000004C0258FE
:100B8000E0440258F0B590F86020012A22D0C1EB71
:100B9000C102012780F86070022380F8613000EB09
:100BA0008202284D138F168EB2F83CC0D46A1B0502
:100BB000283244EA064643EA4C530A2C46EA030626
:100BC0000AD0092C08D0137B46EA036349B10B2CE9
:100BD0001AD01DE00220F0BDD36803F07F433343F9
:100BE000F4E701684C6AAC431C434C62016813682B
:100BF0008B6151680A2901D009291BD1D16802688B
:100C000021F07F41916215E0118B0F4D43EA814342
:100C10000168CC69AC431C43CC61016813680B616B
:100C200051680A2901D0092904D1D168026821F04C
:100C30007F411162002180F8617080F860100846E1
:100C4000F0BD00000F0033FF0F003FFF2DE9F0471C
:100C50000446006800274FF004084FF00109466879
:100C60000568F10714D0E90512D5036823F48073F1
:100C70000360606E40F0010060662068C0F8089074
:100C800084F8618084F86070616A09B12046884701
:100C9000B00615D5A80413D520682022036823F4D4
:100CA0000053036020688260606E40F0020060665E
:100CB00084F8618084F86070616A09B120468847D1
:100CC000300715D5280513D520680822036823F4BA
:100CD0000063036020688260606E40F0040060661C
:100CE00084F8618084F86070616A09B120468847A1
:100CF00070070CD568050AD52068026822F4806266
:100D000002602068C0F80880204600F071F8B00743
:100D100013D5A80511D520680222036823F40073B7
:100D2000036020688260606E606684F8619084F879
:100D30006070216A09B120468847F00612D5E804A0
:100D400010D52068016821F48051016022681021CB
:100D50009160616E616684F86190204684F86070ED
:100D6000FFF08EFFBDE8F0872DE9F041040004D0CC
:100D700094F86100002518B107E00120BDE8F0817A
:100D8000204684F86050FFF07DFF184E022084F862
:100D900061000123D4E90010D4F81CC040F207120E
:100DA0000F6840EA0C003740384308602068A769A4
:100DB000A168466B39439643314341632068E2683A
:100DC000016C6FF30F01114301642068218AA28A2C
:100DD000466B090541EA425126F440121143416332
:100DE000656684F861300020C8E70000BFFFF8FFA7
:100DF0007047000070B50446FFF0C4FF0546601C54
:100E000002D0044800780444FFF0BCFF401BA0421D
:100E1000FAD370BD280000242DE9FC4F01257E4C3B
:100E200000234FF0030A4FF0B04E4FF00F0BEBE0F2
:100E300005FA03F637403A0077D04F68012F05D006
:100E4000022F03D0112F01D0122F1AD187684FEA39
:100E50004308D1F80CC00AFA08F927EA09070CFA86
:100E600008FC4CEA070CC0F808C0476891F804C0B9
:100E7000B743CCF3001C0CFA03FC4CEA070CC0F897
:100E800004C0C6684FEA430CD1F80880E1460AFA6C
:100E90000CF7BE43019708FA09F848EA0608C0F8BB
:100EA0000C804E68022E01D0122E12D1DE084FEABD
:100EB000437C00EB860600960F69366A4FEADC6CCD
:100EC0000BFA0CF807FA0CF726EA08063743009EDF
:100ED00037620E790768DDF804C006F0030606FAEB
:100EE00009F627EA0C073E4306604E68F6001CD55B
:100EF0004A4E376847F00207376036689F0706F0AA
:100F00000206009623F0030606F1B046B1463F0FF5
:100F1000D6F80864DFF808810BFA07FC404526EA9A
:100F20000C0603D14FF0000C41E06CE0DFF8F4C098
:100F3000604502D14FF0010C39E0DFF8ECC06045AC
:100F400002D14FF0020C32E0DFF8E0C0604502D180
:100F50004FF0030C2BE0DFF8D8C0604502D14FF012
:100F6000040C24E0DFF8CCC0604502D14FF0050C42
:100F70001DE0DFF8C4C0604502D14FF0060C16E05A
:100F8000DFF8B8C0604502D14FF0070C0FE0DFF882
:100F9000B0C0604502D14FF0080C08E0DFF8A4C0F3
:100FA000604502D14FF0090C01E04FF00A0C0CFA39
:100FB00007FC4CEA060CC9F808C426684F6826EA04
:100FC0000206FF0300D51643266066684F6826EACE
:100FD0000206BF0300D516436660D1F804C076460A
:100FE000DEF800705FEACC2C27EA020700D5174331
:100FF0003760D1F804C077685FEA8C2C27EA0207D3
:1010000000D5174377605B1C0A681746DA407FF407
:101010000FAFBDE8FC8F000080000058F444025878
:10102000000002580004025800080258000C025840
:10103000001002580014025800180258001C0258F0
:101040000020025800240258426931EA020200D10D
:10105000090481617047000001480068000C704776
:101060000010005C30B590F84120202A22D190F881
:101070004020012A1ED0012380F84030242280F82D
:101080004120202400250268136823F00103136027
:101090000268136823F4706343EA01211160016858
:1010A0000A6842F001020A6080F8414080F840502E
:1010B000002030BD022030BD70B5040004D094F88B
:1010C0004100002510B106E0012070BD204684F8E3
:1010D0004050FFF0ADFF242084F8410020680168F3
:1010E00021F001010160D4E9001020F07060086176
:1010F0002068816821F400418160E068216801284E
:10110000A06806D040F404408860E068022803D05C
:1011100006E040F40040F7E721684FF400604860C3
:1011200020212068114A4368134343602068C26845
:1011300022F40042C26054F8106B0DCC104340EA18
:101140000320F06054F81C3CD4E9000210431860FE
:1011500054F81C0D026842F001020260656484F8D4
:101160004110256384F84250002070BD00800002C9
:1011700070472DE9F0410446006800274FF004084D
:10118000856B466B690715D5710713D5426B22F045
:10119000040242632068C0F83C80D4F8A40040F008
:1011A0000100C4F8A40084F8A180204684F8A0704F
:1011B000FFF7DEFFA80716D5B00714D52068022276
:1011C000436B23F0020343632068C263D4F8A40096
:1011D00040F00200C4F8A40084F8A180204684F8FE
:1011E000A070FFF7C5FF05EA06004FF00108C00731
:1011F0000ED021684A6B22F001024A632168C1F8CF
:101200003C8084F8A180204684F8A07000F092F819
:10121000280710D530070ED520680822436B23F02D
:10122000080343632068C26384F8A180204684F8E1
:10123000A07000F13DF8BDE8F08100002DE9F0411B
:10124000040004D094F8A100002518B107E00120A3
:10125000BDE8F081204684F8A050FFF0C3FF344879
:10126000022184F8A110012202CC8B6923F0704383
:101270008B6194E84A001943E3681E4354F8043D27
:1012800031439E693143996121688B6803408B60CB
:101290002168A68AA7698B683B4343EA06438B60B3
:1012A0002168CB680340CB602168A38B276ACE6896
:1012B0003E4346EA0346CE6021680B6903400B615A
:1012C0002368A68CA76A1969394341EA0641196166
:1012D00021684B6903404B612068A38D266B4169EF
:1012E000314341EA03414161236894F8351094F891
:1012F0003600DE6A000406F07F46DE62236840EABC
:10130000012094F83460D96A31430143D9622068DE
:10131000416B41F0060141632068816941F00101A0
:101320008161C4F8A45084F8A120002090E7000057
:1013300000F800F0124910B5124A134C0B6C1188DA
:101340008B4212D1518800F021F8206890F8661085
:10135000491C80F8661001F163FC206802F118FF57
:10136000BDE81040002004F080BB00F00FF8002022
:1013700003F13AFB20680168C969BDE810400847DD
:10138000001000501C000024C801002470B590F823
:10139000A020012A18D00D4D012380F8A030022290
:1013A00080F8A120002450F8A02B566B26F00106EF
:1013B0005663296450F8A01C4A6B42F001024A634C
:1013C00043700470204670BD022070BD00100050B4
:1013D00010B500F18BFA05490968054AC1F30211FD
:1013E000515C01F01F01C84010BD000020440258AC
:1013F00048831008494930B5484C0B1D0A6814341D
:1014000009681D68246802F00303C5F30012C1F3E4
:101410000531C4F3CC04002914FB02F200EE102ABB
:10142000F8EE400A75D03F4A9FED3D1AB7EE000A2C
:101430006BB1DFED3D1A012B01D0022B64D002EE1F
:10144000101A1168F8EE422A81EEA22A21E0334CEC
:10145000283C23689B0612D5344B246801EE901A71
:101460001168C4F3C104F8EE612AE34001EE903A3A
:10147000C1F30801F8EE611A81EEA22A0BE001EE39
:10148000901ADFED2B2A00BFF8EE611A116882EE88
:10149000A12AC1F3080101EE901A1168F8EE611A51
:1014A00040EE811A71EE800A62EE200AC1F34621F5
:1014B00001EE101AB8EE411A31EE001AC0EE811A90
:1014C000BCEEE11A80ED001A1168C1F3064101EE8D
:1014D000101AB8EE411A31EE001AC0EE811ABCEEB5
:1014E000E11A80ED011A1168C1F3066101EE101ACC
:1014F000B8EE411A31EE000A80EE801ABCEEC10A45
:1015000080ED020A30BD04E001EE901ADFED092AF9
:10151000BAE70021016041608160F3E72844025886
:1015200000000039384402580024744A0090D00367
:101530000024744C20BCBE4B2DE9F0474FF480765C
:101540000146B0426F48DFF8B8818AB06E4B4FF069
:1015500080576E4DA8F104044FEA20124FF0005C52
:1015600029D1D8F8001001F0070105291FD2DFE8C2
:1015700001F0030A0F20140006A8FFF017FF0798D8
:101580000AB0BDE8F0876846FFF734FF0098F7E738
:1015900003A8FFF0ADFF0398F2E7216811F0405176
:1015A000EED0B94275D11046EAE71846E8E70020C8
:1015B000E6E72846E4E7B1F5007F19D0544EB1F5CF
:1015C000806F26D0B1F5006F37D04FF48059494570
:1015D0004FF4804A4BD1D8F8001001F4E041B1F546
:1015E000005FD5D03DDC0029C6D04945DFD1CAE730
:1015F000D8F8001001F4E0718029C9D004DC00297A
:10160000BAD04029D3D1BEE7C029D2D0B142CED181
:10161000C3E7316801F46001B1F5800FB8D005DC93
:101620000029A9D0B1F5001FC1D1ACE7B1F5C00FB9
:10163000BFD0B1F5000FBAD1AFE7316801F0E0617A
:10164000B1F1007FA4D005DC002995D0B1F1807FF5
:10165000ADD198E7B1F1407FABD0B1F1806FA6D1A9
:101660009BE7B1F5405FA4D05145A0D195E7B1F516
:10167000002F4FF480350DD0A9421DD1206810F401
:101680008030B1D0A84292D16846FFF7B3FE0298ED
:1016900076E70EE0316811F44031A8D0A94203D0BA
:1016A000B1F5003F83D178E703A8FFF021FF05984B
:1016B00066E761459AD178E7514597D1316801F0E5
:1016C000E041B1F1405FE3D009DC81B1B94211D012
:1016D00061458BD103A8FFF00BFF049850E7B1F1EF
:1016E000804F3FF460AFB1F1A04F8BD15DE7FFF7C2
:1016F0006FFE45E76846FFF77DFE019840E7000072
:10170000504402580090D00340787D010080BB0017
:10171000584402582DE9FC5F044650F8241B00256C
:1017200000902E460801FE4FDFF8F8831DD5606E4D
:1017300050B1B0F5801F0CD0B0F5001F0ED0B0F541
:10174000401F1DD001250FE0386840F4003038609C
:1017500016E00221201D01F0B9FB03E000980221F0
:1017600000F138FC05000BD02E462088C00523D59B
:10177000606D05281ED2DFE800F00C11161B1B005F
:10178000626ED8F8001021F440111143C8F800101F
:10179000EBE7386840F40030386009E00021201D94
:1017A00001F094FB03E00098002100F113FC0546D2
:1017B0006DB100E001252E462088800528D5A06D5A
:1017C00080281ED00CDC90B140280ED114E0626D50
:1017D000D8F8001021F007011143C8F80010EBE71A
:1017E000C02813D0B0F5807F10D001250FE03868F5
:1017F00040F40030386009E00021201D01F066FB54
:1018000003E00098002100F1E5FB054695B12E4666
:101810002088DFF81093400509F108092CD5D4F889
:10182000A400B0F5800F20D00DDCA0B1B0F5001FF2
:101830000FD115E0A26DD8F8001021F4E07111432A
:10184000C8F80010E4E7B0F5C00F13D0B0F5000FF2
:1018500010D001250FE0386840F40030386009E00E
:101860000021201D01F032FB03E00098002100F16F
:10187000B1FB054675B12E46208800052DD5D4F85C
:10188000A800B0F1007F21D00EDCA8B1B0F1807FBC
:1018900010D116E0D4F8A420D9F8001021F460018A
:1018A0001143C9F80010E7E7B0F1407F13D0B0F161
:1018B000806F10D001250FE0386840F400303860A8
:1018C00009E00021201D01F001FB03E00098002148
:1018D00000F180FB05466DB12E46206880011FD5C2
:1018E000A06CD8B110280FD0202812D0302815D0E5
:1018F000012514E0D4F8A820D9F8001021F0E06107
:101900001143C9F80010E8E7386840F40030386047
:1019100004E00221201D01F0D9FA05466DB12E46E2
:101920002088C0042BD5E06DB0F5005F20D00DDC21
:10193000A0B1B0F5805F0FD115E07A48A26C001F0E
:10194000016821F0300111430160E9E7B0F5405F23
:1019500013D0B0F5804F10D001250FE0386840F467
:101960000030386009E00021201D01F0AFFA03E0EB
:101970000098002100F12EFB054685B12E462088F7
:10198000800429D5206EB0F5403F23D010DC08B389
:10199000B0F5803F14D0B0F5003F0FD115E0E26DF7
:1019A000D8F8001021F4E0411143C8F80010E6E730
:1019B000B0F5802F0ED0B0F5A02F0BD001250AE096
:1019C0000121201D01F082FA03E00098012100F1BD
:1019D00001FB05468DB12E46208840042AD5D4F857
:1019E000AC00B0F1405F23D010DC08B3B0F1805FF1
:1019F00014D0B0F1005F0FD115E0226ED8F80010BE
:101A000021F4E0211143C8F80010E5E7B0F1804F60
:101A10000ED0B0F1A04F0BD001250AE00121201D0E
:101A200001F054FA03E00098012100F1D3FA0546D1
:101A30006DB12E46208800041FD5E06ED8B1B0F1FC
:101A4000805F0ED0B0F1005F10D0012514E0D4F813
:101A5000AC20D9F8001021F0E0411143C9F8001082
:101A6000E8E7386840F40030386004E00121201DC8
:101A700001F02CFA05466DB12E462068C0011ED536
:101A8000606CD0B101280ED0022811D0032814D0E8
:101A9000012513E0E26ED8F8001021F04051114307
:101AA000C8F80010E9E7386840F40030386004E016
:101AB0000221201D01F00AFA054685B12E46206854
:101AC000DFF85CB04002ABF11C0B57D5164801683B
:101AD00041F480710160FFF055F982460EE0114833
:101AE000626C001F016821F0030111430160E6E709
:101AF000FFF048F9A0EB0A0064283DD80A480068C6
:101B0000C005F5D57DBBDFF81CA0B4F8B0100AF114
:101B1000200ADAF8000001F4407100F4407005E09A
:101B20002C4402585044025800480258884211D0B0
:101B3000DAF80010DAF8002021F4407142F4803223
:101B4000CAF80020DAF8002022F48032CAF8002017
:101B5000CAF80010D4F8B000B0F5807F21D1FFF0B2
:101B600011F9019019E008E0FFF00CF90199411A10
:101B700041F28830814210D903252E462078DFF8C3
:101B800030A4C0073DD0A06F182838D026DC80B321
:101B9000082829D0102825D12CE0DAF80000800789
:101BA000E2D5D4F8B010C1F30120032858460DD077
:101BB000016821F47C510160B4F8B020DAF800101B
:101BC000C2F30B021143CAF80010D7E7F94A0368C1
:101BD00002EA111223F47C511143ECE720280ED0C5
:101BE00028280CD001250BE00121201D01F06EF901
:101BF00004E004E00098012100F1ECF905465DB134
:101C00002E46207880071ED5606F062819D2DFE89F
:101C100000F0160C11161616A26FDAF8001021F05B
:101C200038011143CAF80010EBE70121201D01F033
:101C30004DF903E00098012100F1CCF9054675B19A
:101C400000E001252E46207840071FD5D4F89000EB
:101C5000062819D2DFE800F0160C11161616626F6E
:101C6000DAF8001021F007011143CAF80010EAE782
:101C70000121201D01F02AF903E00098012100F163
:101C8000A9F905469DB100E001252E462078800681
:101C90002BD5D4F88C00B0F1405F24D011DC10B308
:101CA000B0F1805F15D0B0F1005F10D116E0D4F82C
:101CB0009020D9F8001021F007011143C9F8001055
:101CC000E4E7B0F1804F0ED0B0F1A04F0BD001256A
:101CD0000AE00021201D01F0F9F803E0009802213C
:101CE00000F178F905468DB12E46207840062BD5B7
:101CF000D4F89800B0F5406F24D011DC10B3B0F5E3
:101D0000806F15D0B0F5006F10D116E0D4F88C209C
:101D1000DAF8001021F0E0411143CAF80010E4E7BE
:101D2000B0F5805F0ED0B0F5A05F0BD001250AE0C2
:101D30000021201D01F0CAF803E00098022100F103
:101D400049F905468DB12E46207800062BD5D4F8EA
:101D50009C00B0F5C04F24D011DC10B3B0F5005F8B
:101D600015D0B0F5804F10D116E0D4F89820D9F8EE
:101D7000001021F4E0511143C9F80010E4E7B0F578
:101D8000004F0ED0B0F5204F0BD001250AE0002106
:101D9000201D01F09BF803E00098022100F11AF9E0
:101DA00005464DB12E46207800071ED5D4F8800098
:101DB000B0F5805F0AD00FE0D4F89C20D9F800106D
:101DC00021F460411143C9F80010ECE700980221AA
:101DD00000F100F900B10126D4F88020DAF80010F3
:101DE00021F440511143CAF800102078C00613D5E1
:101DF000D4F89400B0F5807F05D10098022100F15D
:101E0000E9F800B10126D4F89420D9F8001021F4A3
:101E100040711143C9F800102068000316D5D4F8AA
:101E2000A00038B1B0F5803F09D0B0F5003F0BD02D
:101E300001250AE00021201D01F048F803E0009888
:101E4000022100F1C7F8054685B12E4620684003FF
:101E500022D5D4F88400B0F5801F11D0B0F5001F52
:101E600013D0B0F5401F15D0012514E0D4F8A02000
:101E7000D9F8001021F440311143C9F80010E5E70A
:101E8000386840F40030386004E00098012100F127
:101E9000A1F8054655B12E462068C0031CD5E06C5C
:101EA00070B1B0F5803F10D0012514E0D4F8842043
:101EB000DAF8001021F440111143CAF80010EBE7E2
:101EC000386840F40030386004E00221201D00F042
:101ED000FDFF0546CDB12E462068800005D500984F
:101EE000022100F177F800B10126206880031BD59C
:101EF000E06FB8B1B0F5807F10D0B0F5007F11D0A1
:101F0000B0F5407F0ED001250DE02948E26C08387D
:101F1000016821F4803111430160DDE7386840F445
:101F200000303860F5B32E462068C00207D5226F16
:101F3000D8F8001021F000411143C8F800102068C3
:101F4000C00008D5D4F8B420DBF8001021F480419B
:101F50001143CBF800102068800207D5A26ED8F894
:101F6000001021F080711143C8F800102068400073
:101F70000CD5DBF8001021F40041CBF80010DBF8A1
:101F80000010D4F8B8201143CBF8001020680028C6
:101F900007DA0748226D0838016821F040511143E3
:101FA000016000E008E086B10120BDE8FC9F000070
:101FB00054440258CFFFFF00E26FDAF8001021F41A
:101FC00040711143CAF80010AEE70020EDE70000B1
:101FD00000B5FFF08BFC05490968054AC1F3021101
:101FE000515C01F01F01C84000BD00001C440258B4
:101FF00048831008454970B545480968434B103B74
:1020000011F0380208D00111082A03D0102A0BD091
:10201000182A0BD0084670BD19688906FBD51968C7
:10202000C1F3C101C84070BD3A4870BD3749374D52
:1020300018310C1D24350A68096826682D6802F0DD
:10204000030406F00102C1F30511C5F3CC0515FB2D
:1020500002F200EE102AB8EE400AE9B32F4ADFED93
:102060002E0AB7EE001A6CB1DFED2D1A012C01D04B
:10207000022C43D002EE101A1068F8EE422A81EECC
:10208000A22A1EE01C68A40611D51B6801EE901A56
:102090001168C3F3C103F8EE612AD84001EE900A3B
:1020A000C1F30800F8EE611A81EEA22A0BE001EEFE
:1020B000901ADFED1C2A00BFF8EE611A106882EE5C
:1020C000A12AC0F3080001EE900AF8EE611A40EE72
:1020D000201A31EE810A00E015E022EE000A1068B5
:1020E000C0F34620401C00EE900AF8EE600A80EE35
:1020F000201ABCEEC10A10EE100A70BD01EE901A53
:10210000DFED092AD8E7002070BD00001044025816
:102110000090D00340787D0100000039304402581F
:102120000024744A0024744C20BCBE4B2DE9F05F9F
:1021300004007CD0FF4F2078FE4D1837DFF8F49371
:10214000103DC00748D0D9F80000396800F03800C9
:10215000102815D0182803D101F0030002280FD051
:102160006068B0F5803F12D010B1B0F5A02F18D044
:10217000286820F480302860286820F4802009E056
:102180002868800328D560680028D2D024E0286819
:1021900040F480302860606888B1FEF0F3FD0646A8
:1021A00009E0286840F480202860F0E7FEF0EAFDAE
:1021B000801B64287ED828688003F7D50CE0FEF0E9
:1021C000E1FD064605E000BFFEF0DCFD801B642853
:1021D000F0D828688003F7D4207841F20308D54E60
:1021E0000C3E800753D5D9F80000396810F038004C
:1021F0000ED0182801D188070AD0E068A8B3296852
:1022000021F0190101432960FEF0BCFD82461BE06C
:102210002868400702D5E06800288AD0FEF71CFF36
:1022200040451BD82069402812D0316800E0CCE03E
:1022300021F47C3141EA0030306028E0FEF0A2FD5C
:10224000A0EB0A000228B5D828684007F6D5E5E7D4
:10225000306820F47C3040F40030EDE7207C3168B9
:1022600021F0FE4141EA0060E6E7FFE7286820F040
:1022700001002860FEF086FD824605E0FEF082FD4A
:10228000A0EB0A00022895D828684007F6D42078E9
:10229000C0065FD5D9F80000DFF898B2396800F0C1
:1022A0003800ABF1040B082812D0182805D101F032
:1022B000030000E0EAE001280AD0E069002828686D
:1022C00038D040F080002860FEF05CFD824623E0BC
:1022D0002868C00523D5E069802876D11FE0206AF0
:1022E000202821D0316821F0F84141EA8060306037
:1022F00030E000BF94F82010DBF8002022F07C5280
:1023000042EA0161CBF8001024E000BFFEF03AFD84
:10231000A0EB0A00022896D82868C005F6D5FEF77B
:102320009BFE4045E6D8DAE7306820F0F84040F000
:102330008040DCE720F080002860FEF023FD0646A8
:1023400005E000BFFEF01EFD801B02289BD8286818
:10235000C005F7D42078000729D576486169643034
:1023600000298046016811D041F001010160FEF0B2
:1023700009FD064605E000BFFEF004FD801B0228B3
:10238000C9D8D8F800008007F6D510E021F0010187
:102390000160FEF0F7FC064605E000BFFEF0F2FC2F
:1023A000801B022872D8D8F800008007F6D4207865
:1023B000800623D5A0690028286810D040F48050FA
:1023C0002860FEF0DFFC064605E02CE1FEF0DAFCBA
:1023D000801B02285AD828688004F7D50EE020F424
:1023E00080502860FEF0CEFC064604E0FEF0CAFCF9
:1023F000801B02284AD828688004F7D42078400738
:102400004FD5DFF83481D8F8001041F48071C8F856
:102410000010FEF0B7FC064605E000BFFEF0B2FC7F
:10242000801B642832D8D8F80000C005F6D5414E8C
:10243000A068603601280AD008B1052813D030689A
:1024400020F001003060306820F0040002E03068C5
:1024500040F001003060A06841F2883A90B1FEF08F
:1024600091FC80460AE0306840F004003060EEE7FE
:10247000FEF088FCA0EB0801514507D830688007C2
:10248000F6D50EE0FEF07EFC804607E084E000BF5B
:10249000FEF078FCA0EB080151457DD8306880073C
:1024A000F6D4606AF0B3DFF88C80D9F8001008F138
:1024B0002008C1F3C20103296FD00228286820F048
:1024C0008070286003D0FEF05DFC044680E0FEF0E2
:1024D00059FC064605E000BFFEF054FC801B0228B4
:1024E00073D828688001F7D4E26A40F2F331386883
:1024F00054F8283F884340EA021018433860217B93
:102500004FF4FE0C22894FF0FE47208A4902267DB7
:10251000521E401EA1F5007189B20CEA0040C2F3C0
:10252000080200E081E01143761E0143014807EAFA
:10253000066203E010440258004802581C30114360
:102540003B4AC8F80010016821F0010101601168E0
:102550004FF6F876236AB14341EAC301116001687E
:10256000A26921F00C01114301600168E26921F0C8
:10257000020111430160016841F48031016001688A
:1025800041F400310160016841F48021016001687B
:1025900041F00101016001E017E01DE0286840F012
:1025A00080702860FEF0EEFB044604E0FEF0EAFBDB
:1025B000001B022809D828688001F7D535E000BF44
:1025C000FEF0E0FB001B022802D90320BDE8F09FCB
:1025D00028688001F4D428E039680128D8F8000080
:1025E00021D0A26A01F0030393421CD1E26AC1F335
:1025F00005118A4217D1216BC0F30802491E8A4295
:1026000011D1616BC0F34622491E91420BD1A16BDF
:10261000C0F30642491E914205D1E16BC0F306604A
:10262000491E814201D00120D0E70020CEE7000002
:1026300034440258FEF044BB70B5044690F82C00B8
:102640000D46022804D0012803D0052801D001201E
:1026500070BD022084F82C002068FEF01EF8286867
:10266000022805D05FF0010084F82C00002070BD26
:102670000520F9E7024A136883430B431360704750
:1026800004040058704710B5040003D094F83D00CE
:1026900010B107E0012010BD002084F83C00204666
:1026A00000F022F8022084F83D002068211DFFF090
:1026B00025FE012084F8480084F83E0084F83F009D
:1026C00084F8400084F8410084F8420084F8430014
:1026D00084F8440084F8450084F8460084F84700F4
:1026E00084F83D00002010BD704770B504460068B6
:1026F00000250169C943890715D4C168C943890701
:1027000011D4EA1E026101212177206880698007C7
:10271000204602D0FFF090F904E000F0A7F8204630
:10272000FFF08BF9257720680169C943490717D461
:10273000C168C943490713D402216FF00402026142
:1027400021772068806910F4407F204602D0FFF096
:1027500073F904E000F08AF82046FFF06EF925775F
:1027600020680169C943090716D4C168C94309072C
:1027700012D404216FF00802026121772068C06939
:102780008007204602D0FFF057F904E000F06EF811
:102790002046FFF052F9257720680169C943C90630
:1027A00017D4C168C943C90613D408216FF01002B9
:1027B000026121772068C06910F4407F204602D072
:1027C000FFF03AF904E000F051F82046FFF035F947
:1027D000257720680169C943C90708D1C168C94381
:1027E000C90704D1891E01612046FFF027F920683E
:1027F0000169C943090609D4C168C943090605D45A
:102800006FF0800101612046FFF73CFF20680169FD
:10281000C943C90509D4C168C943090605D46FF481
:10282000807101612046FFF0E5F820680169C94325
:10283000490609D4C168C943490605D46FF040016F
:102840000161204600F013F820680169C943890638
:102850000BD4C168C943890607D46FF02001016118
:102860002046BDE87040FFF0C6B870BD70477047A5
:1028700030B590F87C10012918D0012280F87C2016
:102880002421C0F880100022202450F8601B0B681F
:102890000D6823F0005325F001050D60426050F8EB
:1028A000601C0B6004620277104630BD022030BD10
:1028B00070B5044690F87C0001281DD0012284F8F0
:1028C0007C202420C4F8800020680568026822F07B
:1028D000010202602068826822F060420A4382603E
:1028E000204600F067FC2268202100201560C4F813
:1028F000801084F87C0070BD022070BD10B504000B
:1029000003D0D4F8800010B107E0012010BD0020F2
:1029100084F87C00204600F027F82420C4F88000CA
:102920002068016821F0010101602046FFF0ACFD44
:102930000128EBD0A06A10B12046FFF041FD2068CD
:10294000416821F4904141602068816821F02A01AA
:1029500081602068016841F0010101602046BDE806
:10296000104000F059BC00002DE9F04186B0064649
:1029700014216846FDF0DBFB324800253268022452
:10298000314B08382F490826DFF8C0809A4228D1F9
:102990000A6842F480120A60096801F48011059106
:1029A000016841F004010160016801F00401059132
:1029B000016841F0080101600068694600F0080004
:1029C000059098148DE831002148CDE90356FEF7B3
:1029D00023FA042069468DE83100CDE903564046CC
:1029E0002BE01C4B9A422AD10A6842F400320A605A
:1029F000096801F400310591016841F008010160A6
:102A0000016801F008010591016841F001010160D0
:102A100000680727694600F00100059020208DE836
:102A20003100CDE903574046FEF7F6F900966946B6
:102A3000CDE901450848CDE90357FEF7EDF906B0A9
:102A4000BDE8F081E844025800500040000C0258F4
:102A50000008025800440040000002582DE9F843E5
:102A60000446D0F880001F4616460D46202852D155
:102A7000DDB1D6B194F87C0001284CD0012084F857
:102A80007C0021224FF00008C4F88880C4F8802020
:102A90001834FEF077F9814654F8100CA687E687C3
:102AA000183CB0F5805F03D004E00120BDE8F88356
:102AB000206920B12E46002584F87C8010E0002695
:102AC000FAE78021204600F0D7FBB8B9C6B116F866
:102AD000010B21688862B4F85600401EA4F8560025
:102AE000B4F856004B464FF0000200970028E8D19A
:102AF0004FF04001204600F0BFFB38B10320D5E77E
:102B000035F8020B2168C0F30800E3E72020C4F881
:102B100080000020CAE70220C8E7FEE72DE9F04167
:102B20000446006890460E468069C043C00635D40E
:102B30000025202720688069C043800616D5701CB8
:102B4000F8D0FEF01FF9A0EB0800B04201D8002E2B
:102B5000F0D1606C84F8405040F02000606484F84C
:102B6000417084F842500120BDE8F08121681020B6
:102B7000C8612068C7612046FEF090FF20680849C0
:102B800042680A404260606C40F00400606484F86F
:102B9000417084F8425084F84050E4E70020E3E7B5
:102BA00000E800FE70B50068C1F30901074E41EA74
:102BB0000241049C4FF480654268194305EA54556C
:102BC0003543AA4321430A43426070BDFF63FF03BC
:102BD0002DE9F0411D4617460E460446DDF81880E3
:102BE00008E0681C06D0FEF0CDF8A0EB0800A84273
:102BF0000BD855B12068806936EA000013D0002058
:102C0000B842EED00020BDE8F081626C002084F86C
:102C10004000202142F02002626484F8411084F8D0
:102C200042000120EFE70120EAE770B516460D46A5
:102C300004460DE0324629462046FFF76FFF08B1F3
:102C4000012070BDFEF09EF8801BA84207D835B168
:102C500020688069C0438006ECD4002070BD626C9F
:102C6000002084F84000202142F02002626484F8B1
:102C7000411084F84200E3E770B516460D4604465D
:102C80000FE0324629462046FFF748FF08B10120F1
:102C900070BD681C05D0FEF075F8801BA84207D8EF
:102CA00035B120688069C0438007EAD4002070BD38
:102CB000626C002084F84000202142F0200262640F
:102CC00084F8411084F84200E1E78068C0F3C00056
:102CD0007047C06810F4406F01D000207047012099
:102CE000704700000148FEF744BA0000400300248A
:102CF00030B587B01C216846FDF019FA1848002449
:102D0000164A04250121C0E900248460C0E9034576
:102D1000047544758161047744628462C46204630B
:102D2000446380F83840FDF04BFD08B172B6FEE711
:102D30000C48062140F2FF7203928DE81300084808
:102D40006946CDE904548DF81940FDF7B9FC002817
:102D500001D072B6FEE707B030BD0000002102408E
:102D60000402002402003004104801220E4B00210E
:102D700010B50360C0E90112C1608161C161C0E9A1
:102D80001112C164016541658165C165FDF7ECFF04
:102D900008B172B6FEE705480121FDF7F3FE0028F1
:102DA00001D072B6FEE710BD001000528C02002464
:102DB000F0B587B01C216846FDF0B9F91648012628
:102DC0000022144D02214FF0100C082705604FF42B
:102DD000C075C0E90126C76040248E02C0F810C04B
:102DE0000F03C0E90545C0E9072607230424C0E90D
:102DF00009278DE81A0003250393CDE904510691B4
:102E00006946FEF0B7FD002801D072B6FEE707B0B4
:102E1000F0BD00004041005200050024F0B58DB027
:102E200034216846FDF083F925480024234A2E21E9
:102E300000F11C0E40F24E334FF4FC7640F2763730
:102E400002601822446040F2022C84600125C460B4
:102E500004618EE8CE10C0E9054580F8344080F862
:102E6000354080F83640FEF7E9F908B172B6FEE762
:102E70004FF4487004954FF4F071FF22CDE9004003
:102E8000CDE90241CDE9052405260994CDE90A01E1
:102E90004FF480630A48CDE907368DF830400022B0
:102EA0008DF8314069468DF83240FEF071F9002806
:102EB00001D072B6FEE70DB0F0BD0000001000506A
:102EC0004003002406F0D4BCFEE700002DE9F047E3
:102ED000454D044689464FF0000A2868C0438007E4
:102EE0000AD0414E283E306820F080603060FDF00E
:102EF00049FF0746B04608E00120BDE8F08700BF63
:102F0000FDF040FFC01B022867D8D8F80000000180
:102F1000F6D4206829684FF4FE0721F47C313E0284
:102F200041EA00302860207AA389B4F804C0400246
:102F30002D4D2D495B1E227CACF1010C1035091D75
:102F4000A0F5007080B2521ECCF3080C07EA0343D0
:102F500040EA0C00184306EA026210432860086841
:102F6000626920F0C000104308600A68A06922F07E
:102F7000200202430A60281D0A6822F010020A603B
:102F800002684FF6F873E4699A4342EAC4020260A9
:102F90000868B9F1000F40F010020A6011D008680B
:102FA000B9F1010F11D040F400100860D8F800000A
:102FB000444640F08060C8F80000FDF0E3FE05469E
:102FC0000DE0086840F40020EFE740F48010ECE7E3
:102FD000FDF0D8FE401B022801D903208DE72068B0
:102FE0000001F5D5504688E7284402582DE9F843FA
:102FF0001C4C102600274FF6FF7901251A484A4637
:103000002146C4E90056C4E90257FFF715FB1748EB
:103010000090401E0090FCD102211348C4E9001624
:103020001049B846C4E902574A46FFF705FB042792
:103030000D4803214A4684E8C2010A49FFF7FCFA19
:1030400040F2312007494A46C4E902500648C4E923
:103050000076FFF7F1FABDE8F84303484FF44E71EC
:10306000FEF0B0BCF401002400050024A08601009D
:10307000FFF728FF012004F123FCFBE7502010B5E7
:1030800080F31188BFF34F8FBFF36F8F06F0E6FF19
:1030900018B104494FF080500860002080F3118877
:1030A00010BD000004ED00E02DE9F041CCB04C2152
:1030B0002FA8FDF03CF8202142A8FDF038F8BC21F3
:1030C0006846FDF034F80220FEF046F93548002449
:1030D0003549026842F44042026002680A6842F0E0
:1030E00001020A60096801F001014A91016889043E
:1030F000FCD52E4802250168012308264FF0C008A0
:103100001F0421F00301891C016005203895CDE9D9
:103110003950CDE93B853D952FA83E95CDE93F64DB
:103120004194CDE92F37FFF701F808B172B6FEE7F9
:103130004020449403270201CDE945603F21CDE9B9
:103140004702CDE942170421499042A8FEF072FAE5
:1031500008B172B6FEE70C22154B009307A8202198
:10316000CDE901520395332204951923CDE9055881
:10317000CDE90A2580E892004FF440661194CDE92C
:103180000E6420946846CDE90C5310941D94289445
:10319000FEF7C0FA002801D072B6FEE74CB0BDE8D9
:1031A000F0810000184802582C04005828440258A6
:1031B0000A0008213FB514A1D1E9002314A1CDE9EB
:1031C0000023D1E90021CDE90221416EB9B10168A6
:1031D00002AC8A688968C2F34262490F1DF8015047
:1031E000615C2D01B5FBF1F1A0F86A101DF8021029
:1031F000A25C0901B1FBF2F1A0F868103FBD01210A
:10320000A0F86A10F8E700000101010307010000BF
:103210000804020408010101F8B500260446C0F8BC
:103220008860FDF0AFFD054620686FF07E470068BE
:10323000000708D500222B464FF4001120460097C6
:1032400000F01AF860B92068006840070AD500222B
:103250002B464FF480012046009700F00DF808B18E
:103260000320F8BD2020C4F8800084F87C60C4F8F6
:1032700084000020F8BD00002DE9F0479A4617466B
:103280000E460446089D4FF000094FF0200839E033
:10329000681C37D0FDF076FDA0EB0A00A84222D8CA
:1032A0000DB32068016849072CD5C069C0430005EB
:1032B00028D423684FF40061196221680B6823F455
:1032C000D0730B6021688B6823F001038B60C4F816
:1032D0008080C4F88480C4F8888000BF032084F80C
:1032E0007C90BDE8F08721680B6823F4D0730B60F5
:1032F00021688B6823F001038B60C4F88080C4F8D8
:103300008480EBE72068C06936EA000004D0002022
:10331000B842BDD00020E4E70120F9E700280DDB2A
:10332000410900F01F028900012001F1E0219040D5
:10333000C1F88001BFF34F8FBFF36F8F704700005C
:10334000024800684068016849690847C8010024CC
:103350000E49002070B50860BFF34F8F081F43F679
:10336000FF7300680A4DC0F34E31C0F3C90203EA8F
:103370004114104644EA80762E60401EFAD2491E5F
:10338000F5D2BFF34F8FBFF36F8F70BD84ED00E0B8
:1033900074EF00E00E4808B5016841F010010160CB
:1033A000006800F01000009009485838016841F0AA
:1033B00010010160016821F0100101600649054813
:1033C00008624FF080600549C1F8000108BD0000A7
:1033D000D4440258413300088C02002408E000E085
:1033E00040F2EF30704700002DE9F0470C46497F6E
:1033F000074600F0FCF8A17F0646384600F0F7F8D3
:10340000A17F05463846FFF071FADFF85481024685
:10341000608BA18A534FDFF85091401AC8F84000E2
:10342000608BA18A401AC8F81800208BA18A401A24
:10343000C8F81000C8F8342060694FEA3040C8F876
:1034400044002069C8F83C006068C8F80C00206897
:10345000802827D006DC042870D020286ED0402891
:1034600006D16BE0B0F5807F0ED0B0F5007F0ED0B6
:10347000207F46EA006040F40030C8F81C00607FFE
:10348000A17F884258D166E0207F384902E0374961
:10349000207F491E01EB0060C8F81C00E068C8F8F6
:1034A000200052E0217FA06846EA016141F400312A
:1034B000C8F81C10C8F82450011D2269C8F814204F
:1034C000C8F82C106FF0FF0203784FF610714FF020
:1034D000010513F0FF0303D0012B09D0AFF30080E7
:1034E0004388D8F81C00884302EB032108430CE012
:1034F000237FFF2B00D100254388D8F81C00884388
:1035000002EB0321084340F01000C8F81C00D8F873
:103510001C0040F02000C8F81C0001E000F0C2FBD5
:10352000D8F81C008006F9D41020C8F808001DB196
:10353000C8F80070BDE8F08748460EE0207F46EAF4
:10354000006040F40030C8F81C00C8F8245020691E
:10355000C8F81400ECE740F20120C8F80000E9E7E1
:103560000010005201020200010201000A000200E4
:1035700070B50C46897FFFF0B9F917494863626955
:103580004FEA32424A642269CA63628BA38AD21A22
:103590000A642268082A07D00022C8610A610F4A1B
:1035A000E06888630A6070BD638BA58A0C4A5B1B68
:1035B0008B61638BA58A5B1B0B614862207F02EBEA
:1035C0000060C861E0680862064822694A612269B1
:1035D000CA60086070BD00000010005201020300C4
:1035E00009000100010202000168896A0847002001
:1035F0000C2910B50DD2DFE801F00806070C0C0C01
:103600000C0A0A0A0A0A012010BD022010BD05207A
:1036100010BDAFF30080000010B500F10C01416057
:10362000002202720B46427207496022016000F1DB
:103630002001184600F120FC0449602320221430A8
:1036400003F177FF203810BD90A40008154C100836
:10365000064A054901604FF08061C2F88011BFF34E
:103660004F8FBFF36F8F704790A4000808E000E011
:1036700000F06CBAFFF0D6B9FFF0E6B970477047BA
:103680002DE9F04F91B001F155FBE9490025C563E3
:1036900040F8401B00F1C8FC2C3000F1C5FC2C3078
:1036A00000F1C2FCE34900F5BE72C562016064210D
:1036B0000586343001F02CFDDF49016000F53670DD
:1036C00001F01CFA383000F119FCDC4904460160B5
:1036D000294605754575857501F0D7F904F118007F
:1036E00000F1F6FBD64940F8441B00F1A9F9D54991
:1036F00040F8501B00F1A4F9D34940F8501B01F1E8
:103700001BFC00F1FC0426212046FCF010FD2046A5
:1037100002F030FF8562012180F82C504FF6FF72D5
:1037200080F82410C9490160FF21C28502864286C3
:10373000828680F83610C64980F8375080F83850B5
:10374000C44EC0E90F51A0F8485000F140014C3080
:10375000D6E9002304F1AEFDA0F10C011030D6E94A
:10376000022304F1A7FD0561A0F5C664456104F5D7
:10377000C967D6E90402B849C7E9001442F6E06116
:10378000C7E9020204F5CB6001F0AEFB00224FF462
:10379000487A114604F1400053464FF4F0788146D0
:1037A000CDF8008003F076FA00224E46114610460E
:1037B00002F0BEF90022B06204F16C0053461146DB
:1037C000CDF80080804603F065FA9822464699209D
:1037D000114602F0ADF940F2BF2BB06204F198003F
:1037E0005B46182206460F214FF4D47ACDF800A08C
:1037F00003F050FAFF221146104602F099F9002218
:10380000B0621146104602F093F9F06201200146C1
:10381000308604F1CC00029001F01CFD0298642275
:10382000002101F0D7FC029818220F215B46CDF849
:1038300000A003F02FFA16200090029813231C22F8
:103840000A2101F029FA4FF0060B029800235A468C
:103850000221CDF800B001F067FA0298B4220021ED
:1038600001F0DCFC04F57D700121824601F02FFBA4
:10387000C5229721142002F05BF90146504600F161
:10388000C7FB1421504601F085FB0121504600F191
:103890001BFB0298514601F0C6F9012104F587602F
:1038A000009001F014FB0098142101F006F9DFF8F4
:1038B000ACA10122009803A9CDF80CA0ADF810200E
:1038C00000F1B9F800221146104602F031F9014624
:1038D000009800F19DFB0099029800F1E8F90121A0
:1038E00004F59160009001F0F2FA0098142101F0C3
:1038F000E4F8009803A9CDF80CA0ADF8105000F141
:103900009AF800221146104602F012F9014600987A
:1039100000F17EFB0099029800F1B8F9012104F54D
:103920006970009001F0D3FAC5229721142002F0AB
:10393000FFF8014604F57770824601F0A6F800987A
:103940005146FFF0F6FC0098022101F0D3F80099EF
:10395000029801F068F94FF4367A8822514604F54E
:103960009B60059001F150FF0420ADF83000052068
:10397000ADF8280005980CAB0BAAADF82CB00AA93D
:1039800001F120FA7D2000230322CDE900500598A3
:10399000072102F09DFD0598FA22142102F028FD6E
:1039A0000598B42101F1B8FA04F2D4505146182216
:1039B000C4F8D075074601F127FF0221ADF82410A5
:1039C0000321ADF8285009A8ADF82C100121ADF85D
:1039D00030100AAB00900BAA38460CA9FFF066FC29
:1039E00000213846FFF084FC4946204687F83850CD
:1039F00001F19CF94146204601F198F931462046F3
:103A000001F194F90299204601F190F905992046B7
:103A100001F18CF93946204601F188F904F214606D
:103A2000394606F08EFC11B02046BDE8F08F00004C
:103A3000ACA500083C86100880A8000894A70008E0
:103A40008888100890851008B4A60008A48410087F
:103A50003087100868831008888E1008D4AE0008DC
:103A60000D4910B5016000F2146004F1D9FBA0F516
:103A70009E710A4AA0F5C6700A6001F02BF8503812
:103A800001F028F8A0F55B7000F1C4F9BDE8104022
:103A9000CC3802F02DB80000ACA5000864AB0008DB
:103AA0007047C068FFF074B8704700000048704766
:103AB000F4A300080720704710B50446D0F854015D
:103AC000FFF014F82046BDE81040FFF0E5B8000014
:103AD00010B5FEF0C7FF0149016010BDE483100876
:103AE0007CB514460D46684605F028FCBDF800007C
:103AF000002806D0BDF802002860BDF80400206050
:103B000001207CBD03480068C00301D5FFF720BC3D
:103B10007047000014ED00E070B5044601F0D3FBDF
:103B2000FFF0AAF801462068C26D20469047206841
:103B300000234FF04041044AD0F880502046AC4664
:103B4000BDE8704060470000009411C05A2010B5D5
:103B5000FEF073FEBDE810405820FEF06EBE00007F
:103B600010B501F0CDFB04480068C00303D5BDE8E3
:103B70001040FFF7EDBB10BD14ED00E009480A4905
:103B8000C268C2F30A02521E92B20A800369C3F3EA
:103B90000A035B1E4B800264416B41F001014163EB
:103BA00070470000001000501C000024054A00F57A
:103BB000A071D2E90032CA60C1E90103C0F83C112A
:103BC000704700005883100808B5D0F85411054B11
:103BD000009100F59C71D0F85021034804F16CFA73
:103BE00008BD00005C010024580100240021016090
:103BF000704710B50446FFF742FD2068D4F8081559
:103C0000C26A2046BDE81040104770B504460D4614
:103C1000CC300A460021064601F000FB304604F095
:103C2000BCFE04F59160C72D064604F57D7404DDE5
:103C3000322100F042FF32210AE0642D04DD14211C
:103C400000F03BFF142103E00A2100F036FF0A21B7
:103C5000204601F09FF9304602F13EFC2046BDE8C7
:103C6000704002F139BC00F54050A0F8381570479B
:103C700030B5044C039D04600171C280038145810D
:103C800030BD00008CA600080148006805F04CBC5F
:103C90002000002402480021006805F06DBC0000EF
:103CA0002000002405F09CBC90F84430002B01D18A
:103CB00001F1F6BA704710B5FEF0DEFF0168096B3E
:103CC000BDE8104008474160704770472DE9F74F45
:103CD00084B0814605A804F0CAFC00287ED109F111
:103CE000A805B9F8E8400AE0A0B205EBC00105A8B4
:103CF00004F0C9FC18B1A1B2284604F1A0FA641E70
:103D0000F2D5B9F8E8604FF0000AD046761E66D4C6
:103D1000B0B205A905EBC004204603F1D4F9002890
:103D20007AD0BDF91400B4F90010884232DB05A83E
:103D300004F098FC0746204604F094FC874229DCF6
:103D4000BDF91600B4F90210884212DB204603F1D7
:103D5000B5F9BDF91620BDF81A10801A00B2091A7B
:103D600009B2ADF81A10002938DD1044ADF816007C
:103D70004DE005A803F1A2F90746204603F19EF99C
:103D8000874207DC6088BDF81610401A00B2ADF813
:103D90001A003AE0BDF91600B4F90210884239DB86
:103DA00005A803F18BF90746204603F187F98742FE
:103DB00030DCBDF91400B4F90010884215DB204650
:103DC00004F050FCBDF91420BDF81810801A00B2A0
:103DD000091A09B2ADF81810002901E080E098E056
:103DE0007EDD1044ADF8140011E005A804F03AFCA3
:103DF0000746204604F036FC87420BDC2088BDF8DD
:103E00001410401A00B2ADF81800002868DD4FF019
:103E1000010801E04FF0010A761E7FF579AFB8F195
:103E2000000F7FF46EAFBAF1000F72D0B9F8E860FE
:103E30004FF00008761E6CD4B0B205A905EBC004A3
:103E4000204603F140F958B3BDF91400B4F900104D
:103E5000884226DC05A804F005FC0746204604F04D
:103E600001FC87421DDBBDF91600B4F9021088423F
:103E700005A808DC03F122F96188401A0144618039
:103E8000E188081A0BE003F119F90746204603F10F
:103E900015F9874205DBBDF816006188401AE080FD
:103EA0002FE0BDF91600B4F90210884227DC05A8FE
:103EB00003F104F90746204603F100F987421EDBAF
:103EC000BDF91400B4F90010884205A809DC04F01B
:103ED000C9FB2188401A01442180A188081A0CE0FE
:103EE00070E104F0BFFB0746204604F0BBFB8742AD
:103EF00005DBBDF814002188401AA08001E04FF0D6
:103F00000108761E98D5B8F1000F8ED0B9F8E86098
:103F10004CE14EE1B0B205EBC00405A8214604F027
:103F2000B2FB18B1B1B2284604F189F905A92046BF
:103F300003F1C9F80028EBD0BDF91400B4F9001062
:103F40008842BDF91600B4F902107DDD884233DDE8
:103F5000BDF816006188401A21880FFA80F8BDF874
:103F60001400401A06B205A804F07CFB0746204660
:103F700004F078FB391A05A801FB08FA03F19EF852
:103F80000746204603F19AF8381A7043504508DC7A
:103F9000A4F806802088ADF81400BDF8180030445D
:103FA000D4E0A680BDF81A1001EB0800ADF81A00A5
:103FB0006088ADF8160094E605A804F053FB0746A8
:103FC000204604F04FFB21888742BDF81400A0EB87
:103FD00001000FFA80F8204625DD03F16FF8064650
:103FE00005A803F16BF8301ABDF9161006B2B4F942
:103FF0000200411A05A801FB08FA04F033FB07464A
:10400000204604F02FFB381A7043824508DC05A8CF
:1040100003F154F86080E6802088ADF8140091E048
:10402000A4F804805EE004F01DFB074605A804F038
:1040300019FB381A07B2B9F8E80007280EDAD4F8E5
:1040400000B0D4F804A000E01CE005A804F00AFBCE
:1040500052462080A78068F30F02A3E0B8450EDC2B
:10406000BDF818102088ADF8140001EB0800ADF879
:10407000180005A804F0F6FA2080A78031E6A4F81D
:10408000048026E0884231DA204604F0EBFA064646
:1040900005A804F0E7FA301A07B2204603F10EF83B
:1040A000064605A803F10AF8301ABDF9161006B243
:1040B000B4F90200BDF91420411AB4F90000801AC5
:1040C00079437043814208DC05A8E68002F1F6FFDF
:1040D0006080BDF81800384438E005A8A78004F0D7
:1040E000C1FA2080BDF81A00304484E005A804F02D
:1040F000B9FA0746204604F0B5FA874233DA20467B
:1041000004F0B0FA064605A804F0ACFA301A61884B
:104110000FFA80F8BDF81600401ABDF9141006B267
:10412000B4F90000411A05A801FB06FA02F1C6FF26
:104130000746204602F1C2FF381A00FB08F050453E
:1041400007DCE680BDF8181001EB0800ADF8180098
:10415000C7E505A804F086FA2080A4F804806088EA
:10416000ADF81600BEE7BDF816006188401A0FFAD8
:1041700080F8204602F1A2FF074605A802F19EFF43
:10418000381A07B2B9F8E80007281EDAD4F800B0E8
:1041900005A8D4F804A0E78002F190FF52466080A1
:1041A00068F31F425946284604F15CF8761E7FF5F5
:1041B000B1AEB9F8E860082E20D2DDE90512284634
:1041C00004F150F807B0BDE8F08FB8450EDCBDF83B
:1041D0001A106088ADF8160001EB0800ADF81A005F
:1041E00005A802F16BFF6080E7807AE5A4F80680FD
:1041F000BDF81A003844ADF81A0072E500274FF0F8
:10420000FF3A761E6FF0004B42D4B0B2741E05EB3D
:10421000C008B8F80410B8F8060011FB00F00290CE
:104220002EE0002C03DBA0B205EBC00100E005A9E5
:104230008888CA8810FB02F00390D8F8002000920A
:10424000D8F804000190684600F1CFFBBDF80400E7
:10425000BDF8061010FB01F1DDE902201044CA1779
:10426000081A01EB5271B0EBE10F02DA3746A246B1
:104270000BE0584503DA3746A24630B18346641E48
:10428000B4F1FF3FCDDA761EBFD5BAF1000F06DAE2
:10429000B8B205EBC00105A800F1A7FB12E01FFAB8
:1042A0008AF005EBC004B8B2214605EBC000064613
:1042B00000F19BFB059820600698606031680591CD
:1042C00070680690B9B2284603F1B9FF09E500000D
:1042D00003484068002802D00268D269104770473E
:1042E0005401002403484068002802D00268126A82
:1042F00010477047540100247047000070B506460F
:10430000194886B00C4600221146008800B2009081
:104310001648008803B203A800F1B2FB024621460A
:1043200001A804F0EFF90199114D2160029A626031
:104330006868002805D096F8343123B13046FFF77D
:10434000C5FC06B070BD01688A682146904728699F
:1043500018B101688A6821469047064800680168DC
:104360008A6921469047ECE7C0010024BE01002481
:1043700054010024C8010024F8B517490025016044
:10438000A0F88450A83003F17DFF423003F17AFF9A
:104390000023009542301A46194600F171FB057260
:1043A000A0F5967445720D490D48FCF7F9F800B177
:1043B00001200C4E08B1358006E04FF4806030805B
:1043C0000220706001F0DAFEF56020467560B5608D
:1043D000FEF042FF2046F8BD60841008CDB5E8B578
:1043E000C2A507F45401002470B590F82C5004467F
:1043F00008790E4628B1002084F82C0018B125B1A8
:1044000009E00120F8E7002D19D020684169204615
:104410008847002D13D03079012810D194F8380046
:10442000002894F8370002D080F0010102E0002853
:1044300005D101212046BDE87040FEF059BF70BD96
:1044400030B5044C039D04600171C2800381458135
:1044500030BD0000A0A600082DE9F04F04468846B4
:104460003C3091B0834603F117F800287ED05846BF
:1044700003F13CF8050079D0204604F05DF8814650
:104480002068816E204688470646484602F162FA57
:10449000704301F0D1FA002868D0204602F192F969
:1044A0000246E06C08B102F18DF9002A06DD98FBA6
:1044B000F2F15143414501D1012100E000210028E2
:1044C00006DD98FBF0F34343434501D1012300E0AF
:1044D0000023104350EA080001D099436BD04846AE
:1044E00003F082FF82464946204604F020F8064643
:1044F000D9F800004146D0F8B42048469047074616
:104500004946204602F1B9FBB4F84810B4F84620F9
:1045100007FB0063CDE900211422204603A9CDF852
:1045200008A002F1EFF894F84400E0B3022845D067
:10453000584602F1EDFF0146286803AA436A28465F
:1045400098470646584602F1E3FF0146286803AA49
:10455000836A284698470746584602F1D9FF014624
:10456000286803AA036C2846984700E023E007FB6D
:10457000006085B2484603F000FF064642464946C1
:10458000204603F095FF0F900FA804F0EEF9618923
:104590003044A0EB5500ADF834000022ADF83620D1
:1045A000ADF8385000E009E0ADF83A100DA92068E8
:1045B00002692046904711B0BDE8F08F584602F1DD
:1045C000A7FF0146286803AA83692846984705463D
:1045D000D0E7012101727047704770B51C460B4649
:1045E000A1F5C06605460498B6F5407F216805D25E
:1045F0000A4601462846FFF065F813E0A2F560631D
:104600007F2B05D80A4601462846FEF026FF09E022
:1046100095F8590038B1A2F51060023803D1284648
:1046200000F0A3F82060206810B104F097FA18B1E8
:10463000002085F8590070BD0120FAE72DE9F04708
:1046400000F112050C460021DDF8208017E0561A13
:10465000B5F806C0761E34F8027BB6B2B44501D870
:10466000AFF30080B5F804C06644B6B2022E00D3A2
:10467000B61E35F81660BE4211D1491C89B291426E
:10468000E5D3002600F11A0903EB08070CE034F823
:10469000025B3146484605F01CFEA84202D00020CD
:1046A000BDE8F087761CB6B2B742F0D80120F7E734
:1046B00070B50546C06B58B305F11A00044603F106
:1046C000E1FC28B32846FEF0D8FFE08A012812D981
:1046D000A08A401C80B20A2800D30A3840F63F1650
:1046E000214634F81000B04212D1084603F1CAFC4A
:1046F000E18A012901D8AFF30080A18A491C89B25F
:104700000A2900D3002124F81100A08A24F810609F
:104710002846BDE87040FEF045BE2DE9F84F1E4624
:1047200015460C4607461A30DDE90A9803F1AAFC43
:10473000824621463846FFF7BBFF040012D02868A6
:1047400043464A462146D0F808C02846E047306034
:1047500033462246514638460095FFF73EFF204635
:10476000BDE8F88F00203060F9E770B5044669B104
:1047700004F144000E220546FBF7B0FD284604F084
:10478000E6F9404284F84D00284670BD084670BDE9
:104790002DE9F05F8A469B465245164600F11A0401
:1047A000804624D9A6EB0A001FFA80F900271CE0F6
:1047B000E18A08F13205204631B3491E89B2C1822F
:1047C00005F087FD0146E888401C02281CD8E880D7
:1047D000A888012801D2801CA880A888401E80B229
:1047E000A8807F1CBFB225F810104F45E0D351467A
:1047F000204603F150FC15E0761EE08AB6B2401C5C
:104800000A283BF8161001D9AFF30080E082A08A95
:10481000012801D20A30A082A08A401E80B2A08264
:1048200024F81010002EE7D14046BDE8F05FFEF0FE
:10483000D1BE70B5002505604560044685600E2137
:10484000C560057412308580C58004F14400E5859B
:104850002586E5862587E5632564FBF068FCA4F8DA
:1048600052500120A4F85450A4F8565084F858002F
:10487000204684F85950FFF04FF8204670BD0000E4
:1048800070B50D460446606801684A689047002884
:10489000F9D10D4E30680168496F8847FFF7FAF982
:1048A00030680121FFF097FC606801688A6829463A
:1048B00090472068C16A2046884730680168096FC0
:1048C000BDE8704008470000C801002470474068F8
:1048D00001680968084710B504464068016809681E
:1048E000884738B9207A28B16068016849698847E3
:1048F00000202072606801680968884718B1BDE827
:104900001040FEF0ABB92068416A2046BDE8104077
:10491000084710B5FEF09AF9BDE81040FFF7B4B9AA
:1049200070B5044601202072606801688969884773
:1049300005460068402832D00CDC04281CD004DC7A
:1049400001282CD0022815D122E008281AD02028CE
:1049500010D124E0B0F5007F21D005DC80281ED0E6
:10496000B0F5807F06D11AE0B0F5806F17D0B0F5B2
:10497000006F0DD0AFF300802068297F826B204646
:10498000904710E02068297F826B2046904703E023
:104990002068C16B204688472068426B05E020688C
:1049A000C16B204688472068026B29462046BDE837
:1049B000704010472DE9F04705461A44DDE9090724
:1049C00002EB4202541800EB400000EB0409287A85
:1049D000FF282CD017F8010B297A10FB01F001F009
:1049E0002BF8A97D0646C0F1FF08207811FB06F2DE
:1049F00010FB082080B201F01FF82070697D6078FC
:104A000011FB06F210FB082080B201F015F860706F
:104A1000297DA07811FB06F210FB082080B201F07E
:104A20000BF8A070E41C4C45D4D3BDE8F08717F810
:104A3000016BFF2E23D0A97DC6F1FF08207811FB62
:104A400006F210FB082080B200F0F6FF2070697DAE
:104A5000607811FB06F210FB082080B200F0ECFF3A
:104A60006070297DA07811FB06F210FB082080B24F
:104A700000F0E2FFA070E41C4C45D8D3D5E7A87D38
:104A80002070687D6070287DF4E70A0C02750A0AC0
:104A900042758175704710B50446806A00280BD0B6
:104AA0000168C9688847002806D0A06A01688A683A
:104AB0002146BDE81040104710BD10B50446084619
:104AC00003F1B4FB216B484303F1B0FBA06310BDBD
:104AD000704700000149016070470000F8A7000816
:104AE00030B5DDE90345416002720C3080E83800E2
:104AF00030BD704780F834107047000010B500F0EA
:104B0000E9F903490160022180F8341010BD00006A
:104B1000B08610082DE9FC411B4C0546D5E9006024
:104B2000A16969B3A06801EBD17101AF00EB61002D
:104B3000CDE90070A3692A68E169206800F026F8D1
:104B400000970646A3696A68216A606800F01EF84B
:104B50000644D4E9051000EBD07001EB6000CDE90C
:104B60000070A3692A68616AE06800F00FF8009796
:104B70008046A3696A68A16A206900F007F840448A
:104B8000C5E90060BDE8FC818C4F00242DE9FE479B
:104B90005FEA00081D4617468A460B9C4FF0010647
:104BA0004FF0FF3005D52168C8F10008064649429C
:104BB0002160002F04DA2168574276424942216081
:104BC000002D4FF0010901DA5D4281463846FEF0C2
:104BD000DDFF03463A4602A85146CDE90050404663
:104BE000FEF0EEFF21684E45029A114491FBF5F26A
:104BF000104491FBF5F205FB1211216000D04042F8
:104C0000002E03DAC1F10001216005E003DD002977
:104C100007DA294403E004DA002902DD491B216098
:104C2000401EBDE8FE8738B504460D46343002F01C
:104C30008BFEB4F93E000022B4F93C3011460090DE
:104C4000284602F027F838BD3EB5044648890D468F
:104C500002AA218F401A01B22068D0F8B030204655
:104C60009847002817D02879002814D1D4F82401B7
:104C7000002810D00168C968884700280BD0BDF80B
:104C800008006A46ADF800000195D4F824010168D7
:104C90008B68214698473EBD2DE9F843044640897C
:104CA0000F461E46089D904632442944401A2189E9
:104CB00000B20090891A3A460BB2414604F1340022
:104CC00001F0E8FFB4F90830002204F1B800114601
:104CD000009701F0DFFFB4F90A00002243461146B5
:104CE000009004F1600001F0D5FF21890022B4F9A1
:104CF0000A003346891B009009B204F18C0001F0D0
:104D0000C9FF60890021B4F90830401B009502B248
:104D100004F1E40001F0BEFF2046BDE8F843FFF0D7
:104D200003B8343003F039BE10B5029CA0F810115E
:104D3000A0F81221A0F81431A0F8164110BD70B5EA
:104D40000D46B0F91A11A94209DDC46D05E02068CD
:104D50002946426F20469047A469002CF7D170BDC8
:104D600070B5D0F8E0400D46064605E020682946BB
:104D7000426F20469047A469002CF7D1D6F80C4129
:104D800005E020682946426F20469047A469002C20
:104D9000F7D170BD70B506460068D0F89010304667
:104DA000884704463068D0F8941030468847A042BF
:104DB000054608DA20B22C46054604E021B230460A
:104DC000FFF7CEFF641CAC42F8DD70BD0021A0F8F7
:104DD0001A117047C02230B41152EC221152B0F8AF
:104DE00094309022CB1A1352B0F86830B0F8944047
:104DF0002344CB1A8387018130BCFEF095BF0000AD
:104E0000F8B50E4601F136FB22490125C562016065
:104E1000FF2180F83010343001F12CFB2C3001F1EF
:104E200029FB2C3001F126FB2C3001F123FB2C3027
:104E300001F120FB00278785C785A0F1E4040786E0
:104E4000A0F1B00147868686C7860787C7630764D7
:104E5000204602F079FD04F1B801204602F074FD0D
:104E600004F16001204602F06FFD04F18C01204640
:104E700002F06AFD04F1E401204602F065FD002322
:104E800020461A4619460097FFF706FF204684F889
:104E90002450F8BD6487100870474168006901EB31
:104EA00040107047D0E90321891A002901DC80688D
:104EB0000144012901DC0120704700207047D0E93E
:104EC0000310814201D10120704700207047016327
:104ED0007047000010B5FEF02FFA02490160012171
:104EE000016310BDC8A90008014AC2E9000170476A
:104EF0009401002401488068704700009401002458
:104F00001D4B70B519469A680968904209D1DA6854
:104F10008A4206D1D869102801D3012070BD002033
:104F200070BD5A68C3E90201824223D310F0030422
:104F300003D0C4F10404121B2144121A0144196164
:104F4000401C20F00100824214D310F00305C5F18B
:104F5000040401D0121B2144121A824201445961F7
:104F600008D30DB1121B21440144101A1028C3E9C3
:104F70000610D2D2AFF30080940100240148C0682B
:104F80007047000094010024014800697047000048
:104F90009401002410B50446084603F147F9216B3B
:104FA000484303F143F9A06310BD012070472DE988
:104FB000F04F85B004461344DDE90E6003EB430374
:104FC000DDF840805D1800EB400000EB050BB4F904
:104FD00004001044E060B4F9060030442061206809
:104FE000C1682046884700284CD004A8009020685B
:104FF00003AB01AA02A906692046B047D0B3207AC4
:105000009DF8101010FB01F000F016FD98F800104C
:1050100010FB01F000F010FDFF28064635D09DF88A
:105020000C10C6F1FF07287895F8019011FB06F1E6
:1050300095F802A010FB071080B200F0FDFC009074
:105040009DF8040010FB06F019FB070080B200F089
:10505000F3FC81469DF8080010FB06F01AFB0700E0
:1050600080B200F0E9FC024620684B4646692946BA
:105070002046B047E068ED1C08F10108401CE060E4
:105080005D45B2D305B0BDE8F08F9DF80C000090EF
:1050900020689DF804309DF808204669E7E710B5C0
:1050A0000446B0F91A01B4F9181188420CDB204605
:1050B000FFF770FE2068D0F8A810204688472046E9
:1050C000BDE81040FFF72DBE10BD2DE9F041B0F94D
:1050D0001A510F460446C5B100262946681CA4F89B
:1050E0001A012068D0F8102120469047D4F82811E2
:1050F00041F8207016B12046FFF74CFE29462046A5
:10510000FFF71DFE2846BDE8F0810126E5E7000017
:1051100010B500F0B3F80149016010BD1089100806
:1051200008491CB500240A8807490988ADF80040E1
:10513000ADF80420ADF80240ADF80610694600F065
:1051400005F81CBDBE010024C001002410B50446B2
:105150000A48007800280FD001280DD12088A288A5
:1051600010440A46401E2080A11C204600F008F88A
:10517000A088E188A180E08010BD0000B801002473
:10518000074B10B51B78002B08D0012B06D10388E4
:105190000C8804809088C01A401E088010BD000052
:1051A000B8010024094910B5097800290DD001295A
:1051B0000BD1074C4388C188028824880B44E31A2A
:1051C0000380428082888180C28010BDB8010024A3
:1051D000BE01002410B59142044601D1AFF3008016
:1051E0008A4202DA084611460246D4F8380188425B
:1051F00003D1D4F83C0190420FD0C4E94E1204F11F
:10520000B80003F0CAFB04F1340003F0C6FB04F15C
:10521000E400BDE8104003F0C0BB10BDC36A5A43B0
:1052200059430368D3F8B830184770B5044600688E
:105230000D46D0F8082120469047D4F82C01294685
:10524000401CC4F82C012068D0F80C212046BDE891
:105250007040104770B5C56A0446C162D0F8341179
:105260002A4603F080F8C4F834012A46D4F83011F5
:10527000204603F078F8C4F8300170BD70B51646CA
:105280000D46FFF7BDFD04460D48002320600120B8
:10529000C4E94A63002DC4E94C30C4F83831C4F87D
:1052A0003C31C4F84031C4F8443101DCAFF3008034
:1052B0006A1E20460021FFF78DFF204670BD0000CA
:1052C000348A1008704710B50446FDF091FC606800
:1052D0000168C9688847E06801688968884720686C
:1052E000C16E2046BDE81040084710B50446FEF0E8
:1052F0004FFF2068D0F8A0102046BDE810400847B6
:10530000012180F84B1080F8691070474FF6FF704C
:10531000704781651C3001F031BD012280F87410A6
:1053200080F875207047000010B529B13C3080E846
:105330000E001AB1012002E0AFF300800020044902
:1053400008700BB1012000E000200249087010BD78
:10535000B9010024BA0100240448016891F87600DC
:1053600010B1C86C002800D188687047C8010024BB
:1053700010B586B0044603A8CDE90312FFF7CAFBB7
:10538000039802A9ADF804000498ADF8080001A83C
:10539000FEF0F8FD94F86B1004F11C000029BDF834
:1053A000081016D089B20091BDF804108BB2B4F881
:1053B00060108AB2B4F85C1089B201F09FFC00283A
:1053C00005D0BDF90400E065BDF90800206606B00F
:1053D00010BD8BB2BDF804108AB2002100F146FA6C
:1053E000012084F86B00ECE710B5044690F86B00E0
:1053F00000280DD0B4F86000012183B2B4F85C003D
:1054000082B204F11C0000F131FA002084F86B0034
:1054100010BD2DE9FF4F8BB0064602A8DDF878805D
:10542000DDE91F47DDE91C59DDE919BAFFF0F2FBA0
:105430000B2C08D0022C08D0FF2D02D3B9F1000F9D
:1054400042D0042009E0802007E0FF2D02D3B9F10B
:10545000000F01D0402000E0202002900C98039023
:105460000D980490ADF81CB0ADF81EA01B98ADF8D7
:10547000200030468DF82450FEF0C4FE189A0346F2
:105480000E993046CDE9008703F0D6F88DF8254017
:10549000BBF1000F0690ADF822808DF8267009D080
:1054A000BAF1000F06D03068416B30468847029948
:1054B000084201D1AFF30080706801684A6802A910
:1054C00090470FB0BDE8F08F0120C6E72DE9F04707
:1054D0008AB08A460DF1480EDDE918419EE8E013D6
:1054E0000DF1040ECDE90741294600938EE8C21361
:1054F0000168134600228C6B5146A0470AB0BDE8F4
:10550000F08700002DE9F04786B004460EA89846C3
:1055100091468A4690E8E000FFF71EFF0168496A5D
:105520008847084943464A464989CDE903108DE832
:10553000E00020685146456D2046A84706B0BDE80A
:10554000F0870000B80100242DE9FF4F8BB0894699
:10555000054602A8DDF860B0DDE91B64DDE919A7A6
:10556000FFF058FBFF2F01D2082000E002204FF08F
:105570000008CDE902082846FEF044FECDE90064AB
:10558000DDE90D120346284603F056F88DF8247025
:10559000ADF81CB0ADF820808DF825400690ADF830
:1055A0001EA0ADF82260CDF814908DF82640286832
:1055B000416B284688470299084201D1AFF3008029
:1055C000686801684A6802A990470FB0BDE8F08F8B
:1055D00010B50446406801688968884794F86900F6
:1055E000002802D0012084F86A0010BDF0B52F4FCA
:1055F0000024DDE9056580C080E81E00046100F13B
:10560000180144610122048344838483C483048495
:10561000448484848C7334318462848580F830407F
:1056200044638463C463046480F8444080F8452084
:1056300080F8464080F8474084640C804C808C8021
:10564000CC8044658465C46580F8602080F8614042
:1056500080F8624080F8632080F8644080F86540FC
:1056600080F8664080F8674080F86840C46680F83B
:10567000704080F8714080F8724080F8732080F8A4
:105680007420001F0B4AAE42094910600A4A0E807E
:105690000A4915800C700A490E800A490D8001D212
:1056A000012100E0002180F83410F0BD688C100862
:1056B000BE010024C8010024C0010024B801002458
:1056C000C2010024C40100240FB41CB50AA91A4663
:1056D00001910999089B009105A900F036F81CBCBE
:1056E0005DF814FB2DE9FF4F00269B4681B09246E2
:1056F00089463446B046354621E0002000902046D9
:1057000000F0A7F900B9A04601986B464A465946F1
:10571000FDF090FF040014D00A2C12D0009868B15C
:10572000848803F01BFA0746D9F80000009A414626
:10573000C36B484698473844304486B26D1C554583
:10574000DBDB05B03046BDE8F08F2DE9FF4FD9B067
:105750001C468946DDE966A55FEA0A0071D020682B
:1057600000286ED0A07B00286BD01068569050683F
:10577000002257901146B9F90600009035A8B9F9F2
:105780000430FFF07DF9A27935A956A8FEF0ACFEF1
:1057900035A9A2790846FEF0A7FE07A8FFF749F849
:1057A00020680168896C8847064620680168496C52
:1057B000884703462A4607A8AB4651460096FDF0A7
:1057C000E1FD207900B10120804620680168096B65
:1057D0008847B4F90C100D18002D03DDBDF95A21CE
:1057E000824201DA002602E0501890FBF5F61EA86E
:1057F000FFF71FF8207C78B120680168896C884722
:10580000074620680168496C884703465A461EA827
:1058100051460097FDF0B6FD217C2068BDF8D820E8
:10582000CDE9000163791EA94EA800F0B6F8207CEE
:1058300028BB39E0BDF9DA00B0EB450F02DA0121EF
:1058400001E099E000214EA8FEF0BDFFBDF84A71CD
:1058500003E0617907A8FEF72BFF7F1EBFB2F8D2E5
:10586000BDF8D600761E2844ADF8D600BDF8DA00A3
:10587000401BADF8DA00BDF8380100287CD0002EBE
:10588000D8DC13E007A8FDF08DFD002874D00A28AD
:105890000AD1BDF8D6002844ADF8D600BDF8DA002C
:1058A000401BADF8DA00761E002EEBDC00270DF56C
:1058B000AC7B0DF11C0A207C002650B1BDF9DA004A
:1058C000B0EB450F01DA012100E000214EA8FEF007
:1058D0007AFFB8F1000F25D05C2207A937A8FAF7A4
:1058E000FDFC207C10B1BDF8520106E021680023C8
:1058F00037A847F6FF72FFF7F5FE217900B20129BC
:1059000002D0022907D00EE0BDF9D810081A00EB2A
:10591000D070401004E0E27BBDF8D8101044081AA3
:1059200006B200E0E67BBDF8D4003044ADF860017B
:10593000207C10B1BDF84A0101E047F6FF709DF8E8
:1059400056114A46CDE9050158A9CDE9001B02A927
:1059500081E89004BDF9D63000215998FEF016FE7A
:10596000002817D1BDF8D6002844ADF8D600BDF800
:10597000DA00401B00B200E00CE0ADF8DA00217C58
:1059800009B1A84206DB56A801F198FBBDF9D61073
:10599000884290DA5DB0BDE8F08F70B50446002013
:1059A000DDE904562080616023726672E560228220
:1059B0006082A082E08220836083A083A077286831
:1059C000416928468847050019D0E0680168CA681F
:1059D00029469047064603F0C1F8A083607A042860
:1059E0000DD1E06832460168CB6B294698470546E1
:1059F000304603F0B3F8A18B28440844A083204626
:105A000070BD70B514460D462BB1012B07D0022B8B
:105A100009D0032B0BD0B0F90200104470BDB0F9CF
:105A20000200084470BD01F149FB001B02E001F1D6
:105A300045FB401B401E70BD00EB1020401CC0F316
:105A40000720704710B5029C018042808380C4808B
:105A500010BDA0F57E41FF3905D0A0F500510B39EE
:105A600001D00020704701207047704770472DE932
:105A7000F0418846044601F126FB88B3B4F9005092
:105A8000B8F90000854200DC0546B4F90260B8F9B7
:105A90000200864200DC0646204602F0E3FD07468F
:105AA000404602F0DFFD874201DA204600E0404632
:105AB00002F0D8FD401BA080204601F1FFFA074606
:105AC000404601F1FBFA874201DA204600E04046F9
:105AD00001F1F4FA801BE08025806680BDE8F0814A
