:020000040800F2
:10000000008E002479030008951510085B12100873
:10001000E125000823011008092A0008000000005B
:10002000000000000000000000000000B90200080D
:10003000790500080000000015030008A527000846
:100040009303000893030008930300089303000838
:100050009303000893030008930300089303000828
:100060009303000893030008930300089303000818
:100070009303000893030008930300089303000808
:1000800093030008930300089303000893030008F8
:1000900093030008930300089303000893030008E8
:1000A00093030008930300089303000893030008D8
:1000B00093030008930300089303000893030008C8
:1000C00093030008930300089303000893030008B8
:1000D00093030008930300089303000893030008A8
:1000E0009303000893030008000000009303000836
:1000F0009303000893030008930300089303000888
:1001000025011008930300089303000893030008D7
:10011000930300089303000893030008C117100815
:100120009303000893030008930300089303000857
:100130009303000893030008930300089303000847
:1001400000000000000000000000000000000000AF
:100150009303000893030008930300089303000827
:100160009303000893030008930300089303000817
:100170009303000893030008930300089303000807
:1001800093030008930300089303000893030008F7
:1001900093030008930300089303000893030008E7
:1001A00005230008930300086D0500089303000869
:1001B00093030008930300089303000893030008C7
:1001C00093030008930300089303000893030008B7
:1001D00093030008930300089303000893030008A7
:1001E0009303000893030008930300089303000897
:1001F0009303000893030008930300089303000887
:100200009303000893030008930300089303000876
:100210009303000893030008930300089303000866
:1002200093030008930300089303000800000000F4
:1002300093030008930300080000000093030008E4
:100240009303000893030008930300089303000836
:100250009303000893030008930300089303000826
:100260009303000893030008930300089303000816
:1002700093030008930300089303000800000000A4
:100280009303000893030008930300080000000094
:100290000000000093030008DFF818D000F0D8F841
:1002A000FFF004FF0048004711681008AFF300801A
:1002B00000F0ADF8008E00242C4B19680868B0E8F7
:1002C000F04F80F30988BFF36F8F4FF0000080F389
:1002D000118870470000000008480068006880F33B
:1002E00008884FF0000080F3148862B661B6BFF34F
:1002F0004F8FBFF36F8F00DF00BF00BF08ED00E03E
:10030000DFF80C00016841F470010160704700BF24
:1003100088ED00E0EFF30980BFF36F8F134B1A688D
:100320001EF0100F08BF20ED108A20E9F04F10607A
:1003300009B44FF0500080F31188BFF34F8FBFF323
:100340006F8F06F129FE4FF0000080F3118809BC81
:1003500019680868B0E8F04F1EF0100F08BFB0EC45
:10036000108A80F30988BFF36F8F7047380000242C
:10037000EFF30580704700000648804706480047B5
:10038000FEE7FEE7FEE7FEE7FEE7FEE7FEE7FEE745
:10039000FEE7FEE7C12800089902000840EA0103D1
:1003A0009B0703D009E008C9121F08C0042AFAD22B
:1003B00003E011F8013B00F8013B521EF9D27047EF
:1003C0002DE9F041074615460E46102008F0C0FC06
:1003D00004000AD06760C4E90265FFF09DFE016871
:1003E000216004600020BDE8F0810120FBE7202AA5
:1003F00004DB203A00FA02F1002070479140C2F17C
:10040000200320FA03F319439040704770472DE909
:10041000F0410646FFF080FE8046454613E016B1E7
:10042000E068B0420ED120682860D4E90101D8F814
:1004300000708847204608F0F5FBD8F80000B84265
:10044000EBD100E025462C68002CE8D1BDE8F08116
:10045000064C074D06E0E06840F0010394E8070011
:1004600098471034AC42F6D3FFF71AFFD0160108B4
:10047000F016010870B58C1810F8015B15F0070331
:1004800001D110F8013B2A1106D110F8012B03E02D
:1004900010F8016B01F8016B5B1EF9D12B0705D435
:1004A0000023521E0DD401F8013BFAE710F8013B7E
:1004B000CB1A921C03E013F8015B01F8015B521E9A
:1004C000F9D5A142D8D3002070BD0000214A30B533
:1004D000136823F0010313601F4A1368C3F30B145E
:1004E0000123A4F54065243D06D01268C2F30B1227
:1004F000A2F54064273C17D1184A1268A2B9184ADD
:1005000014684FF08A45B5EB045F18D01468C4F343
:100510000B04A4F58065833D11D01268C2F30B0271
:10052000A2F58064853C0AD00E4A93609368002B44
:10053000FCD110601068884209D0002030BD0A4A02
:1005400013601368002BFCD1074A083AF1E7012039
:1005500030BD0000002000E000ED00E0002004E0DD
:100560000010005C00300240084C02580148FFF0C7
:100570008BBF00002C020024704700007CB50E46A3
:10058000154600210191020A8DF80500FF240D484F
:100590000223BA218DF8042001AA009400F0C2F8C9
:1005A00010B109A008F026FA0648BB212B463246B6
:1005B000009400F105FA002802D003A008F01AFA0E
:1005C0007CBD00009402002472656164207265673E
:1005D000206572726F720D0A000000007047000003
:1005E00070B5044600F06CF80546601C02D0044863
:1005F0000078044400F064F8401BA042FAD370BDB8
:1006000024000024F0B587B014216846FFF043FDB4
:100610002148016800293DD1012101601F4801687E
:1006200041F480510160006802240025694600F40D
:100630008050059003264FF683700C278DE8F1005B
:10064000174800F113F848F2371069468DE8F100B9
:10065000144800F10BF84CF2037069468DE8F10084
:10066000114800F103F84FF63F0069468DE8F100AC
:100670000E48FFF0FBFF0D2069468DE8F1000C48A5
:10068000FFF0F4FF00220521302000F1E3FA3020D2
:1006900000F0A3FA07B0F0BD04000024D4440258CF
:1006A0000010025800180258000C0258001402589A
:1006B000000802580AB1816170470904FBE7000095
:1006C00001488068704700002400002430B590F88D
:1006D0004120202A24D190F84020012A20D0012353
:1006E00080F84030242280F8412020230024026832
:1006F000156825F0010515600268156825F4805518
:100700001560026815680D43156001680A6842F0BB
:1007100001020A6080F8413080F84040002030BD7E
:10072000022030BD2DE9F84F044690F841001F46E5
:100730009046DDF828A08B4620287ED194F8400012
:1007400001287AD0012084F84000FFF7B9FF012288
:10075000064619230090D103204600F1A7FDE0BB17
:100760000025212184F84110102084F8420065649E
:100770006785618DFF2732484FF00079C4F82480E7
:10078000FF294FF08078656303D927853A460090AA
:1007900039E0618D218500903AE05946204600F10C
:1007A0006FFD13E001F085FDB8B9606A216800783B
:1007B0008862606A401C6062608D401E6085208D8A
:1007C000401E80B22085618D01B168B1608D3246D6
:1007D000514600282046E5D100E002E001F042FD4C
:1007E000D0B10120BDE8F88F002253468021204679
:1007F000009600F15BFD0028F3D1608DFF2804D93D
:1008000027853A4600954346C7E7608D20850095C9
:100810004B4694F82820C0E720682021094AC1618E
:10082000206843681340436084F8411084F84250C4
:10083000002084F84050D5E7FFE70220D2E700000F
:100840000020008000E800FE10B586B004461421A8
:100850006846FFF020FC1349206888421FD11248E7
:10086000016841F08001016000680423302100F03C
:10087000800005900020009112226946CDE90120F8
:10088000CDE903030948FFF0F1FE0748083001688D
:1008900041F480010160006800F48000059006B01A
:1008A00010BD000000580040E0440258001C0258EF
:1008B0000248816802781144816070472400002456
:1008C000032010B500F096F901F010F80F4A104916
:1008D00014681368C4F3032203F00F038A5CC95C35
:1008E00002F01F0201F01F01D0400A4A20FA01F174
:1008F000116009490860002000F010F808B10120DB
:1009000010BD00F195F9002010BD000018440258F8
:1009100068791008340000243000002410B5102835
:1009200004468AB02CD200220146372000F192F909
:10093000372000F052F9174804601748016841F069
:1009400020010160006809A900F0200008906846B5
:1009500000F154FA0598B0B100F1A0FA40000F4937
:1009600000220F4CB0FBF1F10E4840F2E733046077
:10097000C0E90332491EC0E9011201F031FB28B180
:1009800001200AB010BD00F189FAE8E7054800F13E
:10099000B3FAF6E728000024E844025840420F006A
:1009A000001400409C0600242DE9F0410446006834
:1009B00000274FF00408856B466B690715D5710752
:1009C00013D5426B22F0040242632068C0F83C80D9
:1009D000D4F8A40040F00100C4F8A40084F8A18079
:1009E000204684F8A07000F1A6F8A80716D5B00735
:1009F00014D520680222436B23F00203436320686E
:100A0000C263D4F8A40040F00200C4F8A40084F843
:100A1000A180204684F8A07000F18DF805EA060058
:100A20004FF00108C0070ED021684A6B22F0010286
:100A30004A632168C1F83C8084F8A180204684F88C
:100A4000A07000F015F8280710D530070ED52068E3
:100A50000822436B23F0080343632068C26384F8D1
:100A6000A180204684F8A07000F0B6F8BDE8F081BF
:100A7000124910B5124A134C0B6C11888B4212D1DB
:100A8000518800F087F8206890F86610491C80F8BB
:100A9000661002F081FC206802F1AAFABDE810405D
:100AA000002002F1ECBD00F075F8002004F0E4FF36
:100AB00020680168C969BDE810400847001000506F
:100AC00018000024C401002470B586B00446142127
:100AD0006846FFF0E0FA2A49206888424DD129484B
:100AE000016841F008010160006800F0080005900D
:100AF0002448001F016841F480610160016801F42D
:100B000080610591016841F400710160016801F4A0
:100B100000710591016841F4807101600068002452
:100B20000E26694600F480700590FF200090022593
:100B30001548CDE90154CDE90346FFF097FD4FF686
:100B4000FF700090CDE9015410486946CDE9034695
:100B5000FFF08CFD4FF470400090CDE901540C483B
:100B60006946CDE90346FFF081FD002205215820AA
:100B700000F170F8582000F030F806B070BD0000A9
:100B800000100050E4440258002802580024025883
:100B90000020025870B590F8A020012A18D00D4D01
:100BA000012380F8A030022280F8A120002450F810
:100BB000A02B566B26F001065663296450F8A01C42
:100BC0004A6B42F001024A6343700470204670BDD4
:100BD000022070BD001000507047002809DB410959
:100BE00000F01F028900012001F1E0219040C1F8CE
:100BF00000017047064900F0070210B54FF6FF04E8
:100C00000868044B204040EA02201843086010BDE9
:100C10000CED00E00000FA05134970B50A68D243F4
:100C2000520705D5096801F00701814213D118E088
:100C30000A6822F0070202430A60FFF741FD0A4DED
:100C40004FF47A760446083D07E000BFFFF738FD11
:100C5000001BB04201D9012070BD2868C043800448
:100C6000F4D4002070BD00000C480258494930B54A
:100C7000484C0B1D0A681C3409681D68246802F082
:100C80000303C5F30022C1F30551C4F3CC040029CA
:100C900014FB02F200EE102AF8EE400A75D03F4A2B
:100CA0009FED3D1AB7EE000A6BB1DFED3D1A012B47
:100CB00001D0022B64D002EE101A1168F8EE422A1D
:100CC00081EEA22A21E0334C283C23689B0612D5F2
:100CD000344B246801EE901A1168C4F3C104F8EE95
:100CE000612AE34001EE903AC1F30801F8EE611A7F
:100CF00081EEA22A0BE001EE901ADFED2B2A00BF55
:100D0000F8EE611A116882EEA12AC1F3080101EE22
:100D1000901A1168F8EE611A40EE811A71EE800A9D
:100D200062EE200AC1F3462101EE101AB8EE411A14
:100D300031EE001AC0EE811ABCEEE11A80ED001A05
:100D40001168C1F3064101EE101AB8EE411A31EEF6
:100D5000001AC0EE811ABCEEE11A80ED011A11688A
:100D6000C1F3066101EE101AB8EE411A31EE000A25
:100D700080EE801ABCEEC10A80ED020A30BD04E0AC
:100D800001EE901ADFED092ABAE700210160416007
:100D90008160F3E7284402580000003940440258BB
:100DA0000024744A0090D0030024744C20BCBE4B35
:100DB0002DE9FC5F044650F8241B002500902E46C8
:100DC0000801FE4FDFF8F8831DD5606E50B1B0F515
:100DD000801F0CD0B0F5001F0ED0B0F5401F1DD005
:100DE00001250FE0386840F40030386016E0022139
:100DF000201D00F1D1FB03E00098022101F0F2FB7D
:100E000005000BD02E462088C00523D5606D05282F
:100E10001ED2DFE800F00C11161B1B00626ED8F822
:100E2000001021F440111143C8F80010EBE73868B6
:100E300040F40030386009E00021201D00F1ACFBD7
:100E400003E00098002101F0CDFB05466DB100E004
:100E500001252E462088800528D5A06D80281ED02B
:100E60000CDC90B140280ED114E0626DD8F800106F
:100E700021F007011143C8F80010EBE7C02813D098
:100E8000B0F5807F10D001250FE0386840F40030C5
:100E9000386009E00021201D00F17EFB03E000988E
:100EA000002101F09FFB054695B12E462088DFF812
:100EB0001093400509F108092CD5D4F8A400B0F529
:100EC000800F20D00DDCA0B1B0F5001F0FD115E0D0
:100ED000A26DD8F8001021F4E0711143C8F8001099
:100EE000E4E7B0F5C00F13D0B0F5000F10D0012526
:100EF0000FE0386840F40030386009E00021201D20
:100F000000F14AFB03E00098002101F06BFB05466D
:100F100075B12E46208800052DD5D4F8A800B0F173
:100F2000007F21D00EDCA8B1B0F1807F10D116E097
:100F3000D4F8A420D9F8001021F460011143C9F8B5
:100F40000010E7E7B0F1407F13D0B0F1806F10D010
:100F500001250FE0386840F40030386009E00021D6
:100F6000201D00F119FB03E00098002101F03AFB7D
:100F700005466DB12E46206880011FD5A06CD8B102
:100F800010280FD0202812D0302815D0012514E0C9
:100F9000D4F8A820D9F8001021F0E0611143C9F875
:100FA0000010E8E7386840F40030386004E00221BF
:100FB000201D00F1F1FA05466DB12E462088C004CF
:100FC0002BD5E06DB0F5005F20D00DDCA0B1B0F501
:100FD000805F0FD115E07A48A26C001F016821F0F4
:100FE000300111430160E9E7B0F5405F13D0B0F57F
:100FF000804F10D001250FE0386840F40030386091
:1010000009E00021201D00F1C7FA03E0009800214B
:1010100001F0E8FA054685B12E462088800429D5DE
:10102000206EB0F5403F23D010DC08B3B0F5803F10
:1010300014D0B0F5003F0FD115E0E26DD8F80010E4
:1010400021F4E0411143C8F80010E6E7B0F5802F25
:101050000ED0B0F5A02F0BD001250AE00121201DF4
:1010600000F19AFA03E00098012101F0BBFA05466D
:101070008DB12E46208840042AD5D4F8AC00B0F1BA
:10108000405F23D010DC08B3B0F1805F14D0B0F122
:10109000005F0FD115E0226ED8F8001021F4E02196
:1010A0001143C8F80010E5E7B0F1804F0ED0B0F161
:1010B000A04F0BD001250AE00121201D00F16CFAA0
:1010C00003E00098012101F08DFA05466DB12E462E
:1010D000208800041FD5E06ED8B1B0F1805F0ED03B
:1010E000B0F1005F10D0012514E0D4F8AC20D9F89D
:1010F000001021F0E0411143C9F80010E8E738681A
:1011000040F40030386004E00121201D00F144FA71
:1011100005466DB12E462068C0011ED5606CD0B169
:1011200001280ED0022811D0032814D0012513E085
:10113000E26ED8F8001021F040511143C8F80010B9
:10114000E9E7386840F40030386004E00221201DEF
:1011500000F122FA054685B12E462068DFF85CB022
:101160004002ABF11C0B57D51648016841F4807161
:101170000160FFF7A5FA82460EE01148626C001F7D
:10118000016821F0030111430160E6E7FFF798FAD7
:10119000A0EB0A0064283DD80A480068C005F5D5D0
:1011A0007DBBDFF81CA0B4F8B0100AF1200ADAF811
:1011B000000001F4407100F4407005E02C44025836
:1011C0005044025800480258884211D0DAF8001002
:1011D000DAF8002021F4407142F48032CAF800208D
:1011E000DAF8002022F48032CAF80020CAF8001091
:1011F000D4F8B000B0F5807F21D1FFF761FA0190FB
:1012000019E008E0FFF75CFA0199411A41F28830D1
:10121000814210D903252E462078DFF830A4C0077C
:101220003DD0A06F182838D026DC80B3082829D0FC
:10123000102825D12CE0DAF800008007E2D5D4F898
:10124000B010C1F30120032858460DD0016821F4E5
:101250007C510160B4F8B020DAF80010C2F30B0240
:101260001143CAF80010D7E7F94A036802EA1112DD
:1012700023F47C511143ECE720280ED028280CD011
:1012800001250BE00121201D00F186F904E004E0B6
:101290000098012101F0A6F905465DB12E4620789F
:1012A00080071ED5606F062819D2DFE800F0160C03
:1012B00011161616A26FDAF8001021F0380111434A
:1012C000CAF80010EBE70121201D00F165F903E0E9
:1012D0000098012101F086F9054675B100E001256D
:1012E0002E46207840071FD5D4F89000062819D242
:1012F000DFE800F0160C11161616626FDAF800100F
:1013000021F007011143CAF80010EAE70121201D6E
:1013100000F142F903E00098012101F063F905466C
:101320009DB100E001252E46207880062BD5D4F80B
:101330008C00B0F1405F24D011DC10B3B0F1805FBD
:1013400015D0B0F1005F10D116E0D4F89020D9F894
:10135000001021F007011143C9F80010E4E7B0F1D3
:10136000804F0ED0B0F1A04F0BD001250AE0002134
:10137000201D00F111F903E00098022101F032F97B
:1013800005468DB12E46207840062BD5D4F898001E
:10139000B0F5406F24D011DC10B3B0F5806F15D0DC
:1013A000B0F5006F10D116E0D4F88C20DAF80010F8
:1013B00021F0E0411143CAF80010E4E7B0F5805F86
:1013C0000ED0B0F5A05F0BD001250AE00021201D52
:1013D00000F1E2F803E00098022101F003F905466C
:1013E0008DB12E46207800062BD5D4F89C00B0F5A0
:1013F000C04F24D011DC10B3B0F5005F15D0B0F5AC
:10140000804F10D116E0D4F89820D9F8001021F4BC
:10141000E0511143C9F80010E4E7B0F5004F0ED0D9
:10142000B0F5204F0BD001250AE00021201D00F16E
:10143000B3F803E00098022101F0D4F805464DB15D
:101440002E46207800071ED5D4F88000B0F5805FC6
:101450000AD00FE0D4F89C20D9F8001021F46041A4
:101460001143C9F80010ECE70098022101F0BAF826
:1014700000B10126D4F88020DAF8001021F44051A0
:101480001143CAF800102078C00613D5D4F8940090
:10149000B0F5807F05D10098022101F0A3F800B1DA
:1014A0000126D4F89420D9F8001021F4407111439A
:1014B000C9F800102068000316D5D4F8A00038B190
:1014C000B0F5803F09D0B0F5003F0BD001250AE010
:1014D0000021201D00F160F803E00098022101F0D6
:1014E00081F8054685B12E462068400322D5D4F800
:1014F0008400B0F5801F11D0B0F5001F13D0B0F5F7
:10150000401F15D0012514E0D4F8A020D9F8001010
:1015100021F440311143C9F80010E5E7386840F480
:101520000030386004E00098012101F05BF80546C6
:1015300055B12E462068C0031CD5E06C70B1B0F5E3
:10154000803F10D0012514E0D4F88420DAF8001090
:1015500021F440111143CAF80010EBE7386840F459
:101560000030386004E00221201D00F115F8054626
:10157000CDB12E462068800005D50098022101F0EB
:1015800031F800B10126206880031BD5E06FB8B1A7
:10159000B0F5807F10D0B0F5007F11D0B0F5407F5E
:1015A0000ED001250DE02948E26C0838016821F4CD
:1015B000803111430160DDE7386840F40030386065
:1015C000F5B32E462068C00207D5226FD8F8001068
:1015D00021F000411143C8F800102068C00008D570
:1015E000D4F8B420DBF8001021F480411143CBF88B
:1015F00000102068800207D5A26ED8F8001021F0F4
:1016000080711143C8F80010206840000CD5DBF849
:10161000001021F40041CBF80010DBF80010D4F8E2
:10162000B8201143CBF800102068002807DA0748DB
:10163000226D0838016821F040511143016000E03B
:1016400008E086B10120BDE8FC9F00005444025828
:10165000CFFFFF00E26FDAF8001021F44071114370
:10166000CAF80010AEE70020EDE700002DE9F05FBA
:1016700004000F467ED0DFF83882D8F8000000F072
:101680000F00B8420CD2D8F8001021F00F013943F6
:10169000C8F80010D8F8000000F00F00B84269D177
:1016A0002078844D40070AD52069296801F070012F
:1016B000884204D9296821F070010143296020780B
:1016C0007C4E361D00070AD56069316801F0700153
:1016D000884204D9316821F07001014331602078DB
:1016E000C0060AD5A069316801F4E061884204D9D6
:1016F000316821F4E061014331602078DFF8B4B152
:1017000080060BF1080B0CD5E1695846DBF8002088
:1017100002F07002914204D9026822F070020A437A
:101720000260207880070AD5E068296801F00F017F
:10173000884204D9296821F00F01014329602078EB
:10174000C0073ED05B49A2682868183920F4706051
:10175000104328606068022818D0032819D009684F
:10176000012819D0490700294ADADFF848A1AAF16F
:10177000080A00E044E0DAF8002022F00702024301
:10178000CAF80020FEF79CFF814612E00968890331
:10179000E9E709688901E6E7C905E4E7FEF790FF94
:1017A000A0EB090141F28830814202D90320BDE853
:1017B000F09F6168DAF8000000F03800B0EBC10F6C
:1017C000ECD1207880070AD5E068296801F00F0184
:1017D000884204D2296821F00F0101432960D8F81A
:1017E0000010404601F00F01B9420BD9016821F009
:1017F0000F0139430160006800F00F00B84201D0CA
:101800000120D4E7207840070AD52069296801F033
:101810007001884204D2296821F0700101432960D7
:10182000207800070AD56069316801F070018842AC
:1018300004D2316821F07001014331602078C00684
:101840000AD5A069316801F4E061884204D23168A8
:1018500021F4E06101433160207880060CD5E16914
:101860005846DBF8002002F07002914204D2026870
:1018700022F070020A43026000F038F80E492A682C
:101880002B68C2F3032203F00F038A5CC95C02F0E9
:101890001F0201F01F01D040084A20FA01F1116037
:1018A0000749086007480068BDE8F05FFFF736B8F1
:1018B00000200052184402586879100834000024AF
:1018C000300000242800002400B5FFF0C5FA0549C7
:1018D0000968054AC1F30221515C01F01F01C840AB
:1018E00000BD00001C44025868791008454970B5D5
:1018F00045480968434B103B11F0380208D00111EC
:10190000082A03D0102A0BD0182A0BD0084670BD25
:1019100019688906FBD51968C1F3C101C84070BDBB
:101920003A4870BD3749374D18310C1D24350A68C7
:10193000096826682D6802F0030406F00102C1F36D
:101940000511C5F3CC0515FB02F200EE102AB8EE26
:10195000400AE9B32F4ADFED2E0AB7EE001A6CB148
:10196000DFED2D1A012C01D0022C43D002EE101A0B
:101970001068F8EE422A81EEA22A1EE01C68A40636
:1019800011D51B6801EE901A1168C3F3C103F8EE7C
:10199000612AD84001EE900AC1F30800F8EE611AFE
:1019A00081EEA22A0BE001EE901ADFED1C2A00BFA7
:1019B000F8EE611A106882EEA12AC0F3080001EE69
:1019C000900AF8EE611A40EE201A31EE810A00E02A
:1019D00015E022EE000A1068C0F34620401C00EE1D
:1019E000900AF8EE600A80EE201ABCEEC10A10EEF2
:1019F000100A70BD01EE901ADFED092AD8E7002029
:101A000070BD0000104402580090D00340787D0162
:101A100000000039304402580024744A0024744CF9
:101A200020BCBE4B2DE9F05F04007CD0FF4F207836
:101A3000FE4D1837DFF8F493103DC00748D0D9F8B1
:101A40000000396800F03800102815D0182803D19C
:101A500001F0030002280FD06068B0F5803F12D07B
:101A600010B1B0F5A02F18D0286820F4803028607D
:101A7000286820F4802009E02868800328D5606861
:101A80000028D2D024E0286840F4803028606068C4
:101A900088B1FEF715FE064609E0286840F480206C
:101AA0002860F0E7FEF70CFE801B64287ED82868CB
:101AB0008003F7D50CE0FEF703FE064605E000BF05
:101AC000FEF7FEFD801B6428F0D828688003F7D459
:101AD000207841F20308D54E0C3E800753D5D9F843
:101AE0000000396810F038000ED0182801D188079E
:101AF0000AD0E068A8B3296821F0190101432960E0
:101B0000FEF7DEFD82461BE02868400702D5E0684C
:101B100000288AD0FEF0C8FE40451BD82069402826
:101B200012D0316800E0CCE021F47C3141EA003091
:101B3000306028E0FEF7C4FDA0EB0A000228B5D80B
:101B400028684007F6D5E5E7306820F47C3040F49B
:101B50000030EDE7207C316821F0FE4141EA006071
:101B6000E6E7FFE7286820F001002860FEF7A8FDFF
:101B7000824605E0FEF7A4FDA0EB0A00022895D8F6
:101B800028684007F6D42078C0065FD5D9F8000051
:101B9000DFF898B2396800F03800ABF1040B082880
:101BA00012D0182805D101F0030000E0EAE0012876
:101BB0000AD0E0690028286838D040F0800028600A
:101BC000FEF77EFD824623E02868C00523D5E06944
:101BD000802876D11FE0206A202821D0316821F0AA
:101BE000F84141EA8060306030E000BF94F8201096
:101BF000DBF8002022F07C5242EA0161CBF80010B1
:101C000024E000BFFEF75CFDA0EB0A00022896D896
:101C10002868C005F6D5FEF047FE4045E6D8DAE76D
:101C2000306820F0F84040F08040DCE720F0800091
:101C30002860FEF745FD064605E000BFFEF740FDC3
:101C4000801B02289BD82868C005F7D4207800079D
:101C500029D576486169643000298046016811D031
:101C600041F001010160FEF72BFD064605E000BFD3
:101C7000FEF726FD801B0228C9D8D8F8000080078F
:101C8000F6D510E021F001010160FEF719FD0646CE
:101C900005E000BFFEF714FD801B022872D8D8F8BB
:101CA00000008007F6D42078800623D5A06900289C
:101CB000286810D040F480502860FEF701FD0646E9
:101CC00005E02CE1FEF7FCFC801B02285AD82868AE
:101CD0008004F7D50EE020F480502860FEF7F0FC79
:101CE000064604E0FEF7ECFC801B02284AD8286870
:101CF0008004F7D4207840074FD5DFF83481D8F836
:101D0000001041F48071C8F80010FEF7D9FC0646B7
:101D100005E000BFFEF7D4FC801B642832D8D8F859
:101D20000000C005F6D5414EA068603601280AD0F3
:101D300008B1052813D0306820F001003060306809
:101D400020F0040002E0306840F001003060A0683C
:101D500041F2883A90B1FEF7B3FC80460AE0306861
:101D600040F004003060EEE7FEF7AAFCA0EB0801AB
:101D7000514507D830688007F6D50EE0FEF7A0FC85
:101D8000804607E084E000BFFEF79AFCA0EB080164
:101D900051457DD830688007F6D4606AF0B3DFF82B
:101DA0008C80D9F8001008F12008C1F3C201032982
:101DB0006FD00228286820F08070286003D0FEF7DA
:101DC0007FFC044680E0FEF77BFC064605E000BF92
:101DD000FEF776FC801B022873D828688001F7D4B0
:101DE000E26A40F2F331386854F8283F884340EA09
:101DF000021018433860217B4FF4FE0C22894FF00B
:101E0000FE47208A4902267D521E401EA1F5007120
:101E100089B20CEA0040C2F3080200E081E01143FD
:101E2000761E0143014807EA066203E010440258A7
:101E3000004802581C3011433B4AC8F800100168A2
:101E400021F00101016011684FF6F876236AB14371
:101E500041EAC30111600168A26921F00C0111433C
:101E600001600168E26921F002011143016001682B
:101E700041F480310160016841F400310160016882
:101E800041F480210160016841F00101016001E03D
:101E900017E01DE0286840F080702860FEF710FC15
:101EA000044604E0FEF70CFC001B022809D8286851
:101EB0008001F7D535E000BFFEF702FC001B0228C9
:101EC00002D90320BDE8F09F28688001F4D428E0FF
:101ED00039680128D8F8000021D0A26A01F0030374
:101EE00093421CD1E26AC1F305118A4217D1216BDA
:101EF000C0F30802491E8A4211D1616BC0F3462229
:101F0000491E91420BD1A16BC0F30642491E91427A
:101F100005D1E16BC0F30660491E814201D001206A
:101F2000D0E70020CEE700003444025810B5044644
:101F300000688069C00707D0204600F02FF82068AD
:101F4000416941F00101416110BD000070B504001C
:101F50000D4603D094F82C0010B107E0012070BDAD
:101F6000002084F82D002046FEF0AAFF022084F80D
:101F70002C002068211DFEF0DBF8D4E90002294680
:101F8000FEF026F904480121026842F00042026096
:101F900084F82C10002070BD0040005270470000F3
:101FA00070B5044690F82C000D46022804D0012894
:101FB00003D0052801D0012070BD022084F82C0038
:101FC0002068FEF0F3F82868022805D05FF00100D1
:101FD00084F82C00002070BD0520F9E77047704799
:101FE00010B5040003D094F83D0010B107E00120C3
:101FF00010BD002084F83C002046FEF07BFF02204C
:1020000084F83D002068211DFFF0E0FB012084F8EA
:10201000480084F83E0084F83F0084F8400084F8CB
:10202000410084F8420084F8430084F8440084F8B6
:10203000450084F8460084F8470084F83D000020FD
:1020400010BD70477047000000680349884201D105
:10205000FEF72EBC704700000014004030B590F829
:102060007C10012918D0012280F87C202421C0F89E
:1020700080100022202450F8601B0B680D6823F0AC
:10208000005325F001050D60426050F8601C0B60A4
:1020900004620277104630BD022030BD70B50446A0
:1020A00090F87C0001281DD0012284F87C20242097
:1020B000C4F8800020680568026822F0010202600E
:1020C0002068826822F060620A438260204600F045
:1020D00069FC2268202100201560C4F8801084F873
:1020E0007C0070BD022070BD10B5040003D0D4F890
:1020F000800010B107E0012010BD002084F87C00B2
:102100002046FFF003F82420C4F88000206801680E
:1021100021F0010101602046FFF04EFC0128EBD0C8
:10212000A06A10B12046FFF0B3FB2068416821F49B
:10213000904141602068816821F02A018160206817
:10214000016841F0010101602046BDE81040FFF048
:1021500003BC00002DE9F0410446006890460E469D
:102160008069C043C00635D40025202720688069D7
:10217000C043800616D5701CF8D0FEF7A1FAA0EB7C
:102180000800B04201D8002EF0D1606C84F84050B5
:1021900040F02000606484F8417084F842500120CF
:1021A000BDE8F08121681020C8612068C761204621
:1021B000FFF054F82068084942680A404260606CA9
:1021C00040F00400606484F8417084F8425084F860
:1021D0004050E4E70020E3E700E800FE2DE9F0418D
:1021E0000025904620260F46044626E04246394602
:1021F0002046FFF7AFFF80BB20688069C0438006A0
:1022000014D420688169C943490701D4218DC9B913
:102210001349C661206842680A404260656484F8D8
:10222000416084F8425084F8405016E0FEF748FAC6
:10223000A0EB0800B84208D83FB120688069C043CD
:102240004007D3D40020BDE8F081606C84F8405092
:1022500040F02000606484F841600120F3E7000052
:1022600000E800FE70B516460D4604460DE0324605
:1022700029462046FFF76EFF08B1012070BDFEF72A
:102280001FFA801BA84207D835B120688069C04377
:102290008006ECD4002070BD626C002084F8400001
:1022A000202142F02002626484F8411084F8420048
:1022B000E3E770B516460D4604460FE03246294660
:1022C0002046FFF747FF08B1012070BD681C05D00C
:1022D000FEF7F6F9801BA84207D835B1206880695F
:1022E000C0438007EAD4002070BD626C002084F8EF
:1022F0004000202142F02002626484F8411084F8FA
:102300004200E1E70148FEF74FBB0000E002002475
:10231000104801220E4B002110B50360C0E90112E4
:10232000C1608161C161C0E91112C164016541658B
:102330008165C165FEF036F908B172B6FEE7054861
:102340000121FEF03DF8002801D072B6FEE710BD75
:10235000001000522C020024F0B587B01C21684602
:10236000FDF099FE164801260022144D02214FF07F
:10237000100C082705604FF4C075C0E90126C7603E
:1023800040248E02C0F810C00F03C0E90545C0E923
:10239000072607230424C0E909278DE81A0003252E
:1023A0000393CDE9045106916946FFF7CFFD00285C
:1023B00001D072B6FEE707B0F0BD00004041005208
:1023C000140400242DE9F04786B014216846FDF07E
:1023D00062FE5248016841F480610160016801F4C5
:1023E00080610591016841F010010160016801F010
:1023F00010010591016841F400710160016801F468
:1024000000710591016841F004010160016801F06B
:1024100004010591016841F040010160016801F08B
:1024200040010591016841F008010160016801F077
:1024300008010591016841F020010160016801F087
:1024400020010591016841F480710160016801F487
:1024500080710591016841F080010160016801F01F
:1024600080010591016841F001010160016801F0FE
:1024700001010591016841F00201016000684FF41B
:102480000056DFF89C80002200F0020031460590E3
:102490004046FEF70FF90122DFF88890D702484640
:1024A0003946FEF707F9DFF880A0012202215046E5
:1024B000FEF700F900240096012569464046CDE963
:1024C00001540394FEF0D2F818486946CDE900544F
:1024D0000294FEF0CBF80226694668028DE85100AE
:1024E0001348FEF0C3F8CDE90075CDE90254694602
:1024F0004846FEF0BBF8CDE90065CDE902546946D7
:102500005046FEF0B3F8CDE90054694650460294B7
:10251000FEF0ACF806B0BDE8F0870000E0440258D9
:1025200000080258000C025800040258000002582B
:10253000001C0258F0B58DB034216846FDF0ABFDAB
:1025400025480024234A2E2100F11C0E40F24E3370
:102550004FF4FC7640F2763702601822446040F275
:10256000022C84600125C46004618EE8CE10C0E9AD
:10257000054580F8344080F8354080F83640FEF05C
:10258000DBFA08B172B6FEE74FF4487004954FF4D9
:10259000F071FF22CDE90040CDE90241CDE90524EB
:1025A00005260994CDE90A014FF480630A48CDE974
:1025B00007368DF8304000228DF8314069468DF89D
:1025C0003240FEF08FFA002801D072B6FEE70DB05F
:1025D000F0BD000000100050E002002406F0FABC3C
:1025E000FEE700002DE9F047454D044689464FF0CF
:1025F000000A2868C04380070AD0414E283E306850
:1026000020F080503060FEF75BF80746B04608E0E7
:102610000120BDE8F08700BFFEF752F8C01B02287A
:1026200067D8D8F800008000F6D4208829684FF4D5
:10263000FE0721F07C713E0241EA00502860207ABA
:10264000A389B4F804C040022D4D2D495B1E227CA5
:10265000ACF1010C1835091DA0F5007080B2521EB6
:10266000CCF3080C07EA034340EA0C00184306EADF
:102670000262104328600868626920F440601043D9
:1026800008600A68A06922F4007202430A60281DEB
:102690000A6822F480720A6002684FF6F873E469EF
:1026A0009A4342EAC40202600868B9F1000F40F49C
:1026B00080720A6011D00868B9F1010F11D040F0A2
:1026C00080700860D8F80000444640F08050C8F898
:1026D0000000FDF7F5FF05460DE0086840F48000B6
:1026E000EFE740F40000ECE7FDF7EAFF401B0228AB
:1026F00001D903208DE720688000F5D5504688E792
:1027000028440258F0B587B014216846FDF0C3FC98
:102710001E48016841F480510160006802240025D0
:10272000694600F480500590032648F237100C27C4
:102730008DE8F1001648FDF099FF4CF203706946F0
:102740008DE8F1001348FDF091FF4FF63F00694618
:102750008DE8F1001048FDF089FF0D2069468DE8F5
:10276000F1000E48FDF082FF4FF6807069468DE85B
:10277000F1000B48FDF07AFF002205213020FEF029
:1027800069FA3020FEF729FA07B0F0BDD4440258A8
:1027900000180258000C0258001402580008025891
:1027A00000100258502010B580F31188BFF34F8FEE
:1027B000BFF36F8F06F0FEFD18B104494FF0805053
:1027C0000860002080F3118810BD000004ED00E0D7
:1027D000F0B5CBB04C212FA8FDF05DFC202142A824
:1027E000FDF059FCBC216846FDF055FC0220FEF7C7
:1027F00013FA2F4800242F49026842F44042026035
:1028000002680A6842F001020A60096801F00101E9
:102810004A9101688904FCD52748022501680122F4
:1028200008261304052721F00301891C016038954F
:10283000C020CDE93957CDE93B053D952FA83E9500
:10284000CDE93F644194CDE92F23FFF7EBF808B1C0
:1028500072B6FEE74020449403270201CDE94560AB
:102860003F21CDE94702CDE942170421499042A812
:10287000FEF7FCFE08B172B6FEE710483321009067
:102880001922CDE90A150DA909974FF440630C955B
:10289000684681E81C00119410941D942094FEF762
:1028A00087FA002801D072B6FEE74BB0F0BD0000F9
:1028B000184802582C040058284402580A000021E5
:1028C0002E48F0B52E4A016841F47001016010688D
:1028D00000F00F00072804D2106820F00F00C01D80
:1028E000106028490020274C10340B68264D43F017
:1028F00001030B6020600B682B400B60136803F032
:102900000F03072B04D9136823F00F03DB1D13609B
:102910001C4C1E4A18341E4B261D371D2060194CB6
:102920001C4D28343060261D3860371D23603B1D48
:1029300035601C1D3A60251D2E1D1860331D226058
:102940002860326018600A680E4B134C22F4802213
:1029500060330A60186020686FF30F00B0F1005F09
:1029600003D20E490120C1F8080143F2D2000C49FC
:10297000024B4A03803B08601A60F0BD88ED00E01E
:1029800000200052004402587FEDF6EA8002010167
:10299000000202020000FF010010005C00800051F4
:1029A000004000523FB514A1D1E9002314A1CDE9A4
:1029B0000023D1E90021CDE90221416EB9B10168BE
:1029C00002AC8A688968C2F34262490F1DF801505F
:1029D000615C2D01B5FBF1F1A0F86A101DF8021041
:1029E000A25C0901B1FBF2F1A0F868103FBD012122
:1029F000A0F86A10F8E700000101010307010000D8
:102A00000804020408010101FEE7002809DB41096E
:102A100000F01F028900012001F1E0219040C1F87F
:102A20000001704700280DDB410900F01F028900FA
:102A3000012001F1E0219040C1F88001BFF34F8FE8
:102A4000BFF36F8F7047000002480068406801685C
:102A500049690847C40100240E49002070B5086088
:102A6000BFF34F8F081F43F6FF7300680A4DC0F392
:102A70004E31C0F3C90203EA4114104644EA80769D
:102A80002E60401EFAD2491EF5D2BFF34F8FBFF31E
:102A90006F8F70BD84ED00E074EF00E0154830B535
:102AA0008BB00078C00722D1124803F175FCF0B159
:102AB0000020124A3F21079101230F490890042466
:102AC0000A9002250990009506910390CDE90143F3
:102AD000CDE904020A490C230A480F22FFF0B8FE90
:102AE000094A0A49FDF76CFC0248AFF300800BB0BD
:102AF000044830BD980000246C1611088098000826
:102B000098151108CC50002400000008C5470008A3
:102B10000E4808B5016841F010010160006800F03E
:102B20001000009009485838016841F01001016018
:102B3000016821F0100101600649054808624FF064
:102B400080600549C1F8000108BD0000D444025866
:102B5000492A00082C02002408E000E02DE9F04793
:102B60000C46497F074600F0F9F8A17F0646384633
:102B700000F0F4F8A17F05463846FFF05EF9DFF873
:102B800054810246608BA18A534FDFF85091401A5E
:102B9000C8F84000608BA18A401AC8F81800208B42
:102BA000A18A401AC8F81000C8F8342060694FEABA
:102BB0003040C8F844002069C8F83C006068C8F894
:102BC0000C002068802827D006DC042870D020283C
:102BD0006ED0402806D16BE0B0F5807F0ED0B0F506
:102BE000007F0ED0207F46EA006040F40030C8F835
:102BF0001C00607FA17F884258D166E0207F384961
:102C000002E03749207F491E01EB0060C8F81C0034
:102C1000E068C8F8200052E0217FA06846EA016120
:102C200041F40031C8F81C10C8F82450011D226975
:102C3000C8F81420C8F82C106FF0FF0203784FF684
:102C400010714FF0010513F0FF0303D0012B09D0E1
:102C5000AFF300804388D8F81C00884302EB0321BF
:102C600008430CE0237FFF2B00D100254388D8F8D0
:102C70001C00884302EB0321084340F01000C8F811
:102C80001C00D8F81C0040F02000C8F81C0001E02F
:102C900000F096FBD8F81C008006F9D41020C8F884
:102CA00008001DB1C8F80070BDE8F08748460EE086
:102CB000207F46EA006040F40030C8F81C00C8F8E5
:102CC00024502069C8F81400ECE740F20120C8F84D
:102CD0000000E9E7001000520102020001020100B9
:102CE0000A00020070B50C46897FFFF0A6F817496C
:102CF000486362694FEA32424A642269CA63628B5E
:102D0000A38AD21A0A642268082A07D00022C8615E
:102D10000A610F4AE06888630A6070BD638BA58A08
:102D20000C4A5B1B8B61638BA58A5B1B0B61486242
:102D3000207F02EB0060C861E068086206482269F3
:102D40004A612269CA60086070BD0000001000522C
:102D500001020300090001000102020000200C2909
:102D600010B50DD2DFE801F00806070C0C0C0C0AB8
:102D70000A0A0A0A012010BD022010BD052010BD5C
:102D8000AFF3008010B500F10C0141600022027227
:102D90000B46427207496022016000F1200118468B
:102DA000FFF0BAFF044960232022143005F043FEEF
:102DB000203810BD7C7A1008095C0008064A0549D5
:102DC00001604FF08061C2F88011BFF34F8FBFF3F5
:102DD0006F8F70477C7A100808E000E0FFF0AAB817
:102DE00000F086BA00F096BA70B5061D43F2705135
:102DF000451843F288540319036100F12C0200F1D5
:102E0000140186E82600114A02600846FFF03CFFE4
:102E10000F4940F8181BFFF037FF0E49016043F2DD
:102E200044510844FFF030FF0B49251F40F8141BA4
:102E300000F095FA401B41190246204400F032FA96
:102E4000051B2819FFF090F8284670BD987B1008E4
:102E5000A0A2000870861008D4A20008704700F5F0
:102E60009B63994203D10168CB6A114618477047AA
:102E70002DE9F04F91B003F023F9E9490025C5632E
:102E800040F8401B02F0DCF82C3002F0D9F82C306E
:102E900002F0D6F8E34900F5BE72C5620160642114
:102EA0000586343002F01EF8DF49016000F5367007
:102EB00001F072FD383001F0AFFFDC4904460160DB
:102EC0002946057545758575FFF0F0FC04F118007D
:102ED000FFF09CFFD64940F8441BFFF023FDD54985
:102EE00040F8501BFFF01EFDD34940F8501B03F083
:102EF00091F900F1FC0426212046FDF0CCF8204693
:102F000003F0DAF98562012180F82C504FF6FF7248
:102F100080F82410C9490160FF21C28502864286DB
:102F2000828680F83610C64980F8375080F83850CD
:102F3000C44EC0E90F51A0F8485000F140014C3098
:102F4000D6E9002304F1BEFCA0F10C011030D6E953
:102F5000022304F1B7FC0561A0F5C664456104F5E0
:102F6000C967D6E90402B849C7E9001442F6E0612E
:102F7000C7E9020204F5CB60FFF0D8FE00224FF44F
:102F8000487A114604F1400053464FF4F0788146E8
:102F9000CDF8008001F115FD00224E461146104685
:102FA00000F1B6FB0022B06204F16C0053461146FA
:102FB000CDF80080804601F104FD98224646992014
:102FC000114600F1A5FB40F2BF2BB06204F198005E
:102FD0005B46182206460F214FF4D47ACDF800A0A4
:102FE00001F1EFFCFF221146104600F191FB002297
:102FF000B0621146104600F18BFBF06201200146E1
:10300000308604F1CC00029001F0E1FF02986422C6
:10301000002101F0B8FF029818220F215B46CDF87D
:1030200000A001F1CEFC16200090029813231C2270
:103030000A21FFF018FD4FF0060B029800235A46B4
:103040000221CDF800B0FFF053FD0298B422002118
:10305000FFF02CFF04F57D700121824601F03EFE59
:10306000C5229721142000F153FB01465046FFF082
:1030700065FF14215046FFF0BBFE01215046FFF0D2
:10308000C2FE0298514601F082FD012104F58760DD
:10309000009001F023FE00981421FFF033FCDFF8CC
:1030A000ACA10122009803A9CDF80CA0ADF8102026
:1030B000FFF033FC00221146104600F129FB0146C7
:1030C0000098FFF03BFF00990298FFF0BBFC012144
:1030D00004F59160009001F001FE00981421FFF0CA
:1030E00011FC009803A9CDF80CA0ADF81050FFF02A
:1030F00014FC00221146104600F10AFB014600981C
:10310000FFF01CFF00990298FFF063FC012104F519
:103110006970009001F0E2FDC5229721142000F1B2
:10312000F7FA014604F577708246FFF0BFFB00987E
:103130005146FFF048F90098022101F0AFFB0099D9
:10314000029801F024FD4FF4367A8822514604F5A6
:103150009B60059003F0DEFA0420ADF830000520F6
:10316000ADF8280005980CAB0BAAADF82CB00AA955
:1031700000F1CAFD7D2000230322CDE9005005980F
:10318000072100F111FE0598FA22142100F1EFFD4C
:103190000598B42103F02FF804F2D45051461822B8
:1031A000C4F8D075074603F0B5FA0221ADF8241033
:1031B0000321ADF8285009A8ADF82C100121ADF875
:1031C00030100AAB00900BAA38460CA9FFF08CF81F
:1031D00000213846FFF0AAF84946204687F83850C3
:1031E00000F188FD4146204600F184FD314620462D
:1031F00000F180FD0299204600F17CFD05992046F2
:1032000000F178FD3946204600F174FD04F21460A7
:10321000394606F0B5FA11B02046BDE8F08F00003F
:10322000AC7B1008947D100840801008A89A000814
:103230008C9B0008FC9900080C7D10089C7C1008F1
:10324000E87E1008147A1008EC83100808A3000820
:103250000D4910B5016000F2146006F0A3FAA0F564
:103260009E710A4AA0F5C6700A60FFF07BFB5038D9
:10327000FFF078FBA0F55B7001F022FDBDE8104087
:10328000CC3800F13FBA0000AC7B1008C4821008B3
:10329000C068FEF0F1BE70470048704778791008AA
:1032A0000720704710B5FEF07FFE0149016010BD98
:1032B000147C10087CB514460D46684603F17EFA6E
:1032C000BDF80000002806D0BDF802002860BDF857
:1032D0000400206001207CBD7047000003480068A6
:1032E000C00301D5FFF7B8BB7047000014ED00E044
:1032F0005A2010B5FFF796FBBDE810405820FFF7A5
:1033000091BB000002480122C0F8AC104262704735
:103310000010005009215A2010B5FEF077FD092158
:10332000BDE810405820FEF071BD000009480A4970
:10333000C268C2F30A02521E92B20A800369C3F342
:103340000A035B1E4B800264416B41F00101416343
:103350007047000000100050180000247047002142
:103360000160704710B50446FEF09AFD2068D4F85D
:103370000815C26A2046BDE810401047704700009B
:1033800030B5044C039D04600171C2800381458106
:1033900030BD0000589900080148406803F19EBA0A
:1033A0001C00002402480021006803F1BFBA00009D
:1033B0001C0000240148006803F190BA1C0000249E
:1033C00005F02EBD90F84430002B01D103F0E4B895
:1033D000704710B500F008F80168096BBDE81040AF
:1033E00008474160704770470148C0687047000057
:1033F000500100242DE9F74F84B0814605A804F060
:10340000DDFF00287ED109F1A805B9F8E8400AE0FF
:10341000A0B205EBC00105A802F102FE18B1A1B2ED
:10342000284606F0CAF9641EF2D5B9F8E8604FF0F4
:10343000000AD046761E66D4B0B205A905EBC004DA
:10344000204602F112FE00287AD0BDF91400B4F92A
:103450000010884232DB05A802F1DDFD0746204658
:1034600002F1D9FD874229DCBDF91600B4F902103A
:10347000884212DB204604F09CFFBDF91620BDF8FF
:103480001A10801A00B2091A09B2ADF81A100029F0
:1034900038DD1044ADF816004DE005A804F089FFB2
:1034A0000746204604F085FF874207DC6088BDF8A8
:1034B0001610401A00B2ADF81A003AE0BDF9160035
:1034C000B4F90210884239DB05A804F072FF074600
:1034D000204604F06EFF874230DCBDF91400B4F9D9
:1034E0000010884215DB204602F195FDBDF914203D
:1034F000BDF81810801A00B2091A09B2ADF81810F8
:10350000002901E080E098E07EDD1044ADF8140071
:1035100011E005A802F17FFD0746204602F17BFD80
:1035200087420BDC2088BDF81410401A00B2ADF8B9
:103530001800002868DD4FF0010801E04FF0010A93
:10354000761E7FF579AFB8F1000F7FF46EAFBAF158
:10355000000F72D0B9F8E8604FF00008761E6CD406
:10356000B0B205A905EBC004204602F17EFD58B3B8
:10357000BDF91400B4F90010884226DC05A802F158
:103580004AFD0746204602F146FD87421DDBBDF994
:103590001600B4F90210884205A808DC04F009FFFF
:1035A0006188401A01446180E188081A0BE004F048
:1035B00000FF0746204604F0FCFE874205DBBDF80D
:1035C00016006188401AE0802FE0BDF91600B4F9BA
:1035D0000210884227DC05A804F0EBFE07462046CF
:1035E00004F0E7FE87421EDBBDF91400B4F90010B9
:1035F000884205A809DC02F10EFD2188401A014429
:103600002180A188081A0CE070E102F104FD074650
:10361000204602F100FD874205DBBDF81400218839
:10362000401AA08001E04FF00108761E98D5B8F14D
:10363000000F8ED0B9F8E8604CE14EE1B0B205EB76
:10364000C00405A8214602F1EBFC18B1B1B228462E
:1036500006F0B3F805A9204602F107FD0028EBD0DB
:10366000BDF91400B4F900108842BDF91600B4F990
:1036700002107DDD884233DDBDF816006188401AF6
:1036800021880FFA80F8BDF81400401A06B205A888
:1036900002F1C1FC0746204602F1BDFC391A05A81B
:1036A00001FB08FA04F085FE0746204604F081FE7F
:1036B000381A7043504508DCA4F806802088ADF81D
:1036C0001400BDF818003044D4E0A680BDF81A10EC
:1036D00001EB0800ADF81A006088ADF8160094E61A
:1036E00005A802F198FC0746204602F194FC2188C7
:1036F0008742BDF81400A0EB01000FFA80F82046C5
:1037000025DD04F056FE064605A804F052FE301AE8
:10371000BDF9161006B2B4F90200411A05A801FB62
:1037200008FA02F178FC0746204602F174FC381AC8
:103730007043824508DC05A804F03BFE6080E6800B
:103740002088ADF8140091E0A4F804805EE002F156
:1037500062FC074605A802F15EFC381A07B2B9F808
:10376000E80007280EDAD4F800B0D4F804A000E08E
:103770001CE005A802F14FFC52462080A78068F3A8
:103780000F02A3E0B8450EDCBDF818102088ADF894
:10379000140001EB0800ADF8180005A802F13BFC8D
:1037A0002080A78031E6A4F8048026E0884231DA40
:1037B000204602F130FC064605A802F12CFC301A26
:1037C00007B2204604F0F5FD064605A804F0F1FD19
:1037D000301ABDF9161006B2B4F90200BDF9142072
:1037E000411AB4F90000801A79437043814208DC21
:1037F00005A8E68004F0DDFD6080BDF818003844BF
:1038000038E005A8A78002F106FC2080BDF81A0068
:10381000304484E005A802F1FEFB0746204602F191
:10382000FAFB874233DA204602F1F5FB064605A88B
:1038300002F1F1FB301A61880FFA80F8BDF816002A
:10384000401ABDF9141006B2B4F90000411A05A8D7
:1038500001FB06FA04F0ADFD0746204604F0A9FD81
:10386000381A00FB08F0504507DCE680BDF8181058
:1038700001EB0800ADF81800C7E505A802F1CBFB85
:103880002080A4F804806088ADF81600BEE7BDF87B
:1038900016006188401A0FFA80F8204604F089FD6E
:1038A000074605A804F085FD381A07B2B9F8E80004
:1038B00007281EDAD4F800B005A8D4F804A0E780E1
:1038C00004F077FD5246608068F31F42594628464F
:1038D00005F086FF761E7FF5B1AEB9F8E860082ED8
:1038E00020D2DDE90512284605F07AFF07B0BDE8D1
:1038F000F08FB8450EDCBDF81A106088ADF81600E0
:1039000001EB0800ADF81A0005A804F052FD608034
:10391000E7807AE5A4F80680BDF81A003844ADF8CF
:103920001A0072E500274FF0FF3A761E6FF0004B49
:1039300042D4B0B2741E05EBC008B8F80410B8F851
:10394000060011FB00F002902EE0002C03DBA0B279
:1039500005EBC00100E005A98888CA8810FB02F0C9
:103960000390D8F800200092D8F80400019068462F
:1039700002F083F8BDF80400BDF8061010FB01F159
:10398000DDE902201044CA17081A01EB5271B0EBAE
:10399000E10F02DA3746A2460BE0584503DA374614
:1039A000A24630B18346641EB4F1FF3FCDDA761EE5
:1039B000BFD5BAF1000F06DAB8B205EBC00105A811
:1039C00002F05BF812E01FFA8AF005EBC004B8B20F
:1039D000214605EBC000064602F04FF8059820602E
:1039E000069860603168059170680690B9B2284603
:1039F00005F0E3FE09E5000003484068002802D016
:103A00000268D26910477047500100242DE9F04147
:103A1000374D0446A86808B1017A19B194F83511F8
:103A200031B114E0002184F835110168896859E04A
:103A300068B1007A58B1686810B1016809698847AF
:103A4000A8680168C9688847012084F83501002604
:103A50000BE0A01990F8880030B1B1B2201D50F8E9
:103A600021000168C96C8847761CB4F88400B04214
:103A7000EFDC0022104613E0211891F8883073B172
:103A800090420BD086B2231D53F8267096B243F8AD
:103A90002670A31891F8881083F88810521C401CD7
:103AA000B4F884108142E7DC13E0581E80B2211D77
:103AB00083420ED905E001EB80035B6841F82030BA
:103AC000401CB1F880308342F5DC98B2401EA1F86A
:103AD0008000B4F884309342E7DC6868002804D0A2
:103AE0000168496ABDE8F0410847BDE8F08100007F
:103AF0005001002403484068002802D00268126A7E
:103B000010477047500100242DE9F04F99B004464A
:103B100080F8341129B10020A4F8E80019B0BDE8FC
:103B2000F08F04F5967004F049FC90B9D4E94B127B
:103B300004F580752046FFF75DFC002000900346E9
:103B40000246014601A801F0E3FF0168E96240680E
:103B50002863B4F8E80098B10020FD4F80F001051B
:103B6000386920B107F1140004F028FC50B1002D91
:103B7000D4D001A803F18EFE3E8804F1A80520E010
:103B80000120EAE7F248143001F0E4F9D7E9051220
:103B90002046FFF72FFC0020009003460246014616
:103BA00001A801F0B5FF016879614068B861E0E7FC
:103BB00005EBC6000168426801A805F011FE761CFD
:103BC000B6B2B4F8E800B042F2D8E148068804F191
:103BD000EA00169009E0169800EBC60001684268FA
:103BE0002046FFF707FC761CB6B2B4F82A01B042B3
:103BF000F1D8DFF860A3DAF8000090F84800012857
:103C000004D0022877D0D2480688BCE1DFF840B360
:103C10000026BBF800700CE0B8B205EBC00080468F
:103C200004F0C7FBB04203DD404604F0C2FB064689
:103C30007F1CB4F8E800B842EEDCC74800880F28C3
:103C400001D9C00800E00120814600200090034611
:103C50000246014612A801F05BFFD04653E0D1F8BE
:103C600090108847074612A804F0A3FB4844B842C6
:103C70000BDDB74209DA12A804F09BFBB8423BDD2A
:103C800012A804F096FB002836DD12A804F091FB80
:103C9000B84201DCBE4200DA374612A804F089FBC4
:103CA0003F1A12A804F085FB024638B20090AB48D8
:103CB0000021008803B217A801F02AFF01681291C1
:103CC00040681390BBF8007010E005EBC70112AA22
:103CD00014A802F1EDF914A804F070FB20B92068D3
:103CE00014A9426B204690477F1CBFB2B4F8E8008D
:103CF000B84208D9E9E711E0D8F800000168D1F826
:103D00008C200121904712A804F053FBB042D8F850
:103D100000000168A3DB096A884738E19048007811
:103D2000012879D00DE18A484FF00008B5F900600C
:103D30000088401C87B226E005EBC000814602F1F6
:103D40006AF98246B9F906B005EBC700814602F16F
:103D500062F95045514606DDB9F90060B84608469B
:103D600056450ADB0DE00AD1B9F90610594500DDC8
:103D7000B846B9F90000B04203DB064601E0B042A4
:103D8000FBDC7F1CBFB2B4F8E800B8421FFA88F031
:103D9000D2D805EBC0073868129078681390BDF947
:103DA0004C00142801DABDF9486012A802F133F979
:103DB000801BADF84C0012A8ADF8486001F09AF8ED
:103DC00012A804F0FBFA38BBBDF94E00142800DD40
:103DD0001420BDF84C3081B25E48BDF84A2000681E
:103DE0000091BDF848100668D6F88460B0470646D2
:103DF000ADF84E0012A801F0ADF8206812A9426B90
:103E000020469047B888801B00B2B88020B91FFABE
:103E100088F1284605F0D1FCB4F8E800002882D1EA
:103E2000B5E04FF00009284604F0C3FA06464848BA
:103E30000088401C87B228E005EBC00005EBC708EE
:103E4000B0F902A0B0F90410B8F90200504508DA40
:103E5000B946404604F0ADFA504551460CDD0E46D9
:103E600011E00DD1B8F90400884200DDB9464046A2
:103E700004F09FFAB04206DC404604F09AFA01E0F2
:103E8000B04200DA06467F1CBFB2B4F8E800B84280
:103E90001FFA89F0D0D805EBC007B7F9060014283F
:103EA00003DA384604F085FA0646384604F086FA06
:103EB000F0BB12A801F033FE3888ADF84800B7F91E
:103EC0000200ADF84A00B988301A1428ADF84C1039
:103ED00000DD142086B2384604F06BFABDF94A10B2
:103EE000401AB04205DC384604F063FABDF94A10C6
:103EF000461A1848B1B2BDF84C30BDF84A200068E7
:103F00000091BDF848100668D6F88460B047ADF857
:103F10004E0012A92068426B204690477888BDF871
:103F20004E1008447880F888BDF84E10401A00E022
:103F300007E000B2F88020B91FFA89F1284605F0A1
:103F40003CFCB4F8E80000287FF46BAF1FE00000F1
:103F500050010024C4010024BC010024BA01002443
:103F6000B401002405EBC60001681291406813906B
:103F700012A804F023FA20B9206812A9426B204647
:103F80009047761CB6B2B4F8E800B042EAD80D48C3
:103F9000007800283FF4C2AD0020A4F82A010A48A6
:103FA000048809E001A800EBC40001684268169883
:103FB00005F016FC641CA4B2BDF84400A042F1D880
:103FC000ACE50000B5010024500100240022A0F857
:103FD000842011464318491C202983F88820F9DBE6
:103FE00070470000F8B5174900250160A0F884501B
:103FF000A83003F14FFC423003F14CFC0023009544
:1040000042301A46194601F083FD0572A0F59674F8
:1040100045720D490D48FCF759FA00B101200C4ECC
:1040200008B1358006E04FF4806030800220706077
:1040300001F012FFF56020467560B560FFF7C6FF1E
:104040002046F8BD587C1008CDB5E8B5C2A507F4E8
:10405000500100240149086070470000B0010024AD
:1040600010B526210446FCF016F80E482060201DED
:1040700001F055FD083001F052FD00218160C16062
:10408000012201618182C18201764276064A40F8AE
:104090000C2CC16147F6FF710184FF2180F82210CA
:1040A0000C3810BD048410086C99000830B5044C1D
:1040B000039D04600171C2800381458130BD000011
:1040C000E899000801210172704770B51C460B4643
:1040D000A1F5C06605460498B6F5407F216805D273
:1040E0000A460146284600F06DF913E0A2F5606328
:1040F0007F2B05D80A460146284600F041F809E022
:1041000095F8590038B1A2F51060023803D128465D
:10411000FEF0DFFA2060206810B102F1FFF818B15C
:10412000002085F8590070BD0120FAE770B500F154
:104130001A050446008EB8B1A98A401E35F81160F0
:10414000E882481C80B2A8820A2801D30A38A882D3
:10415000204600F0D2F8208B1234022801D2401CF5
:10416000E080A08810B103E0AFF300800220A080BF
:1041700080B2401E80B2A08024F81060304670BD2E
:104180002DE9F05F5FEA02088B4604464FF0000914
:1041900021D098F80D0004F1440A98F8071000F0B7
:1041A0001000B8F8045041EA0016A5F63161F71086
:1041B0001E2953D2DFE801F018525218181818417E
:1041C0004141525252525252525252525252181865
:1041D000181818181818A4F852904846A4F85490C3
:1041E000A4F85690BDE8F09F04F11A0005F0F4F928
:1041F00040F63361884208D1DBF80000C2685846B7
:10420000904704F0B2FBA4F85200F119B4F8520040
:104210000E220844414624F8520F5046FCF7BEF8DF
:10422000B4F90010504603F0E7FA14F8050C2179B0
:10423000401A04F8050C5046D4E70E224146504679
:10424000FCF7ACF834F8540FC01B01B2504603F031
:10425000D3FA2088F119401A2080ECE7A5F56060B8
:104260001B3822D0A5F560601D381ED0A5F5606012
:104270001F381AD0404604F078FBA4F85200A5F588
:104280006060093840F6136A21D055451FD0A5F566
:10429000606019381BD0A4F85690404604F065FBC6
:1042A000801BA4F8540040469CE76D1E5A46ABB2F2
:1042B0004146204603F025FD04F057FBA4F85200C8
:1042C000404602F12BF8810801EB501012E0404605
:1042D00002F124F85545074602D140F60C6500E08E
:1042E0006D1E5A46ABB24146204603F00AFD02F16C
:1042F00015F8381AA4F85600CFE770B500F11A0681
:10430000054613E0288F05F13204B8B1A188401E9C
:1043100034F81110E080A088401C80B2A0800228F0
:1043200001D3801EA080304605F05FF9288F70B160
:10433000304605F092FA0028E4D008E0AFF30080A0
:104340002846FEF000FA0146304605F04EF93046A8
:1043500005F083FA0028F3D070BD70B50546C06B38
:1043600058B305F11A00044605F036F928B328467B
:10437000FEF0C2F9E08A012812D9A08A401C80B25E
:104380000A2800D30A3840F63F16214634F81000B8
:10439000B04212D1084605F01FF9E18A012901D87F
:1043A000AFF30080A18A491C89B20A2900D30021F9
:1043B00024F81100A08A24F810602846BDE8704057
:1043C000FFF7B4BE2DE9F047924F160004460AD01D
:1043D000727BF07902F01002B18840EA0215042DD8
:1043E0000ADDA81009E0A4F85270A4F85470A0F8EF
:1043F00056701046BDE8F087012040F2DB63994219
:104400008046A1F2DB6004F1440912D048DC40F29E
:1044100053629142A1F253600BD020DC40F219624A
:104420009142A1F2196079D004DCA1F5C26108299A
:104430007ED873E0352871D008DC012805D03228F9
:104440006CD033286AD0342872D199E0362865D0F0
:1044500037286ED0382861D0392869D15EE00A2823
:104460005CD008DC0A2863D2DFE800F0BD588A8AF5
:1044700058585858588A832850D008DC0B284DD0FB
:104480000C287DD01D2849D0212851D146E0842810
:1044900044D0852842D0862840D0872848D13DE0A6
:1044A000B0F5047F3AD029DC102837D00BDCA0F11E
:1044B00004000C283CD2DFE800F0313131316331A7
:1044C00096963131966340F20B229042A0F20B2176
:1044D00056D00ADC112821D0122851D0A0F5007046
:1044E00009381BD001287ED118E0012916D00229F5
:1044F00014D0032944D0042975D10FE0A0F2112073
:10450000132870D2DFE800F00A3C3C3C0A0A3C0A5F
:104510000A0A3C0A0A3C3C0A0A0A0A00B4F9520098
:10452000B8420CD1B4F95400B84208D1304601E089
:1045300059E025E004F019FAA4F852002BE00E220D
:1045400031464846FBF72AFFB4F95600B84208D076
:10455000304601F1DCFE94F85610A1EB500084F8CF
:104560004D00B4F95200B84204D0284401B2484684
:1045700003F042F9484604F0F8F9A4F852002DE09F
:10458000B4F95200B8420AD1B4F95400B84206D185
:10459000304604F0EAF9401BA4F8540037E00E223C
:1045A00031464846FBF7FAFEB4F95600B84208D047
:1045B000304601F1ACFE94F85610A1EB500084F89F
:1045C0004D00B4F95400B84205D0A0EB080001B288
:1045D000484603F011F9484604F0C7F9401BA4F817
:1045E0005400484606E7304604F0BFF9A4F85200EC
:1045F000401BA4F854005234304601F188FE4000BC
:104600000521B0FBF1F096F909100844A08030466E
:10461000F0E600000080FFFF2DE9F05F8A469B4630
:104620005245164600F11A04804624D9A6EB0A002A
:104630001FFA80F900271CE0E18A08F132052046C4
:1046400031B3491E89B2C18203F1EDF80146E88811
:10465000401C02281CD8E880A888012801D2801CB0
:10466000A880A888401E80B2A8807F1CBFB225F811
:1046700010104F45E0D35146204603F1E3F815E012
:10468000761EE08AB6B2401C0A283BF8161001D903
:10469000AFF30080E082A08A012801D20A30A08214
:1046A000A08A401E80B2A08224F81010002EE7D10C
:1046B0004046BDE8F05FFFF720BE704740680168E4
:1046C0000968084710B504464068016809688847CA
:1046D00038B9207A28B160680168496988470020A4
:1046E0002072606801680968884718B1BDE8104009
:1046F000FEF760BE2068416A2046BDE810400847CA
:104700000168496C084710B50446406801680968AB
:10471000884700280BD1607A002808D0207A00282A
:1047200005D12068416A2046BDE81040084710BD09
:1047300070B5044601202072606801688969884765
:1047400005460068402832D00CDC04281CD004DC6C
:1047500001282CD0022815D122E008281AD02028C0
:1047600010D124E0B0F5007F21D005DC80281ED0D8
:10477000B0F5807F06D11AE0B0F5806F17D0B0F5A4
:10478000006F0DD0AFF300802068297F826B204638
:10479000904710E02068297F826B2046904703E015
:1047A0002068C16B204688472068426B05E020687E
:1047B000C16B204688472068026B29462046BDE829
:1047C0007040104770472DE9F04705461A44DDE96F
:1047D000090702EB4202541800EB400000EB040909
:1047E000287AFF282CD017F8010B297A10FB01F04A
:1047F000FEF038FFA97D0646C0F1FF08207811FBC6
:1048000006F210FB082080B2FEF02CFF2070697DBC
:10481000607811FB06F210FB082080B2FEF022FF48
:104820006070297DA07811FB06F210FB082080B291
:10483000FEF018FFA070E41C4C45D4D3BDE8F0870F
:1048400017F8016BFF2E23D0A97DC6F1FF08207851
:1048500011FB06F210FB082080B2FEF003FF20706F
:10486000697D607811FB06F210FB082080B2FEF033
:10487000F9FE6070297DA07811FB06F210FB08207C
:1048800080B2FEF0EFFEA070E41C4C45D8D3D5E713
:10489000A87D2070687D6070287DF4E780F8341072
:1048A00070472DE9F0430546406987B00C46D0F8C3
:1048B000148095F8340004F0A2FF074622464146D2
:1048C000284603F0E1FB064622464146284601F110
:1048D0001DFA0246334601A82946009703F0A9FBBA
:1048E000002C17DD601E414602B22846164603F032
:1048F000CBFB814632464146284601F107FA024683
:104900004B4603A82946009703F093FB03A901A88F
:1049100001F0B3F8404601F138F8401EA04217DD1F
:10492000641C414622B22846164603F0ADFB0446FD
:1049300032464146284601F1E9F90246234603A8DA
:104940002946009703F075FB03A901A801F095F82B
:10495000404601F11DF80646404601F15AF804466A
:10496000404601F125F80021024605A8234600969D
:1049700001F0CEF801A9024603A801F199FBDDE997
:104980000301CDE90101286801A902692846904781
:1049900007B0BDE8F083000010B500F0A1F90349AD
:1049A0000160022180F8341010BD00000C9B00084B
:1049B0002DE9FC411B4C0546D5E90060A16969B3AE
:1049C000A06801EBD17101AF00EB6100CDE900708F
:1049D000A3692A68E169206800F026F80097064676
:1049E000A3696A68216A606800F01EF80644D4E989
:1049F000051000EBD07001EB6000CDE90070A369F9
:104A00002A68616AE06800F00FF800978046A369A1
:104A10006A68A16A206900F007F84044C5E90060AF
:104A2000BDE8FC81F45000242DE9FE475FEA000850
:104A30001D4617468A460B9C4FF001064FF0FF308B
:104A400005D52168C8F10008064649422160002FBB
:104A500004DA21685742764249422160002D4FF026
:104A6000010901DA5D4281463846FDF098FF0346B0
:104A70003A4602A85146CDE90050404600F021F8E0
:104A800021684E45029A114491FBF5F2104491FBC6
:104A9000F5F205FB1211216000D04042002E03DA2E
:104AA000C1F10001216005E003DD002907DA294496
:104AB00003E004DA002902DD491B2160401EBDE845
:104AC000FE872DE9FF4F0D009B4694460746DDE922
:104AD0000D4640D03CFA05F04FD001228246AA4054
:104AE00007FA05F9B9FBF4F1521E0CEA020CE04694
:104AF000604601FB0AF10391FDF051FFCDE900464C
:104B000001462B463A464046FFF7DBFF039900EB90
:104B10000108B9FBF4F004FB1090FDF040FF0346E0
:104B2000B9FBF4F005EB0B0104FB109202A8CDE9F0
:104B300000405046FFF7C5FF31684044029A1144D7
:104B4000B1FBF4F21044B1FBF4F204FB121131603A
:104B500004B0BDE8F08FBBF1000F184608D00B463B
:104B60003A46CDE9004601466046FFF7AAFFEFE767
:104B70004FF0FF3030604008EAE707FB0CF7B7FB67
:104B8000F4F004FB10703060B7FBF4F0E0E738B5E8
:104B900004460D46343002F017FEB4F93E00002200
:104BA000B4F93C30114600902846FFF00AFF38BDAA
:104BB0003EB5054608790C46022824D0E08802AAB2
:104BC000298F401A01B22868D0F8B030284698479B
:104BD000002818D0207908B1012814D1D5F8200177
:104BE000002810D00168C968884700280BD0BDF89C
:104BF00008006A46ADF800000194D5F8200101686C
:104C00008B68294698473EBD343001F11EBB70B514
:104C10000D46B0F91A11A94209DDC46D05E02068FE
:104C20002946426F20469047A469002CF7D170BDF9
:104C300070B5D0F8E0400D46064605E020682946EC
:104C4000426F20469047A469002CF7D1D6F80C415A
:104C500005E020682946426F20469047A469002C51
:104C6000F7D170BD0021A0F81A117047C02230B4EE
:104C70001152EC221152B0F894309022CB1A1352F8
:104C8000B0F86830B0F894402344CB1A8387018190
:104C900030BCFDF038BF6A2230B411529622115256
:104CA000B0F8EE30EA22CB1A1352B0F8C230B0F8A6
:104CB000EE402344CB1AC387418130BCFDF023BFB3
:104CC00001490160704700001C7F1008D0E9031003
:104CD000814201D101207047002070470163704775
:104CE00010B5FFF7BDF9024901600121016310BD54
:104CF00088811008014880697047000090010024F5
:104D00000148406970470000900100240148C069D3
:104D10007047000090010024704701207047009800
:104D200008704B708A7070472DE9F04F85B00446CB
:104D30001344DDE90E6003EB4303DDF840805D18AA
:104D400000EB400000EB050BB4F904001044E060F8
:104D5000B4F90600304420612068C16820468847C5
:104D600000284CD004A80090206803AB01AA02A937
:104D700006692046B047D0B3207A9DF8101010FB8A
:104D800001F0FEF06FFC98F8001010FB01F0FEF04F
:104D900069FCFF28064635D09DF80C10C6F1FF07C8
:104DA000287895F8019011FB06F195F802A010FB08
:104DB000071080B2FEF056FC00909DF8040010FB36
:104DC00006F019FB070080B2FEF04CFC81469DF80E
:104DD000080010FB06F01AFB070080B2FEF042FC50
:104DE000024620684B46466929462046B047E0689F
:104DF000ED1C08F10108401CE0605D45B2D305B030
:104E0000BDE8F08F9DF80C00009020689DF80430FC
:104E10009DF808204669E7E770B50446144E002067
:104E2000FF21A080E08021721049E06021602061B4
:104E3000316891F8760008B1C86C00B988680168DB
:104E4000496A884701280DD000253068C06C30B110
:104E50000168496A8847012800D0002005431DB138
:104E6000204670BD0125F0E7AFF30080149C0008D8
:104E7000C401002410B50446B0F91A01B4F91811A0
:104E800088420CDB2046FDF096FE2068D0F8A81082
:104E9000204688472046BDE81040FFF7B5BE10BD4C
:104EA0002DE9F041B0F91A510F460446C5B100266C
:104EB0002946681CA4F81A012068D0F81021204661
:104EC0009047D4F8281141F8207016B12046FDF023
:104ED00072FE29462046FFF79AFE2846BDE8F0817B
:104EE0000126E5E710B500F087F80149016010BD23
:104EF000349C000808491CB500240A880749098821
:104F0000ADF80040ADF80420ADF80240ADF8061051
:104F1000694600F005F81CBDBA010024BC0100245C
:104F200010B504460A48007800280FD001280DD19A
:104F30002088A28810440A46401E2080A11C2046DA
:104F4000FDF08AFFA088E188A180E08010BD00000C
:104F5000B4010024094910B5097800290DD00129B0
:104F60000BD1074C4388C188028824880B44E31A7C
:104F70000380428082888180C28010BDB4010024F9
:104F8000BA010024704710B59142044601D1AFF335
:104F900000808A4202DA084611460246D4F83801F7
:104FA000884203D1D4F83C0190420FD0C4E94E129C
:104FB00004F1B80001F149F904F1340001F145F9B7
:104FC00004F1E400BDE8104001F13FB910BD70B537
:104FD000C56A0446C162D0F834112A4602F0E3FFE4
:104FE000C4F834012A46D4F83011204602F0DBFF21
:104FF000C4F8300170BD000070B516460D46FDF0D6
:10500000F7FD04460D48002320600120C4E94A63EF
:10501000002DC4E94C30C4F83831C4F83C31C4F830
:105020004031C4F8443101DCAFF300806A1E2046F1
:105030000021FFF7A8FF204670BD0000589D000822
:1050400010B526210446FBF026F8204601F034F97D
:105050000349FF22016080F826200022826210BDF1
:105060008C9F00082DE9FF4F89B0884604466846AA
:10507000DDE91665DDE91A97DDE918BA00F0C4FD2F
:10508000CDE90078ADF814602046ADF81650ADF8C3
:1050900018B08DF81C9000F067F8DDE90B1203469C
:1050A000204603F01BF9049010484089ADF81A001F
:1050B00000F0F6F80168496A88478DF81E008DF8FF
:1050C0001D003EB135B12068416B204688470099EC
:1050D000084201D1AFF30080CDF80CA060680168F0
:1050E0004A68694690470DB0BDE8F08FB4010024CE
:1050F000704710B50446FDF07BFF2068D0F8A01083
:105100002046BDE8104008472DE9F04F89B004461D
:1051100012A81D4616468B4690E8800700F0C0F89E
:105120000168496A88470A4A022101235289CDE968
:1051300007105946CDE905328DE8A0072068002206
:105140003346856B2046A84709B0BDE8F08F0000C4
:10515000B4010024416801224A724068016809696B
:1051600008474FF6FF70704710B504460648407870
:1051700040B12068C16A20468847E16B884201D16E
:10518000206C10BDE06B10BDB401002481651C30A3
:1051900001F02ABB012280F8741080F87520704756
:1051A0002DE9FE430F460446806998460A99164643
:1051B00080B30022029202AACDE9001201683246B1
:1051C0000D683946A847154D8146A5F80A8000F0BC
:1051D00067F80168496A88470E2818D2DFE800F0AE
:1051E000070F1B1B1B1B1B1B1B1B1B1B1B1B688974
:1051F000029906FB0070404201EB400006E068891E
:10520000029906FB0070A0EB80000844E06348466A
:10521000BDE8FE83FFE7AFF300800000B401002487
:1052200010B529B13C3080E80E001AB1012002E02F
:10523000AFF300800020044908700BB1012000E0AA
:1052400000200249087010BDB5010024B6010024F9
:10525000F0B50E4A0E4B114C90F874C090F834E043
:105260000C4D0D4EF44511881888277805D0002F75
:105270000BD129800127308004E0002F05D0288041
:1052800000273180198010802770F0BDBA010024FA
:10529000BC010024BE010024C0010024B40100248C
:1052A0000448016891F8760010B1C86C002800D15C
:1052B00088687047C4010024FEB504460068D0F831
:1052C000A41020468847594E002500287ED0012092
:1052D000FEF0D5F994F8660084F8670084F866500B
:1052E00084F84B5094F8750030B12068D0F8B810AD
:1052F0002046884784F8755094F84A00616868B180
:10530000002048720127F770FEF76EF801688A6B7B
:105310000121904794F8670010B103E00120F0E705
:1053200084F86770FEF760F801684969884754F8A7
:10533000580F016809698847E07B401EC0B2E073DE
:10534000217C583C09B10028ECD13079401C40B296
:10535000307194F96410814214DC35716A46E0685A
:105360000168CB6801A998470028206806D0DDE9CC
:105370000021D0F8B0302046984703E0D0F8B410B0
:10538000204688478DF80850606950B10168CA68A6
:1053900002A9904728B1A06D0168CA689DF808105D
:1053A000904704F11C00FFF0C9FB94F86C0068B34F
:1053B00020690168096988470746206F00B9276797
:1053C000206F1B49381A884220D900E024E0206968
:1053D000016889698847216F7A1A6421B2FBF1F26A
:1053E000B0FBF2F0002802DC84F8651008E06428C5
:1053F00002DB84F8655003E0C0F1640084F86500C6
:1054000020690168CA69002190472767FDF7ECFF12
:1054100001688A6B002190472068D0F8A8102046C8
:105420008847012000F028FBF570FEBDB401002480
:1054300000E1F50510B586B0044603A8CDE90312D6
:10544000FFF7B6FA039802A9ADF804000498ADF886
:10545000080001A8FDF012FD94F86B1004F11C0087
:105460000029BDF8081016D089B20091BDF80410CB
:105470008BB2B4F860108AB2B4F85C1089B2FFF055
:105480001DFB002805D0BDF90400E065BDF908004A
:10549000206606B010BD8BB2BDF804108AB20021A0
:1054A00001F054F9012084F86B00ECE72DE9FF4F7F
:1054B0008BB0064602A8DDF87880DDE91F47DDE9FC
:1054C0001C59DDE919BA00F09FFB0B2C08D0022C07
:1054D00008D0FF2D02D3B9F1000F42D0042009E01B
:1054E000802007E0FF2D02D3B9F1000F01D040204A
:1054F00000E0202002900C9803900D980490ADF8E5
:105500001CB0ADF81EA01B98ADF8200030468DF8F9
:105510002450FFF729FE189A03460E993046CDE92C
:10552000008702F0F5FE8DF82540BBF1000F0690D4
:10553000ADF822808DF8267009D0BAF1000F06D0A0
:105540003068416B304688470299084201D1AFF379
:105550000080706801684A6802A990470FB0BDE8F2
:10556000F08F0120C6E72DE9F0478AB08A460DF199
:10557000480EDDE918419EE8E0130DF1040ECDE977
:105580000741294600938EE8C213016813460022A2
:105590008C6B5146A0470AB0BDE8F0872DE9F04773
:1055A00086B004460EA8984691468A4690E8E000E8
:1055B000FFF776FE0168496A8847084943464A462C
:1055C0004989CDE903108DE8E00020685146456D1A
:1055D0002046A84706B0BDE8F0870000B4010024CB
:1055E00004460068816F204688472068016F204686
:1055F0008847FCF0E7FD2068816EF8E7F0B52F4F93
:105600000024DDE9056580C080E81E00046100F12A
:10561000180144610122048344838483C483048485
:10562000448484848C7334318462848580F830406F
:1056300044638463C463046480F8444080F8452074
:1056400080F8464080F8474084640C804C808C8011
:10565000CC8044658465C46580F8602080F8614032
:1056600080F8624080F8632080F8644080F86540EC
:1056700080F8664080F8674080F86840C46680F82B
:10568000704080F8714080F8724080F8732080F894
:105690007420001F0B4AAE42094910600A4A0E806E
:1056A0000A4915800C700A490E800A490D8001D202
:1056B000012100E0002180F83410F0BDF09F0008C7
:1056C000BA010024C4010024BC010024B401002458
:1056D000BE010024C001002410B5002A044688B091
:1056E00018D0012A18D0022A24D0032A12D1B4F9E2
:1056F00004000090C888B4F906306188C01AB4F973
:105700000020401A01B205A800F002FA01682160E9
:105710004068606008B010BDB4F90400009089884A
:10572000B4F90630081A2188401AB4F9021002B2FE
:1057300001A8E9E7B4F906000090CA88B4F904307A
:10574000101A6288801A02B288882188C01A401A0A
:1057500001B203A8D8E72DE9FF4F00269B4681B090
:10576000924689463446B046354621E000200090F6
:10577000204600F075F900B9A04601986B464A46EC
:105780005946FCF05BFF040014D00A2C12D000989C
:1057900068B1848800F1C2FD0746D9F80000009A7C
:1057A0004146C36B484698473844304486B26D1C26
:1057B0005545DBDB05B03046BDE8F08FF0B5DDE9DF
:1057C0000545DDE90767DDE909CE01600471477130
:1057D000867182608581837380F80FC080F810E045
:1057E000F0BD2DE9FF4F95B0DDE9224ADDF8A0803C
:1057F000DDE92459504600F10EFC11902868417AE9
:105800001391007A12900020B4F9004006460D90E2
:1058100007462798B8F1000F0F9006D0287C04287F
:1058200005D001200F9908440F900020DAE00220F3
:10583000F8E700200C90304600F012F900B90D9600
:10584000279988450EDB286801684969884706461C
:10585000286810AB0EAA0168D1F808C03146E047AD
:105860000C900AE010A90EA80CABCDE900012A6843
:1058700049462698FCF005FF0646304600F0F0F851
:1058800000281DD1002E7ED00A2E7DD00C9808B1A4
:10589000868807E0286801680969884700F0E0F811
:1058A00000280DD1B9F1000F00D13C440C9830B163
:1058B00000F134FD07B2B9F1010F02D002E0002778
:1058C0008EE0E41B0D9868B12868B9F1000F0168FB
:1058D000CB6BDDE90C2102D09847241A05E09847EC
:1058E000044406E0B9F1000F03D0B9F1010F06D06E
:1058F0000CE01298211A1198814278DC06E0139886
:10590000E1190144BAF90000814270DB0C98427B36
:10591000817902F0080241EA42110A1990F909104E
:10592000BAF900000A4482425ADB0A1911998A42E4
:1059300056DAA0424FF0000B02DD001B1FFA80FB7D
:105940000020009028680168C96A88470C9B0146BE
:105950005A7B187A02F0200C40EACC005FEA426CD5
:1059600001D5A0F50070091A1898084400B20190FA
:10597000BAF9021081420EDDDB7902F0100243EA2F
:105980000212024401E047E042E08A4228DB081AA2
:1059900080B2CDE9000128680168896B88470DF164
:1059A000240CAB79AA7B9DF840108CE80E000C9B70
:1059B000A9680E9A0891CDE904A3009904EB0B03A2
:1059C000CDE906201BB20093CDE902B11798026819
:1059D000436815980068D0F840C0DDE91501E0473C
:1059E00008F101000F9980468842FFF622AF9EB170
:1059F0000A2E0DD008F1010407E026984946FEF76B
:105A0000ACFC48B10A2803D0641C27988442F4DB1C
:105A1000002019B0BDE8F08F0120FAE770B51446F8
:105A20000D462BB1012B07D0022B09D0032B0BD035
:105A3000B0F90200104470BDB0F90200084470BD16
:105A400002F0B7FC001B02E002F0B3FC401B401E5A
:105A500070BD838819448180C1881144C18070471A
:105A6000A0F57E41FF3905D0A0F500510B3901D0DA
:105A7000002070470120704770472DE9F047044629
:105A80000D46084602F09AFC00283FD1204602F05D
:105A900095FC38B12888208068886080A888A0801C
:105AA000E88832E0B4F90000B5F90010884200DB64
:105AB0000846B4F902608046B5F90200864200DB70
:105AC0000646204600F1A7FA0746284600F1A3FA49
:105AD000874201DD204600E0284600F19CFA81461D
