:020000040800F2
:10000000B88F0024B9020008D5201008891A1008FA
:10001000D92F0008A9041008753500080000000059
:1000200000000000000000000000000001001008B7
:1000300025070008000000005D0010088D31000851
:10004000D3020008D3020008D3020008D30200083C
:10005000D3020008D3020008D3020008D30200082C
:10006000D3020008D3020008D3020008D30200081C
:10007000D3020008D3020008D3020008D30200080C
:10008000D3020008D3020008D3020008D3020008FC
:10009000D3020008D3020008D3020008D3020008EC
:1000A000D3020008D3020008D3020008D3020008DC
:1000B000D3020008D3020008D3020008D3020008CC
:1000C000D3020008D3020008D3020008D3020008BC
:1000D000D3020008D3020008D3020008D3020008AC
:1000E000D3020008D302000800000000D302000879
:1000F000D3020008D3020008D3020008D30200088C
:100100004D051008D3020008D3020008D3020008EE
:10011000D3020008D3020008D302000811231008FC
:10012000D3020008D3020008D3020008D30200085B
:10013000D3020008D3020008D3020008D30200084B
:1001400000000000000000000000000000000000AF
:10015000D3020008D3020008D3020008D30200082B
:10016000D3020008D3020008D3020008D30200081B
:10017000D3020008D3020008D3020008D30200080B
:10018000D3020008D3020008D3020008D3020008FB
:10019000D3020008D3020008D3020008D3020008EB
:1001A000F52D0008D302000819070008D302000843
:1001B000D3020008D3020008D3020008D3020008CB
:1001C000D3020008D3020008D3020008D3020008BB
:1001D000D3020008D3020008D3020008D3020008AB
:1001E000D3020008D3020008D3020008D30200089B
:1001F000D3020008D3020008D3020008D30200088B
:10020000D3020008D3020008D3020008D30200087A
:10021000D3020008D3020008D3020008D30200086A
:10022000D3020008D3020008D30200080000000037
:10023000D3020008D302000800000000D302000827
:10024000D3020008D3020008D3020008D30200083A
:10025000D3020008D3020008D3020008D30200082A
:10026000D3020008D3020008D3020008D30200081A
:10027000D3020008D3020008D302000800000000E7
:10028000D3020008D3020008D302000800000000D7
:1002900000000000D3020008DFF818D000F094F945
:1002A00000F02EF800480047FD930008AFF30080EF
:1002B00000F03BF8B88F0024064880470648004706
:1002C000FEE7FEE7FEE7FEE7FEE7FEE7FEE7FEE706
:1002D000FEE7FEE7C532000899020008D2B201E04D
:1002E00000F8012B491EFBD270470022F6E710B53B
:1002F00013460A4604461946FFF7F0FF204610BD94
:1003000070B5054C054D03E0206820448047241D4E
:10031000AC42F9D170BD0000D4230108E4230108E8
:1003200000487047F801002470472DE9F041064667
:10033000FFF7F6FF8046454613E016B1E068B0428D
:100340000ED120682860D4E90101D8F800708847F0
:10035000204608F0C3FFD8F80000B842EBD100E017
:1003600025462C68002CE8D1BDE8F0812DE9FE4F30
:10037000804681EA0300C00F0C46009021F0004146
:1003800023F00045B8EB0200A94105D240462146C2
:1003900090461C460B46024623F00040104347D0CF
:1003A000270DC7F30A00C3F30A510290401A0190C7
:1003B00040286BDAC3F3130040F4801B0098924688
:1003C00020B10023D2EB030A63EB0B0B01985946D3
:1003D000C0F140025046FFF0E2FE06460D46504690
:1003E0005946019A00F002F910EB0800614100241F
:1003F00087EA115284EAE7731A4340D0009A62B345
:10040000019A012A4FEA075215DC001B61EB020139
:100410004FF0004202EA0752CDE90042001C41F5CC
:10042000801132462B46FFF073FF03B0BDE8F08F1A
:1004300040462146F9E7001B61EB0201001C41F533
:10044000801300185B412018A2F5001747EB030149
:1004500040EAD570B6196D4111E06D084FEA3606D5
:1004600045EAC0754FEA0752001B61EB0201001C10
:1004700041F5801149084FEA3000001951413246D8
:100480002B4603B0BDE8F04FFFF033BF00980122C8
:1004900040000023D0EB020263EBE073009821469A
:1004A0004FEAE074B8EB000061EB0401E9E783F088
:1004B00000435BE781F0004158E72DE9F04D81EA08
:1004C000030404F0004B21F0004514464FF0000AED
:1004D00023F0004150EA050220D054EA01021DD069
:1004E000C5F30A570246C5F31303C1F31300C1F362
:1004F0000A5640F4801543F48013A7EB0608101B3E
:10050000D64608F2FD3873EB050002D308F1010866
:1005100001E092185B41B8F1000F03DA00200146B8
:10052000BDE8F08D00204FF48011064684460EE0B1
:10053000171B73EB050705D3121B63EB050306437B
:100540004CEA010C49084FEA300092185B4150EA2E
:100550000107EDD152EA030012D082EA040083EAD7
:100560000501084305D0101BAB4106D20122002330
:1005700006E000224FF0004302E06FF0010253104A
:100580001AEB06004CEB085110EB0A0041EB0B0193
:10059000BDE8F04DFFF0ADBE30B5041E71F10004B2
:1005A00004DB4FF00044404264EB0101141E73F180
:1005B000000405DB1C464FF00043524263EB04038A
:1005C000994208BF904230BD064C074D06E0E068F6
:1005D00040F0010394E8070098471034AC42F6D38A
:1005E000FFF75EFEB0230108D0230108202A06DBB6
:1005F000CB17203A41FA02F043EAE07306E041FAF1
:1006000002F3D040C2F120029140084319467047DE
:1006100070B53A4905460068884202D0384A90428F
:1006200002D1D1F8080302E03648D0F8080310F4EC
:10063000403F11D001F09CFD04466868B0F5803F52
:1006400006D0B0F5003F03D0B0F5403F26D101E021
:10065000000C17E0A40821E04FF4002001F03CF862
:10066000044668688103890B18D181140C2915D2BE
:10067000DFE801F0140606060606060B0D0F11133F
:10068000800C4000B4FBF0F408E0240906E06409A3
:1006900004E0A40902E0E40900E0240A00F0E2FC1E
:1006A00041F20301884208D81748844228688168CB
:1006B00013D821F48071816070BD144960088842AC
:1006C00004D82868816821F44071F4E71049884211
:1006D00006D82868816821F4407141F48071EAE706
:1006E0000C4988422868816804D821F4407141F49B
:1006F0000071E0E741F44071DDE7000000200240B6
:100700000021024000600258002D3101105E5F00A0
:1007100020BCBE0040787D01014800F1DDBA000038
:10072000040300247047F0B5D1E90843CD690A6895
:10073000C2B10268254322F4F84213431D43056009
:10074000D1E90125D1E903364C692A434568334391
:1007500089691A43EB0B2243DB030A431A434260C5
:100760000020F0BDD1E9012ED1E9036CD1E905717A
:1007700042EA0E0246EA0C0632433A430A43016853
:100780002A4322431A436FF30E010A430260E7E74C
:10079000426943F6FE739A4342EA410141610020F7
:1007A000704700007CB50E46154600210191020AF3
:1007B0008DF80500FF240D480223BA218DF804208E
:1007C00001AA009400F1C8FB10B109A007F182F85A
:1007D0000648BB212B463246009400F0D1FC00288D
:1007E00002D003A007F176F87CBD00006C03002462
:1007F0007265616420726567206572726F720D0A9E
:10080000000000002DE9F84F4FF0000B0446E64EC3
:100810000D46CDF800B05F4690F85000DFF88CA38D
:10082000012808D04FF0010984F85090206801F1A8
:10083000D6F918B16BE10220BDE8F88F216828686D
:10084000CA69030328D090FAA0F0B0FA80F000BF84
:1008500000F01F0309FA03F00243CA61D5E9001250
:100860004FF00C0C20681F23C1F384610CEA921C2A
:1008700002F01F02604493409140026B9A430A4386
:100880000263206801F1ABF98046206802F093FA18
:1008900058EA000003D07FE0C0F38460D8E7206806
:1008A000AA68296802F097FAC1490968B9EB117F73
:1008B00006D121686869C968C1F38201490008E06E
:1008C0002068C168C906C1686869F5D501F01001E2
:1008D00049088840296904292ED023682A6803EB37
:1008E000810102F0F8420B6E024303F00040104316
:1008F0000866697E20682A69012917D05FF0000127
:1009000000EB8200026E22F000420A430266297E5A
:1009100020682A6901290CD00021036902F01F0216
:10092000914023F4F0420A43026135E04FF0004168
:10093000E6E74FF40061F0E720682978026E02F0E4
:10094000F842B2EB816F03D1016E21F000410166E4
:1009500020682978426E02F0F842B2EB816F03D131
:10096000416E21F00041416620682978826E02F0D4
:10097000F842B2EB816F03D1816E21F000418166B4
:1009800020682978C26E02F0F842B2EB816F03D181
:10099000C16E21F00041C1662068816811F0010F2D
:1009A00078D150F8C03F2A7BDFF808C2296802F0EE
:1009B00018022CFA02FCC1F3130823EA08030CEA1C
:1009C000010C43EA0C0303607B48E968814277D15C
:1009D000286801031BD090FAA0F1B1FA81F1491CFB
:1009E00001F01F0109294FEA003131D8002911D047
:1009F00090FAA0F1B1FA81F101F1010101F01F01BA
:100A000009FA01F209D100BFC0F3846109E0C0F323
:100A10008461E4E7C0F38461EEE790FAA0F1B1FAF3
:100A200081F101F1010101F01F0142EA816102D16E
:100A3000C0F3846003E090FAA0F0B0FA80F000F117
:100A4000010000F01F0000EB400041EA005133E0DC
:100A500000290ED090FAA0F1B1FA81F101F1010163
:100A600001F01F0109FA01F206D100BFC0F3846151
:100A700006E0C0F38461F1E790FAA0F1B1FA81F1E8
:100A800001F1010101F01F0142EA816103D1C0F3CC
:100A9000846004E040E090FAA0F0B0FA80F0474AA9
:100AA00000F1010000F01F0000EB400002EB0050DD
:100AB00041EA000141F00071AA68206802F08BF958
:100AC000D5F800C0BCF1000F26DA3D4B20683D4947
:100AD000DFF8F490984201D0B04201D10A4600E01C
:100AE0004A469268984202F0E07201D0B04209D1C1
:100AF0009D68D6F8088005F0010508F0010845EA70
:100B0000080503E0DAF8085005F0010545B1606D0D
:100B1000012740F020006065384684F850B08BE62D
:100B20002A4DAC451BD1150219D45045F4D1984239
:100B300002D0B04200D049468B6842F4000023F056
:100B4000E07202438A60234921480968B1FBF0F052
:100B5000400000E0401E00900028FBD1DCE71E4D65
:100B6000AC450CD1D5010AD45045D5D1984202D01C
:100B7000B04200D049468B6842F080700EE0174DBD
:100B8000AC45C9D15502C7D45045C5D1984202D011
:100B9000B04200D049468B6842F4800023F0E072F6
:100BA00002438A60B8E7000000210240006002585A
:100BB0000010005CFFFF0F000000FF47000020FE58
:100BC000002002400023024000630258000084CB52
:100BD000400D030048000024000052C70000B8CFB9
:100BE0002DE9F047414D0446006888464049414B95
:100BF000A842DFF8049101D0484501D10A4600E03F
:100C00001A46926802F01F062269082A14D0AEB173
:100C1000052E13D0092E11D0A84202D0484500D08D
:100C20001946886800F4404058B1606D40F02000DB
:100C300060650120BDE8F087082703E0C068C007B1
:100C4000F2E7042700F158F982460BE0B8F1FF3FC4
:100C500008D000F151F9A0EB0A01414511D8B8F1D3
:100C6000000F0ED0206800683842EFD0606D40F46D
:100C700000706065206802F0A6F8D0B1607D48B1D0
:100C800017E0606D002184F8501040F004006065AA
:100C90000320CFE72068006800070AD5606D20F4C4
:100CA00080706065606DC00403D4606D40F0010029
:100CB00060652068484501D12A4600E0024682422C
:100CC00010D07EB1052E0DD0092E0BD0484500D096
:100CD0000546E968082F07D0490401D40C210160BA
:100CE0000020A7E7C168F5E70821F8E700200240E7
:100CF000002302400063025800210240F0B50126A3
:100D0000044600201E2301E05B1E05D303F01F07ED
:100D100006FA07F50D42F7D072B1082A0AD0102A58
:100D200005D0182A01D1072B06D30120F0BD082BCE
:100D3000FBD201E0102BF8D22368596121688B683F
:100D400023F0180313438B60F0BD000008B5006862
:100D50000649884208D10648016841F40021016033
:100D6000006800F40020009008BD0000004C02580C
:100D7000E0440258704700002DE9F041040004D01F
:100D800094F86100002518B107E00120BDE8F0816A
:100D9000204684F8605000F12FF8184E022084F8A5
:100DA00061000123D4E90010D4F81CC040F20712FE
:100DB0000F6840EA0C003740384308602068A76994
:100DC000A168466B39439643314341632068E2682A
:100DD000016C6FF30F01114301642068218AA28A1C
:100DE000466B090541EA425126F440121143416322
:100DF000656684F861300020C8E70000BFFFF8FF97
:100E000070B5044600F178F80546601C02D004482D
:100E10000078044400F170F8401BA042FAD370BD82
:100E20003C0000242DE9FC4F01257E4C00234FF0AF
:100E3000030A4FF0B04E4FF00F0BEBE005FA03F64C
:100E400037403A0077D04F68012F05D0022F03D0EA
:100E5000112F01D0122F1AD187684FEA4308D1F819
:100E60000CC00AFA08F927EA09070CFA08FC4CEA50
:100E7000070CC0F808C0476891F804C0B743CCF32A
:100E8000001C0CFA03FC4CEA070CC0F804C0C6684E
:100E90004FEA430CD1F80880E1460AFA0CF7BE434A
:100EA000019708FA09F848EA0608C0F80C804E686D
:100EB000022E01D0122E12D1DE084FEA437C00EB45
:100EC000860600960F69366A4FEADC6C0BFA0CF85E
:100ED00007FA0CF726EA08063743009E37620E79B8
:100EE0000768DDF804C006F0030606FA09F627EAEB
:100EF0000C073E4306604E68F6001CD54A4E376824
:100F000047F00207376036689F0706F00206009632
:100F100023F0030606F1B046B1463F0FD6F8086449
:100F2000DFF808810BFA07FC404526EA0C0603D1DE
:100F30004FF0000C41E06CE0DFF8F4C0604502D1F6
:100F40004FF0010C39E0DFF8ECC0604502D14FF002
:100F5000020C32E0DFF8E0C0604502D14FF0030C34
:100F60002BE0DFF8D8C0604502D14FF0040C24E03C
:100F7000DFF8CCC0604502D14FF0050C1DE0DFF872
:100F8000C4C0604502D14FF0060C16E0DFF8B8C0CF
:100F9000604502D14FF0070C0FE0DFF8B0C06045AC
:100FA00002D14FF0080C08E0DFF8A4C0604502D180
:100FB0004FF0090C01E04FF00A0C0CFA07FC4CEA68
:100FC000060CC9F808C426684F6826EA0206FF0323
:100FD00000D51643266066684F6826EA0206BF03FE
:100FE00000D516436660D1F804C07646DEF800707E
:100FF0005FEACC2C27EA020700D517433760D1F807
:1010000004C077685FEA8C2C27EA020700D51743F3
:1010100077605B1C0A681746DA407FF40FAFBDE8C3
:10102000FC8F000080000058F44402580000025871
:101030000004025800080258000C02580010025820
:101040000014025800180258001C025800200258D0
:1010500000240258426931EA020200D10904816188
:101060007047000001480068000C70470010005CE9
:1010700030B590F84120202A24D190F84020012A50
:1010800020D0012380F84030242280F84120202302
:1010900000240268156825F00105156002681568CE
:1010A00025F480551560026815680D4315600168C8
:1010B0000A6842F001020A6080F8413080F840403E
:1010C000002030BD022030BD70B5040004D094F87B
:1010D0004100002510B106E0012070BD204684F8D3
:1010E0004050FFF0CBFF242084F8410020680168C5
:1010F00021F001010160D4E9001020F07060086166
:101100002068816821F400418160E068216801283D
:10111000A06806D040F404408860E068022803D04C
:1011200006E040F40040F7E721684FF400604860B3
:1011300020212068114A4368134343602068C26835
:1011400022F40042C26054F8106B0DCC104340EA08
:101150000320F06054F81C3CD4E9000210431860EE
:1011600054F81C0D026842F001020260656484F8C4
:101170004110256384F84250002070BD00800002B9
:101180002DE9F84F044690F841001F469046DDF8DF
:1011900028A08B4620287ED194F8400001287AD0E0
:1011A000012084F84000FFF0A7FE01220646192323
:1011B0000090D103204600F179FCE0BB00252221FC
:1011C00084F84110102084F8420065646785618DC1
:1011D000FF2732484FF00079C4F82480FF294FF0F0
:1011E0008078656303D927853A46009039E0618DA0
:1011F000218500903AE05946204601F09DFD13E01C
:1012000000F182FCB8B92068616A406A0870606ABF
:10121000401C6062208D401E81B22185608D401E81
:101220006085608D00B169B1608D324651460028FD
:101230002046E5D100E002E000F1AAFCD0B1012097
:10124000BDE8F88F0022534680212046009600F129
:101250002DFC0028F3D1608DFF2804D927853A465C
:1012600000954346C7E7608D208500954B4694F86E
:101270002820C0E720682021094AC161206843680E
:101280001340436084F8411084F84250002084F8F1
:101290004050D5E7FFE70220D2E70000002400809D
:1012A00000E800FE032010B500F15CF800F094FFA8
:1012B0000F4A104914681368C4F3032203F00F03A4
:1012C0008A5CC95C02F01F0201F01F01D0400A4A8B
:1012D00020FA01F11160094908600020FFF00AFFBF
:1012E00008B1012010BDFFF0FDFF002010BD00007F
:1012F00018440258D48510084C00002448000024EB
:101300002DE9F0410446006800274FF00408856B82
:10131000466B690715D5710713D5426B22F004029D
:1013200042632068C0F83C80D4F8A40040F001007B
:10133000C4F8A40084F8A180204684F8A070FFF0CF
:1013400048FFA80716D5B00714D520680222436BC2
:1013500023F0020343632068C263D4F8A40040F082
:101360000200C4F8A40084F8A180204684F8A0708C
:10137000FFF02FFF05EA06004FF00108C0070ED06E
:1013800021684A6B22F001024A632168C1F83C805F
:1013900084F8A180204684F8A07000F091F8280716
:1013A00010D530070ED520680822436B23F00803C0
:1013B00043632068C26384F8A180204684F8A0704B
:1013C00000F0AAF8BDE8F0812DE9F041040004D056
:1013D00094F8A100002518B107E00120BDE8F081D4
:1013E000204684F8A050FFF0F5FE3448022184F82E
:1013F000A110012202CC8B6923F070438B6194E829
:101400004A001943E3681E4354F8043D31439E6982
:101410003143996121688B6803408B602168A68AFB
:10142000A7698B683B4343EA06438B602168CB681E
:101430000340CB602168A38B276ACE683E4346EA0F
:101440000346CE6021680B6903400B612368A68CBC
:10145000A76A1969394341EA0641196121684B6954
:1014600003404B612068A38D266B4169314341EAFB
:1014700003414161236894F8351094F83600DE6A20
:10148000000406F07F46DE62236840EA012094F8FB
:101490003460D96A31430143D9622068416B41F01D
:1014A000060141632068816941F001018161C4F84E
:1014B000A45084F8A120002090E7000000F800F07C
:1014C000124910B5124A134C0B6C11888B4212D181
:1014D0005188FFF0E5FE206890F86610491C80F8FE
:1014E000661001F1F1FB206802F17EFFBDE81040BB
:1014F000002003F1D9BBFFF0D3FE002004F0B8FABE
:1015000020680168C969BDE8104008470010005014
:1015100030000024DC01002470470000134970B53E
:101520000A68D243520705D5096801F007018142D4
:1015300013D118E00A6822F0070202430A60FFF0A4
:10154000DBFC0A4D4FF47A760446083D07E000BF05
:10155000FFF0D2FC001BB04201D9012070BD286809
:10156000C0438004F4D4002070BD00000C48025831
:1015700010B500F0FDFD05490968054AC1F30211E7
:10158000515C01F01F01C84010BD0000204402580A
:10159000D4851008494930B5484C0B1D0A681C34E5
:1015A00009681D68246802F00303C5F30022C1F333
:1015B0000551C4F3CC04002914FB02F200EE102AFA
:1015C000F8EE400A75D03F4A9FED3D1AB7EE000A8B
:1015D0006BB1DFED3D1A012B01D0022B64D002EE7E
:1015E000101A1168F8EE422A81EEA22A21E0334C4B
:1015F000283C23689B0612D5344B246801EE901AD0
:101600001168C4F3C104F8EE612AE34001EE903A98
:10161000C1F30801F8EE611A81EEA22A0BE001EE97
:10162000901ADFED2B2A00BFF8EE611A116882EEE6
:10163000A12AC1F3080101EE901A1168F8EE611AAF
:1016400040EE811A71EE800A62EE200AC1F3462153
:1016500001EE101AB8EE411A31EE001AC0EE811AEE
:10166000BCEEE11A80ED001A1168C1F3064101EEEB
:10167000101AB8EE411A31EE001AC0EE811ABCEE13
:10168000E11A80ED011A1168C1F3066101EE101A2A
:10169000B8EE411A31EE000A80EE801ABCEEC10AA3
:1016A00080ED020A30BD04E001EE901ADFED092A58
:1016B000BAE70021016041608160F3E728440258E5
:1016C00000000039404402580024744A0090D003BE
:1016D0000024744C20BCBE4B2DE9F0474FF48076BB
:1016E0000146B0426F48DFF8B8818AB06E4B4FF0C8
:1016F00080576E4DA8F104044FEA20124FF0005CB1
:1017000029D1D8F8001001F0070105291FD2DFE820
:1017100001F0030A0F20140006A8FFF035FE079819
:101720000AB0BDE8F0876846FFF0D0FE0098F7E702
:1017300003A8FFF72FFF0398F2E7216811F040514B
:10174000EED0B94275D11046EAE71846E8E7002026
:10175000E6E72846E4E7B1F5007F19D0544EB1F52D
:10176000806F26D0B1F5006F37D04FF480594945CE
:101770004FF4804A4BD1D8F8001001F4E041B1F5A4
:10178000005FD5D03DDC0029C6D04945DFD1CAE78E
:10179000D8F8001001F4E0718029C9D004DC0029D8
:1017A000BAD04029D3D1BEE7C029D2D0B142CED1E0
:1017B000C3E7316801F46001B1F5800FB8D005DCF2
:1017C0000029A9D0B1F5001FC1D1ACE7B1F5C00F18
:1017D000BFD0B1F5000FBAD1AFE7316801F0E061D9
:1017E000B1F1007FA4D005DC002995D0B1F1807F54
:1017F000ADD198E7B1F1407FABD0B1F1806FA6D108
:101800009BE7B1F5405FA4D05145A0D195E7B1F574
:10181000002F4FF480350DD0A9421DD1206810F45F
:101820008030B1D0A84292D16846FFF04FFE0298B6
:1018300076E70EE0316811F44031A8D0A94203D018
:10184000B1F5003F83D178E703A8FFF7A3FE059821
:1018500066E761459AD178E7514597D1316801F043
:10186000E041B1F1405FE3D009DC81B1B94211D070
:1018700061458BD103A8FFF78DFE049850E7B1F1C5
:10188000804F3FF460AFB1F1A04F8BD15DE7FFF720
:101890006FFE45E76846FFF019FE019840E700003B
:1018A000504402580090D00340787D010080BB0076
:1018B000584402582DE9FC5F044650F8241B0025CB
:1018C00000902E460801FE4FDFF8F8831DD5606EAC
:1018D00050B1B0F5801F0CD0B0F5001F0ED0B0F5A0
:1018E000401F1DD001250FE0386840F400303860FB
:1018F00016E00221201D01F071FB03E00098022197
:1019000000F1EAFB05000BD02E462088C00523D548
:10191000606D05281ED2DFE800F00C11161B1B00BD
:10192000626ED8F8001021F440111143C8F800107D
:10193000EBE7386840F40030386009E00021201DF2
:1019400001F04CFB03E00098002100F1C5FB0546C7
:101950006DB100E001252E462088800528D5A06DB8
:1019600080281ED00CDC90B140280ED114E0626DAE
:10197000D8F8001021F007011143C8F80010EBE778
:10198000C02813D0B0F5807F10D001250FE0386853
:1019900040F40030386009E00021201D01F01EFBFA
:1019A00003E00098002100F197FB054695B12E4613
:1019B0002088DFF81093400509F108092CD5D4F8E8
:1019C000A400B0F5800F20D00DDCA0B1B0F5001F51
:1019D0000FD115E0A26DD8F8001021F4E071114389
:1019E000C8F80010E4E7B0F5C00F13D0B0F5000F51
:1019F00010D001250FE0386840F40030386009E06D
:101A00000021201D01F0EAFA03E00098002100F116
:101A100063FB054675B12E46208800052DD5D4F808
:101A2000A800B0F1007F21D00EDCA8B1B0F1807F1A
:101A300010D116E0D4F8A420D9F8001021F46001E8
:101A40001143C9F80010E7E7B0F1407F13D0B0F1BF
:101A5000806F10D001250FE0386840F40030386006
:101A600009E00021201D01F0B9FA03E000980021EF
:101A700000F132FB05466DB12E46206880011FD56E
:101A8000A06CD8B110280FD0202812D0302815D043
:101A9000012514E0D4F8A820D9F8001021F0E06165
:101AA0001143C9F80010E8E7386840F400303860A6
:101AB00004E00221201D01F091FA05466DB12E4689
:101AC0002088C0042BD5E06DB0F5005F20D00DDC80
:101AD000A0B1B0F5805F0FD115E07A48A26C001F6D
:101AE000016821F0300111430160E9E7B0F5405F82
:101AF00013D0B0F5804F10D001250FE0386840F4C6
:101B00000030386009E00021201D01F067FA03E091
:101B10000098002100F1E0FA054685B12E462088A4
:101B2000800429D5206EB0F5403F23D010DC08B3E7
:101B3000B0F5803F14D0B0F5003F0FD115E0E26D55
:101B4000D8F8001021F4E0411143C8F80010E6E78E
:101B5000B0F5802F0ED0B0F5A02F0BD001250AE0F4
:101B60000121201D01F03AFA03E00098012100F163
:101B7000B3FA05468DB12E46208840042AD5D4F804
:101B8000AC00B0F1405F23D010DC08B3B0F1805F4F
:101B900014D0B0F1005F0FD115E0226ED8F800101C
:101BA00021F4E0211143C8F80010E5E7B0F1804FBF
:101BB0000ED0B0F1A04F0BD001250AE00121201D6D
:101BC00001F00CFA03E00098012100F185FA0546C6
:101BD0006DB12E46208800041FD5E06ED8B1B0F15B
:101BE000805F0ED0B0F1005F10D0012514E0D4F872
:101BF000AC20D9F8001021F0E0411143C9F80010E1
:101C0000E8E7386840F40030386004E00121201D26
:101C100001F0E4F905466DB12E462068C0011ED5DD
:101C2000606CD0B101280ED0022811D0032814D046
:101C3000012513E0E26ED8F8001021F04051114365
:101C4000C8F80010E9E7386840F40030386004E074
:101C50000221201D01F0C2F9054685B12E462068FB
:101C6000DFF85CB04002ABF11C0B57D51648016899
:101C700041F480710160FFF03FF982460EE01148A7
:101C8000626C001F016821F0030111430160E6E767
:101C9000FFF032F9A0EB0A0064283DD80A4800683A
:101CA000C005F5D57DBBDFF81CA0B4F8B0100AF173
:101CB000200ADAF8000001F4407100F4407005E0F9
:101CC0002C4402585044025800480258884211D00F
:101CD000DAF80010DAF8002021F4407142F4803282
:101CE000CAF80020DAF8002022F48032CAF8002076
:101CF000CAF80010D4F8B000B0F5807F21D1FFF011
:101D0000FBF8019019E008E0FFF0F6F80199411A9C
:101D100041F28830814210D903252E462078DFF821
:101D200030A4C0073DD0A06F182838D026DC80B37F
:101D3000082829D0102825D12CE0DAF800008007E7
:101D4000E2D5D4F8B010C1F30120032858460DD0D5
:101D5000016821F47C510160B4F8B020DAF8001079
:101D6000C2F30B021143CAF80010D7E7F94A03681F
:101D700002EA111223F47C511143ECE720280ED023
:101D800028280CD001250BE00121201D01F026F9A7
:101D900004E004E00098012100F19EF905465DB1E0
:101DA0002E46207880071ED5606F062819D2DFE8FE
:101DB00000F0160C11161616A26FDAF8001021F0BA
:101DC00038011143CAF80010EBE70121201D01F092
:101DD00005F903E00098012100F17EF9054675B18F
:101DE00000E001252E46207840071FD5D4F890004A
:101DF000062819D2DFE800F0160C11161616626FCD
:101E0000DAF8001021F007011143CAF80010EAE7E0
:101E10000121201D01F0E2F803E00098012100F10A
:101E20005BF905469DB100E001252E46207880062D
:101E30002BD5D4F88C00B0F1405F24D011DC10B366
:101E4000B0F1805F15D0B0F1005F10D116E0D4F88A
:101E50009020D9F8001021F007011143C9F80010B3
:101E6000E4E7B0F1804F0ED0B0F1A04F0BD00125C8
:101E70000AE00021201D01F0B1F803E000980221E2
:101E800000F12AF905468DB12E46207840062BD563
:101E9000D4F89800B0F5406F24D011DC10B3B0F541
:101EA000806F15D0B0F5006F10D116E0D4F88C20FB
:101EB000DAF8001021F0E0411143CAF80010E4E71D
:101EC000B0F5805F0ED0B0F5A05F0BD001250AE021
:101ED0000021201D01F082F803E00098022100F1AA
:101EE000FBF805468DB12E46207800062BD5D4F898
:101EF0009C00B0F5C04F24D011DC10B3B0F5005FEA
:101F000015D0B0F5804F10D116E0D4F89820D9F84C
:101F1000001021F4E0511143C9F80010E4E7B0F5D6
:101F2000004F0ED0B0F5204F0BD001250AE0002164
:101F3000201D01F053F803E00098022100F1CCF8D5
:101F400005464DB12E46207800071ED5D4F88000F6
:101F5000B0F5805F0AD00FE0D4F89C20D9F80010CB
:101F600021F460411143C9F80010ECE70098022108
:101F700000F1B2F800B10126D4F88020DAF80010A0
:101F800021F440511143CAF800102078C00613D53F
:101F9000D4F89400B0F5807F05D10098022100F1BB
:101FA0009BF800B10126D4F89420D9F8001021F450
:101FB00040711143C9F800102068000316D5D4F809
:101FC000A00038B1B0F5803F09D0B0F5003F0BD08C
:101FD00001250AE00021201D01F000F803E000982F
:101FE000022100F179F8054685B12E4620684003AC
:101FF00022D5D4F88400B0F5801F11D0B0F5001FB1
:1020000013D0B0F5401F15D0012514E0D4F8A0205E
:10201000D9F8001021F440311143C9F80010E5E768
:10202000386840F40030386004E00098012100F185
:1020300053F8054655B12E462068C0031CD5E06C08
:1020400070B1B0F5803F10D0012514E0D4F88420A1
:10205000DAF8001021F440111143CAF80010EBE740
:10206000386840F40030386004E00221201D00F0A0
:10207000B5FF0546CDB12E462068800005D50098F5
:10208000022100F129F800B10126206880031BD548
:10209000E06FB8B1B0F5807F10D0B0F5007F11D0FF
:1020A000B0F5407F0ED001250DE02948E26C0838DC
:1020B000016821F4803111430160DDE7386840F4A4
:1020C00000303860F5B32E462068C00207D5226F75
:1020D000D8F8001021F000411143C8F80010206822
:1020E000C00008D5D4F8B420DBF8001021F48041FA
:1020F0001143CBF800102068800207D5A26ED8F8F3
:10210000001021F080711143C8F8001020684000D1
:102110000CD5DBF8001021F40041CBF80010DBF8FF
:102120000010D4F8B8201143CBF800102068002824
:1021300007DA0748226D0838016821F04051114341
:10214000016000E008E086B10120BDE8FC9F0000CE
:1021500054440258CFFFFF00E26FDAF8001021F478
:1021600040711143CAF80010AEE70020EDE700000F
:1021700030B500F031F80B4A0B490C4B1568146868
:10218000C5F3032204F00F048A5C095D02F01F020C
:1021900001F01F01D040064A20FA01F119601060D9
:1021A000084630BD18440258D48510084C0000245D
:1021B0004800002400B5FFF7DBFF05490968054A20
:1021C000C1F30211515C01F01F01C84000BD0000C5
:1021D0001C440258D4851008454970B54548096823
:1021E000434B103B11F0380208D00111082A03D0EC
:1021F000102A0BD0182A0BD0084670BD1968890622
:10220000FBD51968C1F3C101C84070BD3A4870BD23
:102210003749374D18310C1D24350A68096826687E
:102220002D6802F0030406F00102C1F30511C5F3A5
:10223000CC0515FB02F200EE102AB8EE400AE9B315
:102240002F4ADFED2E0AB7EE001A6CB1DFED2D1A22
:10225000012C01D0022C43D002EE101A1068F8EEC7
:10226000422A81EEA22A1EE01C68A40611D51B6832
:1022700001EE901A1168C3F3C103F8EE612AD84049
:1022800001EE900AC1F30800F8EE611A81EEA22A6D
:102290000BE001EE901ADFED1C2A00BFF8EE611A88
:1022A000106882EEA12AC0F3080001EE900AF8EE51
:1022B000611A40EE201A31EE810A00E015E022EEAC
:1022C000000A1068C0F34620401C00EE900AF8EEA9
:1022D000600A80EE201ABCEEC10A10EE100A70BD32
:1022E00001EE901ADFED092AD8E7002070BD00004A
:1022F000104402580090D00340787D01000000395E
:10230000304402580024744A0024744C20BCBE4B54
:102310002DE9F05F04007CD0FF4F2078FE4D183788
:10232000DFF8F493103DC00748D0D9F800003968B1
:1023300000F03800102815D0182803D101F0030050
:1023400002280FD06068B0F5803F12D010B1B0F510
:10235000A02F18D0286820F480302860286820F446
:10236000802009E02868800328D560680028D2D042
:1023700024E0286840F480302860606888B1FEF06E
:10238000BBFD064609E0286840F480202860F0E79D
:10239000FEF0B2FD801B64287ED828688003F7D544
:1023A0000CE0FEF0A9FD064605E000BFFEF0A4FD2E
:1023B000801B6428F0D828688003F7D4207841F285
:1023C0000308D54E0C3E800753D5D9F80000396874
:1023D00010F038000ED0182801D188070AD0E06824
:1023E000A8B3296821F0190101432960FEF084FD9A
:1023F00082461BE02868400702D5E06800288AD0A2
:10240000FEF730FE40451BD82069402812D03168C5
:1024100000E0CCE021F47C3141EA0030306028E07B
:10242000FEF06AFDA0EB0A000228B5D82868400734
:10243000F6D5E5E7306820F47C3040F40030EDE775
:10244000207C316821F0FE4141EA0060E6E7FFE7C9
:10245000286820F001002860FEF04EFD824605E06D
:10246000FEF04AFDA0EB0A00022895D82868400734
:10247000F6D42078C0065FD5D9F80000DFF898B20E
:10248000396800F03800ABF1040B082812D0182886
:1024900005D101F0030000E0EAE001280AD0E0697C
:1024A0000028286838D040F080002860FEF024FD25
:1024B000824623E02868C00523D5E069802876D1CC
:1024C0001FE0206A202821D0316821F0F84141EA3C
:1024D0008060306030E000BF94F82010DBF800200E
:1024E00022F07C5242EA0161CBF8001024E000BFE8
:1024F000FEF002FDA0EB0A00022896D82868C0056D
:10250000F6D5FEF7AFFD4045E6D8DAE7306820F0B3
:10251000F84040F08040DCE720F080002860FEF0CA
:10252000EBFC064605E000BFFEF0E6FC801B02283F
:102530009BD82868C005F7D42078000729D57648AD
:102540006169643000298046016811D041F00101C1
:102550000160FEF0D1FC064605E000BFFEF0CCFCB9
:10256000801B0228C9D8D8F800008007F6D510E0F3
:1025700021F001010160FEF0BFFC064605E000BF4E
:10258000FEF0BAFC801B022872D8D8F80000800741
:10259000F6D42078800623D5A0690028286810D0BA
:1025A00040F480502860FEF0A7FC064605E02CE1D0
:1025B000FEF0A2FC801B02285AD828688004F7D5B8
:1025C0000EE020F480502860FEF096FC064604E001
:1025D000FEF092FC801B02284AD828688004F7D4B9
:1025E000207840074FD5DFF83481D8F8001041F447
:1025F0008071C8F80010FEF07FFC064605E000BFC1
:10260000FEF07AFC801B642832D8D8F80000C005A0
:10261000F6D5414EA068603601280AD008B10528D9
:1026200013D0306820F001003060306820F00400E2
:1026300002E0306840F001003060A06841F2883A62
:1026400090B1FEF059FC80460AE0306840F004008A
:102650003060EEE7FEF050FCA0EB0801514507D8D2
:1026600030688007F6D50EE0FEF046FC804607E0B5
:1026700084E000BFFEF040FCA0EB080151457DD88E
:1026800030688007F6D4606AF0B3DFF88C80D9F840
:10269000001008F12008C1F3C20103296FD00228FD
:1026A000286820F08070286003D0FEF025FC0446E6
:1026B00080E0FEF021FC064605E000BFFEF01CFCB9
:1026C000801B022873D828688001F7D4E26A40F2A0
:1026D000F331386854F8283F884340EA0210184321
:1026E0003860217B4FF4FE0C22894FF0FE47208A90
:1026F0004902267D521E401EA1F5007189B20CEAE6
:102700000040C2F3080200E081E01143761E01435D
:10271000014807EA066203E01044025800480258E4
:102720001C3011433B4AC8F80010016821F0010138
:10273000016011684FF6F876236AB14341EAC3019C
:1027400011600168A26921F00C0111430160016868
:10275000E26921F0020111430160016841F4803116
:102760000160016841F400310160016841F4802199
:102770000160016841F00101016001E017E01DE026
:10278000286840F080702860FEF0B6FB044604E044
:10279000FEF0B2FB001B022809D828688001F7D59B
:1027A00035E000BFFEF0A8FB001B022802D9032081
:1027B000BDE8F09F28688001F4D428E0396801283A
:1027C000D8F8000021D0A26A01F0030393421CD183
:1027D000E26AC1F305118A4217D1216BC0F30802E6
:1027E000491E8A4211D1616BC0F34622491E9142B3
:1027F0000BD1A16BC0F30642491E914205D1E16B9A
:10280000C0F30660491E814201D00120D0E70020BC
:10281000CEE700003444025870B504000D4603D0E2
:1028200094F82C0010B107E0012070BD002084F85E
:102830002D00204600F018F8022084F82C002068B3
:10284000211DFDF770FFD4E900022946FDF096FE38
:1028500004480121026842F00042026084F82C1012
:10286000002070BD00400052FEF0E4BA7047000046
:10287000024A136883430B431360704704040058F3
:102880007047704710B5040003D094F83D0010B1B4
:1028900007E0012010BD002084F83C002046FFF036
:1028A0006AF8022084F83D002068211D00F07CFDBC
:1028B000012084F8480084F83E0084F83F0084F842
:1028C000400084F8410084F8420084F8430084F812
:1028D000440084F8450084F8460084F8470084F8F2
:1028E0003D00002010BD000090F83D10012901D0EE
:1028F000012070470B4A022180F83D100168CB6827
:1029000043F00103CB60006881681140062906D0BE
:10291000B1F5803F03D0016841F001010160002062
:102920007047000007000100704770B5044600685A
:1029300000250169C943890715D4C168C9438907BE
:1029400011D4EA1E02610121217720688069800785
:10295000204602D0FFF7E8FF04E0FFF00DF8204624
:1029600000F0A4F8257720680169C943490717D406
:10297000C168C943490713D402216FF00402026100
:1029800021772068806910F4407F204602D0FFF74D
:10299000CBFF04E0FEF0F0FF204600F087F825773B
:1029A00020680169C943090716D4C168C9430907EA
:1029B00012D404216FF00802026121772068C069F7
:1029C0008007204602D0FFF7AFFF04E0FEF0D4FFFF
:1029D000204600F06BF8257720680169C943C906D5
:1029E00017D4C168C943C90613D408216FF0100277
:1029F000026121772068C06910F4407F204602D030
:102A0000FFF792FF04E0FEF0B7FF204600F04EF81B
:102A1000257720680169C943C90708D1C168C9433E
:102A2000C90704D1891E01612046FEF0A7FF206876
:102A30000169C943090609D4C168C943090605D417
:102A40006FF0800101612046FEF094FF206801696B
:102A5000C943C90509D4C168C943090605D46FF43F
:102A6000807101612046FFF70BFF20680169C943AF
:102A7000490609D4C168C943490605D46FF040012D
:102A800001612046FEF084FF20680169C943890680
:102A90000BD4C168C943890607D46FF020010161D6
:102AA0002046BDE87040FFF7ECBE70BD704770B5C2
:102AB000044690F87C0001281DD0012284F87C2077
:102AC0002420C4F8800020680568026822F0010212
:102AD00002602068826822F060620A4382602046B9
:102AE00000F0C4FC2268202100201560C4F880108A
:102AF00084F87C0070BD022070BD00002DE9F0411B
:102B000086B0064614216846FDF7EFFB32480025E3
:102B100032680224314B08382F490826DFF8C0807C
:102B20009A4228D10A6842F480120A60096801F4C6
:102B300080110591016841F004010160016801F014
:102B400004010591016841F00801016000686946CF
:102B500000F00800059098148DE831002148CDE977
:102B60000356FEF75FF9042069468DE83100CDE990
:102B7000035640462BE01C4B9A422AD10A6842F485
:102B800000320A60096801F400310591016841F0E2
:102B900008010160016801F008010591016841F038
:102BA0000101016000680727694600F001000590F7
:102BB00020208DE83100CDE903574046FEF732F979
:102BC00000966946CDE901450848CDE90357FEF76F
:102BD00029F906B0BDE8F081E844025800500040F1
:102BE000000C02580008025800440040000002583F
:102BF0002DE9F8430446D0F880001F4616460D46DE
:102C0000202852D1DDB1D6B194F87C0001284CD0F7
:102C1000012084F87C0021224FF00008C4F888804D
:102C2000C4F880201834FEF067F9814654F8100C7F
:102C3000A687E687183CB0F5805F03D004E001204A
:102C4000BDE8F883206920B12E46002584F87C80F9
:102C500010E00026FAE78021204600F039FCB8B9E0
:102C6000C6B116F8010B21688862B4F85600401E00
:102C7000A4F85600B4F856004B464FF000020097F7
:102C80000028E8D14FF04001204600F021FC38B187
:102C90000320D5E735F8020B2168C0F30800E3E70D
:102CA0002020C4F880000020CAE70220C8E7000006
:102CB0002DE9F0410446006890460E468069C04305
:102CC000C00635D40025202720688069C0438006CF
:102CD00016D5701CF8D0FEF00FF9A0EB0800B0423A
:102CE00001D8002EF0D1606C84F8405040F02000F4
:102CF000606484F8417084F842500120BDE8F0819E
:102D000021681020C8612068C7612046FEF0BDFE22
:102D10002068084942680A404260606C40F0040044
:102D2000606484F8417084F8425084F84050E4E7CD
:102D30000020E3E700E800FE70B50068C1F3090178
:102D4000074E41EA0241049C4FF4806542681943F2
:102D500005EA54553543AA4321430A43426070BDF6
:102D6000FF63FF0370B516460D4604460FE032467A
:102D700029462046FFF79CFF08B1012070BD681C62
:102D800005D0FEF0B9F8801BA84207D835B12068FD
:102D90008069C0438007EAD4002070BD626C0020C7
:102DA00084F84000202142F02002626484F841103F
:102DB00084F84200E1E78068C0F3C0007047806893
:102DC000C0F380007047C06810F4406F01D000204D
:102DD00070470120704710B5042404EAD15407233A
:102DE000C1F3045120448B408A4041699943114307
:102DF000416110BD0148FEF783BA0000B80300240A
:102E000030B587B01C216846FDF76FFA18480024DA
:102E1000164A04250121C0E900248460C0E9034565
:102E2000047544758161047744628462C4620463FA
:102E3000446380F83840FDF0B7FC08B172B6FEE795
:102E40000C48062140F2FF7203928DE813000848F7
:102E50006946CDE904548DF81940FDF7D3FC0028EC
:102E600001D072B6FEE707B030BD0000002102407D
:102E70007C02002402003004104801220E4B002185
:102E800010B50360C0E90112C1608161C161C0E990
:102E90001112C164016541658165C165FDF76CFF73
:102EA00008B172B6FEE705480121FDF0B1FE002829
:102EB00001D072B6FEE710BD0010005204030024DA
:102EC000F0B587B01C216846FDF70FFA16480126B9
:102ED0000022144D02214FF0100C082705604FF41A
:102EE000C075C0E90126C76040248E02C0F810C03A
:102EF0000F03C0E90545C0E9072607230424C0E9FC
:102F000009278DE81A0003250393CDE904510691A2
:102F10006946FFF781FC002801D072B6FEE707B0D2
:102F2000F0BD00004041005278050024F0B58DB09E
:102F300034216846FDF7D9F925480024234A2E217B
:102F400000F11C0E40F24E334FF4FC7640F276371F
:102F500002601822446040F2022C84600125C460A3
:102F600004618EE8CE10C0E9054580F8344080F851
:102F7000354080F83640FEF727FA08B172B6FEE712
:102F80004FF4487004954FF4F071FF22CDE90040F2
:102F9000CDE90241CDE9052405260994CDE90A01D0
:102FA0004FF480630A48CDE907368DF8304000229F
:102FB0008DF8314069468DF83240FEF0E1F8002886
:102FC00001D072B6FEE70DB0F0BD00000010005059
:102FD000B803002406F032BDFEE700002DE9F047FB
:102FE000454D044689464FF0000A2868C0438007D3
:102FF0000AD0414E283E306820F080603060FDF0FD
:103000007BFF0746B04608E00120BDE8F08700BF1F
:10301000FDF072FFC01B022867D8D8F8000000013D
:10302000F6D4206829684FF4FE0721F47C313E0273
:1030300041EA00302860207AA389B4F804C0400235
:103040002D4D2D495B1E227CACF1010C1035091D64
:10305000A0F5007080B2521ECCF3080C07EA0343BF
:1030600040EA0C00184306EA026210432860086830
:10307000626920F0C000104308600A68A06922F06D
:10308000200202430A60281D0A6822F010020A602A
:1030900002684FF6F873E4699A4342EAC402026098
:1030A0000868B9F1000F40F010020A6011D00868FA
:1030B000B9F1010F11D040F400100860D8F80000F9
:1030C000444640F08060C8F80000FDF015FF05465A
:1030D0000DE0086840F40020EFE740F48010ECE7D2
:1030E000FDF00AFF401B022801D903208DE720686C
:1030F0000001F5D5504688E7284402582DE9F843E9
:103100001C4C102600274FF6FF7901251A484A4625
:103110002146C4E90056C4E90257FEF00DFC1748E9
:103120000090401E0090FCD102211348C4E9001613
:103130001049B846C4E902574A46FEF0FDFB042791
:103140000D4803214A4684E8C2010A49FEF0F4FB17
:1031500040F2312007494A46C4E902500648C4E912
:103160000076FEF0E9FBBDE8F84303484FF44E71EA
:10317000FEF0CBBB0802002478050024A0860100E5
:10318000FFF728FF012004F1FDFCFBE7502010B5FC
:1031900080F31188BFF34F8FBFF36F8F07F036F8BE
:1031A00018B104494FF080500860002080F3118866
:1031B00010BD000004ED00E02DE9F041CCB04C2141
:1031C0002FA8FDF792F8202142A8FDF78EF8BC2128
:1031D0006846FDF78AF80220FEF7A0F9354800247A
:1031E0003549026842F44042026002680A6842F0CF
:1031F00001020A60096801F001014A91016889042D
:10320000FCD52E4802250168012308264FF0C0088E
:103210001F0421F00301891C016005203895CDE9C8
:103220003950CDE93B853D952FA83E95CDE93F64CA
:103230004194CDE92F37FFF76BF808B172B6FEE77E
:103240004020449403270201CDE945603F21CDE9A8
:103250004702CDE942170421499042A8FEF0D8F96F
:1032600008B172B6FEE70C22154B009307A8202187
:10327000CDE901520395332204951923CDE9055870
:10328000CDE90A2580E892004FF440661194CDE91B
:103290000E6420946846CDE90C5310941D94289434
:1032A000FEF708FB002801D072B6FEE74CB0BDE87F
:1032B000F0810000184802582C0400582844025895
:1032C0000A0008212E48F0B52E4A016841F4700129
:1032D0000160106800F00F00072804D2106820F089
:1032E0000F00C01D106028490020274C10340B68C7
:1032F000264D43F001030B6020600B682B400B60F0
:10330000136803F00F03072B04D9136823F00F038E
:10331000DB1D13601C4C1E4A18341E4B261D371D26
:103320002060194C1C4D28343060261D3860371D34
:1033300023603B1D35601C1D3A60251D2E1D186045
:10334000331D22602860326018600A680E4B134CEF
:1033500022F4802260330A60186020686FF30F0047
:10336000B0F1005F03D20E490120C1F8080143F219
:10337000D2000C49024B4A03803B08601A60F0BD42
:1033800088ED00E000200052004402587FEDF6EA8C
:1033900080020101000202020000FF010010005C37
:1033A00000800051004000522DE9F047274B4FF0BC
:1033B000804A274D02689842264E274F274C09D055
:1033C000504507D0A84205D0B04203D0B84201D042
:1033D000A04205D1D1F804C022F070024CEA0202EA
:1033E000DFF87CC0DFF87C809842DFF87C900FD05B
:1033F00050450DD0A8420BD0B04209D0B84207D0FA
:10340000A04205D0604503D0404501D0484503D1D6
:10341000CD6822F440722A434D6922F080022A438B
:10342000026098428A68C2620A68826207D0A0423B
:1034300005D0604503D0404501D0484501D1096918
:10344000016301214161BDE8F087000000000140F7
:103450000004004000080040000C0040000401404F
:103460000040014000440140004801403FB514A124
:10347000D1E9002314A1CDE90023D1E90021CDE950
:103480000221416EB9B1016802AC8A688968C2F351
:103490004262490F1DF80150615C2D01B5FBF1F14D
:1034A000A0F86A101DF80210A25C0901B1FBF2F14C
:1034B000A0F868103FBD0121A0F86A10F8E70000ED
:1034C00001010103070100000804020408010101D1
:1034D0002DE9F0479A4617460E460446089D4FF0E0
:1034E00000094FF0200839E0681C37D0FDF004FDDA
:1034F000A0EB0A00A84222D80DB320680168490752
:103500002CD5C069C043000528D423684FF400615E
:10351000196221680B6823F4D0730B6021688B68F3
:1035200023F001038B60C4F88080C4F88480C4F861
:10353000888000BF032084F87C90BDE8F087216874
:103540000B6823F4D0730B6021688B6823F00103B0
:103550008B60C4F88080C4F88480EBE72068C06981
:1035600036EA000004D00020B842BDD00020E4E7D5
:103570000120F9E7FEE7002809DB410900F01F02FE
:103580008900012001F1E0219040C1F8000170475D
:10359000024800684068016849690847DC01002466
:1035A0000E4808B5016841F010010160006800F0A4
:1035B0001000009009485838016841F0100101607E
:1035C000016821F0100101600649054808624FF0CA
:1035D00080600549C1F8000108BD0000D4440258CC
:1035E000913500080403002408E000E02DE9F047CD
:1035F0000C46497F074600F0F9F8A17F0646384699
:1036000000F0F4F8A17F05463846FFF077F9DFF8BF
:1036100054810246608BA18A534FDFF85091401AC3
:10362000C8F84000608BA18A401AC8F81800208BA7
:10363000A18A401AC8F81000C8F8342060694FEA1F
:103640003040C8F844002069C8F83C006068C8F8F9
:103650000C002068802827D006DC042870D02028A1
:103660006ED0402806D16BE0B0F5807F0ED0B0F56B
:10367000007F0ED0207F46EA006040F40030C8F89A
:103680001C00607FA17F884258D166E0207F3849C6
:1036900002E03749207F491E01EB0060C8F81C009A
:1036A000E068C8F8200052E0217FA06846EA016186
:1036B00041F40031C8F81C10C8F82450011D2269DB
:1036C000C8F81420C8F82C106FF0FF0203784FF6EA
:1036D00010714FF0010513F0FF0303D0012B09D047
:1036E000AFF300804388D8F81C00884302EB032125
:1036F00008430CE0237FFF2B00D100254388D8F836
:103700001C00884302EB0321084340F01000C8F876
:103710001C00D8F81C0040F02000C8F81C0001E094
:1037200000F0E6FBD8F81C008006F9D41020C8F899
:1037300008001DB1C8F80070BDE8F08748460EE0EB
:10374000207F46EA006040F40030C8F81C00C8F84A
:1037500024502069C8F81400ECE740F20120C8F8B2
:103760000000E9E70010005201020200010201001E
:103770000A00020070B50C46897FFFF0BFF81749B8
:10378000486362694FEA32424A642269CA63628BC3
:10379000A38AD21A0A642268082A07D00022C861C4
:1037A0000A610F4AE06888630A6070BD638BA58A6E
:1037B0000C4A5B1B8B61638BA58A5B1B0B614862A8
:1037C000207F02EB0060C861E06808620648226959
:1037D0004A612269CA60086070BD00000010005292
:1037E00001020300090001000102020000200C296F
:1037F00010B50DD2DFE801F00806070C0C0C0C0A1E
:103800000A0A0A0A012010BD022010BD052010BDC1
:10381000AFF3008010B500F10C014160002202728C
:103820000B46427207496022016000F120011846F0
:1038300000F110FC044960232022143005F04CF9FB
:10384000203810BD14861008435B0008064A05495D
:1038500001604FF08061C2F88011BFF34F8FBFF35A
:103860006F8F70471486100808E000E000F032BA4D
:10387000FFF02AB9FFF03AB9704700002DE9F04F88
:1038800091B001F1C1FBE9490025C56340F8401B37
:1038900001F00EFD2C3001F00BFD2C3001F008FD85
:1038A000E34900F5BE72C5620160642105863430CB
:1038B00001F054FCDF49016000F5367001F0A2F917
:1038C000383001F007FCDC490446016029460575E3
:1038D0004575857501F0D7F804F1180001F0E2FB99
:1038E000D64940F8441B01F0E3F8D54940F8501B95
:1038F00001F0DEF8D34940F8501B01F11DFC00F146
:10390000FC0426212046FCF7F0FC204602F096FE3F
:103910008562012180F82C504FF6FF7280F8241048
:10392000C9490160FF21C28502864286828680F8ED
:103930003610C64980F8375080F83850C44EC0E978
:103940000F51A0F8485000F140014C30D6E9002357
:1039500004F1F2FDA0F10C011030D6E9022304F1CC
:10396000EBFD0561A0F5C664456104F5C967D6E9BC
:103970000402B849C7E9001442F6E061C7E902024F
:1039800004F5CB6001F028FB00224FF4487A114681
:1039900004F1400053464FF4F0788146CDF80080A2
:1039A00001F1F6FF00224E461146104602F0C2F821
:1039B0000022B06204F16C0053461146CDF800803D
:1039C000804601F1E5FF982246469920114602F013
:1039D000B1F840F2BF2BB06204F198005B461822A8
:1039E00006460F214FF4D47ACDF800A001F1D0FFA4
:1039F000FF221146104602F09DF80022B0621146E7
:103A0000104602F097F8F06201200146308604F17A
:103A1000CC00029001F037FC02986422002100F1F2
:103A200017FC029818220F215B46CDF800A001F187
:103A3000AFFF16200090029813231C220A2101F0E8
:103A4000CCF94FF0060B029800235A460221CDF81C
:103A500000B001F007FA0298B422002101F0D3FB74
:103A600004F57D700121824601F0A9FAC522972153
:103A7000142002F05FF80146504600F139FC142191
:103A8000504601F0FFFA0121504601F006FB029872
:103A9000514601F065F9012104F58760009001F0BD
:103AA0008EFA0098142100F0F4FFDFF8ACA1012297
:103AB000009803A9CDF80CA0ADF8102000F0F4FF99
:103AC00000221146104602F035F80146009800F138
:103AD0000FFC0099029800F1D9F9012104F59160D9
:103AE000009001F06CFA0098142100F0D2FF0098C9
:103AF00003A9CDF80CA0ADF8105000F0D5FF0022BE
:103B00001146104602F016F80146009800F1F0FB4D
:103B10000099029800F181F9012104F56970009083
:103B200001F04DFAC5229721142002F003F8014656
:103B300004F57770824600F0A6FF00985146FFF02A
:103B400046FC0098022100F1FEF80099029801F06D
:103B500007F94FF4367A8822514604F59B600590A8
:103B600003F00DF90420ADF830000520ADF8280071
:103B700005980CAB0BAAADF82CB00AA901F18CFA90
:103B80007D2000230322CDE900500598072102F093
:103B90008BFC0598FA22142102F024FC0598B4212C
:103BA00001F1BBFA04F2D45051461822C4F8D07582
:103BB000074603F0E4F80221ADF824100321ADF824
:103BC000285009A8ADF82C100121ADF830100AAB2F
:103BD00000900BAA38460CA900F02AFD00213846B7
:103BE000FFF0A8FB4946204687F8385002F0A8FAB3
:103BF0004146204602F0A4FA3146204602F0A0FADF
:103C00000299204602F09CFA0599204602F098FAA3
:103C10003946204602F094FA04F21460394606F060
:103C2000D0FC11B02046BDE8F08F0000448710089A
:103C300028891008DCAA0008E4891008408B1008C5
:103C4000A0881008B8A80008B4871008D88A1008FF
:103C5000F48510086490100868B10008C068FFF08F
:103C600008B870470720704700487047C400002418
:103C700010B50446D0F8540100F050F82046BDE8D5
:103C80001040FFF04DB8000010B5FEF05DFF014997
:103C9000016010BD60A700087CB514460D4668465B
:103CA00003F10AFFBDF80000002806D0BDF80200AD
:103CB0002860BDF80400206001207CBD7047000032
:103CC00003480068C00301D5FEF0B6BD7047000090
:103CD00014ED00E05A2010B5FFF74DFCBDE8104090
:103CE0005820FFF748BC000009480A49C268C2F3DF
:103CF0000A02521E92B20A800369C3F30A035B1ED2
:103D00004B800264416B41F0010141637047000048
:103D10000010005030000024704700002DE9F05FD3
:103D20004FF4007183464A482DED028BFDF0DAF81E
:103D3000484E01284FF4005517D00022294630463E
:103D4000FDF0D5F8DBF8004029463046FDF0CAF812
:103D5000014620688268204690473F4D00263F4C30
:103D60003F4F9FED408B2E601EE00122E6E73F486B
:103D7000FCF08EFE3D480A21FCF732FF3B48FCF088
:103D80000FFD00EE100A2968B8EE400B20EE080B7C
:103D9000BDEEC00B10EE100A44F821000220FDF722
:103DA0002FF82868401C2860296838688142DEDBCB
:103DB0002F49431EAA468E460E6020E0C21BDFF844
:103DC000B480521ECAF8006011E000BF04EB810904
:103DD00054F82150D9F804C0654505DDC8F80050F5
:103DE00044F821C0C9F80450491CCAF80010DAF898
:103DF00000108A42EADC7F1C7146CEF800700F6822
:103E00009F42DBDB05221C4D411F534607E000BFEC
:103E100054F82270521CD5F800C067442F608A42C3
:103E20001A60F5DB29680A38144C91FBF0F0206029
:103E30000A20FCF7E5FFDBF80000218889B2026860
:103E4000D26890472E60BDEC028BBDE8F09F000069
:103E5000001C0258000802580C000024AC05002485
:103E6000A88510086666666666664A3F18020024E2
:103E70001000002414000024000000240800002486
:103E800010B50446FEF0A8FD2068D4F80815C26AF3
:103E90002046BDE8104010477047000030B5044C84
:103EA000039D04600171C2800381458130BD000023
:103EB0004CA8000810B5064C0021606805F05CFBBA
:103EC00060684FF0FF31BDE8104005F055BB0000C1
:103ED000340000240148006803F15CBE3400002473
:103EE00002480021006805F047BB000034000024B0
:103EF00005F0A0BB90F84430002B01D102F004BDC6
:103F0000704710B5FEF0FCFE0168096BBDE810407B
:103F100008474160704770472DE9F74F84B08146EC
:103F200005A804F04FFB00287ED109F1A805B9F8D7
:103F3000E8400AE0A0B205EBC00105A803F17BFA56
:103F400018B1A1B2284604F1B9FA641EF2D5B9F845
:103F5000E8604FF0000AD046761E66D4B0B205A9DC
:103F600005EBC004204604F039FB00287AD0BDF9E7
:103F70001400B4F90010884232DB05A803F156FAA8
:103F80000746204603F152FA874229DCBDF91600A4
:103F9000B4F90210884212DB204604F00EFBBDF992
:103FA0001620BDF81A10801A00B2091A09B2ADF82D
:103FB0001A10002938DD1044ADF816004DE005A8B0
:103FC00004F0FBFA0746204604F0F7FA874207DCC4
:103FD0006088BDF81610401A00B2ADF81A003AE039
:103FE000BDF91600B4F90210884239DB05A804F0C7
:103FF000E4FA0746204604F0E0FA874230DCBDF9D7
:104000001400B4F90010884215DB204603F10EFAC3
:10401000BDF91420BDF81810801A00B2091A09B2AF
:10402000ADF81810002901E080E098E07EDD104432
:10403000ADF8140011E005A803F1F8F90746204691
:1040400003F1F4F987420BDC2088BDF81410401A04
:1040500000B2ADF81800002868DD4FF0010801E05B
:104060004FF0010A761E7FF579AFB8F1000F7FF4AB
:104070006EAFBAF1000F72D0B9F8E8604FF00008E7
:10408000761E6CD4B0B205A905EBC004204604F03E
:10409000A5FA58B3BDF91400B4F90010884226DC23
:1040A00005A803F1C3F90746204603F1BFF987428B
:1040B0001DDBBDF91600B4F90210884205A808DC22
:1040C00004F07BFA6188401A01446180E188081A93
:1040D0000BE004F072FA0746204604F06EFA8742BD
:1040E00005DBBDF816006188401AE0802FE0BDF9BD
:1040F0001600B4F90210884227DC05A804F05DFA26
:104100000746204604F059FA87421EDBBDF9140029
:10411000B4F90010884205A809DC03F187F9218869
:10412000401A01442180A188081A0CE070E103F1D3
:104130007DF90746204603F179F9874205DBBDF892
:1041400014002188401AA08001E04FF00108761E7B
:1041500098D5B8F1000F8ED0B9F8E8604CE14EE187
:10416000B0B205EBC00405A8214603F164F918B10B
:10417000B1B2284604F1A2F905A9204604F02EFAAE
:104180000028EBD0BDF91400B4F900108842BDF945
:104190001600B4F902107DDD884233DDBDF816004B
:1041A0006188401A21880FFA80F8BDF81400401A7F
:1041B00006B205A803F13AF90746204603F136F99D
:1041C000391A05A801FB08FA04F0F7F9074620465A
:1041D00004F0F3F9381A7043504508DCA4F806805F
:1041E0002088ADF81400BDF818003044D4E0A68053
:1041F000BDF81A1001EB0800ADF81A006088ADF8A0
:10420000160094E605A803F111F90746204603F1CC
:104210000DF921888742BDF81400A0EB01000FFAC8
:1042200080F8204625DD04F0C8F9064605A804F00C
:10423000C4F9301ABDF9161006B2B4F90200411AD9
:1042400005A801FB08FA03F1F1F80746204603F13F
:10425000EDF8381A7043824508DC05A804F0ADF982
:104260006080E6802088ADF8140091E0A4F8048016
:104270005EE003F1DBF8074605A803F1D7F8381A2A
:1042800007B2B9F8E80007280EDAD4F800B0D4F87D
:1042900004A000E01CE005A803F1C8F85246208005
:1042A000A78068F30F02A3E0B8450EDCBDF8181034
:1042B0002088ADF8140001EB0800ADF8180005A83F
:1042C00003F1B4F82080A78031E6A4F8048026E04A
:1042D000884231DA204603F1A9F8064605A803F121
:1042E000A5F8301A07B2204604F067F9064605A87B
:1042F00004F063F9301ABDF9161006B2B4F90200E1
:10430000BDF91420411AB4F90000801A79437043B2
:10431000814208DC05A8E68004F04FF96080BDF812
:104320001800384438E005A8A78003F17FF8208002
:10433000BDF81A00304484E005A803F177F8074679
:10434000204603F173F8874233DA204603F16EF812
:10435000064605A803F16AF8301A61880FFA80F85A
:10436000BDF81600401ABDF9141006B2B4F90000E9
:10437000411A05A801FB06FA04F01FF9074620467A
:1043800004F01BF9381A00FB08F0504507DCE68002
:10439000BDF8181001EB0800ADF81800C7E505A836
:1043A00003F144F82080A4F804806088ADF816007A
:1043B000BEE7BDF816006188401A0FFA80F8204663
:1043C00004F0FBF8074605A804F0F7F8381A07B21E
:1043D000B9F8E80007281EDAD4F800B005A8D4F828
:1043E00004A0E78004F0E9F85246608068F31F42B9
:1043F0005946284604F175F8761E7FF5B1AEB9F836
:10440000E860082E20D2DDE90512284604F169F89B
:1044100007B0BDE8F08FB8450EDCBDF81A10608813
:10442000ADF8160001EB0800ADF81A0005A804F07D
:10443000C4F86080E7807AE5A4F80680BDF81A0029
:104440003844ADF81A0072E500274FF0FF3A761EA7
:104450006FF0004B42D4B0B2741E05EBC008B8F840
:104460000410B8F8060011FB00F002902EE0002CBA
:1044700003DBA0B205EBC00100E005A98888CA886B
:1044800010FB02F00390D8F800200092D8F8040046
:104490000190684600F10AFCBDF80400BDF8061062
:1044A00010FB01F1DDE902201044CA17081A01EBE4
:1044B0005271B0EBE10F02DA3746A2460BE05845E5
:1044C00003DA3746A24630B18346641EB4F1FF3F9B
:1044D000CDDA761EBFD5BAF1000F06DAB8B205EB19
:1044E000C00105A800F1E2FB12E01FFA8AF005EB1B
:1044F000C004B8B2214605EBC000064600F1D6FB69
:104500000598206006986060316805917068069093
:10451000B9B2284603F1D2FF09E50000034840681C
:10452000002802D00268D269104770476801002451
:1045300003484068002802D00268126A104770479A
:104540006801002470B50646194886B00C46002262
:104550001146008800B200901648008803B203A8F4
:1045600000F1EFFB0246214601A804F074F801991E
:10457000114D2160029A62606868002805D096F8A3
:10458000343123B13046FFF7C7FC06B070BD016877
:104590008A6821469047286918B101688A682146CF
:1045A00090470648006801688A6921469047ECE711
:1045B000D4010024D201002468010024DC0100247D
:1045C000F8B5174900250160A0F88450A83003F120
:1045D00097FF423003F194FF0023009542301A46C2
:1045E000194600F1AEFB0572A0F5967445720D49AF
:1045F0000D48FBF05BFF00B101200C4E08B1358087
:1046000006E04FF4806030800220706001F0B0FD61
:10461000F56020467560B560FEF062FE2046F8BD8C
:1046200060A80008CDB5E8B5C2A507F4680100246C
:104630002DE9F041098800F12E07069CC1851188FB
:10464000018619884186218804468186384604F00F
:10465000E9F806B2384602F16FFF05B2206831462C
:10466000426B2046904720682946826B2046BDE871
:10467000F041104710B526210446FBF736FE0E48E0
:104680002060201D00F164FB083000F161FB002177
:104690008160C160012201618182C182017642761E
:1046A000064A40F80C2CC16147F6FF710184FF21D6
:1046B00080F822100C3810BD7C9010082488100857
:1046C00030B5044C039D04600171C28003814581B3
:1046D00030BD0000A4A800082DE9F04F044688462C
:1046E0003C3091B0834603F1D7F800287ED058467D
:1046F00004F0BEF9050079D0204602F131FD814673
:104700002068816E204688470646484603F08FFDA4
:10471000704301F094F9002868D0204602F176FA3F
:104720000246E06C08B102F171FA002A06DD98FB3E
:10473000F2F15143414501D1012100E0002100285F
:1047400006DD98FBF0F34343434501D1012300E02C
:104750000023104350EA080001D099436BD048462B
:1047600003F068FD82464946204602F1EDFC06460C
:10477000D9F800004146D0F8B42048469047074693
:104780004946204603F0C5FDB4F84810B4F8462069
:1047900007FB0063CDE900211422204603A9CDF8D0
:1047A00008A002F1D3F994F84400E0B3022845D000
:1047B000584604F06FF90146286803AA436A284660
:1047C00098470646584604F065F90146286803AA4A
:1047D000836A284698470746584604F05BF9014625
:1047E000286803AA036C2846984700E023E007FBEB
:1047F000006085B2484602F1B6FA0646424649468E
:10480000204603F07BFD0F900FA802F138FF61896D
:104810003044A0EB5500ADF834000022ADF836204E
:10482000ADF8385000E009E0ADF83A100DA9206865
:1048300002692046904711B0BDE8F08F584604F059
:1048400029F90146286803AA83692846984705463E
:10485000D0E730B4029C01600021C0E90112C160C0
:10486000C0E90F34017401860183018730BCFFF079
:1048700071B870B51C460B46A1F5C0660546049894
:10488000B6F5407F216805D20A4601462846FEF06B
:1048900037FF13E0A2F560637F2B05D80A46014677
:1048A0002846FEF0CBFD09E095F8590038B1A2F595
:1048B0001060023803D1284600F0A0F8206020687C
:1048C00010B104F0AEF818B1002085F8590070BDA1
:1048D0000120FAE770B500F11A050446008EB8B160
:1048E000A98A401E35F81160E882481C80B2A8826F
:1048F0000A2801D30A38A882204600F04FF8208BFE
:104900001234022801D2401CE080A08810B103E0DC
:10491000AFF300800220A08080B2401E80B2A08051
:1049200024F81060304670BD2DE9F04700F1120503
:104930000C460021DDF8208017E0561AB5F806C0B5
:10494000761E34F8027BB6B2B44501D8AFF30080CE
:10495000B5F804C06644B6B2022E00D3B61E35F8D0
:104960001660BE4211D1491C89B29142E5D300269E
:1049700000F11A0903EB08070CE034F8025B31463A
:10498000484605F031FDA84202D00020BDE8F0877E
:10499000761CB6B2B742F0D80120F7E770B500F147
:1049A0001A06054613E0288F05F13204B8B1A18834
:1049B000401E34F81110E080A088401C80B2A08016
:1049C000022801D3801EA080304605F01CFD288FF0
:1049D00070B1304603F1C8FD0028E4D008E0AFF321
:1049E00000802846FEF0B8FF0146304605F00BFD7A
:1049F000304603F1B9FD0028F3D070BD70B5044610
:104A000069B104F144000E220546FBF089FB2846FB
:104A100004F000F8404284F84D00284670BD084676
:104A200070BD704701680969084710B5FEF052F97A
:104A3000BDE81040FFF74EBA0168496C0847000016
:104A40002DE9F04F87B08146DDE9178CDDE913676A
:104A5000DDE911451098DDF864B0DDF858A08DE867
:104A6000F111484601F19AFD0549159A40F8181BC5
:104A700080E8040C1A99C16007B01838BDE8F08FBF
:104A80008C89100870470A0C02750A0A42758175F4
:104A9000704710B50446084605F0A4FD216B484355
:104AA00005F0A0FDA06310BD8988A0F840107047F4
:104AB00010B538210446FBF718FC2046FFF010FC27
:104AC0000A4C002208494FF6FF7301604021C0E9FB
:104AD0000E240B5280F844202E21A0F84620A0F886
:104AE0004810C26410BD000064A9000868B1000845
:104AF000014901607047000064A9000830B5DDE994
:104B00000345416002720C3080E8380030BD2DE969
:104B1000F0430546406987B00C46D0F8148095F8FC
:104B2000340005F068FD074622464146284602F15A
:104B3000C8FA064622464146284603F0D9FB0246FB
:104B4000334601A82946009703F0A7FB002C17DD88
:104B5000601E414602B22846164602F1B2FA81466C
:104B600032464146284603F0C3FB02464B4603A8A3
:104B70002946009703F091FB03A901A800F196F8DC
:104B8000404603F035FB401EA04217DD641C414641
:104B900022B22846164602F194FA044632464146AD
:104BA000284603F0A5FB0246234603A829460097A2
:104BB00003F073FB03A901A800F178F8404603F065
:104BC0001AFB0646404603F02FFB0446404603F01E
:104BD00028FB0021024605A82346009600F1B1F803
:104BE00001A9024603A803F036FDDDE90301CDE982
:104BF0000101286801A902692846904707B0BDE86D
:104C0000F083000010B500F0DDF9034901600221D6
:104C100080F8341010BD0000588A10082DE9FC41BE
:104C20001B4C0546D5E90060A16969B3A06801EB9A
:104C3000D17101AF00EB6100CDE90070A3692A6872
:104C4000E1692068FFF09CF800970646A3696A684E
:104C5000216A6068FFF094F80644D4E9051000EB7F
:104C6000D07001EB6000CDE90070A3692A68616A29
:104C7000E068FFF085F800978046A3696A68A16A3A
:104C80002069FFF07DF84044C5E90060BDE8FC8183
:104C9000A85200242DE9FF4F0D009B46944607467D
:104CA000DDE90D4640D03CFA05F04FD001228246A6
:104CB000AA4007FA05F9B9FBF4F1521E0CEA020CFE
:104CC000E046604601FB0AF10391FFF03FF8CDE9B1
:104CD000004601462B463A464046FFF7DBFF039964
:104CE00000EB0108B9FBF4F004FB1090FFF02EF884
:104CF0000346B9FBF4F005EB0B0104FB109202A88C
:104D0000CDE900405046FFF7C5FF31684044029AA4
:104D10001144B1FBF4F21044B1FBF4F204FB1211A4
:104D2000316004B0BDE8F08FBBF1000F184608D029
:104D30000B463A46CDE9004601466046FFF7AAFF1A
:104D4000EFE74FF0FF3030604008EAE707FB0CF771
:104D5000B7FBF4F004FB10703060B7FBF4F0E0E751
:104D600038B504460D46343002F09AFEB4F93E00E0
:104D70000022B4F93C3011460090284600F108FEAC
:104D800038BD3EB5054608790C46022824D0E08897
:104D900002AA298F401A01B22868D0F8B0302846FC
:104DA0009847002818D0207908B1012814D1D5F8E7
:104DB0002001002810D00168C968884700280BD05E
:104DC000BDF808006A46ADF800000194D5F820014E
:104DD00001688B68294698473EBD2DE9F843044693
:104DE00040890F461E46089D904632442944401A89
:104DF000218900B20090891A3A460BB2414604F16B
:104E0000340000F1C5FDB4F90830002204F1B80007
:104E10001146009700F1BCFDB4F90A000022434698
:104E20001146009004F1600000F1B2FD21890022DA
:104E3000B4F90A003346891B009009B204F18C00D2
:104E400000F1A6FD60890021B4F90830401B0095EF
:104E500002B204F1E40000F19BFD2046BDE8F843F6
:104E6000FFF028B810B5029CA0F81011A0F812218C
:104E7000A0F81431A0F8164110BD70B50D46B0F978
:104E80001A11A94209DDC46D05E020682946426F68
:104E900020469047A469002CF7D170BD70B5D0F8BA
:104EA000E0400D46064605E020682946426F204650
:104EB0009047A469002CF7D1D6F80C4105E0206892
:104EC0002946426F20469047A469002CF7D170BD57
:104ED000C02230B41152EC221152B0F8943090221A
:104EE000CB1A1352B0F86830B0F894402344CB1A70
:104EF0008387018130BCFEF0DDBF0000F8B50E46AF
:104F000001F170FB22490125C5620160FF2180F893
:104F10003010343001F166FB2C3001F163FB2C3092
:104F200001F160FB2C3001F15DFB2C3001F15AFBEB
:104F300000278785C785A0F1E4040786A0F1B001AA
:104F400047868686C7860787C7630764204602F0C0
:104F5000A7FD04F1B801204602F0A2FD04F16001B2
:104F6000204602F09DFD04F18C01204602F098FDE0
:104F700004F1E401204602F093FD002320461A4686
:104F800019460097FFF729FF204684F82450F8BD02
:104F9000ECA90008D0E90321891A002901DC806806
:104FA0000144012901DC0120704700207047D0E94D
:104FB0000310814201D10120704700207047016336
:104FC0007047000010B5FFF755FB02490160012151
:104FD000016310BD00AC0008014AC2E9000170473E
:104FE000A80100240148806870470000A80100243F
:104FF0001D4B70B519469A680968904209D1DA6864
:105000008A4206D1D869102801D3012070BD002042
:1050100070BD5A68C3E90201824223D310F0030431
:1050200003D0C4F10404121B2144121A0144196173
:10503000401C20F00100824214D310F00305C5F19A
:10504000040401D0121B2144121A82420144596106
:1050500008D30DB1121B21440144101A1028C3E9D2
:105060000610D2D2AFF30080A80100240148C06826
:1050700070470000A8010024014800697047000043
:10508000A801002410B50446084605F0ABFA216BD0
:10509000484305F0A7FAA06310BD80F83C107047A4
:1050A0007047000010B5FFF025F9054901600A219D
:1050B0008163012180F83C100021016410BD0000D3
:1050C00080AC000801207047009808704B708A700F
:1050D0007047000070B50446144E0020FF21A080E8
:1050E000E08021721049E06021602061316891F810
:1050F000760008B1C86C00B988680168496A8847B9
:1051000001280DD000253068C06C30B10168496AB3
:105110008847012800D0002005431DB1204670BDFE
:105120000125F0E7AFF30080EC8B1008DC010024D0
:1051300010B50446B0F91A01B4F9181188420CDB15
:105140002046FEF00FFF2068D0F8A81020468847C0
:105150002046BDE81040FEF0AABE10BD10B5FFF01D
:105160009BF80149016010BD0C8C100808491CB562
:1051700000240A8807490988ADF80040ADF80420EA
:10518000ADF80240ADF80610694600F005F81CBD08
:10519000D2010024D401002410B504460A48007846
:1051A00000280FD001280DD12088A28810440A467B
:1051B000401E2080A11C2046FFF024F8A088E18832
:1051C000A180E08010BD0000CC010024094910B589
:1051D000097800290DD001290BD1074C4388C188DB
:1051E000028824880B44E31A0380428082888180ED
:1051F000C28010BDCC010024D2010024C26A5143F8
:1052000000F008B87047C36A5A4359430368D3F89B
:10521000B830184770B5044600680D46D0F808212C
:1052200020469047D4F82C012946401CC4F82C0194
:105230002068D0F80C212046BDE87040104710B51A
:105240009142044601D1AFF300808A4202DA084657
:1052500011460246D4F84001884203D1D4F84401F3
:1052600090420FD0C4E9501204F1600003F069FBD2
:1052700004F1340003F065FB04F18C00BDE810403C
:1052800003F05FBB10BD70B5C56A0446C162D0F8BB
:1052900034112A4602F0B8FFC4F834012A46D4F883
:1052A0003011204602F0B0FFC4F8300170BD00009C
:1052B00010B526210446FBF718F8204601F0BEF988
:1052C0000349FF22016080F826200022826210BD7F
:1052D00008AD0008704710B50446FFF085F8206857
:1052E000D0F8A0102046BDE81040084710B504468D
:1052F0000C48407858B994F84800022807D06068F4
:10530000FEF0F5FB18B16168487A0028FCD0FDF08A
:10531000E1FC00212046FFF08DF82046BDE810405A
:1053200000F02EB8CC0100242DE9F04F89B00446DE
:1053300012A81D4616468B4690E8800700F078F8C4
:105340000168496A88470A4A022101235289CDE946
:1053500007105946CDE905328DE8A00720680022E4
:105360003346856B2046A84709B0BDE8F08F0000A2
:10537000CC010024012180F84B1080F8691070479F
:1053800010B504460648407840B12068C16A2046FE
:105390008847E16B884201D1206C10BDE06B10BDE5
:1053A000CC010024012280F8741080F87520704729
:1053B00010B529B13C3080E80E001AB1012002E09E
:1053C000AFF300800020044908700BB1012000E019
:1053D00000200249087010BDCD010024CE01002438
:1053E000F0B50E4A0E4B114C90F874C090F834E0B2
:1053F0000C4D0D4EF44511881888277805D0002FE4
:105400000BD129800127308004E0002F05D02880AF
:1054100000273180198010802770F0BDD201002450
:10542000D4010024D6010024D8010024CC0100249A
:105430000448016891F8760010B1C86C002800D1CA
:1054400088687047DC01002410B586B0044603A8C4
:10545000CDE90312FFF7E2FB039802A9ADF80400BF
:105460000498ADF8080001A8FEF0DEFE94F86B1079
:1054700004F11C000029BDF8081016D089B2009173
:10548000BDF804108BB2B4F860108AB2B4F85C10A6
:1054900089B201F085FC002805D0BDF90400E06563
:1054A000BDF90800206606B010BD8BB2BDF804102F
:1054B0008AB2002100F1ECFA012084F86B00ECE7DD
:1054C00010B5044690F86B0000280DD0B4F86000C9
:1054D000012183B2B4F85C0082B204F11C0000F137
:1054E000D7FA002084F86B0010BD2DE9FF4F8BB078
:1054F000064602A8DDF87880DDE91F47DDE91C5982
:10550000DDE919BA00F01DFB0B2C08D0022C08D0E5
:10551000FF2D02D3B9F1000F42D0042009E0802012
:1055200007E0FF2D02D3B9F1000F01D0402000E0C9
:10553000202002900C9803900D980490ADF81CB0B8
:10554000ADF81EA01B98ADF8200030468DF8245011
:10555000FFF716FF189A03460E993046CDE90087EB
:1055600001F1B4FE8DF82540BBF1000F0690ADF8B7
:1055700022808DF8267009D0BAF1000F06D030686D
:10558000416B304688470299084201D1AFF3008051
:10559000706801684A6802A990470FB0BDE8F08FB3
:1055A0000120C6E72DE9FF4F89B0044616A81D4625
:1055B000164690E8800FFFF73BFF0168496A88476D
:1055C0000849002233464989CDE9061008908DE844
:1055D000A00F20680A99856B2046A8470DB0BDE84A
:1055E000F08F0000CC0100242DE9F0478AB08A46F4
:1055F0000DF1480EDDE918419EE8E0130DF1040EAF
:10560000CDE90741294600938EE8C213016813468D
:1056100000228C6B5146A0470AB0BDE8F0872DE907
:10562000FF4F8BB08946054602A8DDF860B0DDE982
:105630001B64DDE919A700F084FAFF2F01D20820CE
:1056400000E002204FF00008CDE902082846FFF7ED
:1056500097FECDE90064DDE90D120346284601F10D
:1056600035FE8DF82470ADF81CB0ADF820808DF8B3
:1056700025400690ADF81EA0ADF82260CDF814903C
:105680008DF826402868416B2846884702990842D1
:1056900001D1AFF30080686801684A6802A99047A9
:1056A0000FB0BDE8F08F406801688968084704467C
:1056B0000068816F204688472068016F2046884730
:1056C000FEF7F8FB2068816EF8E72DE9FF4F002612
:1056D0009B4681B0924689463446B046354621E025
:1056E00000200090204600F0B7F900B9A0460198CC
:1056F0006B464A465946FDF093FF040014D00A2C2D
:1057000012D0009868B1848803F08BF90746D9F865
:105710000000009A4146C36B4846984738443044DD
:1057200086B26D1C5545DBDB05B03046BDE8F08F19
:105730002DE9FF4FD9B01C468946DDE966A55FEA31
:105740000A0071D0206800286ED0A07B00286BD0A2
:10575000106856905068002257901146B9F906001B
:10576000009035A8B9F90430FFF0EBFAA27935A919
:1057700056A8FFF029F835A9A2790846FFF024F8C9
:1057800007A8FEF067F920680168896C884706461B
:1057900020680168496C884703462A4607A8AB463B
:1057A00051460096FFF755F8207900B10120804658
:1057B00020680168096B8847B4F90C100D18002D9A
:1057C00003DDBDF95A21824201DA002602E05018B9
:1057D00090FBF5F61EA8FEF03DF9207C78B120681C
:1057E0000168896C8847074620680168496C8847CA
:1057F00003465A461EA851460097FFF72AF8217C17
:105800002068BDF8D820CDE9000163791EA94EA813
:1058100000F0C6F8207C28BB39E0BDF9DA00B0EB17
:10582000450F02DA012101E099E000214EA8FFF0C6
:105830003AF9BDF84A7103E0617907A8FDF0BBFEB3
:105840007F1EBFB2F8D2BDF8D600761E2844ADF850
:10585000D600BDF8DA00401BADF8DA00BDF838011B
:1058600000287CD0002ED8DC13E007A8FFF732F820
:10587000002874D00A280AD1BDF8D6002844ADF813
:10588000D600BDF8DA00401BADF8DA00761E002E17
:10589000EBDC00270DF5AC7B0DF11C0A207C00260B
:1058A00050B1BDF9DA00B0EB450F01DA012100E09B
:1058B00000214EA8FFF0F7F8B8F1000F25D05C22C8
:1058C00007A937A8FAF02CFC207C10B1BDF85201D2
:1058D00006E02168002337A847F6FF72FFF7F5FEC0
:1058E000217900B2012902D0022907D00EE0BDF9CA
:1058F000D810081A00EBD070401004E0E27BBDF82D
:10590000D8101044081A06B200E0E67BBDF8D400B7
:105910003044ADF86001207C10B1BDF84A0101E0CF
:1059200047F6FF709DF856114A46CDE9050158A982
:10593000CDE9001B02A981E89004BDF9D630002111
:105940005998FEF093FF002817D1BDF8D6002844DF
:10595000ADF8D600BDF8DA00401B00B200E00CE064
:10596000ADF8DA00217C09B1A84206DB56A802F0A6
:1059700024FEBDF9D610884290DA5DB0BDE8F08F04
:1059800030B5C58A448AED1A2C444482848A224464
:10599000428362188282C382028B511A018330BD16
:1059A00070B504460020DDE9045620806160237252
:1059B0006672E56022826082A082E082208360833A
:1059C000A083A0772868416928468847050019D038
:1059D000E0680168CA6829469047064603F021F846
:1059E000A083607A04280DD1E06832460168CB6B51
:1059F000294698470546304603F013F8A18B284402
:105A00000844A083204670BD70B514460D462BB1E6
:105A1000012B07D0022B09D0032B0BD0B0F90200C9
:105A2000104470BDB0F90200084470BD02F0C5FD1D
:105A3000001B02E002F0C1FD401B401E70BD00EBE8
:105A40001020401CC0F30720704710B5029C018055
:105A500042808380C48010BDA0F57E41FF3905D00F
:105A6000A0F500510B3901D000207047012070478C
:105A700070472DE9F0418846044602F0AFFD88B337
:105A8000B4F90050B8F90000854200DC0546B4F9CD
:105A90000260B8F90200864200DC0646204601F1A9
:105AA000C5FC0746404601F1C1FC874201DA2046A9
:105AB00000E0404601F1BAFC401BA080204602F005
:105AC0007CFD0746404602F078FD874201DA204619
:105AD00000E0404602F071FD801BE080258066807A
