:020000040800F2
:10000000F08E0024B9020008692D00087B29000841
:1000100055211008090400082D26100800000000D2
:1000200000000000000000000000000001001008B7
:1000300019041008000000005D00100829300008B5
:10004000D3020008D3020008D3020008D30200083C
:10005000D3020008D3020008D3020008D30200082C
:10006000D3020008D3020008D3020008D30200081C
:10007000D3020008D3020008D3020008D30200080C
:10008000D3020008D30200086D031008D302000851
:10009000D3020008D3020008D3020008D3020008EC
:1000A000D3020008D3020008D3020008D3020008DC
:1000B000D3020008D3020008D3020008D3020008CC
:1000C000D3020008D3020008D3020008D3020008BC
:1000D000D3020008D3020008D3020008D3020008AC
:1000E000D3020008D302000800000000D302000879
:1000F000D3020008D3020008D3020008D30200088C
:100100001D041008D3020008D3020008D30200081F
:10011000D3020008D3020008D3020008912310087C
:10012000D3020008D3020008D3020008D30200085B
:10013000D3020008D3020008D3020008D30200084B
:1001400000000000000000000000000000000000AF
:10015000D3020008D3020008D3020008D30200082B
:10016000D3020008D3020008D3020008D30200081B
:10017000D3020008D3020008D3020008D30200080B
:10018000D3020008D3020008D3020008D3020008FB
:10019000D3020008D3020008D3020008D3020008EB
:1001A000E9290008D30200080D040008D302000862
:1001B000D3020008D3020008D3020008D3020008CB
:1001C000D3020008D3020008D3020008D3020008BB
:1001D000D3020008D3020008D3020008D3020008AB
:1001E000D3020008D3020008D3020008D30200089B
:1001F000D3020008D3020008D3020008D30200088B
:10020000D3020008D3020008D3020008D30200087A
:10021000D3020008D3020008D3020008D30200086A
:10022000D3020008D3020008D30200080000000037
:10023000D3020008D302000800000000D302000827
:10024000D3020008D3020008D3020008D30200083A
:10025000D3020008D3020008D3020008D30200082A
:10026000D3020008D3020008D3020008D30200081A
:10027000D3020008D3020008D302000800000000E7
:10028000D3020008D3020008D302000800000000D7
:1002900000000000D3020008DFF818D000F076F864
:1002A00000F060F80048004769940008AFF3008050
:1002B000FFF064FFF08E00240648804706480047A0
:1002C000FEE7FEE7FEE7FEE7FEE7FEE7FEE7FEE706
:1002D000FEE7FEE755300008990200082DE9F05FBF
:1002E0000546002092469B468846064681464024A5
:1002F0001BE02846414647462246FFF02EFF534664
:100300005A46C01A914110D3114618462246FFF0B2
:1003100015FF2D1A67EB01084F46224601200021E8
:10032000FFF00CFF17EB00094E41201EA4F1010461
:10033000DFDC484631462A464346BDE8F09FD2B24C
:1003400001E000F8012B491EFBD270470022F6E7BE
:1003500010B513460A4604461946FFF7F0FF20463B
:1003600010BD000070B5054C054D03E02068204429
:100370008047241DAC42F9D170BD0000601E1108F9
:10038000701E110800487047E0010024064C074D1C
:1003900006E0E06840F0010394E807009847103455
:1003A000AC42F6D3FFF77CFFD41E0108F41E01080F
:1003B000704770B58C1810F8015B15F0070301D178
:1003C00010F8013B2A1106D110F8012B03E010F8B8
:1003D000016B01F8016B5B1EF9D12B0705D40023DB
:1003E000521E0DD401F8013BFAE710F8013BCB1A7D
:1003F000921C03E013F8015B01F8015B521EF9D572
:10040000A142D8D3002070BDFEE70000014800F1F2
:1004100026BC000088020024F0B5D1E90843CD696C
:100420000A68C2B10268254322F4F84213431D430F
:100430000560D1E90125D1E903364C692A434568B5
:10044000334389691A43EB0B2243DB030A431A4304
:1004500042600020F0BDD1E9012ED1E9036CD1E961
:10046000057142EA0E0246EA0C0632433A430A4359
:1004700001682A4322431A436FF30E010A430260C4
:10048000E7E7426943F6FE739A4342EA410141615C
:10049000002070472DE9F04F8B8A6FF00F05264C36
:1004A0004FF07F4BD1F80C9004EB03536FF0FF0437
:1004B0004FEA042A1AB386684FEA09321F4FA2F5A1
:1004C00080521A433E4032438260D1E900278E6851
:1004D000521E05EB07150F8A2A43C56804EB062454
:1004E0000E7E0AEB074322431A430BEB06610A43D5
:1004F00005F070431A43C2600020BDE8F08F91E818
:1005000004110F4E521E0F8A05EB08152A4304EB07
:100510000C2C06EB09350E7E42EA0C022A43856854
:100520000AEB074422431A430BEB06610A4305F02A
:1005300070431A438260DFE70000F0FFFF0F0FFFF8
:1005400000F0FFFF1CB50022030A0192FF248DF882
:10055000043003238DF8050001AA06488DF8061023
:10056000BA21009400F10CFE002802D002A006F18E
:100570002BFC1CBDF0020024777269746520726543
:1005800067206F6E652062797465206572726F7284
:100590000D0A000070477047704700002DE9F047D2
:1005A000044690F8500000270E4601289AB014D057
:1005B000DFF8F880012122684FF0000984F850101C
:1005C00042450ED13A4D0095284602F0F1F9824697
:1005D000206802F0EDF960B10EE002201AB0BDE82B
:1005E000F087616D84F8509041F020016165012031
:1005F000F4E7BAF1000F09D0606D012740F0200048
:10060000C4F85400384684F85090E7E72068414623
:10061000884201D0A84201D1264800E0264840F691
:100620001F72D6F800C0254BBCF1000F23D0D0F8C4
:1006300008C0D6F804802CF4404C4CEA080CC0F8F2
:1006400008C0D4F800C08C4501D0AC4507D18968FA
:10065000AB6801F0010103F00103194302E099685E
:1006600001F001010029CDD1B568316883682943C3
:100670009343194317E0866826F44046866026684F
:100680008E4201D0AE4207D18968AB6801F001010A
:1006900003F00103194302E0996801F00101002908
:1006A000B0D1816891438160ACE700000020024036
:1006B00000210240002302400063025800600258FB
:1006C00070470068006C7047F8B54FF000060400F2
:1006D0003546009602D0606D10B107E00120F8BDEC
:1006E000204600F11FFAA66584F8506020688168F2
:1006F000C1F3407119B181686F4A1140816020686F
:100700008168C1F3007179B981686C4A114041F088
:10071000805181606B496A480968B1FBF0F000E0E4
:10072000401E00900028FBD120688168C1F3007151
:1007300041B9616D012541F010016165A16D41F084
:100740000101A16501F18CFB616DC90600D420B1E6
:10075000606D012540F0100093E0606D20F4807022
:1007600040F0020060652068816811F0010F1FD120
:100770005549564B884201D0984207D18A689E68F5
:1007800002F0010206F00106324303E0504A92688B
:1007900002F0010262B9884201D0984201D14D486D
:1007A00000E04D488268616822F47C120A4382604E
:1007B00000F0E2FA41F20301884202D9A068102851
:1007C0000CD0617D227FA368206B490341EA02417E
:1007D00018430843217F01290CD010E0607D227F5F
:1007E000216B400340EA024241F01000104340F008
:1007F0000C00EFE7218C394A02EB41410843616A62
:1008000029B1A26A01F47871014342EA0100226829
:10081000334BD16819400143D160206801F120FBBE
:100820000646206802F0C0F830431DD1216844F22A
:100830000303267DE26AC86842EA86329843104381
:10084000C86094F8380001281ED02068016921F0A2
:10085000010101612068626B016921F0704111435F
:1008600001612046FFF0ACFCE068012820681CD044
:10087000016B21F00F010163606D20F0020040F078
:10088000010060652846F8BD2068A38F154FD4E9A4
:10089000101C154E07EB0347A26C036941EA0C01DB
:1008A0003A43334011431943D3E7A269016B521E07
:1008B00021F00F011143DEE7C0FFFF5FC0FFFF7FA4
:1008C000400D0300300000240020024000210240BF
:1008D0000060025800230240006302580000FEFF3F
:1008E00003C0F0FF0100FFFF1EF800FC2DE9F047F8
:1008F000414D0446006888464049414BA842DFF814
:10090000049101D0484501D10A4600E01A46926898
:1009100002F01F062269082A14D0AEB1052E13D0AA
:10092000092E11D0A84202D0484500D01946886847
:1009300000F4404058B1606D40F020006065012037
:10094000BDE8F087082703E0C068C007F2E7042786
:1009500000F18AFB82460BE0B8F1FF3F08D000F1BE
:1009600083FBA0EB0A01414511D8B8F1000F0ED06E
:10097000206800683842EFD0606D40F40070606518
:10098000206802F019F8D0B1607D48B117E0606DC1
:10099000002184F8501040F0040060650320CFE788
:1009A0002068006800070AD5606D20F480706065DB
:1009B000606DC00403D4606D40F001006065206884
:1009C000484501D12A4600E00246824210D07EB15D
:1009D000052E0DD0092E0BD0484500D00546E968FC
:1009E000082F07D0490401D40C2101600020A7E79B
:1009F000C168F5E70821F8E7002002400023024023
:100A000000630258002102402DE9F0415B4D04468D
:100A100000685B4FA84201D0B84201D1594900E0BB
:100A20005949896801F01F0601F11AFA18B102222A
:100A30001046BDE8F08194F8500001280CD0012048
:100A400084F850002046FFF03FFC02004FF0000108
:100A500004D084F85010EBE70220EAE7636D40F61B
:100A6000016C206823EA0C03B84243F48073636589
:100A700001D12B4600E00346834200D01EB9636DCE
:100A800023F480136365636DDB0404D5A36D23F049
:100A90000603A36500E0A1651C23036084F85010E1
:100AA0002068416821F01C01416020690828206805
:100AB000416802D041F0040101E041F008014160C9
:100AC000206B20B92068416841F010014160206826
:100AD000B84201D1294600E00146814220D0FEB152
:100AE000052E1DD0092E1BD0616DB84241F4801136
:100AF000616500D00546E968890199D5616D236972
:100B000021F40051082B41F48051616541682BD0DC
:100B100021F0400141602068416841F020012AE055
:100B2000C168890119D5636D216923F4005308292F
:100B300043F480536365416807D021F04001416070
:100B40002068416841F0200106E021F02001416069
:100B50002068416841F04001416020680B4B81688A
:100B60001940091D816063E721F020014160206880
:100B7000416841F0400141605AE700000020024016
:100B8000002102400023024000630258C0FFFF7FA3
:100B900008B500680649884208D10648016841F452
:100BA00000210160006800F40020009008BD0000F2
:100BB000004C0258E0440258F0B590F86020012A39
:100BC00022D0C1EBC102012780F86070022380F8B7
:100BD000613000EB8202284D138F168EB2F83CC0B4
:100BE000D46A1B05283244EA064643EA4C530A2CD1
:100BF00046EA03060AD0092C08D0137B46EA0363B1
:100C000049B10B2C1AD01DE00220F0BDD36803F0CF
:100C10007F433343F4E701684C6AAC431C434C62A6
:100C2000016813688B6151680A2901D009291BD119
:100C3000D168026821F07F41916215E0118B0F4D60
:100C400043EA81430168CC69AC431C43CC61016831
:100C500013680B6151680A2901D0092904D1D168B0
:100C6000026821F07F411162002180F8617080F8F4
:100C700060100846F0BD00000F0033FF0F003FFF7B
:100C80002DE9F041040004D094F86100002518B16A
:100C900007E00120BDE8F081204684F8605000F0B4
:100CA00035F8184E022084F861000123D4E90010C1
:100CB000D4F81CC040F207120F6840EA0C0037401D
:100CC000384308602068A769A168466B394396439A
:100CD000314341632068E268016C6FF30F011143F7
:100CE00001642068218AA28A466B090541EA4251C3
:100CF00026F4401211434163656684F86130002098
:100D0000C8E70000BFFFF8FF7047000008B50068A3
:100D10000B49884212D10B48016841F01001016073
:100D200000680022052100F0100000905A2000F019
:100D30001FFABDE808405A2000F1FEBB08BD0000C4
:100D400000100052D444025870B5044600F18CF9EA
:100D50000546601C02D004480078044400F184F980
:100D6000401BA042FAD370BD240000240AB1816167
:100D700070470904FBE7000001480068000C704759
:100D80000010005C30B590F84120202A24D190F862
:100D90004020012A20D0012380F84030242280F80E
:100DA0004120202300240268156825F00105156004
:100DB0000268156825F480551560026815680D43B2
:100DC000156001680A6842F001020A6080F841304B
:100DD00080F84040002030BD022030BD2DE9F84FA2
:100DE000044690F841001F469046DDF828A08B4647
:100DF00020287ED194F8400001287AD0012084F880
:100E0000400000F131F90122064619230090D10378
:100E1000204600F163FFE0BB0025222184F8411049
:100E2000102084F8420065646785618DFF27324891
:100E30004FF00079C4F82480FF294FF08078656373
:100E400003D927853A46009039E0618D21850090CD
:100E50003AE05946204601F091FD13E000F16CFFA5
:100E6000B8B92068616A406A0870606A401C6062B4
:100E7000208D401E81B22185608D401E6085608D71
:100E800000B169B1608D3246514600282046E5D157
:100E900000E002E000F194FFD0B10120BDE8F88F3E
:100EA0000022534680212046009600F117FF0028BB
:100EB000F3D1608DFF2804D927853A460095434633
:100EC000C7E7608D208500954B4694F82820C0E741
:100ED00020682021094AC1612068436813404360AB
:100EE00084F8411084F84250002084F84050D5E73F
:100EF000FFE70220D2E700000024008000E800FEA7
:100F0000032010B500F126FB00F1EAFB0F4A10495F
:100F100014681368C4F3032203F00F038A5CC95CEE
:100F200002F01F0201F01F01D0400A4A20FA01F12D
:100F3000116009490860002000F1F0F908B10120B2
:100F400010BD00F1E7FA002010BD0000184402585F
:100F500024A2000834000024300000242DE9F041D0
:100F6000044690F8A00016460F4601281DD0012522
:100F700084F8A050022084F8A10006EB860000EB64
:100F8000C600342204EB80003830FFF098F8324677
:100F90003946204600F168FF216800204D6284F840
:100FA000A15084F8A000BDE8F0810220FBE7704763
:100FB0002DE9F0410446006800274FF00408856BD6
:100FC000466B690715D5710713D5426B22F00402F1
:100FD00042632068C0F83C80D4F8A40040F00100CF
:100FE000C4F8A40084F8A180204684F8A070FFF71C
:100FF000DEFFA80716D5B00714D520680222436B80
:1010000023F0020343632068C263D4F8A40040F0D5
:101010000200C4F8A40084F8A180204684F8A070DF
:10102000FFF7C5FF05EA06004FF00108C0070ED024
:1010300021684A6B22F001024A632168C1F83C80B2
:1010400084F8A180204684F8A07000F1ADF928074B
:1010500010D530070ED520680822436B23F0080313
:1010600043632068C26384F8A180204684F8A0709E
:1010700000F14EFABDE8F0812DE9F041040004D002
:1010800094F8A100002518B107E00120BDE8F08127
:10109000204684F8A05000F1B3F93448022184F8C6
:1010A000A110012202CC8B6923F070438B6194E87C
:1010B0004A001943E3681E4354F8043D31439E69D6
:1010C0003143996121688B6803408B602168A68A4F
:1010D000A7698B683B4343EA06438B602168CB6872
:1010E0000340CB602168A38B276ACE683E4346EA63
:1010F0000346CE6021680B6903400B612368A68C10
:10110000A76A1969394341EA0641196121684B69A7
:1011100003404B612068A38D266B4169314341EA4E
:1011200003414161236894F8351094F83600DE6A73
:10113000000406F07F46DE62236840EA012094F84E
:101140003460D96A31430143D9622068416B41F070
:10115000060141632068816941F001018161C4F8A1
:10116000A45084F8A120002090E7000000F800F0CF
:101170000E4BF0B41B680D46C3F30223C3F1070600
:10118000042E00D90426191D072901D2002300E0EE
:10119000DB1E012404FA06F19C40491E2940641E0E
:1011A000994014402143F0BC08F097B80CED00E0E2
:1011B000134970B50A68D243520705D5096801F092
:1011C0000701814213D118E00A6822F007020243A6
:1011D0000A60FFF049FF0A4D4FF47A760446083D55
:1011E00007E000BFFFF040FF001BB04201D9012023
:1011F00070BD2868C0438004F4D4002070BD000096
:101200000C48025810B500F0FBFF05490968054A73
:10121000C1F30211515C01F01F01C84010BD000074
:101220002044025824A20008494930B5484C0B1DFF
:101230000A680C3409681D68246802F0030305F08D
:101240000102C1F30511C4F3CC04002914FB02F21E
:1012500000EE102AF8EE400A75D03F4A9FED3D1A85
:10126000B7EE000A6BB1DFED3D1A012B01D0022B66
:1012700064D002EE101A1168F8EE422A81EEA22A1A
:1012800021E0334C283C23689B0612D5344B24685C
:1012900001EE901A1168C4F3C104F8EE612AE3402C
:1012A00001EE903AC1F30801F8EE611A81EEA22A2C
:1012B0000BE001EE901ADFED2B2A00BFF8EE611A69
:1012C000116882EEA12AC1F3080101EE901A11689B
:1012D000F8EE611A40EE811A71EE800A62EE200A81
:1012E000C1F3462101EE101AB8EE411A31EE001A90
:1012F000C0EE811ABCEEE11A80ED001A1168C1F34C
:10130000064101EE101AB8EE411A31EE001AC0EE95
:10131000811ABCEEE11A80ED011A1168C1F3066171
:1013200001EE101AB8EE411A31EE000A80EE801A72
:10133000BCEEC10A80ED020A30BD04E001EE901A55
:10134000DFED092ABAE70021016041608160F3E71F
:101350002844025800000039304402580024744ADE
:101360000090D0030024744C20BCBE4B494930B5DA
:10137000484C0B1D0A681C3409681D68246802F07B
:101380000303C5F30022C1F30551C4F3CC040029C3
:1013900014FB02F200EE102AF8EE400A75D03F4A24
:1013A0009FED3D1AB7EE000A6BB1DFED3D1A012B40
:1013B00001D0022B64D002EE101A1168F8EE422A16
:1013C00081EEA22A21E0334C283C23689B0612D5EB
:1013D000344B246801EE901A1168C4F3C104F8EE8E
:1013E000612AE34001EE903AC1F30801F8EE611A78
:1013F00081EEA22A0BE001EE901ADFED2B2A00BF4E
:10140000F8EE611A116882EEA12AC1F3080101EE1B
:10141000901A1168F8EE611A40EE811A71EE800A96
:1014200062EE200AC1F3462101EE101AB8EE411A0D
:1014300031EE001AC0EE811ABCEEE11A80ED001AFE
:101440001168C1F3064101EE101AB8EE411A31EEEF
:10145000001AC0EE811ABCEEE11A80ED011A116883
:10146000C1F3066101EE101AB8EE411A31EE000A1E
:1014700080EE801ABCEEC10A80ED020A30BD04E0A5
:1014800001EE901ADFED092ABAE700210160416000
:101490008160F3E7284402580000003940440258B4
:1014A0000024744A0090D0030024744C20BCBE4B2E
:1014B0002DE9F0474FF480760146B0426F48DFF8DF
:1014C000B8818AB06E4B4FF080576E4DA8F104047E
:1014D0004FEA20124FF0005C29D1D8F8001001F03B
:1014E000070105291FD2DFE801F0030A0F201400CD
:1014F00006A8FFF799FE07980AB0BDE8F08768468E
:1015000000F13AF80098F7E703A8FFF72FFF0398D8
:10151000F2E7216811F04051EED0B94275D1104682
:10152000EAE71846E8E70020E6E72846E4E7B1F5F1
:10153000007F19D0544EB1F5806F26D0B1F5006F01
:1015400037D04FF4805949454FF4804A4BD1D8F8F1
:10155000001001F4E041B1F5005FD5D03DDC002979
:10156000C6D04945DFD1CAE7D8F8001001F4E071D0
:101570008029C9D004DC0029BAD04029D3D1BEE7E4
:10158000C029D2D0B142CED1C3E7316801F46001A5
:10159000B1F5800FB8D005DC0029A9D0B1F5001F46
:1015A000C1D1ACE7B1F5C00FBFD0B1F5000FBAD1D2
:1015B000AFE7316801F0E061B1F1007FA4D005DC54
:1015C000002995D0B1F1807FADD198E7B1F1407F8E
:1015D000ABD0B1F1806FA6D19BE7B1F5405FA4D04D
:1015E0005145A0D195E7B1F5002F4FF480350DD0CE
:1015F000A9421DD1206810F48030B1D0A84292D108
:101600006846FFF0B9FF029876E70EE0316811F402
:101610004031A8D0A94203D0B1F5003F83D178E78B
:1016200003A8FFF7A3FE059866E761459AD178E71E
:10163000514597D1316801F0E041B1F1405FE3D00D
:1016400009DC81B1B94211D061458BD103A8FFF704
:101650008DFE049850E7B1F1804F3FF460AFB1F1D7
:10166000A04F8BD15DE7FFF7CDFD45E76846FFF062
:1016700083FF019840E70000504402580090D003D7
:1016800040787D010080BB00584402582DE9FC5F82
:10169000044650F8241B002500902E460801FE4FFA
:1016A000DFF8F8831DD5606E50B1B0F5801F0CD007
:1016B000B0F5001F0ED0B0F5401F1DD001250FE082
:1016C000386840F40030386016E00221201D01F037
:1016D0004DFB03E00098022100F13EFD05000BD018
:1016E0002E462088C00523D5606D05281ED2DFE870
:1016F00000F00C11161B1B00626ED8F8001021F4CC
:1017000040111143C8F80010EBE7386840F400308E
:10171000386009E00021201D01F028FB03E000985B
:10172000002100F119FD05466DB100E001252E46AE
:101730002088800528D5A06D80281ED00CDC90B1B3
:1017400040280ED114E0626DD8F8001021F0070196
:101750001143C8F80010EBE7C02813D0B0F5807F24
:1017600010D001250FE0386840F40030386009E0FF
:101770000021201D01F0FAFA03E00098002100F199
:10178000EBFC054695B12E462088DFF81093400506
:1017900009F108092CD5D4F8A400B0F5800F20D0A9
:1017A0000DDCA0B1B0F5001F0FD115E0A26DD8F887
:1017B000001021F4E0711143C8F80010E4E7B0F51F
:1017C000C00F13D0B0F5000F10D001250FE038681E
:1017D00040F40030386009E00021201D01F0C6FA15
:1017E00003E00098002100F1B7FC054675B12E46D4
:1017F000208800052DD5D4F8A800B0F1007F21D0B5
:101800000EDCA8B1B0F1807F10D116E0D4F8A4208E
:10181000D9F8001021F460011143C9F80010E7E77E
:10182000B0F1407F13D0B0F1806F10D001250FE0F0
:10183000386840F40030386009E00021201D01F0D4
:1018400095FA03E00098002100F186FC05466DB191
:101850002E46206880011FD5A06CD8B110280FD06B
:10186000202812D0302815D0012514E0D4F8A82063
:10187000D9F8001021F0E0611143C9F80010E8E741
:10188000386840F40030386004E00221201D01F087
:101890006DFA05466DB12E462088C0042BD5E06D4B
:1018A000B0F5005F20D00DDCA0B1B0F5805F0FD1A6
:1018B00015E07A48A26C001F016821F03001114345
:1018C0000160E9E7B0F5405F13D0B0F5804F10D06C
:1018D00001250FE0386840F40030386009E000214D
:1018E000201D01F043FA03E00098002100F134FCD0
:1018F000054685B12E462088800429D5206EB0F596
:10190000403F23D010DC08B3B0F5803F14D0B0F5D1
:10191000003F0FD115E0E26DD8F8001021F4E0414E
:101920001143C8F80010E6E7B0F5802F0ED0B0F5EF
:10193000A02F0BD001250AE00121201D01F016FA8D
:1019400003E00098012100F107FC05468DB12E4609
:10195000208840042AD5D4F8AC00B0F1405F23D0F1
:1019600010DC08B3B0F1805F14D0B0F1005F0FD18C
:1019700015E0226ED8F8001021F4E0211143C8F8D8
:101980000010E5E7B0F1804F0ED0B0F1A04F0BD0C2
:1019900001250AE00121201D01F0E8F903E000988B
:1019A000012100F1D9FB05466DB12E4620880004C7
:1019B0001FD5E06ED8B1B0F1805F0ED0B0F1005FFE
:1019C00010D0012514E0D4F8AC20D9F8001021F093
:1019D000E0411143C9F80010E8E7386840F40030EE
:1019E000386004E00121201D01F0C0F905466DB109
:1019F0002E462068C0011ED5606CD0B101280ED0E3
:101A0000022811D0032814D0012513E0E26ED8F883
:101A1000001021F040511143C8F80010E9E7386880
:101A200040F40030386004E00221201D01F09EF9EE
:101A3000054685B12E462068DFF85CB04002ABF168
:101A40001C0B57D51648016841F480710160FFF006
:101A50000BFB82460EE01148626C001F016821F00A
:101A6000030111430160E6E7FFF0FEFAA0EB0A0074
:101A700064283DD80A480068C005F5D57DBBDFF86D
:101A80001CA0B4F8B0100AF1200ADAF8000001F442
:101A9000407100F4407005E02C4402585044025854
:101AA00000480258884211D0DAF80010DAF8002015
:101AB00021F4407142F48032CAF80020DAF80020A4
:101AC00022F48032CAF80020CAF80010D4F8B0001E
:101AD000B0F5807F21D1FFF0C7FA019019E008E04E
:101AE000FFF0C2FA0199411A41F28830814210D9BF
:101AF00003252E462078DFF830A4C0073DD0A06F24
:101B0000182838D026DC80B3082829D0102825D101
:101B10002CE0DAF800008007E2D5D4F8B010C1F369
:101B20000120032858460DD0016821F47C51016042
:101B3000B4F8B020DAF80010C2F30B021143CAF86F
:101B40000010D7E7F94A036802EA111223F47C5126
:101B50001143ECE720280ED028280CD001250BE0FB
:101B60000121201D01F002F904E004E000980121A8
:101B700000F1F2FA05465DB12E46207880071ED5A9
:101B8000606F062819D2DFE800F0160C1116161641
:101B9000A26FDAF8001021F038011143CAF80010E2
:101BA000EBE70121201D01F0E1F803E0009801219D
:101BB00000F1D2FA054675B100E001252E462078E5
:101BC00040071FD5D4F89000062819D2DFE800F0AE
:101BD000160C11161616626FDAF8001021F00701C4
:101BE0001143CAF80010EAE70121201D01F0BEF8F8
:101BF00003E00098012100F1AFFA05469DB100E035
:101C000001252E46207880062BD5D4F88C00B0F123
:101C1000405F24D011DC10B3B0F1805F15D0B0F17B
:101C2000005F10D116E0D4F89020D9F8001021F010
:101C300007011143C9F80010E4E7B0F1804F0ED05E
:101C4000B0F1A04F0BD001250AE00021201D01F0CA
:101C50008DF803E00098022100F17EFA05468DB16F
:101C60002E46207840062BD5D4F89800B0F5406F6A
:101C700024D011DC10B3B0F5806F15D0B0F5006F33
:101C800010D116E0D4F88C20DAF8001021F0E041F1
:101C90001143CAF80010E4E7B0F5805F0ED0B0F54C
:101CA000A05F0BD001250AE00021201D01F05EF8A5
:101CB00003E00098022100F14FFA05468DB12E464F
:101CC000207800062BD5D4F89C00B0F5C04F24D066
:101CD00011DC10B3B0F5005F15D0B0F5804F10D116
:101CE00016E0D4F89820D9F8001021F4E0511143FF
:101CF000C9F80010E4E7B0F5004F0ED0B0F5204F62
:101D00000BD001250AE00021201D01F02FF803E08F
:101D10000098022100F120FA05464DB12E462078A8
:101D200000071ED5D4F88000B0F5805F0AD00FE020
:101D3000D4F89C20D9F8001021F460411143C9F86F
:101D40000010ECE70098022100F106FA00B101262C
:101D5000D4F88020DAF8001021F440511143CAF879
:101D600000102078C00613D5D4F89400B0F5807F19
:101D700005D10098022100F1EFF900B10126D4F855
:101D80009420D9F8001021F440711143C9F80010D3
:101D90002068000316D5D4F8A00038B1B0F5803F14
:101DA00009D0B0F5003F0BD001250AE00021201D2D
:101DB00000F0DCFF03E00098022100F1CDF90546B8
:101DC00085B12E462068400322D5D4F88400B0F5B2
:101DD000801F11D0B0F5001F13D0B0F5401F15D0F3
:101DE000012514E0D4F8A020D9F8001021F44031E6
:101DF0001143C9F80010E5E7386840F40030386056
:101E000004E00098012100F1A7F9054655B12E46DE
:101E10002068C0031CD5E06C70B1B0F5803F10D0D5
:101E2000012514E0D4F88420DAF8001021F44011E0
:101E30001143CAF80010EBE7386840F4003038600E
:101E400004E00221201D00F091FF0546CDB12E4691
:101E50002068800005D50098022100F17DF900B1CD
:101E60000126206880031BD5E06FB8B1B0F5807FF4
:101E700010D0B0F5007F11D0B0F5407F0ED0012515
:101E80000DE02948E26C0838016821F480311143E3
:101E90000160DDE7386840F400303860F5B32E4665
:101EA0002068C00207D5226FD8F8001021F0004149
:101EB0001143C8F800102068C00008D5D4F8B42039
:101EC000DBF8001021F480411143CBF800102068AA
:101ED000800207D5A26ED8F8001021F0807111435E
:101EE000C8F80010206840000CD5DBF8001021F481
:101EF0000041CBF80010DBF80010D4F8B8201143F3
:101F0000CBF800102068002807DA0748226D08384F
:101F1000016821F040511143016000E008E086B102
:101F20000120BDE8FC9F000054440258CFFFFF0091
:101F3000E26FDAF8001021F440711143CAF8001082
:101F4000AEE70020EDE700002DE9F05F04000F464A
:101F50007ED0DFF83882D8F8000000F00F00B842D9
:101F60000CD2D8F8001021F00F013943C8F8001046
:101F7000D8F8000000F00F00B84269D12078844DF5
:101F800040070AD52069296801F07001884204D908
:101F9000296821F070010143296020787C4E361DAC
:101FA00000070AD56069316801F07001884204D9E0
:101FB000316821F07001014331602078C0060AD5F4
:101FC000A069316801F4E061884204D9316821F4E4
:101FD000E061014331602078DFF8B4B180060BF195
:101FE000080B0CD5E1695846DBF8002002F07002BE
:101FF000914204D9026822F070020A4302602078FC
:1020000080070AD5E068296801F00F01884204D9E9
:10201000296821F00F01014329602078C0073ED0D4
:102020005B49A2682868183920F470601043286062
:102030006068022818D0032819D00968012819D02F
:10204000490700294ADADFF848A1AAF1080A00E0A6
:1020500044E0DAF8002022F007020243CAF8002028
:10206000FFF002F8814612E009688903E9E7096890
:102070008901E6E7C905E4E7FEF0F6FFA0EB0901F8
:1020800041F28830814202D90320BDE8F09F6168A7
:10209000DAF8000000F03800B0EBC10FECD1207886
:1020A00080070AD5E068296801F00F01884204D250
:1020B000296821F00F0101432960D8F8001040463B
:1020C00001F00F01B9420BD9016821F00F0139432A
:1020D0000160006800F00F00B84201D00120D4E791
:1020E000207840070AD52069296801F070018842EC
:1020F00004D2296821F0700101432960207800078B
:102100000AD56069316801F07001884204D23168F3
:1021100021F07001014331602078C0060AD5A06922
:10212000316801F4E061884204D2316821F4E06151
:1021300001433160207880060CD5E1695846DBF810
:10214000002002F07002914204D2026822F0700274
:102150000A430260FFF0C4FA0E492A682B68C2F3F2
:10216000032203F00F038A5CC95C02F01F0201F036
:102170001F01D040084A20FA01F1116007490860A8
:1021800007480068BDE8F05FFFF0C8B800200052C3
:102190001844025824A2000834000024300000240F
:1021A0002800002470B5144C3F220260124A2468B3
:1021B0000832131D114D04F00704446016681C1DFD
:1021C00006F470668660166806F00F06C660126830
:1021D00002F0700202611A6802F0700242611A682D
:1021E00002F4E0628261226802F07002C261286833
:1021F00000F00F00086070BD10440258002000522B
:1022000030B5FFF06DFA0B4A0B490C4B156814689A
:10221000C5F3032204F00F048A5C095D02F01F027B
:1022200001F01F01D040064A20FA01F11960106048
:10223000084630BD1844025824A200083400002487
:102240003000002400B5FFF7DBFF05490968054AA7
:10225000C1F30211515C01F01F01C84000BD000034
:102260001C44025824A200082DE9F05F04007CD031
:10227000FF4F2078FE4D1837DFF8F493103DC0076C
:1022800048D0D9F80000396800F03800102815D07F
:10229000182803D101F0030002280FD06068B0F5C0
:1022A000803F12D010B1B0F5A02F18D0286820F4CC
:1022B00080302860286820F4802009E028688003A6
:1022C00028D560680028D2D024E0286840F4803007
:1022D0002860606888B1FEF0C7FE064609E02868FD
:1022E00040F480202860F0E7FEF0BEFE801B6428EA
:1022F0007ED828688003F7D50CE0FEF0B5FE0646D0
:1023000005E000BFFEF0B0FE801B6428F0D828680E
:102310008003F7D4207841F20308D54E0C3E8007A5
:1023200053D5D9F80000396810F038000ED01828BD
:1023300001D188070AD0E068A8B3296821F0190103
:1023400001432960FEF090FE82461BE028684007AA
:1023500002D5E06800288AD0FEF70EFD40451BD864
:102360002069402812D0316800E0CCE021F47C31B3
:1023700041EA0030306028E0FEF076FEA0EB0A0073
:102380000228B5D828684007F6D5E5E7306820F47C
:102390007C3040F40030EDE7207C316821F0FE41D4
:1023A00041EA0060E6E7FFE7286820F001002860C6
:1023B000FEF05AFE824605E0FEF056FEA0EB0A0053
:1023C000022895D828684007F6D42078C0065FD543
:1023D000D9F80000DFF898B2396800F03800ABF1A6
:1023E000040B082812D0182805D101F0030000E0E2
:1023F000EAE001280AD0E0690028286838D040F0D7
:1024000080002860FEF030FE824623E02868C00588
:1024100023D5E069802876D11FE0206A202821D0CA
:10242000316821F0F84141EA8060306030E000BF5F
:1024300094F82010DBF8002022F07C5242EA01617F
:10244000CBF8001024E000BFFEF00EFEA0EB0A0067
:10245000022896D82868C005F6D5FEF78DFC4045C1
:10246000E6D8DAE7306820F0F84040F08040DCE75A
:1024700020F080002860FEF0F7FD064605E000BF72
:10248000FEF0F2FD801B02289BD82868C005F7D417
:102490002078000729D57648616964300029804694
:1024A000016811D041F001010160FEF0DDFD06463A
:1024B00005E000BFFEF0D8FD801B0228C9D8D8F87F
:1024C00000008007F6D510E021F001010160FEF068
:1024D000CBFD064605E000BFFEF0C6FD801B0228CE
:1024E00072D8D8F800008007F6D42078800623D56B
:1024F000A0690028286810D040F480502860FEF0C1
:10250000B3FD064605E02CE1FEF0AEFD801B02287F
:102510005AD828688004F7D50EE020F4805028604F
:10252000FEF0A2FD064604E0FEF09EFD801B0228A0
:102530004AD828688004F7D4207840074FD5DFF8C0
:102540003481D8F8001041F48071C8F80010FEF012
:102550008BFD064605E000BFFEF086FD801B64286B
:1025600032D8D8F80000C005F6D5414EA0686036D4
:1025700001280AD008B1052813D0306820F00100E6
:102580003060306820F0040002E0306840F0010064
:102590003060A06841F2883A90B1FEF065FD804657
:1025A0000AE0306840F004003060EEE7FEF05CFDC9
:1025B000A0EB0801514507D830688007F6D50EE03A
:1025C000FEF052FD804607E084E000BFFEF04CFDC7
:1025D000A0EB080151457DD830688007F6D4606AC9
:1025E000F0B3DFF88C80D9F8001008F12008C1F3AF
:1025F000C20103296FD00228286820F0807028606B
:1026000003D0FEF031FD044680E0FEF02DFD0646CD
:1026100005E000BFFEF028FD801B022873D8286863
:102620008001F7D4E26A40F2F331386854F8283F69
:10263000884340EA021018433860217B4FF4FE0CB7
:1026400022894FF0FE47208A4902267D521E401EF5
:10265000A1F5007189B20CEA0040C2F3080200E063
:1026600081E01143761E0143014807EA066203E058
:1026700010440258004802581C3011433B4AC8F825
:102680000010016821F00101016011684FF6F87631
:10269000236AB14341EAC30111600168A26921F0D4
:1026A0000C01114301600168E26921F0020111434C
:1026B0000160016841F480310160016841F400313A
:1026C0000160016841F480210160016841F001016D
:1026D000016001E017E01DE0286840F0807028608C
:1026E000FEF0C2FC044604E0FEF0BEFC001B022823
:1026F00009D828688001F7D535E000BFFEF0B4FCAA
:10270000001B022802D90320BDE8F09F2868800141
:10271000F4D428E039680128D8F8000021D0A26A52
:1027200001F0030393421CD1E26AC1F305118A420E
:1027300017D1216BC0F30802491E8A4211D1616B87
:10274000C0F34622491E91420BD1A16BC0F3064251
:10275000491E914205D1E16BC0F30660491E8142DA
:1027600001D00120D0E70020CEE700003444025819
:1027700070B504000D4603D094F82C0010B107E0AA
:10278000012070BD002084F82D00204600F018F8CC
:10279000022084F82C002068211DFDF73DFED4E9BD
:1027A00000022946FDF776FE04480121026842F046
:1027B0000042026084F82C10002070BD00400052DE
:1027C000FEF0DCBA704710B5040003D094F83D0069
:1027D00010B107E0012010BD002084F83C00204625
:1027E00000F022F8022084F83D002068211DFFF04F
:1027F000D5FD012084F8480084F83E0084F83F00AD
:1028000084F8400084F8410084F8420084F84300D2
:1028100084F8440084F8450084F8460084F84700B2
:1028200084F83D00002010BD7047000090F83D1076
:10283000012901D0012070470B4A022180F83D1088
:102840000168CB6843F00103CB60006881681140E8
:10285000062906D0B1F5803F03D0016841F001019F
:1028600001600020704700000700010070477047BA
:1028700070B5044690F87C0001281DD0012284F830
:102880007C202420C4F8800020680568026822F0BB
:10289000010202602068826822F060620A4382605E
:1028A000204600F049FC2268202100201560C4F871
:1028B000801084F87C0070BD022070BD2DE9F843C3
:1028C0000446D0F880001F4616460D46202852D1F7
:1028D000DDB1D6B194F87C0001284CD0012084F8F9
:1028E0007C0021224FF00008C4F88880C4F88020C2
:1028F0001834FEF0B9FB814654F8100CA687E68721
:10290000183CB0F5805F03D004E00120BDE8F883F7
:10291000206920B12E46002584F87C8010E0002636
:10292000FAE780212046FFF02FFEB8B9C6B116F8AD
:10293000010B21688862B4F85600401EA4F85600C6
:10294000B4F856004B464FF0000200970028E8D13B
:102950004FF040012046FFF017FE38B10320D5E7C5
:1029600035F8020B2168C0F30800E3E72020C4F823
:1029700080000020CAE70220C8E7FEE770B50068C3
:10298000C1F30901074E41EA0241049C4FF48065FE
:102990004268194305EA54553543AA4321430A4383
:1029A000426070BDFF63FF038068C0F3C0007047E2
:1029B0008068C0F380007047C06810F4406F01D099
:1029C000002070470120704710B5042404EAD15458
:1029D0000723C1F3045120448B408A404169994345
:1029E0001143416110BD00000148FEF7E1BA00004B
:1029F0003C03002430B58BB0002468461C210794AA
:102A000008940994FDF7A2FC1C4804251A4A0121E8
:102A1000C0E900248460C0E9034504754475816100
:102A2000047744628462C4620463446380F838407B
:102A3000FDF74AFE08B172B6FEE7104807A90794F1
:102A4000FDF7ACFD08B172B6FEE70D48062140F275
:102A5000FF7203928DE8130008486946CDE90454DB
:102A60008DF81940FDF024FD08B172B6FEE7034869
:102A7000FDF7CAFF0BB030BD002002400002002469
:102A80000800900C2DE9F04786B014216846FDF748
:102A90005DFC5648016841F480610160016801F401
:102AA00080610591016841F008010160016801F051
:102AB00008010591016841F010010160016801F011
:102AC00010010591016841F400710160016801F491
:102AD00000710591016841F004010160016801F095
:102AE00004010591016841F040010160016801F0B5
:102AF00040010591016841F020010160016801F089
:102B000020010591016841F480710160016801F4C0
:102B100080710591016841F080010160016801F058
:102B200080010591016841F001010160016801F037
:102B300001010591016841F00201016000684FF454
:102B40000056DFF8AC80002200F00200314605900C
:102B50004046FEF70BF90122DFF89890D70248466D
:102B60003946FEF703F9DFF890A001220221504612
:102B7000FEF7FCF800240096012569464046CDE9A1
:102B800001540394FEF052F91C4E6946CDE90054FD
:102B900030460294FEF04AF9802003218DE81300AC
:102BA00069463046FEF042F90226694668028DE821
:102BB00051001348FEF03AF9CDE90075CDE9025411
:102BC00069464846FEF032F9CDE90065CDE9025488
:102BD00069465046FEF02AF9CDE900546946504650
:102BE0000294FEF023F906B0BDE8F087E0440258F5
:102BF00000080258000C0258000402580000025855
:102C0000001C02581248002110B5104C0123114A33
:102C10000460C0E90121C0E9033141618161C16102
:102C20000162FEF051FA08B172B6FEE708480021D1
:102C3000FEF7A8F808B172B6FEE705480021FEF0DD
:102C400019FA002801D072B6FEE710BD0058004006
:102C5000F0020024B1757030F0B58DB034216846B3
:102C6000FDF774FB25480024234A2E2100F11C0E99
:102C700040F24E334FF4FC7640F276370260182271
:102C8000446040F2022C84600125C46004618EE837
:102C9000CE10C0E9054580F8344080F8354080F812
:102CA0003640FEF7E9F908B172B6FEE74FF4487016
:102CB00004954FF4F071FF22CDE90040CDE90241C7
:102CC000CDE9052405260994CDE90A014FF4806376
:102CD0000A48CDE907368DF8304000228DF83140A2
:102CE00069468DF83240FEF739F9002801D072B6F6
:102CF000FEE70DB0F0BD0000001000503C030024C2
:102D000004F1C2BB1748002110B5154C0C224FF43A
:102D1000E1330460C0E90131C160C0E9041281619E
:102D2000C161016241628162FEF0D2FE08B172B6F9
:102D3000FEE70C480021FEF0A5FE08B172B6FEE7E2
:102D400008480021FFF794FD08B172B6FEE7054878
:102D5000FEF078FE002801D072B6FEE710BD00003C
:102D600000500040E4030024FEE700002DE9F04796
:102D7000454D044689464FF0000A2868C043800745
:102D80000AD0414E283E306820F080603060FEF06E
:102D90006BF90746B04608E00120BDE8F08700BFA8
:102DA000FEF062F9C01B022867D8D8F800000001C5
:102DB000F6D4206829684FF4FE0721F47C313E02E6
:102DC00041EA00302860207AA389B4F804C04002A8
:102DD0002D4D2D495B1E227CACF1010C1035091DD7
:102DE000A0F5007080B2521ECCF3080C07EA034332
:102DF00040EA0C00184306EA0262104328600868A3
:102E0000626920F0C000104308600A68A06922F0DF
:102E1000200202430A60281D0A6822F010020A609C
:102E200002684FF6F873E4699A4342EAC40202600A
:102E30000868B9F1000F40F010020A6011D008686C
:102E4000B9F1010F11D040F400100860D8F800006B
:102E5000444640F08060C8F80000FEF005F90546E1
:102E60000DE0086840F40020EFE740F48010ECE744
:102E7000FEF0FAF8401B022801D903208DE72068F4
:102E80000001F5D5504688E728440258F0B587B0D0
:102E900014216846FDF75AFA1E48016841F4805132
:102EA0000160006802240025694600F48050059006
:102EB000032648F237100C278DE8F1001648FDF084
:102EC000B5FF4CF2037069468DE8F1001348FDF040
:102ED000ADFF4FF63F0069468DE8F1001048FDF068
:102EE000A5FF0D2069468DE8F1000E48FDF09EFF1C
:102EF0004FF6807069468DE8F1000B48FDF096FFB3
:102F0000002205213020FEF733F93020FEF014FBBB
:102F100007B0F0BDD444025800180258000C025803
:102F20000014025800080258001002581A48F0B560
:102F3000016889B041F480510160006800F480505C
:102F40000790FFF7A3FF164801274FF0100C134D11
:102F50000221082405604FF4C075C0E901C7C460B0
:102F600040268F02C0F810C00C03C0E9056500239D
:102F7000C0E9073707220425C0E909348DE8260097
:102F800003260392CDE9046106916946FFF7F0FB41
:102F900000F008F809B0F0BDD44402584041005296
:102FA000FC0400242DE9F8431C4C102600274FF6A2
:102FB000FF7901251A484A462146C4E90056C4E96A
:102FC0000257FEF051FC17480090401E0090FCD1C3
:102FD00002211348C4E900161049B846C4E9025753
:102FE0004A46FEF041FC04270D4803214A4684E886
:102FF000C2010A49FEF038FC40F2312007494A4636
:10300000C4E902500648C4E90076FEF02DFCBDE894
:10301000F84303484FF44E71FEF00DBCF00100245C
:10302000FC040024A0860100502010B580F3118814
:10303000BFF34F8FBFF36F8F06F0A4FE18B10449A2
:103040004FF080500860002080F3118810BD000010
:1030500004ED00E02E48F0B52E4A016841F47001FD
:103060000160106800F00F00072804D2106820F0FB
:103070000F00C01D106028490020274C10340B6839
:10308000264D43F001030B6020600B682B400B6062
:10309000136803F00F03072B04D9136823F00F0301
:1030A000DB1D13601C4C1E4A18341E4B261D371D99
:1030B0002060194C1C4D28343060261D3860371DA7
:1030C00023603B1D35601C1D3A60251D2E1D1860B8
:1030D000331D22602860326018600A680E4B134C62
:1030E00022F4802260330A60186020686FF30F00BA
:1030F000B0F1005F03D20E490120C1F8080143F28C
:10310000D2000C49024B4A03803B08601A60F0BDB4
:1031100088ED00E000200052004402587FEDF6EAFE
:1031200080020101000202020000FF010010005CA9
:1031300000800051004000523FB514A1D1E90023A6
:1031400014A1CDE90023D1E90021CDE90221416E8E
:10315000B9B1016802AC8A688968C2F34262490F5A
:103160001DF80150615C2D01B5FBF1F1A0F86A106A
:103170001DF80210A25C0901B1FBF2F1A0F8681081
:103180003FBD0121A0F86A10F8E70000010101032A
:103190000701000008040204080101012DE9F043C1
:1031A00004468068D94F87B02268D4E90465E36992
:1031B000616E304316681D432843D54B00250143FB
:1031C0003E400E4316602068E268416821F4405199
:1031D000114341602268A1699A4201D0206A0143EB
:1031E0009668DFF830C3CC4FCC4806EA0C060E4395
:1031F00096602168666ACA6A22F00F023243CA6288
:103200002268BA420ED1006800F03800182873D046
:1032100047DCB8B3082879D010286FD178E0282887
:103220007ED17BE0BE498A4209D1006800F00700E8
:10323000062875D2DFE800F0546A6C6E7072B949E6
:103240008A4209D1006800F00700062868D2DFE84A
:1032500000F0475D5F616365B3498A4209D1006848
:1032600000F0070006285BD2DFE800F03A50525425
:103270005658AE498A420BD1006800F00700062874
:103280004ED200E010E0DFE800F02B414345474913
:10329000A7498A420AD1006800F03800182839D0BE
:1032A000B7DD2028BBD13CE001203AE0A1498A42A9
:1032B00009D1006800F00700062831D2DFE800F0ED
:1032C0001026282A2C2E9C498A420BD1006800F037
:1032D0000700062824D2DFE800F003191B1D1F2178
:1032E00000201EE09A421BD18C48001D006800F0AF
:1032F0000700062814D202E00CE007E010E0DFE847
:1033000000F0030507090B0D02200AE0042008E085
:10331000082006E0102004E0202002E0402000E029
:1033200080208649DFF818829A42864A4FF400438B
:103330004FEA21174FF000064ED110281AD006DCB4
:10334000022809D004280BD008287DD10DE02028C0
:103350003ED0402878D13DE0FDF754FF014610E013
:103360006846FEF009F901990BE003A8FDF7FEFF9E
:10337000049906E01068800604D51068C0F3C10007
:10338000C140C1B3606A676838F8102007EB470393
:10339000B1FBF2F0834257D8B0EB073F54D800237B
:1033A00008461946FCF79AFF0902020241EA106139
:1033B00070084FEA370010183A4671410023FCF7B5
:1033C0008DFF614AA0F5407191423DD821684CE0E3
:1033D0003946D7E71946D5E7D4F81CC04FF6EF7940
:1033E0009C4552D108281AD006DC60B101280DD0C6
:1033F000042829D10EE039E0102815D0202840D02B
:1034000040287CD13FE0FEF71DFF01E0FEF056F9B9
:10341000014610E06846FEF0AFF801990BE003A802
:10342000FDF7A4FF049906E01068800604D5106833
:10343000C0F3C100C140C9B1636A606838F8133095
:10344000B1FBF3F1490000E059E001EB5001B1FBA1
:10345000F0F080B2A0F11001494550D84FF6F0735A
:103460002168C0F3420218401043C8600120A4F84C
:103470006A00A4F868002846E666266707B0BDE83B
:10348000F0833946D8E71946D6E7082819D005DC75
:1034900058B101280CD0042831D10DE0102815D0E6
:1034A00020282ED040282AD12DE0FEF7CBFE01E0C7
:1034B000FEF004F9014610E06846FEF05DF801995F
:1034C0000BE003A8FDF752FF049906E010688006A0
:1034D00005D51068C0F3C100C1400029C6D0636A99
:1034E000606838F81330B1FBF3F101EB5001B1FB28
:1034F000F0F080B2A0F1100149457FF667AF0125D9
:10350000B4E73946EBE71946E9E70000F369FFCF76
:10351000000C0058FFF4FF11001001405444025801
:103520000044004000480040004C00400050004073
:103530000014014000780040007C00400090D0035F
:10354000AC7F100800440258FFFC0F00002809DB84
:10355000410900F01F028900012001F1E0219040A3
:10356000C1F8000170470000024800684068016827
:1035700049690847C4010024154830B58BB000786C
:10358000C00722D1124805F0CBFEF0B10020124A4C
:103590003F21079101230F49089004240A90022536
:1035A0000990009506910390CDE90143CDE904020D
:1035B0000A490C230A480F2201F062FD094A0A4910
:1035C000FCF08FFD0248AFF300800BB0044830BD23
:1035D00098000024D01E0108DC7F1008801D11080F
:1035E000B451002400000008CF32100840F2EF3040
:1035F0007047000070B50C46897FFFF047F9174906
:10360000486362694FEA32424A642269CA63628B44
:10361000A38AD21A0A642268082A07D00022C86145
:103620000A610F4AE06888630A6070BD638BA58AEF
:103630000C4A5B1B8B61638BA58A5B1B0B61486229
:10364000207F02EB0060C861E068086206482269DA
:103650004A612269CA60086070BD00000010005213
:103660000102030009000100010202000168896AE9
:10367000084700200C2910B50DD2DFE801F008063C
:10368000070C0C0C0C0A0A0A0A0A012010BD0220C1
:1036900010BD052010BDAFF300800000064A0549AB
:1036A00001604FF08061C2F88011BFF34F8FBFF30C
:1036B0006F8F7047EC7F100808E000E0FFF0B6B9AC
:1036C000FFF0D8B9FFF0EEB900F034BA7047704798
:1036D0002DE9F04F91B001F10DF8E9490025C563DE
:1036E00040F8401B02F0E8F82C3002F0E5F82C30EE
:1036F00002F0E2F8E34900F5BE72C56201606421A0
:103700000586343000F1EAF8DF49016000F53670D3
:1037100001F08EFD383001F0E7FFDC49044601601E
:10372000294605754575857501F037FD04F11800CA
:1037300001F052FFD64940F8441B01F045FDD54940
:1037400040F8501B01F040FDD34940F8501B01F1F7
:10375000EBF800F1FC0426212046FCF7F7FD20469B
:1037600003F000FA8562012180F82C504FF6FF72B9
:1037700080F82410C9490160FF21C2850286428673
:10378000828680F83610C64980F8375080F8385065
:10379000C44EC0E90F51A0F8485000F140014C3030
:1037A000D6E9002304F1CEFBA0F10C011030D6E9DC
:1037B000022304F1C7FB0561A0F5C664456104F569
:1037C000C967D6E90402B849C7E9001442F6E061C6
:1037D000C7E9020204F5CB6001F0DAFE00224FF4E3
:1037E000487A114604F1400053464FF4F078814680
:1037F000CDF8008001F1DEFB00224E461146104656
:1038000000F11DFD0022B06204F16C005346114628
:10381000CDF80080804601F1CDFB982246469920E4
:10382000114600F10CFD40F2BF2BB06204F198008C
:103830005B46182206460F214FF4D47ACDF800A03B
:1038400001F1B8FBFF221146104600F1F8FC0022FE
:10385000B0621146104600F1F2FCF0620120014610
:10386000308604F1CC00029002F007F8029864223E
:10387000002100F178F8029818220F215B46CDF85C
:1038800000A001F197FB16200090029813231C2240
:103890000A2101F052FD4FF0060B029800235A4610
:1038A0000221CDF800B001F090FD0298B422002171
:1038B00000F17DF804F57D7001218246FFF082FF62
:1038C000C5229721142000F1BAFC0146504601F0B0
:1038D000F1FF1421504601F073FE01215046FFF024
:1038E000CFFF0298514601F0EBFC012104F58760FF
:1038F0000090FFF067FF0098142101F054FCDFF8FE
:10390000ACA10122009803A9CDF80CA0ADF81020BD
:1039100001F054FC00221146104600F190FC0146D3
:10392000009801F0C7FF00990298FFF08FFE012177
:1039300004F591600090FFF045FF0098142101F01C
:1039400032FC009803A9CDF80CA0ADF8105001F09E
:1039500035FC00221146104600F171FC014600982A
:1039600001F0A8FF00990298FFF037FE012104F54D
:1039700069700090FFF026FFC5229721142000F106
:103980005EFC014604F57770824601F006FC009863
:10399000514600F0DDFF0098022101F045FC00993E
:1039A000029801F08DFC4FF4367A8822514604F5D6
:1039B0009B60059003F090FD0420ADF830000520D9
:1039C000ADF8280005980CAB0BAAADF82CB00AA9ED
:1039D00003F01EF87D2000230322CDE90050059856
:1039E000072103F06DF80598FA22142103F043F83B
:1039F0000598B42100F188FF04F2D45051461822F2
:103A0000C4F8D075074603F067FD0221ADF8241015
:103A10000321ADF8285009A8ADF82C100121ADF80C
:103A200030100AAB00900BAA38460CA900F04DFFED
:103A30000021384600F06BFF4946204687F8385091
:103A400000F14BFD4146204600F147FD314620463E
:103A500000F143FD0299204600F13FFD0599204603
:103A600000F13BFD3946204600F137FD04F21460B9
:103A7000394606F074FB11B02046BDE8F08F000017
:103A8000508010088C81100830A700084882100868
:103A90008484100804811008ECA50008ECA4000838
:103AA0002C831008C47F1008948A1008088D100811
:103AB0007047C06800F0DBB8704702207047000014
:103AC00000487047AC00002410B50446D0F85401FB
:103AD00000F088F82046BDE8104000F015BC7CB529
:103AE00014460D46684603F16DFABDF80000002843
:103AF00006D0BDF802002860BDF804002060012057
:103B00007CBD03F189BA000003480068C00301D5F9
:103B1000FEF0B0BD7047000014ED00E0FFF07CBF88
:103B20005A2010B5FFF712FDBDE810405820FFF7EE
:103B30000DBD000009480A49C268C2F30A02521EBC
:103B400092B20A800369C3F30A035B1E4B800264CE
:103B5000416B41F0010141637047000000100050CB
:103B60001800002400F194B870B515460E46FFF019
:103B7000E3F80446154816480021174AC4F83811DE
:103B8000C4F83C1104601348206004F5A070C0E93B
:103B90000021124AD2E90212C0E90212C4F85051BF
:103BA0000F4DC4F85461286801688A680021904765
:103BB000002000F165FB296891F8760008B1C86C17
:103BC00000B9886801F1E0FC204670BD68821008E9
:103BD0005C010024C0801008D8AA0008C0A2000818
:103BE000C40100242DE9F0414FF400710546154849
:103BF000FDF034FA144F01284FF400561FD0002274
:103C000031463846FDF7B2F82C6831463846FDF0AB
:103C100025FA014620688268204690470B48FCF749
:103C2000F3FE0A486421FCF761FE0848FCF749FDF1
:103C300028680168CA683221BDE8F04110470122B6
:103C4000DEE70000001C02580008025800020024B1
:103C500000210160704710B50446FFF738FD206869
:103C6000D4F80815C26A2046BDE81040104700F29B
:103C7000D45011B1002100F04ABE0121FBE700F54C
:103C80004050A0F838157047FEF090BE30B5044C97
:103C9000039D04600171C2800381458130BD000035
:103CA00094A4000810B5064C0021606805F040FCA3
:103CB00060684FF0FF31BDE8104005F039BC0000EE
:103CC0001C0000240148006803F158BA1C000024BD
:103CD00002480021006805F02BBC00001C000024F5
:103CE00090F84430002B01D100F186BF7047704737
:103CF0002DE9F74F84B0814605A805F001F90028A9
:103D00007ED109F1A805B9F8E8400AE0A0B205EBB8
:103D1000C00105A802F17EFD18B1A1B2284604F148
:103D2000D0F8641EF2D5B9F8E8604FF0000AD0462A
:103D3000761E66D4B0B205A905EBC004204605F096
:103D4000EBF800287AD0BDF91400B4F900108842CD
:103D500032DB05A805F0CFF80746204605F0CBF882
:103D6000874229DCBDF91600B4F90210884212DB43
:103D7000204602F14AFDBDF91620BDF81A10801A3E
:103D800000B2091A09B2ADF81A10002938DD104442
:103D9000ADF816004DE005A802F137FD07462046B4
:103DA00002F133FD874207DC6088BDF81610401A27
:103DB00000B2ADF81A003AE0BDF91600B4F90210ED
:103DC000884239DB05A802F120FD0746204602F1B2
:103DD0001CFD874230DCBDF91400B4F900108842A4
:103DE00015DB204605F087F8BDF91420BDF8181042
:103DF000801A00B2091A09B2ADF81810002901E0C2
:103E000080E098E07EDD1044ADF8140011E005A8D4
:103E100005F071F80746204605F06DF887420BDC87
:103E20002088BDF81410401A00B2ADF81800002820
:103E300068DD4FF0010801E04FF0010A761E7FF5C2
:103E400079AFB8F1000F7FF46EAFBAF1000F72D006
:103E5000B9F8E8604FF00008761E6CD4B0B205A93E
:103E600005EBC004204605F057F858B3BDF914001F
:103E7000B4F90010884226DC05A805F03CF8074696
:103E8000204605F038F887421DDBBDF91600B4F96D
:103E90000210884205A808DC02F1B7FC6188401ACC
:103EA00001446180E188081A0BE002F1AEFC07468C
:103EB000204602F1AAFC874205DBBDF816006188A6
:103EC000401AE0802FE0BDF91600B4F902108842D4
:103ED00027DC05A802F199FC0746204602F195FC73
:103EE00087421EDBBDF91400B4F90010884205A812
:103EF00009DC05F000F82188401A01442180A188DE
:103F0000081A0CE070E104F0F6FF0746204604F0C2
:103F1000F2FF874205DBBDF814002188401AA0801B
:103F200001E04FF00108761E98D5B8F1000F8ED051
:103F3000B9F8E8604CE14EE1B0B205EBC00405A869
:103F4000214602F167FC18B1B1B2284603F1B9FF6E
:103F500005A9204604F0E0FF0028EBD0BDF91400CD
:103F6000B4F900108842BDF91600B4F902107DDDE5
:103F7000884233DDBDF816006188401A21880FFAA7
:103F800080F8BDF81400401A06B205A804F0B3FF8B
:103F90000746204604F0AFFF391A05A801FB08FACE
:103FA00002F133FC0746204602F12FFC381A704319
:103FB000504508DCA4F806802088ADF81400BDF850
:103FC00018003044D4E0A680BDF81A1001EB0800B8
:103FD000ADF81A006088ADF8160094E605A804F064
:103FE0008AFF0746204604F086FF21888742BDF8F5
:103FF0001400A0EB01000FFA80F8204625DD02F145
:1040000004FC064605A802F100FC301ABDF91610A2
:1040100006B2B4F90200411A05A801FB08FA04F03F
:104020006AFF0746204604F066FF381A704382454F
:1040300008DC05A802F1E9FB6080E6802088ADF885
:10404000140091E0A4F804805EE004F054FF0746F9
:1040500005A804F050FF381A07B2B9F8E80007289D
:104060000EDAD4F800B0D4F804A000E01CE005A8F3
:1040700004F041FF52462080A78068F30F02A3E0BE
:10408000B8450EDCBDF818102088ADF8140001EB1F
:104090000800ADF8180005A804F02DFF2080A780C7
:1040A00031E6A4F8048026E0884231DA204604F0A4
:1040B00022FF064605A804F01EFF301A07B220466C
:1040C00002F1A3FB064605A802F19FFB301ABDF9D9
:1040D000161006B2B4F90200BDF91420411AB4F961
:1040E0000000801A79437043814208DC05A8E6800D
:1040F00002F18BFB6080BDF81800384438E005A859
:10410000A78004F0F8FE2080BDF81A00304484E057
:1041100005A804F0F0FE0746204604F0ECFE8742B6
:1041200033DA204604F0E7FE064605A804F0E3FE75
:10413000301A61880FFA80F8BDF81600401ABDF9F0
:10414000141006B2B4F90000411A05A801FB06FAE2
:1041500002F15BFB0746204602F157FB381A00FBD1
:1041600008F0504507DCE680BDF8181001EB0800A8
:10417000ADF81800C7E505A804F0BDFE2080A4F83E
:1041800004806088ADF81600BEE7BDF816006188AF
:10419000401A0FFA80F8204602F137FB074605A8BF
:1041A00002F133FB381A07B2B9F8E80007281EDA23
:1041B000D4F800B005A8D4F804A0E78002F125FBEC
:1041C0005246608068F31F425946284603F18CFE30
:1041D000761E7FF5B1AEB9F8E860082E20D2DDE991
:1041E0000512284603F180FE07B0BDE8F08FB84500
:1041F0000EDCBDF81A106088ADF8160001EB08005F
:10420000ADF81A0005A802F100FB6080E7807AE5AE
:10421000A4F80680BDF81A003844ADF81A0072E51B
:1042200000274FF0FF3A761E6FF0004B42D4B0B239
:10423000741E05EBC008B8F80410B8F8060011FBAE
:1042400000F002902EE0002C03DBA0B205EBC001D1
:1042500000E005A98888CA8810FB02F00390D8F80E
:1042600000200092D8F804000190684601F0CBFFCE
:10427000BDF80400BDF8061010FB01F1DDE90220D5
:104280001044CA17081A01EB5271B0EBE10F02DAC1
:104290003746A2460BE0584503DA3746A24630B10E
:1042A0008346641EB4F1FF3FCDDA761EBFD5BAF166
:1042B000000F06DAB8B205EBC00105A801F0A3FFB4
:1042C00012E01FFA8AF005EBC004B8B2214605EBF4
:1042D000C000064601F097FF0598206006986060D0
:1042E0003168059170680690B9B2284603F1E9FD7E
:1042F00009E5000003484068002802D00268D2693E
:1043000010477047500100242DE9F041374D044615
:10431000A86808B1017A19B194F8351131B114E0E7
:10432000002184F835110168896859E068B1007A84
:1043300058B1686810B1016809698847A8680168C0
:10434000C9688847012084F8350100260BE0A019D0
:1043500090F8880030B1B1B2201D50F821000168FA
:10436000C96C8847761CB4F88400B042EFDC0022A8
:10437000104613E0211891F8883073B190420BD0A9
:1043800086B2231D53F8267096B243F82670A31800
:1043900091F8881083F88810521C401CB4F88410DF
:1043A0008142E7DC13E0581E80B2211D83420ED902
:1043B00005E001EB80035B6841F82030401CB1F858
:1043C00080308342F5DC98B2401EA1F88000B4F83A
:1043D00084309342E7DC6868002804D00168496AA9
:1043E000BDE8F0410847BDE8F0810000500100241D
:1043F00003484068002802D00268126A10477047DC
:10440000500100242DE9F04F99B0044680F8341192
:1044100029B10020A4F8E80019B0BDE8F08F04F538
:10442000967004F06DFD90B9D4E94B1204F58075D7
:104430002046FFF75DFC002000900346024601463F
:1044400001A801F02BFF0168E96240682863B4F815
:10445000E80098B10020FD4F80F00105386920B1D7
:1044600007F1140004F04CFD50B1002DD4D001A888
:1044700003F14AFD3E8804F1A80520E00120EAE7A7
:10448000F248143001F0A4F9D7E905122046FFF7ED
:104490002FFC0020009003460246014601A801F0CF
:1044A000FDFE016879614068B861E0E705EBC60090
:1044B0000168426801A803F117FD761CB6B2B4F892
:1044C000E800B042F2D8E148068804F1EA0016900C
:1044D00009E0169800EBC600016842682046FFF725
:1044E00007FC761CB6B2B4F82A01B042F1D8DFF866
:1044F00060A3DAF8000090F84800012804D00228F0
:1045000077D0D2480688BCE1DFF840B30026BBF87C
:1045100000700CE0B8B205EBC000804602F175F9FE
:10452000B04203DD404602F170F906467F1CB4F844
:10453000E800B842EEDCC74800880F2801D9C0085F
:1045400000E001208146002000900346024601461B
:1045500012A801F0A3FED04653E0D1F8901088478E
:10456000074612A802F151F94844B8420BDDB742A0
:1045700009DA12A802F149F9B8423BDD12A802F1AA
:1045800044F9002836DD12A802F13FF9B84201DCF7
:10459000BE4200DA374612A802F137F93F1A12A8D4
:1045A00002F133F9024638B20090AB48002100888E
:1045B00003B217A801F072FE0168129140681390CF
:1045C000BBF8007010E005EBC70112AA14A804F0B4
:1045D000E0FC14A804F094FC20B9206814A9426BF4
:1045E000204690477F1CBFB2B4F8E800B84208D913
:1045F000E9E711E0D8F800000168D1F88C2001212A
:10460000904712A802F101F9B042D8F80000016801
:10461000A3DB096A884738E190480078012879D0FF
:104620000DE18A484FF00008B5F900600088401C91
:1046300087B226E005EBC000814604F05CFC8246B0
:10464000B9F906B005EBC700814604F054FC5045AB
:10465000514606DDB9F90060B846084656450ADB02
:104660000DE00AD1B9F90610594500DDB846B9F98F
:104670000000B04203DB064601E0B042FBDC7F1CD9
:10468000BFB2B4F8E800B8421FFA88F0D2D805EB00
:10469000C0073868129078681390BDF94C00142850
:1046A00001DABDF9486012A804F025FC801BADF8C2
:1046B0004C0012A8ADF8486001F05AF812A804F0B6
:1046C0001FFC38BBBDF94E00142800DD1420BDF8D6
:1046D0004C3081B25E48BDF84A2000680091BDF8B8
:1046E00048100668D6F88460B0470646ADF84E001C
:1046F00012A801F06DF8206812A9426B204690477D
:10470000B888801B00B2B88020B91FFA88F128460B
:1047100003F1D7FBB4F8E800002882D1B5E04FF0F0
:104720000009284602F171F8064648480088401CF6
:1047300087B228E005EBC00005EBC708B0F902A07E
:10474000B0F90410B8F90200504508DAB9464046FD
:1047500002F15BF8504551460CDD0E4611E00DD1DB
:10476000B8F90400884200DDB946404602F14DF830
:10477000B04206DC404602F148F801E0B04200DAFF
:1047800006467F1CBFB2B4F8E800B8421FFA89F0B1
:10479000D0D805EBC007B7F90600142803DA38466D
:1047A00002F133F80646384604F0AAFBF0BB12A823
:1047B000FFF03FFD3888ADF84800B7F90200ADF8CA
:1047C0004A00B988301A1428ADF84C1000DD1420C6
:1047D00086B2384602F119F8BDF94A10401AB042C3
:1047E00005DC384602F111F8BDF94A10461A18489E
:1047F000B1B2BDF84C30BDF84A2000680091BDF858
:1048000048100668D6F88460B047ADF84E0012A98B
:104810002068426B204690477888BDF84E100844C7
:104820007880F888BDF84E10401A00E007E000B22A
:10483000F88020B91FFA89F1284603F142FBB4F849
:10484000E80000287FF46BAF1FE000005001002457
:10485000C4010024BC010024BA010024B4010024D6
:1048600005EBC600016812914068139012A804F08D
:1048700047FB20B9206812A9426B20469047761C5E
:10488000B6B2B4F8E800B042EAD80D480078002883
:104890003FF4C2AD0020A4F82A010A48048809E0C8
:1048A00001A800EBC40001684268169803F11CFBE4
:1048B000641CA4B2BDF84400A042F1D8ACE50000ED
:1048C000B50100245001002470472DE9F04109880A
:1048D00000F12E07069CC185118801861988418642
:1048E000218804468186384604F0ECFB06B238463F
:1048F00002F160F805B220683146426B20469047CD
:1049000020682946826B2046BDE8F041104770B50B
:1049100090F837600D46044680F8371036EA0500F7
:104920000AD0E06B40B10168C968884720B1E06BEC
:1049300001688A6821469047B54303D02068C16D5D
:1049400020468847206841692046BDE870400847F6
:104950008162704710B526210446FBF7F7FC0E482C
:104960002060201DFFF065FC0830FFF062FC002194
:104970008160C160012201618182C182017642763B
:10498000064A40F80C2CC16147F6FF710184FF21F3
:1049900080F822100C3810BDAC8A10085CA5000805
:1049A00030B5044C039D04600171C28003814581D0
:1049B00030BD0000D8A50008012101727047704782
:1049C00030B4029C01600021C0E90112C160C0E95D
:1049D0000F34017401860183018730BC00F0CEBA28
:1049E00070B500F11A050446008EB8B1A98A401EC0
:1049F00035F81160E882481C80B2A8820A2801D3E9
:104A00000A38A882204600F003F9208B12340228CD
:104A100001D2401CE080A08810B103E0AFF3008019
:104A20000220A08080B2401E80B2A08024F81060D6
:104A3000304670BD2DE9F84F9146824631F8020BA1
:104A40000C46050B31F815204A4502D00020BDE880
:104A5000F88F00F00F082A46C0F303272146C0F361
:104A600003163B4650460096FEF0BEFA50B1E819D8
:104A700042463044394604EB4003504600F0ADFA5C
:104A80000120E4E704EB450000EB470000EB4601A2
:104A900001EB4801D2E72DE9F05F5FEA02088B469F
:104AA00004464FF0000921D098F80D0004F1440AA3
:104AB00098F8071000F01000B8F8045041EA00160A
:104AC000A5F63161F7101E2953D2DFE801F0185224
:104AD00052181818184141415252525252525252D1
:104AE000525252521818181818181818A4F8529040
:104AF0004846A4F85490A4F85690BDE8F09F04F1FD
:104B00001A0003F1B8F940F63361884208D1DBF8A6
:104B10000000C2685846904702F120F9A4F85200FC
:104B2000F119B4F852000E220844414624F8520FFD
:104B30005046FBF0C4FAB4F90010504603F0AAFA4C
:104B400014F8050C2179401A04F8050C5046D4E7F6
:104B50000E2241465046FBF0B2FA34F8540FC01B07
:104B600001B2504603F096FA2088F119401A2080CD
:104B7000ECE7A5F560601B3822D0A5F560601D3814
:104B80001ED0A5F560601F381AD0404602F1E6F845
:104B9000A4F85200A5F56060093840F6136A21D0E8
:104BA00055451FD0A5F5606019381BD0A4F8569064
:104BB000404602F1D3F8801BA4F8540040469CE71D
:104BC0006D1E5A46ABB24146204601F100FB02F190
:104BD000C5F8A4F85200404602F1D2F8810801EB72
:104BE000501012E0404602F1CBF85545074602D17D
:104BF00040F60C6500E06D1E5A46ABB241462046B9
:104C000001F1E5FA02F1BCF8381AA4F85600CFE732
:104C100070B500F11A06054613E0288F05F132043D
:104C2000B8B1A188401E34F81110E080A088401C63
:104C300080B2A080022801D3801EA080304605F0FB
:104C4000B0F9288F70B1304605F0C4FA0028E4D0DE
:104C500008E0AFF30080284600F092F901463046A4
:104C600005F09FF9304605F0B5FA0028F3D070BD85
:104C70002DE9F8431E4615460C4607461A3003F147
:104C8000FAF8804621463846FEF0E8F904000FD0D5
:104C900028682146C268284690473060334622463D
:104CA000414638460095FEF06EF92046BDE8F8838F
:104CB00000203060F9E770B5044669B104F14400A2
:104CC0000E220546FBF0FBF9284602F152F840425D
:104CD00084F84D00284670BD084670BD2DE9F047A8
:104CE000C56B0646002406F11A0768884FEA50088B
:104CF00013E0384603F1BFF8814603462A46414691
:104D0000304601F16FFA00280BD005EB40014A460E
:104D10003046FFF78FFE002803D02046641C0A2887
:104D2000E7DBBDE8F08700002DE9F047924F160061
:104D300004460AD0727BF07902F01002B18840EA92
:104D40000215042D0ADDA81009E0A4F85270A4F899
:104D50005470A0F856701046BDE8F087012040F26C
:104D6000DB6399428046A1F2DB6004F1440912D072
:104D700048DC40F253629142A1F253600BD020DC38
:104D800040F219629142A1F2196079D004DCA1F5D8
:104D9000C26108297ED873E0352871D008DC01286B
:104DA00005D032286CD033286AD0342872D199E0EB
:104DB000362865D037286ED0382861D0392869D197
:104DC0005EE00A285CD008DC0A2863D2DFE800F045
:104DD000BD588A8A58585858588A832850D008DCB9
:104DE0000B284DD00C287DD01D2849D0212851D129
:104DF00046E0842844D0852842D0862840D08728A1
:104E000048D13DE0B0F5047F3AD029DC102837D0F6
:104E10000BDCA0F104000C283CD2DFE800F03131BB
:104E20003131633196963131966340F20B229042D4
:104E3000A0F20B2156D00ADC112821D0122851D023
:104E4000A0F5007009381BD001287ED118E0012997
:104E500016D0022914D0032944D0042975D10FE0BB
:104E6000A0F21120132870D2DFE800F00A3C3C3C8D
:104E70000A0A3C0A0A0A3C0A0A3C3C0A0A0A0A00D4
:104E8000B4F95200B8420CD1B4F95400B84208D178
:104E9000304601E059E025E001F160FFA4F852003E
:104EA0002BE00E2231464846FBF009F9B4F95600D2
:104EB000B84208D0304601F15CFF94F85610A1EBDF
:104EC000500084F84D00B4F95200B84204D0284490
:104ED00001B2484603F0DEF8484601F13FFFA4F86E
:104EE00052002DE0B4F95200B8420AD1B4F954008E
:104EF000B84206D1304601F131FF401BA4F85400FE
:104F000037E00E2231464846FBF0D9F8B4F9560096
:104F1000B84208D0304601F12CFF94F85610A1EBAE
:104F2000500084F84D00B4F95400B84205D0A0EB0D
:104F3000080001B2484603F0ADF8484601F10EFF03
:104F4000401BA4F85400484606E7304601F106FF2E
:104F5000A4F85200401BA4F854005234304601F12A
:104F600008FF40000521B0FBF1F096F90910084454
:104F7000A0803046F0E600000080FFFFFFF748BE4B
:104F8000416811B9016831B34160017C51B1C16818
:104F900031B10A8822B10A46891CC1601088704765
:104FA0000021017442681188A9B1022904D0114678
:104FB000921C426008887047921C426081680A1DFA
:104FC00082600968C1600029DAD009880029D7D039
:104FD00001210174D4E7002070472DE9F05F8A4673
:104FE0009B465245164600F11A04804624D9A6EB8A
:104FF0000A001FFA80F900271CE0E18A08F1320557
:10500000204631B3491E89B2C18204F0BBFF01467C
:10501000E888401C02281CD8E880A888012801D212
:10502000801CA880A888401E80B2A8807F1CBFB2C8
:1050300025F810104F45E0D35146204602F124FFD9
:1050400015E0761EE08AB6B2401C0A283BF816101E
:1050500001D9AFF30080E082A08A012801D20A3092
:10506000A082A08A401E80B2A08224F81010002ED8
:10507000E7D14046BDE8F05FFFF7CABD70470000CA
:105080002DE9F04F87B08146DDE9178CDDE9136724
:10509000DDE911451098DDF864B0DDF858A08DE821
:1050A000F111484600F122FE0549159A40F8181BF7
:1050B00080E8040C1A99C16007B01838BDE8F08F79
:1050C000F08110082DE9F04705461A44DDE909078B
:1050D00002EB4202541800EB400000EB0409287A6E
:1050E000FF282CD017F8010B297A10FB01F001F0F2
:1050F0006FF8A97D0646C0F1FF08207811FB06F283
:1051000010FB082080B201F063F82070697D6078A0
:1051100011FB06F210FB082080B201F059F8607014
:10512000297DA07811FB06F210FB082080B201F067
:105130004FF8A070E41C4C45D4D3BDE8F08717F8B5
:10514000016BFF2E23D0A97DC6F1FF08207811FB4B
:1051500006F210FB082080B201F03AF82070697D59
:10516000607811FB06F210FB082080B201F030F8E5
:105170006070297DA07811FB06F210FB082080B238
:1051800001F026F8A070E41C4C45D8D3D5E7A87DE3
:105190002070687D6070287DF4E70A0C02750A0AA9
:1051A00042758175704710B50446084604F0E8FF63
:1051B000216B484304F0E4FFA06310BD8988A0F888
:1051C000401070477047000010B538210446FBF7C7
:1051D000BDF8204600F066FB0A4C002208494FF655
:1051E000FF7301604021C0E90E240B5280F8442077
:1051F0002E21A0F84620A0F84810C26410BD00007F
:1052000098A60008088D1008014901607047000049
:1052100098A6000830B5DDE90345416002720C3004
:1052200080E8380030BD704780F8341070470000C7
:1052300010B500F0A3F903490160022180F8341091
:1052400010BD0000AC8210082DE9FC411B4C054646
:10525000D5E90060A16969B3A06801EBD17101AF24
:1052600000EB6100CDE90070A3692A68E16920685C
:10527000FEF000F900970646A3696A68216A606833
:10528000FEF0F8F80644D4E9051000EBD07001EB0D
:105290006000CDE90070A3692A68616AE068FEF0E9
:1052A000E9F800978046A3696A68A16A2069FEF060
:1052B000E1F84044C5E90060BDE8FC81DC51002410
:1052C00038B504460D46343002F0CCFEB4F93E0049
:1052D0000022B4F93C30114600902846FFF06AFEE7
:1052E00038BD3EB5054608790C46022824D0E08832
:1052F00002AA298F401A01B22868D0F8B030284697
:105300009847002818D0207908B1012814D1D5F881
:105310002001002810D00168C968884700280BD0F8
:10532000BDF808006A46ADF800000194D5F82001E8
:1053300001688B68294698473EBD2DE9F84304462D
:1053400040890F461E46089D904632442944401A23
:10535000218900B20090891A3A460BB2414604F105
:105360003400FFF027FEB4F90830002204F1B80041
:1053700011460097FFF01EFEB4F90A0000224346D2
:105380001146009004F16000FFF014FE2189002214
:10539000B4F90A003346891B009009B204F18C006D
:1053A000FFF008FE60890021B4F90830401B009529
:1053B00002B204F1E400FFF0FDFD2046BDE8F84331
:1053C00000F00EB8343003F000BF10B5029CA0F816
:1053D0001011A0F81221A0F81431A0F8164110BD48
:1053E00038B5C56D04460AE0B4F93E000022B4F9B0
:1053F0003C30114600902846FFF0DCFDAD69002DE1
:10540000F2D1D4F8E0500AE0B4F9C2000022B4F9B5
:10541000C030114600902846FFF0CCFDAD69002D4C
:10542000F2D1D4F888500AE0B4F96A000022B4F945
:105430006830114600902846FFF0BCFDAD69002D94
:10544000F2D1D4F8B4500AE0B4F996000022B4F9CD
:105450009430114600902846FFF0ACFDAD69002D58
:10546000F2D1D4F80C510AE0B4F9EE000022B4F9FC
:10547000EC30114600902846FFF09CFDAD69002DF0
:10548000F2D12068416901B02046BDE830400847AC
:1054900070B50D46B0F91A11A94209DDC46D05E0D9
:1054A00020682946426F20469047A469002CF7D116
:1054B00070BD70B5D0F8E0400D46064605E02068A6
:1054C0002946426F20469047A469002CF7D1D6F8B0
:1054D0000C4105E020682946426F20469047A469A8
:1054E000002CF7D170BDC02230B41152EC22115201
:1054F000B0F894309022CB1A1352B0F86830B0F85C
:1055000094402344CB1A8387018130BCFFF768BFE6
:10551000024901600021818070470000508410081A
:10552000704710B50446D4E90320801A002801DC36
:10553000A368184401280DD9606800EB42101F22AF
:10554000FAF0BDFDD4E90210401C814200D8401A97
:10555000E06010BDAFF300804168006901EB4010CE
:105560007047D0E90321891A002901DC80680144D1
:10557000012901DC012070470020704710B5FFF7BA
:10558000E9F9024901600121016310BD54A8000836
:10559000014AC2E900017047900100240148806877
:1055A00070470000900100240148C0687047000067
:1055B0009001002401480069704700009001002418
:1055C00010B50446084604F0DBFD216B484304F0A7
:1055D000D7FDA06310BD000010B5FEF013FA054919
:1055E00001600A218163012180F83C1000210164DF
:1055F00010BD0000D4A800082DE9F04F85B0044686
:105600001344DDE90E6003EB4303DDF840805D18D1
:1056100000EB400000EB050BB4F904001044E0601F
:10562000B4F90600304420612068C16820468847EC
:1056300000284CD004A80090206803AB01AA02A95E
:1056400006692046B047D0B3207A9DF8101010FBB1
:1056500001F000F0BDFD98F8001010FB01F000F023
:10566000B7FDFF28064635D09DF80C10C6F1FF07A0
:10567000287895F8019011FB06F195F802A010FB2F
:10568000071080B200F0A4FD00909DF8040010FB0C
:1056900006F019FB070080B200F09AFD81469DF8E4
:1056A000080010FB06F01AFB070080B200F090FD26
:1056B000024620684B46466929462046B047E068C6
:1056C000ED1C08F10108401CE0605D45B2D305B057
:1056D000BDE8F08F9DF80C00009020689DF8043024
:1056E0009DF808204669E7E770B50446144E00208F
:1056F000FF21A080E08021721049E06021602061DC
:10570000316891F8760008B1C86C00B98868016802
:10571000496A884701280DD000253068C06C30B137
:105720000168496A8847012800D0002005431DB15F
:10573000204670BD0125F0E7AFF3008030851008EA
:10574000C401002410B50446B0F91A01B4F91811C7
:1057500088420CDB2046FDF08AFF2068D0F8A810B4
:10576000204688472046BDE81040FFF72BBE10BDFD
:1057700008491CB500240A8807490988ADF800408B
:10578000ADF80420ADF80240ADF80610694600F00F
:1057900005F81CBDBA010024BC01002410B5044664
:1057A0000A48007800280FD001280DD12088A2884F
:1057B00010440A46401E2080A11C2046FEF0ACF892
:1057C000A088E188A180E08010BD0000B401002421
:1057D000094910B5097800290DD001290BD1074CD2
:1057E0004388C188028824880B44E31A03804280DE
:1057F00082888180C28010BDB4010024BA010024D7
:10580000C26A5143AFF3008070B5044600680D468C
:10581000D0F8082120469047D4F82C012946401C96
:10582000C4F82C012068D0F80C212046BDE8704057
:10583000104710B59142044601D1AFF300808A426F
:1058400002DA084611460246D4F84001884203D1E4
:10585000D4F8440190420FD0C4E9501204F1600022
:1058600003F0B3FC04F1340003F0AFFC04F18C004E
:10587000BDE8104003F0A9BC10BD70B5C56A044670
:10588000C162D0F834112A4600F107FEC4F8340191
:105890002A46D4F83011204600F1FFFDC4F830014B
:1058A00070BD000010B5FEF0ADF80149016010BDFB
:1058B000988710084163704710B526210446FAF70F
:1058C00045FD204601F04EF90349FF22016080F8B2
:1058D00026200022826210BD5CA90008704710B526
:1058E0000446FEF008F92068D0F8A0102046BDE874
:1058F0001040084710B504460C48407858B994F851
:105900004800022807D06068FDF056FC18B16168B5
:10591000487A0028FCD0FDF071F900212046FEF005
:1059200007F92046BDE8104000F038B8B401002463
:105930002DE9F04F89B0044612A81D4616468B4645
:1059400090E8800700F06AF80168496A88470A4AC7
:10595000022101235289CDE907105946CDE90532CC
:105960008DE8A007206800223346856B2046A847B3
:1059700009B0BDE8F08F0000B4010024012180F8D7
:105980004B1080F869107047416801224A724068E4
:10599000016809690847FEF795B9000010B504468B
:1059A0000648407840B12068C16A20468847E16BCC
:1059B000884201D1206C10BDE06B10BDB401002401
:1059C000012280F8741080F875207047F0B50E4AF7
:1059D0000E4B114C90F874C090F834E00C4D0D4E05
:1059E000F44511881888277805D0002F0BD129801D
:1059F0000127308004E0002F05D028800027318067
:105A0000198010802770F0BDBA010024BC01002469
:105A1000BE010024C0010024B40100240448016830
:105A200091F8760010B1C86C002800D188687047E2
:105A3000C4010024FEB504460068D0F8A410204636
:105A40008847594E002500287ED0012000F0D9FB60
:105A500094F8660084F8670084F8665084F84B5028
:105A600094F8750030B12068D0F8B8102046884707
:105A700084F8755094F84A00616868B10020487253
:105A80000127F770FDF0DCF801688A6B012190476F
:105A900094F8670010B103E00120F0E784F8677024
:105AA000FDF0CEF801684969884754F8580F01683D
:105AB00009698847E07B401EC0B2E073217C583CF6
:105AC00009B10028ECD13079401C40B2307194F912
:105AD0006410814214DC35716A46E0680168CB6865
