:020000040800F2
:10000000F08E0024B9020008891F1008C7181008D4
:10001000092F000853051008FD33000800000000F8
:1000200000000000000000000000000001001008B7
:1000300019070008000000005D001008D930000812
:10004000D3020008D3020008D3020008D30200083C
:10005000D3020008D3020008D3020008D30200082C
:10006000D3020008D3020008D3020008D30200081C
:10007000D3020008D3020008D3020008D30200080C
:10008000D3020008D3020008D3020008D3020008FC
:10009000D3020008D3020008D3020008D3020008EC
:1000A000D3020008D3020008D3020008D3020008DC
:1000B000D3020008D3020008D3020008D3020008CC
:1000C000D3020008D3020008D3020008D3020008BC
:1000D000D3020008D3020008D3020008D3020008AC
:1000E000D3020008D302000800000000D302000879
:1000F000D3020008D3020008D3020008D30200088C
:1001000055051008D3020008D3020008D3020008E6
:10011000D3020008D3020008D3020008A921100866
:10012000D3020008D3020008D3020008D30200085B
:10013000D3020008D3020008D3020008D30200084B
:1001400000000000000000000000000000000000AF
:10015000D3020008D3020008D3020008D30200082B
:10016000D3020008D3020008D3020008D30200081B
:10017000D3020008D3020008D3020008D30200080B
:10018000D3020008D3020008D3020008D3020008FB
:10019000D3020008D3020008D3020008D3020008EB
:1001A000B12E0008D30200080D070008D302000892
:1001B000D3020008D3020008D3020008D3020008CB
:1001C000D3020008D3020008D3020008D3020008BB
:1001D000D3020008D3020008D3020008D3020008AB
:1001E000D3020008D3020008D3020008D30200089B
:1001F000D3020008D3020008D3020008D30200088B
:10020000D3020008D3020008D3020008D30200087A
:10021000D3020008D3020008D3020008D30200086A
:10022000D3020008D3020008D30200080000000037
:10023000D3020008D302000800000000D302000827
:10024000D3020008D3020008D3020008D30200083A
:10025000D3020008D3020008D3020008D30200082A
:10026000D3020008D3020008D3020008D30200081A
:10027000D3020008D3020008D302000800000000E7
:10028000D3020008D3020008D302000800000000D7
:1002900000000000D3020008DFF818D000F0ECF8EE
:1002A00000F02EF800480047ED920008AFF3008000
:1002B00000F037F8F08E00240648804706480047D3
:1002C000FEE7FEE7FEE7FEE7FEE7FEE7FEE7FEE706
:1002D000FEE7FEE71132000899020008D2B201E001
:1002E00000F8012B491EFBD270470022F6E710B53B
:1002F00013460A4604461946FFF7F0FF204610BD94
:1003000070B5054C054D03E0206820448047241D4E
:10031000AC42F9D170BD00005C2201086C220108DA
:1003200070472DE9F0410646FFF058FF80464546EC
:1003300013E016B1E068B0420ED120682860D4E91D
:100340000101D8F800708847204608F03FFFD8F830
:100350000000B842EBD100E025462C68002CE8D123
:10036000BDE8F0812DE9FE4F81EA030404F000446A
:1003700021F0004100944FF0000B23F0004350EABD
:1003800001045ED052EA03045BD0C3F30A54C1F304
:100390000A552C44A4F2F3340194A0FB0254C1F397
:1003A000130141F48011C3F3130343F4801301FBE1
:1003B000024400FB034E840A970A44EA815447EA48
:1003C0008357A4FB076802958D0A05FB07854FEA52
:1003D000932C04FB0C542705029D4FEA065847EA6C
:1003E0001637B5EB08056EEB070C870E920E47EA41
:1003F000811742EA8312A7FB0201B6EB0B0164EB03
:1004000000042B0D43EA0C335E1844EB1C50DA4613
:100410005146E7FB0201C5F313044FEA0B3343EAED
:1004200014534FEA0432019C43EA0603A4F10C047E
:100430000294009CCDE900B400F112F803B0BDE8CD
:10044000F08F00200146F9E730B5041E71F1000479
:1004500004DB4FF00044404264EB0101141E73F1D1
:10046000000405DB1C464FF00043524263EB0403DB
:10047000994208BF904230BD064C074D06E0E06847
:1004800040F0010394E8070098471034AC42F6D3DB
:10049000FFF706FF3022010850220108202A06DB60
:1004A000CB17203A41FA02F043EAE07306E041FA42
:1004B00002F3D040C2F12002914008431946704730
:1004C00070B53A4905460068884202D0384A9042E1
:1004D00002D1D1F8080302E03648D0F8080310F43E
:1004E000403F11D001F030FE04466868B0F5803F0F
:1004F00006D0B0F5003F03D0B0F5403F26D101E073
:10050000000C17E0A40821E04FF4002001F0D0F81F
:10051000044668688103890B18D181140C2915D20F
:10052000DFE801F0140606060606060B0D0F111390
:10053000800C4000B4FBF0F408E0240906E06409F4
:1005400004E0A40902E0E40900E0240A00F008FE47
:1005500041F20301884208D817488442286881681C
:1005600013D821F48071816070BD144960088842FD
:1005700004D82868816821F44071F4E71049884262
:1005800006D82868816821F4407141F48071EAE757
:100590000C4988422868816804D821F4407141F4EC
:1005A0000071E0E741F44071DDE700000020024007
:1005B0000021024000600258002D3101105E5F00F2
:1005C00020BCBE0040787D0170B50446006881689B
:1005D00011F0010F3DD181681F4A11422AD1816873
:1005E000D5432940491C816000F146FB1B4B064660
:1005F00020681B49984201D0884201D1194A00E085
:10060000194A9268884202F01F0201D1194600E09F
:100610000146814218D0BAB11BE0816811F0010F88
:1006200003D181682940491C816000F125FB801BB2
:10063000022809D9606D40F010006065A06D40F09F
:100640000100A065012070BD20680168C943C90789
:10065000E3D1002070BD00003F0000800020024078
:10066000002102400023024000630258214A30B5B5
:10067000136823F0010313601F4A1368C3F30B14BC
:100680000123A4F54065243D06D01268C2F30B1285
:10069000A2F54064273C17D1184A1268A2B9184A3B
:1006A00014684FF08A45B5EB045F18D01468C4F3A2
:1006B0000B04A4F58065833D11D01268C2F30B02D0
:1006C000A2F58064853C0AD00E4A93609368002BA3
:1006D000FCD110601068884209D0002030BD0A4A61
:1006E00013601368002BFCD1074A083AF1E7012098
:1006F00030BD0000002000E000ED00E0002004E03C
:100700000010005C00300240084C0258014800F024
:100710000EBB00008C0200247047F0B5D1E90843FD
:10072000CD690A68C2B10268254322F4F842134336
:100730001D430560D1E90125D1E903364C692A43FF
:100740004568334389691A43EB0B2243DB030A43B1
:100750001A4342600020F0BDD1E9012ED1E9036CBB
:10076000D1E9057142EA0E0246EA0C0632433A43E9
:100770000A4301682A4322431A436FF30E010A43D6
:100780000260E7E7426943F6FE739A4342EA410199
:1007900041610020704700007CB50E4615460021DF
:1007A0000191020A8DF80500FF240D480223BA21A9
:1007B0008DF8042001AA009400F120FB10B109A0DB
:1007C00006F158FF0648BB212B463246009400F143
:1007D00083FA002802D003A006F14CFF7CBD000084
:1007E000F40200247265616420726567206572728C
:1007F0006F720D0A000000002DE9F84F4FF0000B5A
:100800000446E64E0D46CDF800B05F4690F8500025
:10081000DFF88CA3012808D04FF0010984F850902C
:10082000206801F1B6F818B16BE10220BDE8F88F3D
:1008300021682868CA69030328D090FAA0F0B0FAAA
:1008400080F000BF00F01F0309FA03F00243CA6101
:10085000D5E900124FF00C0C20681F23C1F384610E
:100860000CEA921C02F01F02604493409140026B1C
:100870009A430A430263206801F18BF8804620689E
:1008800002F0FBFA58EA000003D07FE0C0F3846076
:10089000D8E72068AA68296802F0FBFAC14909680C
:1008A000B9EB117F06D121686869C968C1F382017B
:1008B000490008E02068C168C906C1686869F5D5C3
:1008C00001F0100149088840296904292ED02368C5
:1008D0002A6803EB810102F0F8420B6E024303F039
:1008E000004010430866697E20682A69012917D0F4
:1008F0005FF0000100EB8200026E22F000420A432A
:100900000266297E20682A6901290CD0002103692A
:1009100002F01F02914023F4F0420A43026135E0E5
:100920004FF00041E6E74FF40061F0E720682978D6
:10093000026E02F0F842B2EB816F03D1016E21F03A
:100940000041016620682978426E02F0F842B2EB5D
:10095000816F03D1416E21F0004141662068297802
:10096000826E02F0F842B2EB816F03D1816E21F00A
:100970000041816620682978C26E02F0F842B2EB2D
:10098000816F03D1C16E21F00041C166206881688A
:1009900011F0010F78D150F8C03F2A7BDFF808C270
:1009A000296802F018022CFA02FCC1F3130823EAAA
:1009B00008030CEA010C43EA0C0303607B48E96876
:1009C000814277D1286801031BD090FAA0F1B1FAD7
:1009D00081F1491C01F01F0109294FEA003131D88A
:1009E000002911D090FAA0F1B1FA81F101F10101D1
:1009F00001F01F0109FA01F209D100BFC0F38461BF
:100A000009E0C0F38461E4E7C0F38461EEE790FAA3
:100A1000A0F1B1FA81F101F1010101F01F0142EAF7
:100A2000816102D1C0F3846003E090FAA0F0B0FAD3
:100A300080F000F1010000F01F0000EB400041EAEF
:100A4000005133E000290ED090FAA0F1B1FA81F103
:100A500001F1010101F01F0109FA01F206D100BF05
:100A6000C0F3846106E0C0F38461F1E790FAA0F17D
:100A7000B1FA81F101F1010101F01F0142EA816146
:100A800003D1C0F3846004E040E090FAA0F0B0FA33
:100A900080F0474A00F1010000F01F0000EB400029
:100AA00002EB005041EA000141F00071AA682068A1
:100AB00002F0EFF9D5F800C0BCF1000F26DA3D4B8B
:100AC00020683D49DFF8F490984201D0B04201D14E
:100AD0000A4600E04A469268984202F0E07201D06D
:100AE000B04209D19D68D6F8088005F0010508F0EC
:100AF000010845EA080503E0DAF8085005F00105A9
:100B000045B1606D012740F020006065384684F8EB
:100B100050B08BE62A4DAC451BD1150219D4504577
:100B2000F4D1984202D0B04200D049468B6842F4DA
:100B3000000023F0E07202438A60234921480968DB
:100B4000B1FBF0F0400000E0401E00900028FBD117
:100B5000DCE71E4DAC450CD1D5010AD45045D5D1AA
:100B6000984202D0B04200D049468B6842F0807073
:100B70000EE0174DAC45C9D15502C7D45045C5D17B
:100B8000984202D0B04200D049468B6842F48000BF
:100B900023F0E07202438A60B8E7000000210240BF
:100BA000006002580010005CFFFF0F000000FF47CC
:100BB000000020FE00200240002302400063025893
:100BC000000084CB400D030034000024000052C715
:100BD0000000B8CF10B586B0044614216846FFF770
:100BE00084FB13492068884220D11248016841F0F3
:100BF00020010160006800F0200005900D480830D9
:100C0000016841F00101016000680321002200F049
:100C10000100059080208DE807000748694600F034
:100C20007FF94FF00070014601F00CFE06B010BDD8
:100C300000210240D844025800000258F0B50126B5
:100C4000044600201E2301E05B1E05D303F01F07AE
:100C500006FA07F50D42F7D072B1082A0AD0102A19
:100C600005D0182A01D1072B06D30120F0BD082B8F
:100C7000FBD201E0102BF8D22368596121688B6800
:100C800023F0180313438B60F0BD000010B504007F
:100C900010D0607F20B900202077204600F032F885
:100CA00021790220607739B1D4E902122046FFF79A
:100CB000C5FF48B1012010BD216811484861206876
:100CC000816821F0180181606079A0B121682069F4
:100CD0000861012220686369816821F0600119437D
:100CE00081602068A369816821F0800119438160D7
:100CF0006277002010BD21684FF0FF30E8E7000068
:100D0000B71DC10408B500680649884208D10648E5
:100D1000016841F400210160006800F400200090A7
:100D200008BD0000004C0258E044025870472DE90D
:100D3000F0470446006800274FF004084FF001090F
:100D400046680568F10714D0E90512D5036823F455
:100D500080730360606E40F0010060662068C0F838
:100D6000089084F8618084F86070616A09B1204657
:100D70008847B00615D5A80413D52068202203683B
:100D800023F40053036020688260606E40F002002C
:100D9000606684F8618084F86070616A09B12046F9
:100DA0008847300715D5280513D520680822036821
:100DB00023F40063036020688260606E40F00400EA
:100DC000606684F8618084F86070616A09B12046C9
:100DD000884770070CD568050AD52068026822F498
:100DE000806202602068C0F808802046FFF01AFF89
:100DF000B00713D5A80511D520680222036823F493
:100E00000073036020688260606E606684F86190A1
:100E100084F86070216A09B120468847F00612D52F
:100E2000E80410D52068016821F48051016022682F
:100E300010219160616E616684F86190204684F8AB
:100E40006070FFF773FFBDE8F087000070B50446DF
:100E5000FFF012FF0546601C02D0044800780444ED
:100E6000FFF00AFF401BA042FAD370BD2800002407
:100E7000F0B587B014216846FFF737FA21480168BA
:100E800000293DD1012101601F48016841F48051D2
:100E90000160006802240025694600F48050059036
:100EA00003264FF683700C278DE8F100174800F0F9
:100EB00037F848F2371069468DE8F100144800F021
:100EC0002FF84CF2037069468DE8F100114800F0EC
:100ED00027F84FF63F0069468DE8F1000E4800F014
:100EE0001FF80D2069468DE8F1000C4800F018F855
:100EF00000220521302000F167F9302000F156F979
:100F000007B0F0BD08000024D44402580010025875
:100F100000180258000C0258001402580008025829
:100F20002DE9FC4F01257E4C00234FF0030A4FF0C2
:100F3000B04E4FF00F0BEBE005FA03F637403A00E6
:100F400077D04F68012F05D0022F03D0112F01D089
:100F5000122F1AD187684FEA4308D1F80CC00AFA59
:100F600008F927EA09070CFA08FC4CEA070CC0F854
:100F700008C0476891F804C0B743CCF3001C0CFAD2
:100F800003FC4CEA070CC0F804C0C6684FEA430CE7
:100F9000D1F80880E1460AFA0CF7BE43019708FA37
:100FA00009F848EA0608C0F80C804E68022E01D005
:100FB000122E12D1DE084FEA437C00EB8606009623
:100FC0000F69366A4FEADC6C0BFA0CF807FA0CF77B
:100FD00026EA08063743009E37620E790768DDF877
:100FE00004C006F0030606FA09F627EA0C073E439A
:100FF00006604E68F6001CD54A4E376847F0020777
:10100000376036689F0706F00206009623F0030655
:1010100006F1B046B1463F0FD6F80864DFF8088104
:101020000BFA07FC404526EA0C0603D14FF0000CF2
:1010300041E06CE0DFF8F4C0604502D14FF0010CF4
:1010400039E0DFF8ECC0604502D14FF0020C32E02D
:10105000DFF8E0C0604502D14FF0030C2BE0DFF871
:10106000D8C0604502D14FF0040C24E0DFF8CCC0BA
:10107000604502D14FF0050C1DE0DFF8C4C06045AB
:1010800002D14FF0060C16E0DFF8B8C0604502D17F
:101090004FF0070C0FE0DFF8B0C0604502D14FF011
:1010A000080C08E0DFF8A4C0604502D14FF0090C3D
:1010B00001E04FF00A0C0CFA07FC4CEA060CC9F8E8
:1010C00008C426684F6826EA0206FF0300D51643C7
:1010D000266066684F6826EA0206BF0300D51643FD
:1010E0006660D1F804C07646DEF800705FEACC2C6A
:1010F00027EA020700D517433760D1F804C07768A4
:101100005FEA8C2C27EA020700D5174377605B1C47
:101110000A681746DA407FF40FAFBDE8FC8F000085
:1011200080000058F444025800000258000402589D
:1011300000080258000C025800100258001402580F
:1011400000180258001C02580020025800240258BF
:10115000426931EA020200D109048161704700004E
:1011600001480068000C70470010005C30B590F832
:101170004120202A24D190F84020012A20D00123A8
:1011800080F84030242280F8412020230024026887
:10119000156825F0010515600268156825F480556D
:1011A0001560026815680D43156001680A6842F011
:1011B00001020A6080F8413080F84040002030BDD4
:1011C000022030BD70B5040004D094F84100002521
:1011D00010B106E0012070BD204684F84050FFF0B9
:1011E0009FFE242084F841002068016821F001015D
:1011F0000160D4E9001020F0706008612068816807
:1012000021F400418160E06821680128A06806D0CF
:1012100040F404408860E068022803D006E040F40F
:101220000040F7E721684FF4006048602021206803
:10123000114A4368134343602068C26822F40042A5
:10124000C26054F8106B0DCC104340EA0320F060EC
:1012500054F81C3CD4E900021043186054F81C0DEB
:10126000026842F001020260656484F8411025635F
:1012700084F84250002070BD00800002032010B5A9
:10128000FFF0C2FF00F094FF0F4A10491468136882
:10129000C4F3032203F00F038A5CC95C02F01F024F
:1012A00001F01F01D0400A4A20FA01F111600949FA
:1012B00008600020FFF070FE08B1012010BDFFF0B3
:1012C00063FF002010BD0000184402580884100875
:1012D00038000024340000242DE9F0410446006861
:1012E00000274FF00408856B466B690715D5710719
:1012F00013D5426B22F0040242632068C0F83C80A0
:10130000D4F8A40040F00100C4F8A40084F8A1803F
:10131000204684F8A070FFF0AEFEA80716D5B007EF
:1013200014D520680222436B23F002034363206834
:10133000C263D4F8A40040F00200C4F8A40084F80A
:10134000A180204684F8A070FFF095FE05EA060013
:101350004FF00108C0070ED021684A6B22F001024D
:101360004A632168C1F83C8084F8A180204684F853
:10137000A07000F091F8280710D530070ED520682E
:101380000822436B23F0080343632068C26384F898
:10139000A180204684F8A07000F0AAF8BDE8F08192
:1013A0002DE9F041040004D094F8A100002518B103
:1013B00007E00120BDE8F081204684F8A050FFF04E
:1013C0005BFE3448022184F8A110012202CC8B6913
:1013D00023F070438B6194E84A001943E3681E438D
:1013E00054F8043D31439E693143996121688B680B
:1013F00003408B602168A68AA7698B683B4343EA58
:1014000006438B602168CB680340CB602168A38BC7
:10141000276ACE683E4346EA0346CE6021680B69E0
:1014200003400B612368A68CA76A1969394341EA16
:101430000641196121684B6903404B612068A38D07
:10144000266B4169314341EA03414161236894F8C5
:10145000351094F83600DE6A000406F07F46DE623E
:10146000236840EA012094F83460D96A314301438B
:10147000D9622068416B41F00601416320688169AF
:1014800041F001018161C4F8A45084F8A12000203A
:1014900090E7000000F800F0124910B5124A134C12
:1014A0000B6C11888B4212D15188FFF04BFE2068E3
:1014B00090F86610491C80F8661001F107FC20685E
:1014C00002F1FDFFBDE81040002003F146BCFFF033
:1014D00039FE002004F006F920680168C969BDE8FA
:1014E00010400847001000501C000024C8010024D0
:1014F00070470000134970B50A68D243520705D5FA
:10150000096801F00701814213D118E00A6822F04E
:10151000070202430A60FFF0AFFB0A4D4FF47A76F0
:101520000446083D07E000BFFFF0A6FB001BB042E9
:1015300001D9012070BD2868C0438004F4D4002084
:1015400070BD00000C48025810B500F0FDFD0549C3
:101550000968054AC1F30211515C01F01F01C8403E
:1015600010BD00002044025808841008494930B5D5
:10157000484C0B1D0A68143409681D68246802F081
:101580000303C5F30012C1F30531C4F3CC040029F1
:1015900014FB02F200EE102AF8EE400A75D03F4A22
:1015A0009FED3D1AB7EE000A6BB1DFED3D1A012B3E
:1015B00001D0022B64D002EE101A1168F8EE422A14
:1015C00081EEA22A21E0334C283C23689B0612D5E9
:1015D000344B246801EE901A1168C4F3C104F8EE8C
:1015E000612AE34001EE903AC1F30801F8EE611A76
:1015F00081EEA22A0BE001EE901ADFED2B2A00BF4C
:10160000F8EE611A116882EEA12AC1F3080101EE19
:10161000901A1168F8EE611A40EE811A71EE800A94
:1016200062EE200AC1F3462101EE101AB8EE411A0B
:1016300031EE001AC0EE811ABCEEE11A80ED001AFC
:101640001168C1F3064101EE101AB8EE411A31EEED
:10165000001AC0EE811ABCEEE11A80ED011A116881
:10166000C1F3066101EE101AB8EE411A31EE000A1C
:1016700080EE801ABCEEC10A80ED020A30BD04E0A3
:1016800001EE901ADFED092ABAE7002101604160FE
:101690008160F3E7284402580000003938440258BA
:1016A0000024744A0090D0030024744C20BCBE4B2C
:1016B0002DE9F0474FF480760146B0426F48DFF8DD
:1016C000B8818AB06E4B4FF080576E4DA8F104047C
:1016D0004FEA20124FF0005C29D1D8F8001001F039
:1016E000070105291FD2DFE801F0030A0F201400CB
:1016F00006A8FFF09BFD07980AB0BDE8F087684692
:10170000FFF734FF0098F7E703A8FFF031FE0398D6
:10171000F2E7216811F04051EED0B94275D1104680
:10172000EAE71846E8E70020E6E72846E4E7B1F5EF
:10173000007F19D0544EB1F5806F26D0B1F5006FFF
:1017400037D04FF4805949454FF4804A4BD1D8F8EF
:10175000001001F4E041B1F5005FD5D03DDC002977
:10176000C6D04945DFD1CAE7D8F8001001F4E071CE
:101770008029C9D004DC0029BAD04029D3D1BEE7E2
:10178000C029D2D0B142CED1C3E7316801F46001A3
:10179000B1F5800FB8D005DC0029A9D0B1F5001F44
:1017A000C1D1ACE7B1F5C00FBFD0B1F5000FBAD1D0
:1017B000AFE7316801F0E061B1F1007FA4D005DC52
:1017C000002995D0B1F1807FADD198E7B1F1407F8C
:1017D000ABD0B1F1806FA6D19BE7B1F5405FA4D04B
:1017E0005145A0D195E7B1F5002F4FF480350DD0CC
:1017F000A9421DD1206810F48030B1D0A84292D106
:101800006846FFF7B3FE029876E70EE0316811F400
:101810004031A8D0A94203D0B1F5003F83D178E789
:1018200003A8FFF0A5FD059866E761459AD178E722
:10183000514597D1316801F0E041B1F1405FE3D00B
:1018400009DC81B1B94211D061458BD103A8FFF009
:101850008FFD049850E7B1F1804F3FF460AFB1F1D4
:10186000A04F8BD15DE7FFF76FFE45E76846FFF7B6
:101870007DFE019840E70000504402580090D003DC
:1018800040787D010080BB00584402582DE9FC5F80
:10189000044650F8241B002500902E460801FE4FF8
:1018A000DFF8F8831DD5606E50B1B0F5801F0CD005
:1018B000B0F5001F0ED0B0F5401F1DD001250FE080
:1018C000386840F40030386016E00221201D00F135
:1018D0005DFB03E00098022101F018FB05000BD02E
:1018E0002E462088C00523D5606D05281ED2DFE86E
:1018F00000F00C11161B1B00626ED8F8001021F4CA
:1019000040111143C8F80010EBE7386840F400308C
:10191000386009E00021201D00F138FB03E0009849
:10192000002101F0F3FA05466DB100E001252E46D5
:101930002088800528D5A06D80281ED00CDC90B1B1
:1019400040280ED114E0626DD8F8001021F0070194
:101950001143C8F80010EBE7C02813D0B0F5807F22
:1019600010D001250FE0386840F40030386009E0FD
:101970000021201D00F10AFB03E00098002101F086
:10198000C5FA054695B12E462088DFF8109340052C
:1019900009F108092CD5D4F8A400B0F5800F20D0A7
:1019A0000DDCA0B1B0F5001F0FD115E0A26DD8F885
:1019B000001021F4E0711143C8F80010E4E7B0F51D
:1019C000C00F13D0B0F5000F10D001250FE038681C
:1019D00040F40030386009E00021201D00F1D6FA03
:1019E00003E00098002101F091FA054675B12E46FA
:1019F000208800052DD5D4F8A800B0F1007F21D0B3
:101A00000EDCA8B1B0F1807F10D116E0D4F8A4208C
:101A1000D9F8001021F460011143C9F80010E7E77C
:101A2000B0F1407F13D0B0F1806F10D001250FE0EE
:101A3000386840F40030386009E00021201D00F1D2
:101A4000A5FA03E00098002101F060FA05466DB1A7
:101A50002E46206880011FD5A06CD8B110280FD069
:101A6000202812D0302815D0012514E0D4F8A82061
:101A7000D9F8001021F0E0611143C9F80010E8E73F
:101A8000386840F40030386004E00221201D00F185
:101A90007DFA05466DB12E462088C0042BD5E06D39
:101AA000B0F5005F20D00DDCA0B1B0F5805F0FD1A4
:101AB00015E07A48A26C001F016821F03001114343
:101AC0000160E9E7B0F5405F13D0B0F5804F10D06A
:101AD00001250FE0386840F40030386009E000214B
:101AE000201D00F153FA03E00098002101F00EFAE6
:101AF000054685B12E462088800429D5206EB0F594
:101B0000403F23D010DC08B3B0F5803F14D0B0F5CF
:101B1000003F0FD115E0E26DD8F8001021F4E0414C
:101B20001143C8F80010E6E7B0F5802F0ED0B0F5ED
:101B3000A02F0BD001250AE00121201D00F126FA7B
:101B400003E00098012101F0E1F905468DB12E4630
:101B5000208840042AD5D4F8AC00B0F1405F23D0EF
:101B600010DC08B3B0F1805F14D0B0F1005F0FD18A
:101B700015E0226ED8F8001021F4E0211143C8F8D6
:101B80000010E5E7B0F1804F0ED0B0F1A04F0BD0C0
:101B900001250AE00121201D00F1F8F903E0009879
:101BA000012101F0B3F905466DB12E4620880004ED
:101BB0001FD5E06ED8B1B0F1805F0ED0B0F1005FFC
:101BC00010D0012514E0D4F8AC20D9F8001021F091
:101BD000E0411143C9F80010E8E7386840F40030EC
:101BE000386004E00121201D00F1D0F905466DB1F7
:101BF0002E462068C0011ED5606CD0B101280ED0E1
:101C0000022811D0032814D0012513E0E26ED8F881
:101C1000001021F040511143C8F80010E9E738687E
:101C200040F40030386004E00221201D00F1AEF9DC
:101C3000054685B12E462068DFF85CB04002ABF166
:101C40001C0B57D51648016841F480710160FFF004
:101C500013F882460EE01148626C001F016821F003
:101C6000030111430160E6E7FFF006F8A0EB0A006C
:101C700064283DD80A480068C005F5D57DBBDFF86B
:101C80001CA0B4F8B0100AF1200ADAF8000001F440
:101C9000407100F4407005E02C4402585044025852
:101CA00000480258884211D0DAF80010DAF8002013
:101CB00021F4407142F48032CAF80020DAF80020A2
:101CC00022F48032CAF80020CAF80010D4F8B0001C
:101CD000B0F5807F21D1FEF0CFFF019019E008E040
:101CE000FEF0CAFF0199411A41F28830814210D9B1
:101CF00003252E462078DFF830A4C0073DD0A06F22
:101D0000182838D026DC80B3082829D0102825D1FF
:101D10002CE0DAF800008007E2D5D4F8B010C1F367
:101D20000120032858460DD0016821F47C51016040
:101D3000B4F8B020DAF80010C2F30B021143CAF86D
:101D40000010D7E7F94A036802EA111223F47C5124
:101D50001143ECE720280ED028280CD001250BE0F9
:101D60000121201D00F112F904E004E00098012196
:101D700001F0CCF805465DB12E46207880071ED5CF
:101D8000606F062819D2DFE800F0160C111616163F
:101D9000A26FDAF8001021F038011143CAF80010E0
:101DA000EBE70121201D00F1F1F803E0009801218B
:101DB00001F0ACF8054675B100E001252E4620780B
:101DC00040071FD5D4F89000062819D2DFE800F0AC
:101DD000160C11161616626FDAF8001021F00701C2
:101DE0001143CAF80010EAE70121201D00F1CEF8E6
:101DF00003E00098012101F089F805469DB100E05B
:101E000001252E46207880062BD5D4F88C00B0F121
:101E1000405F24D011DC10B3B0F1805F15D0B0F179
:101E2000005F10D116E0D4F89020D9F8001021F00E
:101E300007011143C9F80010E4E7B0F1804F0ED05C
:101E4000B0F1A04F0BD001250AE00021201D00F1C8
:101E50009DF803E00098022101F058F805468DB185
:101E60002E46207840062BD5D4F89800B0F5406F68
:101E700024D011DC10B3B0F5806F15D0B0F5006F31
:101E800010D116E0D4F88C20DAF8001021F0E041EF
:101E90001143CAF80010E4E7B0F5805F0ED0B0F54A
:101EA000A05F0BD001250AE00021201D00F16EF893
:101EB00003E00098022101F029F805468DB12E4675
:101EC000207800062BD5D4F89C00B0F5C04F24D064
:101ED00011DC10B3B0F5005F15D0B0F5804F10D114
:101EE00016E0D4F89820D9F8001021F4E0511143FD
:101EF000C9F80010E4E7B0F5004F0ED0B0F5204F60
:101F00000BD001250AE00021201D00F13FF803E07D
:101F10000098022100F0FAFF05464DB12E462078C8
:101F200000071ED5D4F88000B0F5805F0AD00FE01E
:101F3000D4F89C20D9F8001021F460411143C9F86D
:101F40000010ECE70098022100F0E0FF00B101264C
:101F5000D4F88020DAF8001021F440511143CAF877
:101F600000102078C00613D5D4F89400B0F5807F17
:101F700005D10098022100F0C9FF00B10126D4F874
:101F80009420D9F8001021F440711143C9F80010D1
:101F90002068000316D5D4F8A00038B1B0F5803F12
:101FA00009D0B0F5003F0BD001250AE00021201D2B
:101FB000FFF0ECFF03E00098022100F0A7FF0546C8
:101FC00085B12E462068400322D5D4F88400B0F5B0
:101FD000801F11D0B0F5001F13D0B0F5401F15D0F1
:101FE000012514E0D4F8A020D9F8001021F44031E4
:101FF0001143C9F80010E5E7386840F40030386054
:1020000004E00098012100F081FF054655B12E46FD
:102010002068C0031CD5E06C70B1B0F5803F10D0D3
:10202000012514E0D4F88420DAF8001021F44011DE
:102030001143CAF80010EBE7386840F4003038600C
:1020400004E00221201DFFF0A1FF0546CDB12E4680
:102050002068800005D50098022100F057FF00B1EC
:102060000126206880031BD5E06FB8B1B0F5807FF2
:1020700010D0B0F5007F11D0B0F5407F0ED0012513
:102080000DE02948E26C0838016821F480311143E1
:102090000160DDE7386840F400303860F5B32E4663
:1020A0002068C00207D5226FD8F8001021F0004147
:1020B0001143C8F800102068C00008D5D4F8B42037
:1020C000DBF8001021F480411143CBF800102068A8
:1020D000800207D5A26ED8F8001021F0807111435C
:1020E000C8F80010206840000CD5DBF8001021F47F
:1020F0000041CBF80010DBF80010D4F8B8201143F1
:10210000CBF800102068002807DA0748226D08384D
:10211000016821F040511143016000E008E086B100
:102120000120BDE8FC9F000054440258CFFFFF008F
:10213000E26FDAF8001021F440711143CAF8001080
:10214000AEE70020EDE7000030B500F031F80B4AB3
:102150000B490C4B15681468C5F3032204F00F04F7
:102160008A5C095D02F01F0201F01F01D040064A9F
:1021700020FA01F119601060084630BD1844025879
:1021800008841008380000243400002400B5FFF74C
:10219000DBFF05490968054AC1F30211515C01F0F2
:1021A0001F01C84000BD00001C44025808841008EC
:1021B000454970B545480968434B103B11F038025A
:1021C00008D00111082A03D0102A0BD0182A0BD0EE
:1021D000084670BD19688906FBD51968C1F3C101AD
:1021E000C84070BD3A4870BD3749374D18310C1D95
:1021F00024350A68096826682D6802F0030406F091
:102200000102C1F30511C5F3CC0515FB02F200EE86
:10221000102AB8EE400AE9B32F4ADFED2E0AB7EED6
:10222000001A6CB1DFED2D1A012C01D0022C43D025
:1022300002EE101A1068F8EE422A81EEA22A1EE081
:102240001C68A40611D51B6801EE901A1168C3F32F
:10225000C103F8EE612AD84001EE900AC1F30800EC
:10226000F8EE611A81EEA22A0BE001EE901ADFED82
:102270001C2A00BFF8EE611A106882EEA12AC0F392
:10228000080001EE900AF8EE611A40EE201A31EED5
:10229000810A00E015E022EE000A1068C0F3462033
:1022A000401C00EE900AF8EE600A80EE201ABCEEA8
:1022B000C10A10EE100A70BD01EE901ADFED092A76
:1022C000D8E7002070BD0000104402580090D003F1
:1022D00040787D0100000039304402580024744ADF
:1022E0000024744C20BCBE4B2DE9F05F04007CD070
:1022F000FF4F2078FE4D1837DFF8F493103DC007EC
:1023000048D0D9F80000396800F03800102815D0FE
:10231000182803D101F0030002280FD06068B0F53F
:10232000803F12D010B1B0F5A02F18D0286820F44B
:1023300080302860286820F4802009E02868800325
:1023400028D560680028D2D024E0286840F4803086
:102350002860606888B1FEF08FFC064609E02868B6
:1023600040F480202860F0E7FEF086FC801B6428A3
:102370007ED828688003F7D50CE0FEF07DFC064689
:1023800005E000BFFEF078FC801B6428F0D82868C8
:102390008003F7D4207841F20308D54E0C3E800725
:1023A00053D5D9F80000396810F038000ED018283D
:1023B00001D188070AD0E068A8B3296821F0190183
:1023C00001432960FEF058FC82461BE02868400764
:1023D00002D5E06800288AD0FEF7C2FE40451BD82F
:1023E0002069402812D0316800E0CCE021F47C3133
:1023F00041EA0030306028E0FEF03EFCA0EB0A002D
:102400000228B5D828684007F6D5E5E7306820F4FB
:102410007C3040F40030EDE7207C316821F0FE4153
:1024200041EA0060E6E7FFE7286820F00100286045
:10243000FEF022FC824605E0FEF01EFCA0EB0A0046
:10244000022895D828684007F6D42078C0065FD5C2
:10245000D9F80000DFF898B2396800F03800ABF125
:10246000040B082812D0182805D101F0030000E061
:10247000EAE001280AD0E0690028286838D040F056
:1024800080002860FEF0F8FB824623E02868C00543
:1024900023D5E069802876D11FE0206A202821D04A
:1024A000316821F0F84141EA8060306030E000BFDF
:1024B00094F82010DBF8002022F07C5242EA0161FF
:1024C000CBF8001024E000BFFEF0D6FBA0EB0A0022
:1024D000022896D82868C005F6D5FEF741FE40458B
:1024E000E6D8DAE7306820F0F84040F08040DCE7DA
:1024F00020F080002860FEF0BFFB064605E000BF2C
:10250000FEF0BAFB801B02289BD82868C005F7D4D0
:102510002078000729D57648616964300029804613
:10252000016811D041F001010160FEF0A5FB0646F3
:1025300005E000BFFEF0A0FB801B0228C9D8D8F838
:1025400000008007F6D510E021F001010160FEF0E7
:1025500093FB064605E000BFFEF08EFB801B0228C1
:1025600072D8D8F800008007F6D42078800623D5EA
:10257000A0690028286810D040F480502860FEF040
:102580007BFB064605E02CE1FEF076FB801B022873
:102590005AD828688004F7D50EE020F480502860CF
:1025A000FEF06AFB064604E0FEF066FB801B022894
:1025B0004AD828688004F7D4207840074FD5DFF840
:1025C0003481D8F8001041F48071C8F80010FEF092
:1025D00053FB064605E000BFFEF04EFB801B64285F
:1025E00032D8D8F80000C005F6D5414EA068603654
:1025F00001280AD008B1052813D0306820F0010066
:102600003060306820F0040002E0306840F00100E3
:102610003060A06841F2883A90B1FEF02DFB804610
:102620000AE0306840F004003060EEE7FEF024FB82
:10263000A0EB0801514507D830688007F6D50EE0B9
:10264000FEF01AFB804607E084E000BFFEF014FBBA
:10265000A0EB080151457DD830688007F6D4606A48
:10266000F0B3DFF88C80D9F8001008F12008C1F32E
:10267000C20103296FD00228286820F080702860EA
:1026800003D0FEF0F9FA044680E0FEF0F5FA0646C3
:1026900005E000BFFEF0F0FA801B022873D828681E
:1026A0008001F7D4E26A40F2F331386854F8283FE9
:1026B000884340EA021018433860217B4FF4FE0C37
:1026C00022894FF0FE47208A4902267D521E401E75
:1026D000A1F5007189B20CEA0040C2F3080200E0E3
:1026E00081E01143761E0143014807EA066203E0D8
:1026F00010440258004802581C3011433B4AC8F8A5
:102700000010016821F00101016011684FF6F876B0
:10271000236AB14341EAC30111600168A26921F053
:102720000C01114301600168E26921F002011143CB
:102730000160016841F480310160016841F40031B9
:102740000160016841F480210160016841F00101EC
:10275000016001E017E01DE0286840F0807028600B
:10276000FEF08AFA044604E0FEF086FA001B022816
:1027700009D828688001F7D535E000BFFEF07CFA63
:10278000001B022802D90320BDE8F09F28688001C1
:10279000F4D428E039680128D8F8000021D0A26AD2
:1027A00001F0030393421CD1E26AC1F305118A428E
:1027B00017D1216BC0F30802491E8A4211D1616B07
:1027C000C0F34622491E91420BD1A16BC0F30642D1
:1027D000491E914205D1E16BC0F30660491E81425A
:1027E00001D00120D0E70020CEE700003444025899
:1027F00070B504000D4603D094F82C0010B107E02A
:10280000012070BD002084F82D002046FEF0CFFF8F
:10281000022084F82C002068211DFDF77EFFD4E9FA
:1028200000022946FDF0AEFE04480121026842F094
:102830000042026084F82C10002070BD004000525D
:1028400070470000024A136883430B4313607047CC
:10285000040400587047704710B5040003D094F882
:102860003D0010B107E0012010BD002084F83C00BD
:102870002046FEF0D4FF022084F83D002068211D90
:10288000FFF098FC012084F8480084F83E0084F8AA
:102890003F0084F8400084F8410084F8420084F846
:1028A000430084F8440084F8450084F8460084F826
:1028B000470084F83D00002010BD000090F83D1056
:1028C000012901D0012070470B4A022180F83D10F8
:1028D0000168CB6843F00103CB6000688168114058
:1028E000062906D0B1F5803F03D0016841F001010F
:1028F000016000207047000007000100704770B5BC
:102900000446006800250169C943890715D4C168D8
:10291000C943890711D4EA1E026101212177206889
:1029200080698007204602D0FFF7E8FF04E0FEF050
:1029300077FF204600F0A4F8257720680169C94395
:10294000490717D4C168C943490713D402216FF05E
:102950000402026121772068806910F4407F2046DC
:1029600002D0FFF7CBFF04E0FEF05AFF204600F054
:1029700087F8257720680169C943090716D4C1681B
:10298000C943090712D404216FF0080202612177BC
:102990002068C0698007204602D0FFF7AFFF04E03F
:1029A000FEF03EFF204600F06BF8257720680169B5
:1029B000C943C90617D4C168C943C90613D408213D
:1029C0006FF01002026121772068C06910F4407F27
:1029D000204602D0FFF792FF04E0FEF021FF2046E0
:1029E00000F04EF8257720680169C943C90708D16E
:1029F000C168C943C90704D1891E01612046FEF0A0
:102A000011FF20680169C943090609D4C168C94397
:102A1000090605D46FF0800101612046FEF0FEFE3C
:102A200020680169C943C90509D4C168C9430906B9
:102A300005D46FF4807101612046FFF70BFF206819
:102A40000169C943490609D4C168C943490605D487
:102A50006FF0400101612046FEF0EEFE2068016942
:102A6000C94389060BD4C168C943890607D46FF0EE
:102A7000200101612046BDE87040FFF7ECBE70BD4B
:102A8000704770B5044690F87C0001281DD00122E3
:102A900084F87C202420C4F880002068056802683F
:102AA00022F0010202602068826822F060620A431C
:102AB0008260204600F01EFC226820210020156064
:102AC000C4F8801084F87C0070BD022070BD10B581
:102AD000040003D0D4F8800010B107E0012010BD3D
:102AE000002084F87C00204600F026F82420C4F85A
:102AF00080002068016821F0010101602046FFF09C
:102B00004FFC0128EBD0A06A10B12046FFF0B4FBC7
:102B10002068416821F4904141602068816821F07B
:102B20002A0181602068016841F0010101602046AE
:102B3000BDE81040FFF004BC2DE9F04186B0064628
:102B400014216846FDF7D1FB324800253268022483
:102B5000314B08382F490826DFF8C0809A4228D127
:102B60000A6842F480120A60096801F48011059134
:102B7000016841F004010160016801F00401059160
:102B8000016841F0080101600068694600F0080032
:102B9000059098148DE831002148CDE90356FEF7E1
:102BA000BFF9042069468DE83100CDE9035640465F
:102BB0002BE01C4B9A422AD10A6842F400320A6088
:102BC000096801F400310591016841F008010160D4
:102BD000016801F008010591016841F001010160FF
:102BE00000680727694600F00100059020208DE865
:102BF0003100CDE903574046FEF792F90096694649
:102C0000CDE901450848CDE90357FEF789F906B03B
:102C1000BDE8F081E844025800500040000C025822
:102C20000008025800440040000002582DE9F84313
:102C30000446D0F880001F4616460D46202852D183
:102C4000DDB1D6B194F87C0001284CD0012084F885
:102C50007C0021224FF00008C4F88880C4F880204E
:102C60001834FEF009F8814654F8100CA687E68760
:102C7000183CB0F5805F03D004E00120BDE8F88384
:102C8000206920B12E46002584F87C8010E00026C3
:102C9000FAE78021204600F05FFBB8B9C6B116F80C
:102CA000010B21688862B4F85600401EA4F8560053
:102CB000B4F856004B464FF0000200970028E8D1C8
:102CC0004FF04001204600F047FB38B10320D5E724
:102CD00035F8020B2168C0F30800E3E72020C4F8B0
:102CE00080000020CAE70220C8E700002DE9F0417B
:102CF0000446006890460E468069C043C00635D43D
:102D00000025202720688069C043800616D5701CE6
:102D1000F8D0FDF0B1FFA0EB0800B04201D8002EC2
:102D2000F0D1606C84F8405040F02000606484F87A
:102D3000417084F842500120BDE8F08121681020E4
:102D4000C8612068C7612046FEF0BEFD20680849C2
:102D500042680A404260606C40F00400606484F89D
:102D6000417084F8425084F84050E4E70020E3E7E3
:102D700000E800FE70B50068C1F30901074E41EAA2
:102D80000241049C4FF480654268194305EA54559A
:102D90003543AA4321430A43426070BDFF63FF03EA
:102DA0002DE9F0410025904620260F46044626E0F6
:102DB000424639462046FFF799FF80BB206880696C
:102DC000C043800614D420688169C943490701D4EF
:102DD000218DC9B91349C661206842680A40426022
:102DE000656484F8416084F8425084F8405016E0ED
:102DF000FDF042FFA0EB0800B84208D83FB12068C0
:102E00008069C0434007D3D40020BDE8F081606CE6
:102E100084F8405040F02000606484F84160012054
:102E2000F3E7000000E800FE70B516460D460446C4
:102E30000FE0324629462046FFF758FF08B101202F
:102E400070BD681C05D0FDF017FF801BA84207D895
:102E500035B120688069C0438007EAD4002070BD86
:102E6000626C002084F84000202142F0200262645D
:102E700084F8411084F84200E1E78068C0F3C000A4
:102E80007047C06810F4406F01D0002070470120E7
:102E9000704710B5042404EAD1540723C1F3045148
:102EA00020448B408A40416999431143416110BDE0
:102EB0000148FEF711BA0000400300241048012227
:102EC0000E4B002110B50360C0E90112C1608161A1
:102ED000C161C0E91112C164016541658165C165C7
:102EE000FDF05CFE08B172B6FEE705480121FDF079
:102EF000F1FD002801D072B6FEE710BD00100052AF
:102F00008C02002406F0C8BCFEE700002DE9F04763
:102F1000454D044689464FF0000A2868C0438007A3
:102F20000AD0414E283E306820F080503060FDF0DD
:102F3000A3FE0746B04608E00120BDE8F08700BFC9
:102F4000FDF09AFEC01B022867D8D8F80000800068
:102F5000F6D4208829684FF4FE0721F07C713E02E8
:102F600041EA00502860207AA389B4F804C04002E6
:102F70002D4D2D495B1E227CACF1010C1835091D2D
:102F8000A0F5007080B2521ECCF3080C07EA034390
:102F900040EA0C00184306EA026210432860086801
:102FA000626920F44060104308600A68A06922F456
:102FB000007202430A60281D0A6822F480720A60C7
:102FC00002684FF6F873E4699A4342EAC402026069
:102FD0000868B9F1000F40F480720A6011D00868E7
:102FE000B9F1010F11D040F080700860D8F80000EE
:102FF000444640F08050C8F80000FDF03DFE054614
:103000000DE0086840F48000EFE740F40000ECE7D2
:10301000FDF032FE401B022801D903208DE7206815
:103020008000F5D5504688E728440258F0B587B0AF
:1030300014216846FDF759F91E48016841F4805192
:103040000160006802240025694600F48050059064
:10305000032648F237100C278DE8F1001648FDF7DB
:103060005FFF4CF2037069468DE8F1001348FDF7ED
:1030700057FF4FF63F0069468DE8F1001048FDF715
:103080004FFF0D2069468DE8F1000E48FDF748FF1F
:103090004FF6807069468DE8F1000B48FDF740FF60
:1030A000002205213020FEF08FF83020FEF07EF85F
:1030B00007B0F0BDD444025800180258000C025862
:1030C000001402580008025800100258FFF71AFFB7
:1030D000012004F173FCFBE7502010B580F3118848
:1030E000BFF34F8FBFF36F8F06F096FF18B10449FF
:1030F0004FF080500860002080F3118810BD000060
:1031000004ED00E02DE9F041CCB04C212FA8FDF7F3
:10311000ECF8202142A8FDF7E8F8BC216846FDF74D
:10312000E4F80220FEF7E6F9354800243549026844
:1031300042F44042026002680A6842F001020A60FA
:10314000096801F001014A9101688904FCD52E4803
:1031500002250168012308264FF0C0081F0421F052
:103160000301891C016005203895CDE93950CDE96E
:103170003B853D952FA83E95CDE93F644194CDE92F
:103180002F37FFF7B1F808B172B6FEE7402044943C
:1031900003270201CDE945603F21CDE94702CDE992
:1031A00042170421499042A8FEF084F908B172B692
:1031B000FEE70C22154B009307A82021CDE9015210
:1031C0000395332204951923CDE90558CDE90A2545
:1031D00080E892004FF440661194CDE90E6420948B
:1031E0006846CDE90C5310941D942894FEF74EFBCD
:1031F000002801D072B6FEE74CB0BDE8F0810000B7
:10320000184802582C040058284402580A00082183
:103210002E48F0B52E4A016841F470010160106833
:1032200000F00F00072804D2106820F00F00C01D26
:10323000106028490020274C10340B68264D43F0BD
:1032400001030B6020600B682B400B60136803F0D8
:103250000F03072B04D9136823F00F03DB1D136042
:103260001C4C1E4A18341E4B261D371D2060194C5D
:103270001C4D28343060261D3860371D23603B1DEF
:1032800035601C1D3A60251D2E1D1860331D2260FF
:103290002860326018600A680E4B134C22F48022BA
:1032A00060330A60186020686FF30F00B0F1005FB0
:1032B00003D20E490120C1F8080143F2D2000C49A3
:1032C000024B4A03803B08601A60F0BD88ED00E0C5
:1032D00000200052004402587FEDF6EA800201010E
:1032E000000202020000FF010010005C008000519B
:1032F000004000523FB514A1D1E9002314A1CDE94B
:103300000023D1E90021CDE90221416EB9B1016864
:1033100002AC8A688968C2F34262490F1DF8015005
:10332000615C2D01B5FBF1F1A0F86A101DF80210E7
:10333000A25C0901B1FBF2F1A0F868103FBD0121C8
:10334000A0F86A10F8E7000001010103070100007E
:1033500008040204080101012DE9F0479A461746C6
:103360000E460446089D4FF000094FF0200839E052
:10337000681C37D0FDF080FCA0EB0A00A84222D8E0
:103380000DB32068016849072CD5C069C04300050A
:1033900028D423684FF40061196221680B6823F474
:1033A000D0730B6021688B6823F001038B60C4F835
:1033B0008080C4F88480C4F8888000BF032084F82B
:1033C0007C90BDE8F08721680B6823F4D0730B6014
:1033D00021688B6823F001038B60C4F88080C4F8F7
:1033E0008480EBE72068C06936EA000004D0002042
:1033F000B842BDD00020E4E70120F9E7FEE700284D
:1034000009DB410900F01F028900012001F1E021E0
:103410009040C1F8000170470248006840680168A8
:1034200049690847C80100240E4808B5016841F001
:1034300010010160006800F0100000900948583841
:10344000016841F010010160016821F01001016084
:103450000649054808624FF080600549C1F800013F
:1034600008BD0000D4440258193400088C0200241E
:1034700008E000E02DE9F0470C46497F074600F0E0
:10348000BDF8A17F0646384600F0B8F8A17F054692
:103490003846FFF01EFADFF854810246608BA18A9D
:1034A000534FDFF85091401AC8F84000608BA18A52
:1034B000401AC8F81800208BA18A401AC8F81000DA
:1034C000C8F8342060694FEA3040C8F844002069E9
:1034D000C8F83C006068C8F80C002068802827D035
:1034E00006DC042870D020286ED0402806D16BE07E
:1034F000B0F5807F0ED0B0F5007F0ED0207F46EA79
:10350000006040F40030C8F81C00607FA17F884252
:1035100058D166E0207F384902E03749207F491EB4
:1035200001EB0060C8F81C00E068C8F8200052E019
:10353000217FA06846EA016141F40031C8F81C10FF
:10354000C8F82450011D2269C8F81420C8F82C10AE
:103550006FF0FF0203784FF610714FF0010513F082
:10356000FF0303D0012B09D0AFF300804388D8F8C4
:103570001C00884302EB032108430CE0237FFF2B50
:1035800000D100254388D8F81C00884302EB0321B2
:10359000084340F01000C8F81C00D8F81C0040F0A8
:1035A0002000C8F81C0001E000F030FBD8F81C0037
:1035B0008006F9D41020C8F808001DB1C8F80070C2
:1035C000BDE8F08748460EE0207F46EA006040F400
:1035D0000030C8F81C00C8F824502069C8F814004E
:1035E000ECE740F20120C8F80000E9E700100052C3
:1035F00001020200010201000A00020000200C2961
:1036000010B50DD2DFE801F00806070C0C0C0C0A0F
:103610000A0A0A0A012010BD022010BD052010BDB3
:10362000AFF3008010B500F10C014160002202727E
:103630000B46427207496022016000F120011846E2
:1036400000F178FD044960232022143005F008FAC7
:10365000203810BDD4841008CB570008064A05490D
:1036600001604FF08061C2F88011BFF34F8FBFF34C
:103670006F8F7047D484100808E000E000F06CBA47
:10368000FFF0D2B9FFF0E2B970B5061D43F27451F4
:10369000451843F28C540319036100F12C0200F128
:1036A000140186E82600114A0260084600F100FD78
:1036B0000F4940F8181B00F1FBFC0E49016043F272
:1036C0004851084400F1F4FC0B49251F40F8141B35
:1036D000FFF080FA401B41190246204400F016FA20
:1036E000051B2819FFF0C0F9284670BDF0851008A9
:1036F00080AF0008F8901008B4AF000870470000D1
:103700002DE9F04F91B001F1E3FCE9490025C563D3
:1037100040F8401B01F0AAFB2C3001F0A7FB2C3035
:1037200001F0A4FBE34900F5BE72C56201606421AB
:103730000586343001F0F4FADF49016000F5367097
:1037400001F0FEF8383001F0A7FADC4904460160C8
:10375000294605754575857501F037F804F118009F
:1037600001F082FAD64940F8441B01F03FF8D549F0
:1037700040F8501B01F03AF8D34940F8501B01F1D2
:103780003FFD00F1FC0426212046FCF7AEFD20465B
:1037900002F084FD8562012180F82C504FF6FF7203
:1037A00080F82410C9490160FF21C2850286428643
:1037B000828680F83610C64980F8375080F8385035
:1037C000C44EC0E90F51A0F8485000F140014C3000
:1037D000D6E9002304F1CCFDA0F10C011030D6E9AC
:1037E000022304F1C5FD0561A0F5C664456104F539
:1037F000C967D6E90402B849C7E9001442F6E06196
:10380000C7E9020204F5CB6001F006FA00224FF48A
:10381000487A114604F1400053464FF4F07881464F
:10382000CDF8008002F12CF900224E4611461046D8
:1038300001F0C4FF0022B06204F16C00534611464F
:10384000CDF80080804602F11BF998224646992067
:10385000114601F0B3FF40F2BF2BB06204F19800B3
:103860005B46182206460F214FF4D47ACDF800A00B
:1038700002F106F9FF221146104601F09FFF0022D7
:10388000B0621146104601F099FFF0620120014636
:10389000308604F1CC00029001F0D3FA0298642241
:1038A000002100F187FD029818220F215B46CDF818
:1038B00000A002F1E5F816200090029813231C22C4
:1038C0000A2100F1D7FA4FF0060B029800235A465E
:1038D0000221CDF800B001F02FF90298B4220021A6
:1038E00001F06FFA04F57D700121824601F088F93C
:1038F000C5229721142001F061FF0146504600F1D6
:10390000A9FD1421504601F09FF90121504601F014
:10391000A6F90298514601F0D2F8012104F587601A
:10392000009001F06DF90098142100F054FFDFF8C9
:10393000ACA10122009803A9CDF80CA0ADF810208D
:1039400000F1E3F900221146104601F037FF01466D
:10395000009800F17FFD0099029800F17AFA0121A8
:1039600004F59160009001F04BF90098142100F0EB
:1039700032FF009803A9CDF80CA0ADF8105000F16B
:10398000C4F900221146104601F018FF01460098C4
:1039900000F160FD0099029800F122FA012104F57E
:1039A0006970009001F02CF9C5229721142001F0D4
:1039B00005FF014604F57770824600F006FF009887
:1039C0005146FFF07CFD0098022100F1B0F900990A
:1039D000029801F074F84FF4367A8822514604F5C3
:1039E0009B60059002F0E9FF0420ADF8300005204F
:1039F000ADF8280005980CAB0BAAADF82CB00AA9BD
:103A000001F1AEFB7D2000230322CDE90050059893
:103A1000072102F079FB0598FA22142102F012FB2B
:103A20000598B42101F1DDFB04F2D450514618226F
:103A3000C4F8D075074602F0C0FF0221ADF824108B
:103A40000321ADF8285009A8ADF82C100121ADF8DC
:103A500030100AAB00900BAA38460CA900F000FC0D
:103A600000213846FFF0DEFC4946204687F83850F2
:103A700002F096F94146204602F092F9314620467E
:103A800002F08EF90299204602F08AF90599204643
:103A900002F086F93946204602F082F904F21460F9
:103AA000394606F000FD11B02046BDE8F08F000059
:103AB00004861008FC861008A0AA0008B887100821
:103AC00018AA0008FCA7000874861008FCA60008C5
:103AD000B4881008B4841008748E1008E8AF000889
:103AE000C068FFF0C8B870470048704718841008D5
:103AF0000720704710B50446D0F85401FFF018F8BD
:103B00002046BDE81040FFF00DB9000010B5FEF0F2
:103B1000CBFF0149016010BDB8A500087CB5144673
:103B20000D46684603F1E4FEBDF80000002806D00B
:103B3000BDF802002860BDF80400206001207CBDB3
:103B40007047000003480068C00301D5FEF022BEA4
:103B50007047000014ED00E05A2010B5FFF74FFC4D
:103B6000BDE810405820FFF74ABC000009480A4948
:103B7000C268C2F30A02521E92B20A800369C3F3FA
:103B80000A035B1E4B800264416B41F001014163FB
:103B900070470000001000501C000024704710B552
:103BA0000446FEF0C9FE2068D4F80815C26A204613
:103BB000BDE810401047704730B5044C039D0460C9
:103BC0000171C2800381458130BD0000A4A60008B8
:103BD00010B5064C0021606805F044FC60684FF0A9
:103BE000FF31BDE8104005F03DBC0000200000247E
:103BF0000148006803F1EABE2000002402480021C9
:103C0000006805F02FBC00002000002405F088BCEF
:103C100090F84430002B01D102F0E3BC704710B59E
:103C2000FFF070F80168096BBDE81040084741607B
:103C3000704770472DE9F74F84B0814605A804F01E
:103C400040FC00287ED109F1A805B9F8E8400AE057
:103C5000A0B205EBC00105A803F100FB18B1A1B2A9
:103C6000284604F14BFB641EF2D5B9F8E8604FF02A
:103C7000000AD046761E66D4B0B205A905EBC00492
:103C8000204604F02AFC00287AD0BDF91400B4F9CB
:103C90000010884232DB05A803F1DBFA0746204614
:103CA00003F1D7FA874229DCBDF91600B4F90210F6
:103CB000884212DB204604F0FFFBBDF91620BDF858
:103CC0001A10801A00B2091A09B2ADF81A100029A8
:103CD00038DD1044ADF816004DE005A804F0ECFB0B
:103CE0000746204604F0E8FB874207DC6088BDF801
:103CF0001610401A00B2ADF81A003AE0BDF91600ED
:103D0000B4F90210884239DB05A804F0D5FB074658
:103D1000204604F0D1FB874230DCBDF91400B4F931
:103D20000010884215DB204603F193FABDF91420F8
:103D3000BDF81810801A00B2091A09B2ADF81810AF
:103D4000002901E080E098E07EDD1044ADF8140029
:103D500011E005A803F17DFA0746204603F179FA40
:103D600087420BDC2088BDF81410401A00B2ADF871
:103D70001800002868DD4FF0010801E04FF0010A4B
:103D8000761E7FF579AFB8F1000F7FF46EAFBAF110
:103D9000000F72D0B9F8E8604FF00008761E6CD4BE
:103DA000B0B205A905EBC004204604F096FB58B359
:103DB000BDF91400B4F90010884226DC05A803F10F
:103DC00048FA0746204603F144FA87421DDBBDF955
:103DD0001600B4F90210884205A808DC04F06CFB58
:103DE0006188401A01446180E188081A0BE004F000
:103DF00063FB0746204604F05FFB874205DBBDF806
:103E000016006188401AE0802FE0BDF91600B4F971
:103E10000210884227DC05A804F04EFB0746204626
:103E200004F04AFB87421EDBBDF91400B4F9001010
:103E3000884205A809DC03F10CFA2188401A0144E4
:103E40002180A188081A0CE070E103F102FA07460C
:103E5000204603F1FEF9874205DBBDF814002188F6
:103E6000401AA08001E04FF00108761E98D5B8F105
:103E7000000F8ED0B9F8E8604CE14EE1B0B205EB2E
:103E8000C00405A8214603F1E9F918B1B1B22846EA
:103E900004F134FA05A9204604F01FFB0028EBD0FA
:103EA000BDF91400B4F900108842BDF91600B4F948
:103EB00002107DDD884233DDBDF816006188401AAE
:103EC00021880FFA80F8BDF81400401A06B205A840
:103ED00003F1BFF90746204603F1BBF9391A05A8DB
:103EE00001FB08FA04F0E8FA0746204604F0E4FA79
:103EF000381A7043504508DCA4F806802088ADF8D5
:103F00001400BDF818003044D4E0A680BDF81A10A3
:103F100001EB0800ADF81A006088ADF8160094E6D1
:103F200005A803F196F90746204603F192F9218886
:103F30008742BDF81400A0EB01000FFA80F820467C
:103F400025DD04F0B9FA064605A804F0B5FA301AE2
:103F5000BDF9161006B2B4F90200411A05A801FB1A
:103F600008FA03F176F90746204603F172F9381A88
:103F70007043824508DC05A804F09EFA6080E68064
:103F80002088ADF8140091E0A4F804805EE003F10D
:103F900060F9074605A803F15CF9381A07B2B9F8C9
:103FA000E80007280EDAD4F800B0D4F804A000E046
:103FB0001CE005A803F14DF952462080A78068F364
:103FC0000F02A3E0B8450EDCBDF818102088ADF84C
:103FD000140001EB0800ADF8180005A803F139F949
:103FE0002080A78031E6A4F8048026E0884231DAF8
:103FF000204603F12EF9064605A803F12AF9301AE6
:1040000007B2204604F058FA064605A804F054FA10
:10401000301ABDF9161006B2B4F90200BDF9142029
:10402000411AB4F90000801A79437043814208DCD8
:1040300005A8E68004F040FA6080BDF81800384416
:1040400038E005A8A78003F104F92080BDF81A0024
:10405000304484E005A803F1FCF80746204603F14C
:10406000F8F8874233DA204603F1F3F8064605A84C
:1040700003F1EFF8301A61880FFA80F8BDF81600E6
:10408000401ABDF9141006B2B4F90000411A05A88F
:1040900001FB06FA04F010FA0746204604F00CFA79
:1040A000381A00FB08F0504507DCE680BDF8181010
:1040B00001EB0800ADF81800C7E505A803F1C9F841
:1040C0002080A4F804806088ADF81600BEE7BDF833
:1040D00016006188401A0FFA80F8204604F0ECF9C7
:1040E000074605A804F0E8F9381A07B2B9F8E8005D
:1040F00007281EDAD4F800B005A8D4F804A0E78099
:1041000004F0DAF95246608068F31F4259462846A7
:1041100004F107F9761E7FF5B1AEB9F8E860082E14
:1041200020D2DDE90512284604F1FBF807B0BDE80E
:10413000F08FB8450EDCBDF81A106088ADF8160097
:1041400001EB0800ADF81A0005A804F0B5F960808D
:10415000E7807AE5A4F80680BDF81A003844ADF887
:104160001A0072E500274FF0FF3A761E6FF0004B01
:1041700042D4B0B2741E05EBC008B8F80410B8F809
:10418000060011FB00F002902EE0002C03DBA0B231
:1041900005EBC00100E005A98888CA8810FB02F081
:1041A0000390D8F800200092D8F8040001906846E7
:1041B00001F099FABDF80400BDF8061010FB01F1FA
:1041C000DDE902201044CA17081A01EB5271B0EB66
:1041D000E10F02DA3746A2460BE0584503DA3746CC
:1041E000A24630B18346641EB4F1FF3FCDDA761E9D
:1041F000BFD5BAF1000F06DAB8B205EBC00105A8C9
:1042000001F071FA12E01FFA8AF005EBC004B8B2AF
:10421000214605EBC000064601F065FA05982060CE
:10422000069860603168059170680690B9B22846BA
:1042300004F164F809E5000003484068002802D052
:104240000268D2691047704754010024034840684F
:10425000002802D00268126A1047704754010024F7
:104260002DE9F041098800F12E07069CC1851188CF
:10427000018619884186218804468186384604F0E3
:1042800041FA06B2384603F17BF805B220683146A0
:10429000426B2046904720682946826B2046BDE845
:1042A000F041104710B526210446FCF71EF80E48D1
:1042B0002060201D00F15AFD083000F157FD00215B
:1042C0008160C160012201618182C18201764276F2
:1042D000064A40F80C2CC16147F6FF710184FF21AA
:1042E00080F822100C3810BD8C8E10086CA70008C6
:1042F00030B5044C039D04600171C2800381458187
:1043000030BD0000E8A700082DE9F04F04468846BC
:104310003C3091B0834603F18FF900287ED0584697
:1043200004F06AFB050079D0204602F183FE814645
:104330002068816E204688470646484603F0A0FE66
:10434000704301F0B6F9002868D0204602F1C8FB9E
:104350000246E06C08B102F1C3FB002A06DD98FBBF
:10436000F2F15143414501D1012100E00021002833
:1043700006DD98FBF0F34343434501D1012300E000
:104380000023104350EA080001D099436BD04846FF
:1043900003F079FE82464946204602F13FFE06467A
:1043A000D9F800004146D0F8B42048469047074667
:1043B0004946204603F0D6FEB4F84810B4F846202B
:1043C00007FB0063CDE900211422204603A9CDF8A4
:1043D00008A003F027FD94F84400E0B3022845D07C
:1043E000584604F01BFB0146286803AA436A284686
:1043F00098470646584604F011FB0146286803AA70
:10440000836A284698470746584604F007FB01464A
:10441000286803AA036C2846984700E023E007FBBE
:10442000006085B2484602F108FC0646424649460D
:10443000204603F08CFE0F900FA803F140F861892D
:104440003044A0EB5500ADF834000022ADF8362022
:10445000ADF8385000E009E0ADF83A100DA9206839
:1044600002692046904711B0BDE8F08F584604F02D
:10447000D5FA0146286803AA836928469847054665
:10448000D0E730B4029C01600021C0E90112C16094
:10449000C0E90F34017401860183018730BCFFF04D
:1044A0009DBA70B51C460B46A1F5C066054604983A
:1044B000B6F5407F216805D20A4601462846FFF03E
:1044C00063F913E0A2F560637F2B05D80A46014625
:1044D0002846FFF02BF809E095F8590038B1A2F50D
:1044E0001060023803D1284600F0D5F8206020681B
:1044F00010B104F05AFA18B1002085F8590070BDC7
:104500000120FAE770B500F11A050446008EB8B133
:10451000A98A401E35F81160E882481C80B2A88242
:104520000A2801D30A38A882204600F04FF8208BD1
:104530001234022801D2401CE080A08810B103E0B0
:10454000AFF300800220A08080B2401E80B2A08025
:1045500024F81060304670BD2DE9F04700F11205D7
:104560000C460021DDF8208017E0561AB5F806C089
:10457000761E34F8027BB6B2B44501D8AFF30080A2
:10458000B5F804C06644B6B2022E00D3B61E35F8A4
:104590001660BE4211D1491C89B29142E5D3002672
:1045A00000F11A0903EB08070CE034F8025B31460E
:1045B000484605F01AFFA84202D00020BDE8F08767
:1045C000761CB6B2B742F0D80120F7E770B500F11B
:1045D0001A06054613E0288F05F13204B8B1A18808
:1045E000401E34F81110E080A088401C80B2A080EA
:1045F000022801D3801EA080304605F005FF288FD9
:1046000070B1304603F1CCFE0028E4D008E0AFF3EF
:1046100000802846FFF0E4F90146304605F0F4FE3C
:10462000304603F1BDFE0028F3D070BD70B50546DD
:10463000C06B58B305F11A00044603F1ADFD28B371
:104640002846FFF07BF8E08A012812D9A08A401C96
:1046500080B20A2800D30A3840F63F16214634F8C3
:104660001000B04212D1084603F196FDE18A0129FB
:1046700001D8AFF30080A18A491C89B20A2900D36E
:10468000002124F81100A08A24F810602846BDE813
:104690007040FFF737BF70B5044669B104F14400BC
:1046A0000E220546FBF03CFD284604F077F9404217
:1046B00084F84D00284670BD084670BD2DE9F05FB6
:1046C0008A469B465245164600F11A04804624D974
:1046D000A6EB0A001FFA80F900271CE0E18A08F126
:1046E0003205204631B3491E89B2C18205F07DFEF4
:1046F0000146E888401C02281CD8E880A8880128C8
:1047000001D2801CA880A888401E80B2A8807F1C8F
:10471000BFB225F810104F45E0D35146204603F1B3
:1047200044FD15E0761EE08AB6B2401C0A283BF82C
:10473000161001D9AFF30080E082A08A012801D2CF
:104740000A30A082A08A401E80B2A08224F81010F5
:10475000002EE7D14046BDE8F05FFFF737BF704756
:10476000016809690847406801680968084710B589
:10477000FEF0B2FABDE81040FFF73ABA0168496CA2
:10478000084700002DE9F04F87B08146DDE9178C1E
:10479000DDE91367DDE911451098DDF864B0DDF857
:1047A00058A08DE8F111484601F1DCFE0549159A43
:1047B00040F8181B80E8040C1A99C16007B018383B
:1047C000BDE8F08F6087100870470A0C02750A0A6E
:1047D00042758175704710B50446084603F18AFD9D
:1047E000216B484303F186FDA06310BD10B538214D
:1047F0000446FBF77AFD2046FFF024FE0A4C002217
:1048000008494FF6FF7301604021C0E90E240B52A6
:1048100080F844202E21A0F84620A0F84810C26459
:1048200010BD00001C881008E8AF000801490160B5
:10483000704700001C88100830B5DDE90345416071
:1048400002720C3080E8380030BD2DE9F043054697
:10485000406987B00C46D0F8148095F8340005F014
:1048600038FE074622464146284602F194FB06469A
:1048700022464146284603F064FC0246334601A81E
:104880002946009703F032FC002C17DD601E4146DC
:1048900002B22846164602F17EFB81463246414668
:1048A000284603F04EFC02464B4603A829460097D3
:1048B00003F01CFC03A901A800F015FF404603F01B
:1048C000C0FB401EA04217DD641C414622B22846B0
:1048D000164602F160FB044632464146284603F084
:1048E00030FC0246234603A82946009703F0FEFB4E
:1048F00003A901A800F0F7FE404603F0A5FB064619
:10490000404603F0BAFB0446404603F0B3FB0021E7
:10491000024605A82346009600F121FA01A90246A5
:1049200003A803F017FEDDE90301CDE901012868C2
:1049300001A902692846904707B0BDE8F08300004E
:1049400010B500F05FF903490160022180F83410CE
:1049500010BD0000A8A800082DE9FE475FEA000886
:104960001D4617468A460B9C4FF001064FF0FF305C
:1049700005D52168C8F10008064649422160002F8C
:1049800004DA21685742764249422160002D4FF0F7
:10499000010901DA5D4281463846FFF007FA034615
:1049A0003A4602A85146CDE90050404600F021F8B1
:1049B00021684E45029A114491FBF5F2104491FB97
:1049C000F5F205FB1211216000D04042002E03DAFF
:1049D000C1F10001216005E003DD002907DA294467
:1049E00003E004DA002902DD491B2160401EBDE816
:1049F000FE872DE9FF4F0D009B4694460746DDE9F3
:104A00000D4640D03CFA05F04FD001228246AA4024
:104A100007FA05F9B9FBF4F1521E0CEA020CE04664
:104A2000604601FB0AF10391FFF0C0F9CDE90046B1
:104A300001462B463A464046FFF7DBFF039900EB61
:104A40000108B9FBF4F004FB1090FFF0AFF9034646
:104A5000B9FBF4F005EB0B0104FB109202A8CDE9C1
:104A600000405046FFF7C5FF31684044029A1144A8
:104A7000B1FBF4F21044B1FBF4F204FB121131600B
:104A800004B0BDE8F08FBBF1000F184608D00B460C
:104A90003A46CDE9004601466046FFF7AAFFEFE738
:104AA0004FF0FF3030604008EAE707FB0CF7B7FB38
:104AB000F4F004FB10703060B7FBF4F0E0E738B5B9
:104AC00004460D46343002F099FEB4F93E0000224F
:104AD000B4F93C3011460090284600F1D1FF38BDB2
:104AE0003EB5054608790C46022824D0E08802AA83
:104AF000298F401A01B22868D0F8B030284698476C
:104B0000002818D0207908B1012814D1D5F8200147
:104B1000002810D00168C968884700280BD0BDF86C
:104B200008006A46ADF800000194D5F8200101683C
:104B30008B68294698473EBD10B5029CA0F810111D
:104B4000A0F81221A0F81431A0F8164110BD70B5DC
:104B50000D46B0F91A11A94209DDC46D05E02068BF
:104B60002946426F20469047A469002CF7D170BDBA
:104B700070B5D0F8E0400D46064605E020682946AD
:104B8000426F20469047A469002CF7D1D6F80C411B
:104B900005E020682946426F20469047A469002C12
:104BA000F7D170BD0021A0F81A117047C02230B4AF
:104BB0001152EC221152B0F894309022CB1A1352B9
:104BC000B0F86830B0F894402344CB1A8387018151
:104BD00030BCFFF097B9D0E90321891A002901DC24
:104BE00080680144012901DC0120704700207047E2
:104BF000D0E90310814201D10120704700207047A5
:104C00000163704710B5FFF74DFB024901600121B8
:104C1000016310BD40891008014AC2E900017047D4
:104C2000940100240148806870470000940100242A
:104C30000148C068704700009401002401480069E1
:104C4000704700009401002410B50446084603F1A3
:104C500051FB216B484303F14DFBA06310BD80F86D
:104C60003C1070477047000010B5FFF0F5FB054998
:104C700001600A218163012180F83C100021016458
:104C800010BD0000C089100801207047009808700E
:104C90004B708A707047000070B50446144E0020B7
:104CA000FF21A080E08021721049E0602160206136
:104CB000316891F8760008B1C86C00B9886801685D
:104CC000496A884701280DD000253068C06C30B192
:104CD0000168496A8847012800D0002005431DB1BA
:104CE000204670BD0125F0E7AFF30080488A100828
:104CF000C801002410B50446B0F91A01B4F918111E
:104D000088420CDB2046FFF055F92068D0F8A81047
:104D1000204688472046BDE81040FFF0F0B810BD9F
:104D200010B5FFF06BFB0149016010BD688A1008E7
:104D300008491CB500240A8807490988ADF80040D5
:104D4000ADF80420ADF80240ADF80610694600F059
:104D500005F81CBDBE010024C001002410B50446A6
:104D60000A48007800280FD001280DD12088A28899
:104D700010440A46401E2080A11C2046FFF0F0FA95
:104D8000A088E188A180E08010BD0000B801002467
:104D9000094910B5097800290DD001290BD1074C1C
:104DA0004388C188028824880B44E31A0380428028
:104DB00082888180C28010BDB8010024BE01002419
:104DC0007047C36A5A4359430368D3F8B830184749
:104DD00070B5044600680D46D0F80821204690477B
:104DE000D4F82C012946401CC4F82C012068D0F8C6
:104DF0000C212046BDE87040104710B59142044692
:104E000001D1AFF300808A4202DA08461146024619
:104E1000D4F84001884203D1D4F8440190420FD025
:104E2000C4E9501204F1600003F0FFFC04F1340007
:104E300003F0FBFC04F18C00BDE8104003F0F5BC6E
:104E400010BD70B5C56A0446C162D0F834112A4657
:104E500003F003F9C4F834012A46D4F8301120468F
:104E600003F0FBF8C4F8300170BD000010B5262136
:104E70000446FBF73AFA204601F010FA0349FF22F4
:104E8000016080F826200022826210BDD4AC0008A8
:104E90002DE9FF4F89B0884604466846DDE916656E
:104EA000DDE91A97DDE918BA00F08FFCCDE900784A
:104EB000ADF814602046ADF81650ADF818B08DF876
:104EC0001C9000F085F8DDE90B120346204603F044
:104ED00005FA049010484089ADF81A0000F014F962
:104EE0000168496A88478DF81E008DF81D003EB1A3
:104EF00035B12068416B204688470099084201D1AE
:104F0000AFF30080CDF80CA0606801684A6869467C
:104F100090470DB0BDE8F08FB8010024704710B580
:104F20000446FFF0CCFA2068D0F8A0102046BDE877
:104F30001040084710B504460C48407858B994F81A
:104F40004800022807D06068FFF70DFC18B16168BF
:104F5000487A0028FCD0FDF0BFFE00212046FFF07B
:104F6000D1FA2046BDE8104000F032B8B801002464
:104F70002DE9F04F89B0044612A81D4616468B460F
:104F800090E8800700F0C0F80168496A88470A4A3B
:104F9000022101235289CDE907105946CDE9053296
:104FA0008DE8A007206800223346856B2046A8477D
:104FB00009B0BDE8F08F0000B8010024012180F89D
:104FC0004B1080F8691070474FF6FF707047000073
:104FD00010B504460648407840B12068C16A2046B2
:104FE0008847E16B884201D1206C10BDE06B10BD99
:104FF000B801002481651C3001F03EBD012280F81B
:10500000741080F8752070472DE9FE430F46044662
:10501000806998460A99164680B30022029202AA35
:10502000CDE90012016832460D683946A847154D92
:105030008146A5F80A8000F067F80168496A884748
:105040000E2818D2DFE800F0070F1B1B1B1B1B1BD1
:105050001B1B1B1B1B1B6889029906FB007040422F
:1050600001EB400006E06889029906FB0070A0EBA6
:1050700080000844E0634846BDE8FE83FFE7AFF3E5
:1050800000800000B801002410B529B13C3080E850
:105090000E001AB1012002E0AFF3008000200449A5
:1050A00008700BB1012000E000200249087010BD1B
:1050B000B9010024BA010024F0B50E4A0E4B114C80
:1050C00090F874C090F834E00C4D0D4EF445118802
:1050D0001888277805D0002F0BD129800127308030
:1050E00004E0002F05D0288000273180198010802F
:1050F0002770F0BDBE010024C0010024C2010024BD
:10510000C4010024B80100240448016891F8760025
:1051100010B1C86C002800D188687047C80100240D
:1051200010B5044690F86B0000280DD0B4F860006C
:10513000012183B2B4F85C0082B204F11C0001F0DA
:105140004DFC002084F86B0010BD00002DE9FF4FDE
:1051500089B0044616A81D46164690E8800FFFF752
:10516000D3FF0168496A88470849002233464989C4
:10517000CDE9061008908DE8A00F20680A99856B8C
:105180002046A8470DB0BDE8F08F0000B80100240C
:105190002DE9F0478AB08A460DF1480EDDE9184145
:1051A0009EE8E0130DF1040ECDE907412946009376
:1051B0008EE8C2130168134600228C6B5146A0474B
:1051C0000AB0BDE8F08704460068816F2046884732
:1051D0002068016F20468847FEF7FAFC2068816E40
:1051E000F8E70000F0B52F4F0024DDE9056580C029
:1051F00080E81E00046100F118014461012204836B
:1052000044838483C4830484448484848C733431CD
:105210008462848580F8304044638463C46304649A
:1052200080F8444080F8452080F8464080F84740A8
:1052300084640C804C808C80CC8044658465C4651B
:1052400080F8602080F8614080F8624080F8632038
:1052500080F8644080F8654080F8664080F86740D8
:1052600080F86840C46680F8704080F8714080F82B
:10527000724080F8732080F87420001F0B4AAE4201
:10528000094910600A4A0E800A4915800C700A49C3
:105290000E800A490D8001D2012100E0002180F832
:1052A0003410F0BD38AD0008BE010024C801002450
:1052B000C0010024B8010024C2010024C40100245C
:1052C00010B5002A044688B018D0012A18D0022A46
:1052D00024D0032A12D1B4F904000090C888B4F98C
:1052E00006306188C01AB4F90020401A01B205A83E
:1052F000FFF035FD016821604068606008B010BDB6
:10530000B4F9040000908988B4F90630081A21889D
:10531000401AB4F9021002B201A8E9E7B4F9060094
:105320000090CA88B4F90430101A6288801A02B258
:1053300088882188C01A401A01B203A8D8E72DE94D
:10534000FF4F00269B4681B0924689463446B046C0
:10535000354621E000200090204600F0B7F900B962
:10536000A04601986B464A465946FEF09CF9040057
:1053700014D00A2C12D0009868B1848803F015FB71
:105380000746D9F80000009A4146C36B4846984743
:105390003844304486B26D1C5545DBDB05B03046E1
:1053A000BDE8F08F2DE9FF4FD9B01C468946DDE9F5
:1053B00066A55FEA0A0071D0206800286ED0A07B45
:1053C00000286BD010685690506800225790114604
:1053D000B9F90600009035A8B9F90430FFF0BFFC18
:1053E000A27935A956A8FFF76BFF35A9A27908461F
:1053F000FFF766FF07A8FEF020FB20680168896CB4
:105400008847064620680168496C884703462A4653
:1054100007A8AB4651460096FFF733F8207900B154
:105420000120804620680168096B8847B4F90C1098
:105430000D18002D03DDBDF95A21824201DA002644
:1054400002E0501890FBF5F61EA8FEF0F6FA207C5C
:1054500078B120680168896C884707462068016830
:10546000496C884703465A461EA851460097FFF7E5
:1054700008F8217C2068BDF8D820CDE900016379C7
:105480001EA94EA800F0C6F8207C28BB39E0BDF963
:10549000DA00B0EB450F02DA012101E099E00021CA
:1054A0004EA8FFF059FBBDF84A7103E0617907A8E7
:1054B000FFF7BCF87F1EBFB2F8D2BDF8D600761E4B
:1054C0002844ADF8D600BDF8DA00401BADF8DA008C
:1054D000BDF8380100287CD0002ED8DC13E007A8E6
:1054E000FFF710F8002874D00A280AD1BDF8D600BA
:1054F0002844ADF8D600BDF8DA00401BADF8DA005C
:10550000761E002EEBDC00270DF5AC7B0DF11C0A9E
:10551000207C002650B1BDF9DA00B0EB450F01DA6E
:10552000012100E000214EA8FFF016FBB8F1000FAA
:1055300025D05C2207A937A8FAF0F2FD207C10B133
:10554000BDF8520106E02168002337A847F6FF7234
:10555000FFF7F5FE217900B2012902D0022907D018
:105560000EE0BDF9D810081A00EBD070401004E02E
:10557000E27BBDF8D8101044081A06B200E0E67BC2
:10558000BDF8D4003044ADF86001207C10B1BDF806
:105590004A0101E047F6FF709DF856114A46CDE9F1
:1055A000050158A9CDE9001B02A981E89004BDF9C5
:1055B000D63000215998FFF0B2F9002817D1BDF874
:1055C000D6002844ADF8D600BDF8DA00401B00B282
:1055D00000E00CE0ADF8DA00217C09B1A84206DB5E
:1055E00056A802F069FFBDF9D610884290DA5DB086
:1055F000BDE8F08F30B5C58A448AED1A2C44448248
:10560000848A2244428362188282C382028B511AA6
:10561000018330BD70B504460020DDE904562080CA
:10562000616023726672E56022826082A082E082FD
:1056300020836083A083A077286841692846884733
:10564000050019D0E0680168CA68294690470646F7
:1056500003F0ABF9A083607A04280DD1E0683246EC
:105660000168CB6B294698470546304603F09DF903
:10567000A18B28440844A083204670BD70B5144611
:105680000D462BB1012B07D0022B09D0032B0BD0D9
:10569000B0F90200104470BDB0F90200084470BDBA
:1056A00002F00AFF001B02E002F006FF401B401E52
:1056B00070BD00EB1020401CC0F30720704710B5F0
:1056C000029C018042808380C48010BDA0F57E4191
:1056D000FF3905D0A0F500510B3901D000207047EB
:1056E0000120704770472DE9F04704460D460846F3
:1056F00002F0E7FE00283FD1204602F0E2FE38B17A
:105700002888208068886080A888A080E88832E0A7
:10571000B4F90000B5F90010884200DB0846B4F97E
:1057200002608046B5F90200864200DB064620464C
:1057300001F18FFD0746284601F18BFD874201DD0F
:10574000204600E0284601F184FD8146204602F013
:10575000B3FE0746284602F0AFFE874201DD204631
:1057600000E0284602F0A8FEA4F80080801B6680B6
:10577000A9EB0801A180E080BDE8F0870149016044
:1057800070470000188D100818B10021020C02D0DB
:1057900003E02020704710210004020E01D1000216
:1057A0000831020F01D10001091D820F01D18000D3
:1057B000891C002800DB491C08467047000440EAA9
:1057C0000120104340F07F4070470022C2607047C4
:1057D00077B5044690F8A40081B000283ED094F834
:1057E000A50010B92046FFF0E5FB03AA204602A958
:1057F00001F1EEFD04F1080102A801F172FE04F1CD
:105800000C01029003A801F16CFE039004F1140056
:10581000031F009003AA204602A901F1F3FD050031
:105820004FF0010602D084F8A5600CE084F8B15076
:1058300004F13000DDE90212FDF05CFA002084F88A
:10584000A50084F8A66004F180000299C4F8B410A1
:10585000039A8263C0E90A1284F8B0507FBD7CB518
:10586000044690F8A4000D4690B394F8740008B173
:1058700000207CBD94F8A60050B360680168896E72
:105880008847684300EB1020401CC0F30725FDB19A
:105890002046FFF08FFB60680168096E8847B4F806
:1058A000A010B4F8A2208180C28060680168096EEF
:1058B0008847057204F1180560680168096E884719
:1058C000CDE9005004F13000694604F0F1FC7CBDE4
:1058D000FFE70120FBE70000F0B589B015467A4AE2
:1058E000C0E9002100228260C2600261426118307A
:1058F000FEF010FA183000F0A5FE483001F0FAFE74
:10590000002380F82430A0F178040385438580F8D3
:105910002C30012084F8A500A82084F8A63003517B
:10592000AC200351B42084F8B03084F8B130035176
:10593000B8200351FEF058FC002877D0606800239F
:1059400001894089ADF81830ADF81C102946ADF832
:105950001A30ADF81E00069800900798019068462E
:10596000FFF00AFA0098049001980590DDE904011F
:10597000CDE90201606801688A6A02A990476168FE
:1059800004A8091DFFF7EAF902A8FFF7D1F9BDF94C
:105990001400FEF0DFFB84F8A40004F1300000F0F6
:1059A000FAFDBDF91000A4F8A000BDF81210A4F88B
:1059B000A21004F090FDA060BDF9120004F08BFD70
:1059C000E060BDF9140004F086FD2061BDF9160009
:1059D00004F081FD60613D4800680168496A8847BC
:1059E0000546FFF791FB0168896A8847002706464C
:1059F000FFF78AFB0168496A88470E284AD2DFE828
:105A000000F033385B076016264242424242606033
:105A1000BDF90800BDF90A30C11700EB517105EB63
:105A2000E10203FB062521F007010DE049E0BDF985
:105A30000800BDF90A30C11700EB917105EBA10216
:105A400003FB062521F00301401AC7B222E0BDF98D
:105A50000800BDF90A3000EBD07105EB610203FBD1
:105A6000062521F00101EFE7BDF9080005EB400034
:105A700004E0BDF9080000EB40002844BDF90A101D
:105A800001FB060506E0BDF90A10BDF9080001FB9F
:105A900006000544BDF90E0020673A46BDF90E0028
:105AA0002946CDE90006BDF90C3004F11800FEF7D7
:105AB000C3FE09B02046F0BDBDF9080005EB80002B
:105AC000DCE7AFF30080000058AE0008C8010024F6
:105AD00070477047F0B50D46016B8DB00446002944
