:020000040800F2
:10000000608E0024010010089D270008E1220008EE
:10001000F12110088505000897261008000000004F
:10002000000000000000000000000000B90200080D
:10003000950210080000000015030008C128000800
:100040001B0010081B0010081B0010081B001008E4
:100050001B0010081B0010081B0010081B001008D4
:100060001B0010081B0010081B0010081B001008C4
:100070001B0010081B0010081B0010081B001008B4
:100080001B0010081B0010081B0010081B001008A4
:100090001B0010081B0010081B0010081B00100894
:1000A0001B0010081B0010081B0010081B00100884
:1000B0001B0010081B0010081B0010081B00100874
:1000C0001B0010081B0010081B0010081B00100864
:1000D0001B0010081B0010081B0010081B00100854
:1000E0001B0010081B001008000000001B00100877
:1000F0001B0010081B0010081B0010081B00100834
:10010000990210081B0010081B0010081B001008A3
:100110001B0010081B0010081B001008C925100840
:100120001B0010081B0010081B0010081B00100803
:100130001B0010081B0010081B0010081B001008F3
:1001400000000000000000000000000000000000AF
:100150001B0010081B0010081B0010081B001008D3
:100160001B0010081B0010081B0010081B001008C3
:100170001B0010081B0010081B0010081B001008B3
:100180001B0010081B0010081B0010081B001008A3
:100190001B0010081B0010081B0010081B00100893
:1001A000952400081B001008890500081B00100892
:1001B0001B0010081B0010081B0010081B00100873
:1001C0001B0010081B0010081B0010081B00100863
:1001D0001B0010081B0010081B0010081B00100853
:1001E0001B0010081B0010081B0010081B00100843
:1001F0001B0010081B0010081B0010081B00100833
:100200001B0010081B0010081B0010081B00100822
:100210001B0010081B0010081B0010081B00100812
:100220001B0010081B0010081B0010080000000035
:100230001B0010081B001008000000001B00100825
:100240001B0010081B0010081B0010081B001008E2
:100250001B0010081B0010081B0010081B001008D2
:100260001B0010081B0010081B0010081B001008C2
:100270001B0010081B0010081B00100800000000E5
:100280001B0010081B0010081B00100800000000D5
:10029000000000001B001008DFF818D000F0DAF8AA
:1002A00000F07CF800480047F9731008AFF30080B5
:1002B00000F0AEF8608E00242C4B19680868B0E896
:1002C000F04F80F30988BFF36F8F4FF0000080F389
:1002D000118870470000000008480068006880F33B
:1002E00008884FF0000080F3148862B661B6BFF34F
:1002F0004F8FBFF36F8F00DF00BF00BF08ED00E03E
:10030000DFF80C00016841F470010160704700BF24
:1003100088ED00E0EFF30980BFF36F8F134B1A688D
:100320001EF0100F08BF20ED108A20E9F04F10607A
:1003300009B44FF0500080F31188BFF34F8FBFF323
:100340006F8F07F1F3FA4FF0000080F3118809BCBA
:1003500019680868B0E8F04F1EF0100F08BFB0EC45
:10036000108A80F30988BFF36F8F7047380000242C
:10037000EFF305807047D2B201E000F8012B491E6F
:10038000FBD270470022F6E710B513460A46044632
:100390001946FFF7F0FF204610BD000070B5054C70
:1003A000054D03E0206820448047241DAC42F9D16C
:1003B00070BD00000C1C11081C1C11082DE9F04137
:1003C000074615460E46102008F02EFC04000AD001
:1003D0006760C4E9026500F017F8016821600460F5
:1003E0000020BDE8F0810120FBE7202A04DB203A51
:1003F00000FA02F1002070479140C2F1200320FA78
:1004000003F319439040704700487047E00100240F
:100410002DE9F0410646FFF7F7FF8046454613E019
:1004200016B1E068B0420ED120682860D4E901011D
:10043000D8F800708847204608F066FBD8F800001E
:10044000B842EBD100E025462C68002CE8D1BDE88D
:10045000F0810000064C074D06E0E06840F0010323
:1004600094E8070098471034AC42F6D3FFF718FF22
:10047000E41B0108041C01087047000070B53A49EC
:1004800005460068884202D0384A904202D1D1F82D
:10049000080302E03648D0F8080310F4403F11D0BA
:1004A00001F006FB04466868B0F5803F06D0B0F561
:1004B000003F03D0B0F5403F26D101E0000C17E02B
:1004C000A40821E04FF4002001F132F804466868E6
:1004D0008103890B18D181140C2915D2DFE801F0B2
:1004E000140606060606060B0D0F1113800C4000BD
:1004F000B4FBF0F408E0240906E0640904E0A40970
:1005000002E0E40900E0240A00F0A8FA41F2030145
:10051000884208D8174884422868816813D821F493
:100520008071816070BD14496008884204D82868D1
:10053000816821F44071F4E71049884206D82868A0
:10054000816821F4407141F48071EAE70C498842E6
:100550002868816804D821F4407141F40071E0E713
:1005600041F44071DDE7000000200240002102401C
:1005700000600258002D3101105E5F0020BCBE00FB
:1005800040787D01FEE70000014800F186BB0000D5
:10059000880200247CB50E46154600210191020A0E
:1005A0008DF80500FF240D480223BA218DF80420A0
:1005B00001AA009400F0E0FA10B109A006F186FD4E
:1005C0000648BB212B463246009400F1E5FC00288A
:1005D00002D003A006F17AFD7CBD0000F0020024E9
:1005E0007265616420726567206572726F720D0AB0
:1005F000000000000068006C7047000010B586B075
:10060000044614216846FFF7BDFE11492068884260
:100610001BD11048016841F020010160006800F022
:10062000200005900B480830016841F0010101608D
:1006300000680321002200F00100059040208DE8B1
:1006400007000548694600F0E5F806B010BD000057
:1006500000200240D844025800000258F0B501269C
:10066000044600201E2301E05B1E05D303F01F0794
:1006700006FA07F50D42F7D072B1082A0AD0102AFF
:1006800005D0182A01D1072B06D30120F0BD082B75
:10069000FBD201E0102BF8D22368596121688B68E6
:1006A00023F0180313438B60F0BD000010B5040065
:1006B00010D0607F20B900202077204600F1D8FAC2
:1006C00021790220607739B1D4E902122046FFF780
:1006D000C5FF48B1012010BD21681148486120685C
:1006E000816821F0180181606079A0B121682069DA
:1006F0000861012220686369816821F06001194363
:1007000081602068A369816821F0800119438160BC
:100710006277002010BD21684FF0FF30E8E700004D
:10072000B71DC104F0B590F86020012A22D0C1EBBA
:10073000C102012780F86070022380F8613000EB6D
:100740008202284D138F168EB2F83CC0D46A1B0566
:10075000283244EA064643EA4C530A2C46EA03068A
:100760000AD0092C08D0137B46EA036349B10B2C4D
:100770001AD01DE00220F0BDD36803F07F4333435D
:10078000F4E701684C6AAC431C434C62016813688F
:100790008B6151680A2901D009291BD1D1680268EF
:1007A00021F07F41916215E0118B0F4D43EA8143A7
:1007B0000168CC69AC431C43CC61016813680B61D0
:1007C00051680A2901D0092904D1D168026821F0B1
:1007D0007F411162002180F8617080F86010084646
:1007E000F0BD00000F0033FF0F003FFF7047000017
:1007F00070B5044600F1A0FB0546601C02D0044819
:100800000078044400F198FB401BA042FAD370BD6D
:10081000240000242DE9FC4F01257E4C00234FF0DD
:10082000030A4FF0B04E4FF00F0BEBE005FA03F662
:1008300037403A0077D04F68012F05D0022F03D000
:10084000112F01D0122F1AD187684FEA4308D1F82F
:100850000CC00AFA08F927EA09070CFA08FC4CEA66
:10086000070CC0F808C0476891F804C0B743CCF340
:10087000001C0CFA03FC4CEA070CC0F804C0C66864
:100880004FEA430CD1F80880E1460AFA0CF7BE4360
:10089000019708FA09F848EA0608C0F80C804E6883
:1008A000022E01D0122E12D1DE084FEA437C00EB5B
:1008B000860600960F69366A4FEADC6C0BFA0CF874
:1008C00007FA0CF726EA08063743009E37620E79CE
:1008D0000768DDF804C006F0030606FA09F627EA01
:1008E0000C073E4306604E68F6001CD54A4E37683A
:1008F00047F00207376036689F0706F00206009649
:1009000023F0030606F1B046B1463F0FD6F808645F
:10091000DFF808810BFA07FC404526EA0C0603D1F4
:100920004FF0000C41E06CE0DFF8F4C0604502D10C
:100930004FF0010C39E0DFF8ECC0604502D14FF018
:10094000020C32E0DFF8E0C0604502D14FF0030C4A
:100950002BE0DFF8D8C0604502D14FF0040C24E052
:10096000DFF8CCC0604502D14FF0050C1DE0DFF888
:10097000C4C0604502D14FF0060C16E0DFF8B8C0E5
:10098000604502D14FF0070C0FE0DFF8B0C06045C2
:1009900002D14FF0080C08E0DFF8A4C0604502D196
:1009A0004FF0090C01E04FF00A0C0CFA07FC4CEA7E
:1009B000060CC9F808C426684F6826EA0206FF0339
:1009C00000D51643266066684F6826EA0206BF0314
:1009D00000D516436660D1F804C07646DEF8007094
:1009E0005FEACC2C27EA020700D517433760D1F81D
:1009F00004C077685FEA8C2C27EA020700D517430A
:100A000077605B1C0A681746DA407FF40FAFBDE8D9
:100A1000FC8F000080000058F44402580000025887
:100A20000004025800080258000C02580010025836
:100A30000014025800180258001C025800200258E6
:100A400000240258426931EA020200D1090481619E
:100A500070470AB1816170470904FBE701480068EB
:100A6000000C70470010005C30B590F84120202A3F
:100A700024D190F84020012A20D0012380F8403072
:100A8000242280F84120202300240268156825F0E4
:100A9000010515600268156825F480551560026827
:100AA00015680D43156001680A6842F001020A608A
:100AB00080F8413080F84040002030BD022030BD39
:100AC00070B5040004D094F84100002510B106E090
:100AD000012070BD204684F8405000F0DFF824204B
:100AE00084F841002068016821F001010160D4E927
:100AF000001020F0706008612068816821F40041D6
:100B00008160E06821680128A06806D040F40440B4
:100B10008860E068022803D006E040F40040F7E770
:100B200021684FF40060486020212068114A436822
:100B3000134343602068C26822F40042C26054F844
:100B4000106B0DCC104340EA0320F06054F81C3CBD
:100B5000D4E900021043186054F81C0D026842F0FA
:100B600001020260656484F84110256384F84250F4
:100B7000002070BD008000022DE9F84F044690F877
:100B800041001F469046DDF828A08B4620287ED1E4
:100B900094F8400001287AD0012084F8400000F148
:100BA000CBF90122064619230090D103204601F11A
:100BB0004BF9E0BB0025212184F84110102084F876
:100BC000420065646785618DFF2732484FF00079E8
:100BD000C4F82480FF294FF08078656303D9278506
:100BE0003A46009039E0618D218500903AE05946FF
:100BF000204601F113F913E001F00CFCB8B9606A6A
:100C0000216800788862606A401C6062608D401EC6
:100C10006085208D401E80B22085618D01B168B154
:100C2000608D3246514600282046E5D100E002E0C2
:100C300001F137F9D0B10120BDE8F88F0022534609
:100C400080212046009601F1FFF80028F3D1608D45
:100C5000FF2804D927853A4600954346C7E7608DAB
:100C6000208500954B4694F82820C0E72068202175
:100C7000094AC161206843681340436084F8411009
:100C800084F84250002084F84050D5E7FFE7022066
:100C9000D2E700000020008000E800FE10B586B01A
:100CA000044614216846FFF76DFB1349206888420B
:100CB0001FD11248016841F08001016000680423DF
:100CC000302100F08000059000200091122269463A
:100CD000CDE90120CDE903030948FFF79BFD074853
:100CE0000830016841F480010160006800F4800070
:100CF000059006B010BD000000580040E0440258C6
:100D0000001C0258024881680278114481607047D3
:100D100024000024032010B500F1B4FA00F0FCFE1A
:100D20000F4A104914681368C4F3032203F00F0339
:100D30008A5CC95C02F01F0201F01F01D0400A4A20
:100D400020FA01F1116009490860002000F010F854
:100D500008B1012010BD00F163FA002010BD0000B1
:100D600018440258BC8110083400002430000024CC
:100D700010B5102804468AB02CD200220146372034
:100D800000F160FA372000F049F91748046017486D
:100D9000016841F020010160006809A900F020000D
:100DA0000890684600F1E0FD0598B0B100F0A2FEA1
:100DB00040000F4900220F4CB0FBF1F10E4840F209
:100DC000E7330460C0E90332491EC0E9011200F1B3
:100DD00043FE28B101200AB010BD00F08BFEE8E709
:100DE000054801F0F5F9F6E728000024E844025828
:100DF00040420F0000140040F80600247047000035
:100E00002DE9F041040004D094F8A100002518B1A8
:100E100007E00120BDE8F081204684F8A05000F0F2
:100E200097F83448022184F8A110012202CC8B6982
:100E300023F070438B6194E84A001943E3681E4332
:100E400054F8043D31439E693143996121688B68B0
:100E500003408B602168A68AA7698B683B4343EAFD
:100E600006438B602168CB680340CB602168A38B6D
:100E7000276ACE683E4346EA0346CE6021680B6986
:100E800003400B612368A68CA76A1969394341EABC
:100E90000641196121684B6903404B612068A38DAD
:100EA000266B4169314341EA03414161236894F86B
:100EB000351094F83600DE6A000406F07F46DE62E4
:100EC000236840EA012094F83460D96A3143014331
:100ED000D9622068416B41F0060141632068816955
:100EE00041F001018161C4F8A45084F8A1200020E0
:100EF00090E7000000F800F0124910B5124A134CB8
:100F00000B6C11888B4212D1518800F165F9206871
:100F100090F86610491C80F8661001F137FE2068D1
:100F200003F13EF8BDE81040002004F079BC00F168
:100F300053F9002003F1D0FB20680168C969BDE8BE
:100F4000104008470010005018000024C40100247D
:100F500070B586B0044614216846FFF713FA2A4993
:100F6000206888424DD12948016841F0080101609C
:100F7000006800F0080005902448001F016841F453
:100F800080610160016801F480610591016841F4AC
:100F900000710160016801F400710591016841F47C
:100FA00080710160006800240E26694600F480709C
:100FB0000590FF20009002251548CDE90154CDE9A8
:100FC0000346FFF727FC4FF6FF700090CDE9015470
:100FD00010486946CDE90346FFF71CFC4FF470400A
:100FE0000090CDE901540C486946CDE90346FFF76E
:100FF00011FC00220521582000F124F9582000F0AE
:101000000DF806B070BD000000100050E444025816
:10101000002802580024025800200258002809DB4A
:10102000410900F01F028900012001F1E0219040F8
:10103000C1F8000170470000134970B50A68D24337
:10104000520705D5096801F00701814213D118E064
:101050000A6822F0070202430A60FFF06DFF0A4DA2
:101060004FF47A760446083D07E000BFFFF064FFC6
:10107000001BB04201D9012070BD2868C043800424
:10108000F4D4002070BD00000C48025810B500F0E8
:101090000FFD05490968054AC1F30211515C01F0D1
:1010A0001F01C84010BD000020440258BC81100838
:1010B000494930B5484C0B1D0A68143409681D684D
:1010C000246802F00303C5F30012C1F30531C4F331
:1010D000CC04002914FB02F200EE102AF8EE400ABC
:1010E00075D03F4A9FED3D1AB7EE000A6BB1DFEDB8
:1010F0003D1A012B01D0022B64D002EE101A1168A8
:10110000F8EE422A81EEA22A21E0334C283C2368E3
:101110009B0612D5344B246801EE901A1168C4F373
:10112000C104F8EE612AE34001EE903AC1F30801F0
:10113000F8EE611A81EEA22A0BE001EE901ADFEDC3
:101140002B2A00BFF8EE611A116882EEA12AC1F3C2
:10115000080101EE901A1168F8EE611A40EE811A4A
:1011600071EE800A62EE200AC1F3462101EE101AE8
:10117000B8EE411A31EE001AC0EE811ABCEEE11A47
:1011800080ED001A1168C1F3064101EE101AB8EEA5
:10119000411A31EE001AC0EE811ABCEEE11A80ED60
:1011A000011A1168C1F3066101EE101AB8EE411A76
:1011B00031EE000A80EE801ABCEEC10A80ED020A10
:1011C00030BD04E001EE901ADFED092ABAE70021F4
:1011D000016041608160F3E7284402580000003953
:1011E000384402580024744A0090D0030024744C00
:1011F00020BCBE4B2DE9FC5F044650F8241B0025A3
:1012000000902E460801FE4FDFF8F8831DD5606E72
:1012100050B1B0F5801F0CD0B0F5001F0ED0B0F566
:10122000401F1DD001250FE0386840F400303860C1
:1012300016E00221201D00F1DDFF03E000980221ED
:1012400001F0AEFA05000BD02E462088C00523D54C
:10125000606D05281ED2DFE800F00C11161B1B0084
:10126000626ED8F8001021F440111143C8F8001044
:10127000EBE7386840F40030386009E00021201DB9
:1012800000F1B8FF03E00098002101F089FA05465B
:101290006DB100E001252E462088800528D5A06D7F
:1012A00080281ED00CDC90B140280ED114E0626D75
:1012B000D8F8001021F007011143C8F80010EBE73F
:1012C000C02813D0B0F5807F10D001250FE038681A
:1012D00040F40030386009E00021201D00F18AFF51
:1012E00003E00098002101F05BFA054695B12E4617
:1012F0002088DFF81093400509F108092CD5D4F8AF
:10130000A400B0F5800F20D00DDCA0B1B0F5001F17
:101310000FD115E0A26DD8F8001021F4E07111434F
:10132000C8F80010E4E7B0F5C00F13D0B0F5000F17
:1013300010D001250FE0386840F40030386009E033
:101340000021201D00F156FF03E00098002101F06C
:1013500027FA054675B12E46208800052DD5D4F80C
:10136000A800B0F1007F21D00EDCA8B1B0F1807FE1
:1013700010D116E0D4F8A420D9F8001021F46001AF
:101380001143C9F80010E7E7B0F1407F13D0B0F186
:10139000806F10D001250FE0386840F400303860CD
:1013A00009E00021201D00F125FF03E00098002145
:1013B00001F0F6F905466DB12E46206880011FD573
:1013C000A06CD8B110280FD0202812D0302815D00A
:1013D000012514E0D4F8A820D9F8001021F0E0612C
:1013E0001143C9F80010E8E7386840F4003038606D
:1013F00004E00221201D00F1FDFE05466DB12E46E0
:101400002088C0042BD5E06DB0F5005F20D00DDC46
:10141000A0B1B0F5805F0FD115E07A48A26C001F33
:10142000016821F0300111430160E9E7B0F5405F48
:1014300013D0B0F5804F10D001250FE0386840F48C
:101440000030386009E00021201D00F1D3FE03E0E8
:101450000098002101F0A4F9054685B12E462088A8
:10146000800429D5206EB0F5403F23D010DC08B3AE
:10147000B0F5803F14D0B0F5003F0FD115E0E26D1C
:10148000D8F8001021F4E0411143C8F80010E6E755
:10149000B0F5802F0ED0B0F5A02F0BD001250AE0BB
:1014A0000121201D00F1A6FE03E00098012101F0BA
:1014B00077F905468DB12E46208840042AD5D4F808
:1014C000AC00B0F1405F23D010DC08B3B0F1805F16
:1014D00014D0B0F1005F0FD115E0226ED8F80010E3
:1014E00021F4E0211143C8F80010E5E7B0F1804F86
:1014F0000ED0B0F1A04F0BD001250AE00121201D34
:1015000000F178FE03E00098012101F049F9054659
:101510006DB12E46208800041FD5E06ED8B1B0F121
:10152000805F0ED0B0F1005F10D0012514E0D4F838
:10153000AC20D9F8001021F0E0411143C9F80010A7
:10154000E8E7386840F40030386004E00121201DED
:1015500000F150FE05466DB12E462068C0011ED533
:10156000606CD0B101280ED0022811D0032814D00D
:10157000012513E0E26ED8F8001021F0405111432C
:10158000C8F80010E9E7386840F40030386004E03B
:101590000221201D00F12EFE054685B12E46206851
:1015A000DFF85CB04002ABF11C0B57D51648016860
:1015B00041F480710160FFF0BFFC82460EE01148EB
:1015C000626C001F016821F0030111430160E6E72E
:1015D000FFF0B2FCA0EB0A0064283DD80A4800687E
:1015E000C005F5D57DBBDFF81CA0B4F8B0100AF13A
:1015F000200ADAF8000001F4407100F4407005E0C0
:101600002C4402585044025800480258884211D0D5
:10161000DAF80010DAF8002021F4407142F4803248
:10162000CAF80020DAF8002022F48032CAF800203C
:10163000CAF80010D4F8B000B0F5807F21D1FFF0D7
:101640007BFC019019E008E0FFF076FC0199411A5B
:1016500041F28830814210D903252E462078DFF8E8
:1016600030A4C0073DD0A06F182838D026DC80B346
:10167000082829D0102825D12CE0DAF800008007AE
:10168000E2D5D4F8B010C1F30120032858460DD09C
:10169000016821F47C510160B4F8B020DAF8001040
:1016A000C2F30B021143CAF80010D7E7F94A0368E6
:1016B00002EA111223F47C511143ECE720280ED0EA
:1016C00028280CD001250BE00121201D00F192FDFE
:1016D00004E004E00098012101F062F805465DB1E4
:1016E0002E46207880071ED5606F062819D2DFE8C5
:1016F00000F0160C11161616A26FDAF8001021F081
:1017000038011143CAF80010EBE70121201D00F158
:1017100071FD03E00098012101F042F8054675B122
:1017200000E001252E46207840071FD5D4F8900010
:10173000062819D2DFE800F0160C11161616626F93
:10174000DAF8001021F007011143CAF80010EAE7A7
:101750000121201D00F14EFD03E00098012101F060
:101760001FF805469DB100E001252E462078800631
:101770002BD5D4F88C00B0F1405F24D011DC10B32D
:10178000B0F1805F15D0B0F1005F10D116E0D4F851
:101790009020D9F8001021F007011143C9F800107A
:1017A000E4E7B0F1804F0ED0B0F1A04F0BD001258F
:1017B0000AE00021201D00F11DFD03E00098022138
:1017C00000F0EEFF05468DB12E46207840062BD561
:1017D000D4F89800B0F5406F24D011DC10B3B0F508
:1017E000806F15D0B0F5006F10D116E0D4F88C20C2
:1017F000DAF8001021F0E0411143CAF80010E4E7E4
:10180000B0F5805F0ED0B0F5A05F0BD001250AE0E7
:101810000021201D00F1EEFC03E00098022100F001
:10182000BFFF05468DB12E46207800062BD5D4F893
:101830009C00B0F5C04F24D011DC10B3B0F5005FB0
:1018400015D0B0F5804F10D116E0D4F89820D9F813
:10185000001021F4E0511143C9F80010E4E7B0F59D
:10186000004F0ED0B0F5204F0BD001250AE000212B
:10187000201D00F1BFFC03E00098022100F090FF62
:1018800005464DB12E46207800071ED5D4F88000BD
:10189000B0F5805F0AD00FE0D4F89C20D9F8001092
:1018A00021F460411143C9F80010ECE700980221CF
:1018B00000F076FF00B10126D4F88020DAF800109D
:1018C00021F440511143CAF800102078C00613D506
:1018D000D4F89400B0F5807F05D10098022100F083
:1018E0005FFF00B10126D4F89420D9F8001021F44C
:1018F00040711143C9F800102068000316D5D4F8D0
:10190000A00038B1B0F5803F09D0B0F5003F0BD052
:1019100001250AE00021201D00F16CFC03E0009885
:10192000022100F03DFF054685B12E4620684003A8
:1019300022D5D4F88400B0F5801F11D0B0F5001F77
:1019400013D0B0F5401F15D0012514E0D4F8A02025
:10195000D9F8001021F440311143C9F80010E5E72F
:10196000386840F40030386004E00098012100F04D
:1019700017FF054655B12E462068C0031CD5E06C04
:1019800070B1B0F5803F10D0012514E0D4F8842068
:10199000DAF8001021F440111143CAF80010EBE707
:1019A000386840F40030386004E00221201D00F166
:1019B00021FC0546CDB12E462068800005D5009853
:1019C000022100F0EDFE00B10126206880031BD546
:1019D000E06FB8B1B0F5807F10D0B0F5007F11D0C6
:1019E000B0F5407F0ED001250DE02948E26C0838A3
:1019F000016821F4803111430160DDE7386840F46B
:101A000000303860F5B32E462068C00207D5226F3B
:101A1000D8F8001021F000411143C8F800102068E8
:101A2000C00008D5D4F8B420DBF8001021F48041C0
:101A30001143CBF800102068800207D5A26ED8F8B9
:101A4000001021F080711143C8F800102068400098
:101A50000CD5DBF8001021F40041CBF80010DBF8C6
:101A60000010D4F8B8201143CBF8001020680028EB
:101A700007DA0748226D0838016821F04051114308
:101A8000016000E008E086B10120BDE8FC9F000095
:101A900054440258CFFFFF00E26FDAF8001021F43F
:101AA00040711143CAF80010AEE70020EDE70000D6
:101AB00030B500F031F80B4A0B490C4B156814682F
:101AC000C5F3032204F00F048A5C095D02F01F02D3
:101AD00001F01F01D040064A20FA01F119601060A0
:101AE000084630BD18440258BC8110083400002458
:101AF0003000002400B5FFF7DBFF05490968054AFF
:101B0000C1F30211515C01F01F01C84000BD00008B
:101B10001C440258BC811008454970B54548096805
:101B2000434B103B11F0380208D00111082A03D0B2
:101B3000102A0BD0182A0BD0084670BD19688906E8
:101B4000FBD51968C1F3C101C84070BD3A4870BDEA
:101B50003749374D18310C1D24350A680968266845
:101B60002D6802F0030406F00102C1F30511C5F36C
:101B7000CC0515FB02F200EE102AB8EE400AE9B3DC
:101B80002F4ADFED2E0AB7EE001A6CB1DFED2D1AE9
:101B9000012C01D0022C43D002EE101A1068F8EE8E
:101BA000422A81EEA22A1EE01C68A40611D51B68F9
:101BB00001EE901A1168C3F3C103F8EE612AD84010
:101BC00001EE900AC1F30800F8EE611A81EEA22A34
:101BD0000BE001EE901ADFED1C2A00BFF8EE611A4F
:101BE000106882EEA12AC0F3080001EE900AF8EE18
:101BF000611A40EE201A31EE810A00E015E022EE73
:101C0000000A1068C0F34620401C00EE900AF8EE6F
:101C1000600A80EE201ABCEEC10A10EE100A70BDF8
:101C200001EE901ADFED092AD8E7002070BD000010
:101C3000104402580090D00340787D010000003924
:101C4000304402580024744A0024744C20BCBE4B1B
:101C50002DE9F05F04007CD0FF4F2078FE4D18374F
:101C6000DFF8F493103DC00748D0D9F80000396878
:101C700000F03800102815D0182803D101F0030017
:101C800002280FD06068B0F5803F12D010B1B0F5D7
:101C9000A02F18D0286820F480302860286820F40D
:101CA000802009E02868800328D560680028D2D009
:101CB00024E0286840F480302860606888B1FFF034
:101CC0003BF9064609E0286840F480202860F0E7E8
:101CD000FFF032F9801B64287ED828688003F7D58E
:101CE0000CE0FFF029F9064605E000BFFFF024F9FB
:101CF000801B6428F0D828688003F7D4207841F24C
:101D00000308D54E0C3E800753D5D9F8000039683A
:101D100010F038000ED0182801D188070AD0E068EA
:101D2000A8B3296821F0190101432960FFF004F9E3
:101D300082461BE02868400702D5E06800288AD068
:101D4000FEF78CFE40451BD82069402812D0316830
:101D500000E0CCE021F47C3141EA0030306028E042
:101D6000FFF0EAF8A0EB0A000228B5D8286840077F
:101D7000F6D5E5E7306820F47C3040F40030EDE73C
:101D8000207C316821F0FE4141EA0060E6E7FFE790
:101D9000286820F001002860FFF0CEF8824605E0B8
:101DA000FFF0CAF8A0EB0A00022895D8286840077F
:101DB000F6D42078C0065FD5D9F80000DFF898B2D5
:101DC000396800F03800ABF1040B082812D018284D
:101DD00005D101F0030000E0EAE001280AD0E06943
:101DE0000028286838D040F080002860FFF0A4F870
:101DF000824623E02868C00523D5E069802876D193
:101E00001FE0206A202821D0316821F0F84141EA02
:101E10008060306030E000BF94F82010DBF80020D4
:101E200022F07C5242EA0161CBF8001024E000BFAE
:101E3000FFF082F8A0EB0A00022896D82868C005B7
:101E4000F6D5FEF70BFE4045E6D8DAE7306820F01D
:101E5000F84040F08040DCE720F080002860FFF090
:101E60006BF8064605E000BFFFF066F8801B02280D
:101E70009BD82868C005F7D42078000729D5764874
:101E80006169643000298046016811D041F0010188
:101E90000160FFF051F8064605E000BFFFF04CF886
:101EA000801B0228C9D8D8F800008007F6D510E0BA
:101EB00021F001010160FFF03FF8064605E000BF98
:101EC000FFF03AF8801B022872D8D8F8000080078B
:101ED000F6D42078800623D5A0690028286810D081
:101EE00040F480502860FFF027F8064605E02CE11A
:101EF000FFF022F8801B02285AD828688004F7D502
:101F00000EE020F480502860FFF016F8064604E04A
:101F1000FFF012F8801B02284AD828688004F7D402
:101F2000207840074FD5DFF83481D8F8001041F40D
:101F30008071C8F80010FEF0FFFF064605E000BF04
:101F4000FEF0FAFF801B642832D8D8F80000C005E4
:101F5000F6D5414EA068603601280AD008B10528A0
:101F600013D0306820F001003060306820F00400A9
:101F700002E0306840F001003060A06841F2883A29
:101F800090B1FEF0D9FF80460AE0306840F00400CE
:101F90003060EEE7FEF0D0FFA0EB0801514507D816
:101FA00030688007F6D50EE0FEF0C6FF804607E0F9
:101FB00084E000BFFEF0C0FFA0EB080151457DD8D2
:101FC00030688007F6D4606AF0B3DFF88C80D9F807
:101FD000001008F12008C1F3C20103296FD00228C4
:101FE000286820F08070286003D0FEF0A5FF04462A
:101FF00080E0FEF0A1FF064605E000BFFEF09CFF7A
:10200000801B022873D828688001F7D4E26A40F266
:10201000F331386854F8283F884340EA02101843E7
:102020003860217B4FF4FE0C22894FF0FE47208A56
:102030004902267D521E401EA1F5007189B20CEAAC
:102040000040C2F3080200E081E01143761E014324
:10205000014807EA066203E01044025800480258AB
:102060001C3011433B4AC8F80010016821F00101FF
:10207000016011684FF6F876236AB14341EAC30163
:1020800011600168A26921F00C011143016001682F
:10209000E26921F0020111430160016841F48031DD
:1020A0000160016841F400310160016841F4802160
:1020B0000160016841F00101016001E017E01DE0ED
:1020C000286840F080702860FEF036FF044604E087
:1020D000FEF032FF001B022809D828688001F7D5DE
:1020E00035E000BFFEF028FF001B022802D90320C4
:1020F000BDE8F09F28688001F4D428E03968012801
:10210000D8F8000021D0A26A01F0030393421CD149
:10211000E26AC1F305118A4217D1216BC0F30802AC
:10212000491E8A4211D1616BC0F34622491E914279
:102130000BD1A16BC0F30642491E914205D1E16B60
:10214000C0F30660491E814201D00120D0E7002083
:10215000CEE700003444025810B504460068806998
:10216000C00707D02046FFF056FC2068416941F0C7
:102170000101416110BD000070B504000D4603D09F
:1021800094F82C0010B107E0012070BD002084F805
:102190002D00204600F018F8022084F82C0020685A
:1021A000211DFEF07FF8D4E900022946FEF0CAF8AE
:1021B00004480121026842F00042026084F82C10B9
:1021C000002070BD00400052FEF058BE70477047BE
:1021D00090F83D10012901D0012070470B4A0221DF
:1021E00080F83D100168CB6843F00103CB600068C4
:1021F00081681140062906D0B1F5803F03D00168FF
:1022000041F001010160002070470000070001005B
:102210007047000000680349884201D1FEF772BD93
:102220007047000000140040704770B5044690F8F5
:102230007C0001281DD0012284F87C202420C4F8D1
:10224000800020680568026822F0010202602068B0
:10225000826822F060620A438260204600F1BAF987
:102260002268202100201560C4F8801084F87C00CA
:1022700070BD022070BD10B5040003D0D4F88000FA
:1022800010B107E0012010BD002084F87C0020463A
:10229000FFF01CFD2420C4F880002068016821F0B4
:1022A00001010160204600F059FC0128EBD0A06A32
:1022B00010B1204600F0EEFB2068416821F4904107
:1022C00041602068816821F02A01816020680168EE
:1022D00041F0010101602046BDE8104000F1ACB9B9
:1022E000FEE701688A69D243920701D400228A621C
:1022F00000688169C943C90703D0816941F00101C0
:10230000816170472DE9F0410446006890460E4611
:102310008069C043C00635D4002520272068806925
:10232000C043800616D5701CF8D0FEF005FEA0EB69
:102330000800B04201D8002EF0D1606C84F8405003
:1023400040F02000606484F8417084F8425001201D
:10235000BDE8F08121681020C8612068C76120466F
:10236000FFF7BFFF2068084942680A404260606C7E
:1023700040F00400606484F8417084F8425084F8AE
:102380004050E4E70020E3E700E800FE2DE9F041DB
:102390000025904620260F46044626E04246394650
:1023A0002046FFF7AFFF80BB20688069C0438006EE
:1023B00014D420688169C943490701D4218DC9B962
:1023C0001349C661206842680A404260656484F827
:1023D000416084F8425084F8405016E0FEF0ACFDB5
:1023E000A0EB0800B84208D83FB120688069C0431C
:1023F0004007D3D40020BDE8F081606C84F84050E1
:1024000040F02000606484F841600120F3E70000A0
:1024100000E800FE70B516460D4604460FE0324651
:1024200029462046FFF76EFF08B1012070BD681CE9
:1024300005D0FEF081FD801BA84207D835B1206889
:102440008069C0438007EAD4002070BD626C002020
:1024500084F84000202142F02002626484F8411098
:1024600084F84200E1E78068C0F3C00070478068EC
:10247000C0F38000704710B5042404EAD154072348
:10248000C1F3045120448B408A4041699943114370
:10249000416110BD0148FEF03ABE00003C0300243B
:1024A00030B58BB0002468461C2107940894099429
:1024B000FDF768FF1E4804251C4A01218B02C0E974
:1024C000002484604FF49C62C0E9034504754175A3
:1024D000816100F12401047781E81C0004634463F6
:1024E00080F83840FEF02EFA08B172B6FEE71048C8
:1024F00007A90794FDF0A6FF08B172B6FEE70D48E4
:10250000062140F2FF7203928DE8130008486946E5
:10251000CDE904548DF81940FEF026F808B172B6E2
:10252000FEE70348FEF020FB0BB030BD0020024068
:10253000000200240800900C104801220E4B0021DC
:1025400010B50360C0E90112C1608161C161C0E9D9
:102550001112C164016541658165C165FEF02CFC05
:1025600008B172B6FEE705480121FEF7DBF8002846
:1025700001D072B6FEE710BD0010005288020024A0
:102580002DE9F04786B014216846FDF7FBFE52485E
:10259000016841F480610160016801F48061059186
:1025A000016841F010010160016801F0100105911E
:1025B000016841F400710160016801F40071059146
:1025C000016841F004010160016801F00401059116
:1025D000016841F040010160016801F0400105918E
:1025E000016841F008010160016801F008010591EE
:1025F000016841F020010160016801F020010591AE
:10260000016841F480710160016801F480710591F5
:10261000016841F080010160016801F080010591CD
:10262000016841F001010160016801F001010591BB
:10263000016841F00201016000684FF40056DFF8C4
:102640009C80002200F00200314605904046FEF7D3
:1026500000FA0122DFF88890D70248463946FEF793
:10266000F8F9DFF880A0012202215046FEF7F1F9C7
:1026700000240096012569464046CDE901540394A3
:10268000FEF7C8F818486946CDE900540294FEF7F1
:10269000C1F80226694668028DE851001348FEF72A
:1026A000B9F8CDE90075CDE9025469464846FEF710
:1026B000B1F8CDE90065CDE9025469465046FEF710
:1026C000A9F8CDE90054694650460294FEF7A2F8F5
:1026D00006B0BDE8F0870000E04402580008025848
:1026E000000C02580004025800000258001C025856
:1026F000F0B58DB034216846FDF744FE254800242E
:10270000234A2E2100F11C0E40F24E334FF4FC768A
:1027100040F2763702601822446040F2022C846056
:102720000125C46004618EE8CE10C0E9054580F83B
:10273000344080F8354080F83640FEF761FB08B140
:1027400072B6FEE74FF4487004954FF4F071FF2223
:10275000CDE90040CDE90241CDE9052405260994E3
:10276000CDE90A014FF480630A48CDE907368DF8B8
:10277000304000228DF8314069468DF83240FEF03D
:102780009DFC002801D072B6FEE70DB0F0BD000040
:10279000001000503C03002406F018BCFEE70000C7
:1027A0002DE9F047454D044689464FF0000A286858
:1027B000C04380070AD0414E283E306820F0805048
:1027C0003060FEF0B9FB0746B04608E00120BDE8E6
:1027D000F08700BFFEF0B0FBC01B022867D8D8F816
:1027E00000008000F6D4208829684FF4FE0721F00D
:1027F0007C713E0241EA00502860207AA389B4F837
:1028000004C040022D4D2D495B1E227CACF1010C11
:102810001835091DA0F5007080B2521ECCF3080CCB
:1028200007EA034340EA0C00184306EA0262104339
:1028300028600868626920F44060104308600A68F4
:10284000A06922F4007202430A60281D0A6822F47B
:1028500080720A6002684FF6F873E4699A4342EAAC
:10286000C40202600868B9F1000F40F480720A6087
:1028700011D00868B9F1010F11D040F080700860E4
:10288000D8F80000444640F08050C8F80000FEF040
:1028900053FB05460DE0086840F48000EFE740F484
:1028A0000000ECE7FEF048FB401B022801D90320A2
:1028B0008DE720688000F5D5504688E72844025807
:1028C000502010B580F31188BFF34F8FBFF36F8F87
:1028D00005F102FB18B104494FF080500860002058
:1028E00080F3118810BD000004ED00E02E48F0B523
:1028F0002E4A016841F470010160106800F00F0079
:10290000072804D2106820F00F00C01D106028496D
:102910000020274C10340B68264D43F001030B6058
:1029200020600B682B400B60136803F00F03072B2C
:1029300004D9136823F00F03DB1D13601C4C1E4ADF
:1029400018341E4B261D371D2060194C1C4D283491
:102950003060261D3860371D23603B1D35601C1D0F
:102960003A60251D2E1D1860331D226028603260DC
:1029700018600A680E4B134C22F4802260330A6000
:10298000186020686FF30F00B0F1005F03D20E49AA
:102990000120C1F8080143F2D2000C49024B4A035E
:1029A000803B08601A60F0BD88ED00E00020005216
:1029B000004402587FEDF6EA8002010100020202A3
:1029C0000000FF010010005C008000510040005238
:1029D0002DE9F047274B4FF0804A274D0268984277
:1029E000264E274F274C09D0504507D0A84205D086
:1029F000B04203D0B84201D0A04205D1D1F804C002
:102A000022F070024CEA0202DFF87CC0DFF87C8022
:102A10009842DFF87C900FD050450DD0A8420BD0E3
:102A2000B04209D0B84207D0A04205D0604503D0DB
:102A3000404501D0484503D1CD6822F440722A4375
:102A40004D6922F080022A43026098428A68C2627D
:102A50000A68826207D0A04205D0604503D0404595
:102A600001D0484501D10969016301214161BDE8F7
:102A7000F087000000000140000400400008004012
:102A8000000C0040000401400040014000440140AF
:102A90000048014090F82810C90706D00168C36AB1
:102AA0004A6822F400321A434A6090F828108907D5
:102AB00006D50168036B4A6822F480321A434A60E3
:102AC00090F82810490706D50168436B4A6822F43C
:102AD00080221A434A6090F82810090706D5016839
:102AE000836B4A6822F400421A434A6090F8281027
:102AF000C90606D50168C36B8A6822F480521A435E
:102B00008A6090F82810890606D50168036C8A68E7
:102B100022F400521A438A6090F82810490611D511
:102B20000168436C4A6822F480121A434A60416C7F
:102B3000B1F5801F06D10168836C4A6822F4C00297
:102B40001A434A6090F82810090606D50168C26C3D
:102B5000486820F400201043486070472DE9F04396
:102B600004468068D94F87B02268D4E90465E369D8
:102B7000616E304316681D432843D54B0025014341
:102B80003E400E4316602068E268416821F44051DF
:102B9000114341602268A1699A4201D0206A014331
:102BA0009668DFF830C3CC4FCC4806EA0C060E43DB
:102BB00096602168666ACA6A22F00F023243CA62CE
:102BC0002268BA420ED1006800F03800182873D08D
:102BD00047DCB8B3082879D010286FD178E02828CE
:102BE0007ED17BE0BE498A4209D1006800F007002F
:102BF000062875D2DFE800F0546A6C6E7072B9492D
:102C00008A4209D1006800F00700062868D2DFE890
:102C100000F0475D5F616365B3498A4209D100688E
:102C200000F0070006285BD2DFE800F03A5052546B
:102C30005658AE498A420BD1006800F007000628BA
:102C40004ED200E010E0DFE800F02B414345474959
:102C5000A7498A420AD1006800F03800182839D004
:102C6000B7DD2028BBD13CE001203AE0A1498A42EF
:102C700009D1006800F00700062831D2DFE800F033
:102C80001026282A2C2E9C498A420BD1006800F07D
:102C90000700062824D2DFE800F003191B1D1F21BE
:102CA00000201EE09A421BD18C48001D006800F0F5
:102CB0000700062814D202E00CE007E010E0DFE88D
:102CC00000F0030507090B0D02200AE0042008E0CC
:102CD000082006E0102004E0202002E0402000E070
:102CE00080208649DFF818829A42864A4FF40043D2
:102CF0004FEA21174FF000064ED110281AD006DCFB
:102D0000022809D004280BD008287DD10DE0202806
:102D10003ED0402878D13DE0FEF7B8F9014610E0FA
:102D20006846FEF7C5F901990BE003A8FEF05EFBCB
:102D3000049906E01068800604D51068C0F3C1004D
:102D4000C140C1B3606A676838F8102007EB4703D9
:102D5000B1FBF2F0834257D8B0EB073F54D80023C1
:102D600008461946FDF05EF90902020241EA1061C7
:102D700070084FEA370010183A4671410023FDF001
:102D800051F9614AA0F5407191423DD821684CE06B
:102D90003946D7E71946D5E7D4F81CC04FF6EF7986
:102DA0009C4552D108281AD006DC60B101280DD00C
:102DB000042829D10EE039E0102815D0202840D071
:102DC00040287CD13FE0FEF795FE01E0FEF0FAFDE1
:102DD000014610E06846FEF76BF901990BE003A885
:102DE000FEF004FB049906E01068800604D5106824
:102DF000C0F3C100C140C9B1636A606838F81330DC
:102E0000B1FBF3F1490000E059E001EB5001B1FBE7
:102E1000F0F080B2A0F11001494550D84FF6F073A0
:102E20002168C0F3420218401043C8600120A4F892
:102E30006A00A4F868002846E666266707B0BDE881
:102E4000F0833946D8E71946D6E7082819D005DCBB
:102E500058B101280CD0042831D10DE0102815D02C
:102E600020282ED040282AD12DE0FEF743FE01E095
:102E7000FEF0A8FD014610E06846FEF719F9019939
:102E80000BE003A8FEF0B2FA049906E01068800691
:102E900005D51068C0F3C100C1400029C6D0636ADF
:102EA000606838F81330B1FBF3F101EB5001B1FB6E
:102EB000F0F080B2A0F1100149457FF667AF01251F
:102EC000B4E73946EBE71946E9E70000F369FFCFBD
:102ED000000C0058FFF4FF11001001405444025848
:102EE0000044004000480040004C004000500040BA
:102EF0000014014000780040007C00400090D003A6
:102F0000A481100800440258FFFC0F002DE9F0478F
:102F10009A4617460E460446089D4FF000094FF0AA
:102F2000200839E0681C37D0FEF006F8A0EB0A0054
:102F3000A84222D80DB32068016849072CD5C06982
:102F4000C043000528D423684FF40061196221684A
:102F50000B6823F4D0730B6021688B6823F00103A6
:102F60008B60C4F88080C4F88480C4F8888000BF77
:102F7000032084F87C90BDE8F08721680B6823F477
:102F8000D0730B6021688B6823F001038B60C4F859
:102F90008080C4F88480EBE72068C06936EA0000CE
:102FA00004D00020B842BDD00020E4E70120F9E7BA
:102FB000002809DB410900F01F028900012001F10E
:102FC000E0219040C1F800017047090700284FEA4E
:102FD000116104DB00F1E02080F80014704700F07C
:102FE0000F0000F1E02080F8141D704702480068CF
:102FF0004068016849690847C40100240E4808B5C3
:10300000016841F010010160006800F010000090BC
:1030100009485838016841F010010160016821F049
:10302000100101600649054808624FF080600549BB
:10303000C1F8000108BD0000D4440258ED2F00087B
:103040008802002408E000E040F2EF307047000002
:103050002DE9F0470C46497F074600F0C0F8A17FF4
:103060000646384600F0BBF8A17F05463846FFF01B
:10307000BDFBDFF854810246608BA18A534FDFF815
:103080005091401AC8F84000608BA18A401AC8F8D5
:103090001800208BA18A401AC8F81000C8F8342004
:1030A00060694FEA3040C8F844002069C8F83C0025
:1030B0006068C8F80C002068802827D006DC042847
:1030C00070D020286ED0402806D16BE0B0F5807F0C
:1030D0000ED0B0F5007F0ED0207F46EA006040F4AD
:1030E0000030C8F81C00607FA17F884258D166E09C
:1030F000207F384902E03749207F491E01EB0060FC
:10310000C8F81C00E068C8F8200052E0217FA068E1
:1031100046EA016141F40031C8F81C10C8F8245097
:10312000011D2269C8F81420C8F82C106FF0FF02A6
:1031300003784FF610714FF0010513F0FF0303D031
:10314000012B09D0AFF300804388D8F81C008843D6
:1031500002EB032108430CE0237FFF2B00D1002565
:103160004388D8F81C00884302EB0321084340F051
:103170001000C8F81C00D8F81C0040F02000C8F867
:103180001C0001E0FFF016FDD8F81C008006F9D401
:103190001020C8F808001DB1C8F80070BDE8F0871D
:1031A00048460EE0207F46EA006040F40030C8F850
:1031B0001C00C8F824502069C8F81400ECE740F25D
:1031C0000120C8F80000E9E70010005201020200E7
:1031D000010201000A0002000168896A0847002014
:1031E0000C2910B50DD2DFE801F00806070C0C0C15
:1031F0000C0A0A0A0A0A012010BD022010BD05208F
:1032000010BDAFF30080000010B500F10C0141606B
:10321000002202720B46427207496022016000F1EF
:103220002001184600F1C8FC044960232022143014
:1032300005F035FC203810BD908210083149100887
:10324000FFF058BBFFF084BB00F076BA00F088BAFC
:103250007047000070B5061D43F27451451843F2E3
:103260008C540319036100F12C0200F1140186E86B
:103270002600114A0260084600F168FC0F4940F838
:10328000181B00F163FC0E49016043F248510844E9
:1032900000F15CFC0B49251F40F8141B00F07AFA82
:1032A000401B41190246204400F014FA051B28195E
:1032B000FFF05EFB284670BDE0821008B0A7000852
:1032C000048C1008E4A70008704700F59B6399423E
:1032D00003D10168CB6A1146184770472DE9F04FBA
:1032E00091B002F0D7FDE9490025C56340F8401BC5
:1032F00001F0A8FD2C3001F0A5FD2C3001F0A2FD5D
:10330000E34900F5BE72C562016064210586343070
:1033100001F00AFDDF49016000F5367001F0CEFBD7
:10332000383001F0BDFCDC490446016029460575D2
:103330004575857501F013FB04F1180001F0A0FC40
:10334000D64940F8441B01F015FBD54940F8501B05
:1033500001F010FBD34940F8501B02F0C3FE00F10E
:10336000FC0426212046FDF70DF8204602F00CFF54
:103370008562012180F82C504FF6FF7280F82410EE
:10338000C9490160FF21C28502864286828680F893
:103390003610C64980F8375080F83850C44EC0E91E
:1033A0000F51A0F8485000F140014C30D6E90023FD
:1033B00004F1B6FEA0F10C011030D6E9022304F1AD
:1033C000AFFE0561A0F5C664456104F5C967D6E99D
:1033D0000402B849C7E9001442F6E061C7E90202F5
:1033E00004F5CB6001F034FC00224FF4487A11461A
:1033F00004F1400053464FF4F0788146CDF8008048
:1034000002F1D4F800224E461146104601F1ABF904
:103410000022B06204F16C0053461146CDF80080E2
:10342000804602F1C3F8982246469920114601F1E0
:103430009AF940F2BF2BB06204F198005B46182263
:1034400006460F214FF4D47ACDF800A002F1AEF871
:10345000FF221146104601F186F90022B0621146A2
:10346000104601F180F9F06201200146308604F136
:10347000CC00029001F0D0FC02986422002100F1FF
:10348000F0FC029818220F215B46CDF800A002F153
:103490008DF816200090029813231C220A2100F1B7
:1034A0002FFA4FF0060B029800235A460221CDF85E
:1034B00000B000F16AFA0298B422002100F1F5FC94
:1034C00004F57D700121824600F180FBC522972121
:1034D000142001F148F90146504601F0B1FC1421D5
:1034E000504600F1D1FB0121504600F1D8FB029873
:1034F000514600F1CCF9012104F58760009000F1FC
:1035000065FB0098142100F198F8DFF8ACA10122C6
:10351000009803A9CDF80CA0ADF8102001F025FA11
:1035200000221146104601F11EF90146009801F0F3
:1035300087FC0099029801F0DEFA012104F5916000
:10354000009000F143FB0098142100F176F80098F8
:1035500003A9CDF80CA0ADF8105001F006FA002236
:103560001146104601F1FFF80146009801F068FC91
:103570000099029801F0AEFA012104F569700090FB
:1035800000F124FBC5229721142001F1ECF801463B
:1035900004F57770824601F0E2F90098514600F098
:1035A000EFFE0098022101F00CFA0099029800F158
:1035B0006EF94FF4367A8822514604F59B600590E7
:1035C00003F0B4F90420ADF830000520ADF8280070
:1035D00005980CAB0BAAADF82CB00AA901F1A3FB1E
:1035E0007D2000230322CDE900500598072101F139
:1035F000EAFB0598FA22142101F1C8FB0598B421D1
:1036000002F060FD04F2D45051461822C4F8D0757F
:10361000074603F08BF90221ADF824100321ADF821
:10362000285009A8ADF82C100121ADF830100AABD4
:1036300000900BAA38460CA900F080FE0021384605
:10364000FFF0E6FB4946204687F8385001F14DFA75
:103650004146204601F149FA3146204601F145FA3A
:103660000299204601F141FA0599204601F13DFAFF
:103670003946204601F139FA04F21460394604F162
:1036800013FD11B02046BDE8F08F0000F482100851
:10369000F49E0008A885100844841008C8A00008FB
:1036A000489E000864831008489D00084085100863
:1036B00068821008E489100818A800087047C068DC
:1036C000FFF0F0B9704702207047000000487047D3
:1036D000AC00002410B5FFF06BF90149016010BD8A
:1036E000049C00087CB514460D46684603F154FE60
:1036F000BDF80000002806D0BDF802002860BDF823
:103700000400206001207CBD05F026BA0348006853
:10371000C00301D5FEF0D2BF7047000014ED00E0F9
:1037200000F116BC5A2010B5FEF0B6FFBDE81040FF
:103730005820FEF0B1BF000002480122C0F8AC10D2
:10374000426270470010005009215A2010B5FFF75F
:103750003CFC0921BDE810405820FFF736BC0000B2
:1037600009480A49C268C2F30A02521E92B20A808C
:103770000369C3F30A035B1E4B800264416B41F093
:103780000101416370470000001000501800002440
:1037900000F1F4BC00210160704710B50446FFF74A
:1037A00093FD2068D4F80815C26A2046BDE8104091
:1037B000104700F54050A0F838157047FFF058B892
:1037C00030B5044C039D04600171C28003814581C2
:1037D00030BD0000F09C000810B5064C0021606868
:1037E00005F07EFA60684FF0FF31BDE8104005F04B
:1037F00077BA00001C0000240148006803F144BEB1
:103800001C00002402480021006805F069BA00008D
:103810001C00002490F84430002B01D101F19EBC23
:10382000704710B5FFF0D2F90168096BBDE8104090
:10383000084770472DE9F74F84B0814605A804F08A
:103840004CFE00287ED109F1A805B9F8E8400AE04D
:10385000A0B205EBC00105A803F151FA18B1A1B25D
:10386000284606F0DFF8641EF2D5B9F8E8604FF09C
:10387000000AD046761E66D4B0B205A905EBC00496
:10388000204604F036FE00287AD0BDF91400B4F9C1
:103890000010884232DB05A804F01AFE07462046D5
:1038A00004F016FE874229DCBDF91600B4F90210B7
:1038B000884212DB204603F11DFABDF91620BDF83F
:1038C0001A10801A00B2091A09B2ADF81A100029AC
:1038D00038DD1044ADF816004DE005A803F10AFAF2
:1038E0000746204603F106FA874207DC6088BDF8E8
:1038F0001610401A00B2ADF81A003AE0BDF91600F1
:10390000B4F90210884239DB05A803F1F3F9074640
:10391000204603F1EFF9874230DCBDF91400B4F919
:103920000010884215DB204604F0D2FDBDF91420BA
:10393000BDF81810801A00B2091A09B2ADF81810B3
:10394000002901E080E098E07EDD1044ADF814002D
:1039500011E005A804F0BCFD0746204604F0B8FDC0
:1039600087420BDC2088BDF81410401A00B2ADF875
:103970001800002868DD4FF0010801E04FF0010A4F
:10398000761E7FF579AFB8F1000F7FF46EAFBAF114
:10399000000F72D0B9F8E8604FF00008761E6CD4C2
:1039A000B0B205A905EBC004204604F0A2FD58B34F
:1039B000BDF91400B4F90010884226DC05A804F013
:1039C00087FD0746204604F083FD87421DDBBDF9D5
:1039D0001600B4F90210884205A808DC03F18AF940
:1039E0006188401A01446180E188081A0BE003F104
:1039F00081F90746204603F17DF9874205DBBDF8D2
:103A000016006188401AE0802FE0BDF91600B4F975
:103A10000210884227DC05A803F16CF9074620460E
:103A200003F168F987421EDBBDF91400B4F90010F8
:103A3000884205A809DC04F04BFD2188401A0144A6
:103A40002180A188081A0CE070E104F041FD0746CE
:103A5000204604F03DFD874205DBBDF814002188B7
:103A6000401AA08001E04FF00108761E98D5B8F109
:103A7000000F8ED0B9F8E8604CE14EE1B0B205EB32
:103A8000C00405A8214603F13AF918B1B1B228469D
:103A900005F0C8FF05A9204604F02BFD0028EBD057
:103AA000BDF91400B4F900108842BDF91600B4F94C
:103AB00002107DDD884233DDBDF816006188401AB2
:103AC00021880FFA80F8BDF81400401A06B205A844
:103AD00004F0FEFC0746204604F0FAFC391A05A85B
:103AE00001FB08FA03F106F90746204603F102F943
:103AF000381A7043504508DCA4F806802088ADF8D9
:103B00001400BDF818003044D4E0A680BDF81A10A7
:103B100001EB0800ADF81A006088ADF8160094E6D5
:103B200005A804F0D5FC0746204604F0D1FC218806
:103B30008742BDF81400A0EB01000FFA80F8204680
:103B400025DD03F1D7F8064605A803F1D3F8301AAE
:103B5000BDF9161006B2B4F90200411A05A801FB1E
:103B600008FA04F0B5FC0746204604F0B1FC381A08
:103B70007043824508DC05A803F1BCF86080E6804C
:103B80002088ADF8140091E0A4F804805EE004F011
:103B90009FFC074605A804F09BFC381A07B2B9F849
:103BA000E80007280EDAD4F800B0D4F804A000E04A
:103BB0001CE005A804F08CFC52462080A78068F326
:103BC0000F02A3E0B8450EDCBDF818102088ADF850
:103BD000140001EB0800ADF8180005A804F078FC0B
:103BE0002080A78031E6A4F8048026E0884231DAFC
:103BF000204604F06DFC064605A804F069FC301A66
:103C000007B2204603F176F8064605A803F172F8DC
:103C1000301ABDF9161006B2B4F90200BDF914202D
:103C2000411AB4F90000801A79437043814208DCDC
:103C300005A8E68003F15EF86080BDF818003844FE
:103C400038E005A8A78004F043FC2080BDF81A00E6
:103C5000304484E005A804F03BFC0746204604F00D
:103C600037FC874233DA204604F032FC064605A8CA
:103C700004F02EFC301A61880FFA80F8BDF81600A7
:103C8000401ABDF9141006B2B4F90000411A05A893
:103C900001FB06FA03F12EF80746204603F12AF845
:103CA000381A00FB08F0504507DCE680BDF8181014
:103CB00001EB0800ADF81800C7E505A804F008FC02
:103CC0002080A4F804806088ADF81600BEE7BDF837
:103CD00016006188401A0FFA80F8204603F10AF8AE
:103CE000074605A803F106F8381A07B2B9F8E80044
:103CF00007281EDAD4F800B005A8D4F804A0E7809D
:103D000002F1F8FF5246608068F31F425946284688
:103D100005F09BFE761E7FF5B1AEB9F8E860082E7F
:103D200020D2DDE90512284605F08FFE07B0BDE878
:103D3000F08FB8450EDCBDF81A106088ADF816009B
:103D400001EB0800ADF81A0005A802F1D3FF60806E
:103D5000E7807AE5A4F80680BDF81A003844ADF88B
:103D60001A0072E500274FF0FF3A761E6FF0004B05
:103D700042D4B0B2741E05EBC008B8F80410B8F80D
:103D8000060011FB00F002902EE0002C03DBA0B235
:103D900005EBC00100E005A98888CA8810FB02F085
:103DA0000390D8F800200092D8F8040001906846EB
:103DB00001F038FDBDF80400BDF8061010FB01F15C
:103DC000DDE902201044CA17081A01EB5271B0EB6A
:103DD000E10F02DA3746A2460BE0584503DA3746D0
:103DE000A24630B18346641EB4F1FF3FCDDA761EA1
:103DF000BFD5BAF1000F06DAB8B205EBC00105A8CD
:103E000001F010FD12E01FFA8AF005EBC004B8B211
:103E1000214605EBC000064601F004FD0598206030
:103E2000069860603168059170680690B9B22846BE
:103E300005F0F8FD09E5000003484068002802D0BD
:103E40000268D26910477047500100240348406857
:103E5000002802D00268126A1047704750010024FF
:103E60002DE9F04F99B0044680F8341129B10020B3
:103E7000A4F8E80019B0BDE8F08F04F5967004F0DE
:103E80002CFB90B9D4E94B1204F580752046FFF75E
:103E9000D1FC0020009003460246014601A801F033
:103EA0000CFD0168E96240682863B4F8E80098B145
:103EB0000020FD4F80F00105386920B107F11400A2
:103EC00004F00BFB50B1002DD4D001A804F10AF985
:103ED0003E8804F1A80520E00120EAE7F24814300A
:103EE00000F05AFFD7E905122046FFF7A3FC002097
:103EF000009003460246014601A801F0DEFC01687D
:103F000079614068B861E0E705EBC6000168426886
:103F100001A805F09AFD761CB6B2B4F8E800B042EC
:103F2000F2D8E148068804F1EA00169009E01698F4
:103F300000EBC600016842682046FFF77BFC761C58
:103F4000B6B2B4F82A01B042F1D8DFF860A3DAF8CB
:103F5000000090F84800012804D0022877D0D24809
:103F60000688BCE1DFF840B30026BBF800700CE027
:103F7000B8B205EBC000804602F1BCFEB04203DDE2
:103F8000404602F1B7FE06467F1CB4F8E800B8428E
:103F9000EEDCC74800880F2801D9C00800E00120E6
:103FA00081460020009003460246014612A801F017
:103FB00084FCD04653E0D1F890108847074612A8F9
:103FC00002F198FE4844B8420BDDB74209DA12A864
:103FD00002F190FEB8423BDD12A802F18BFE0028F0
:103FE00036DD12A802F186FEB84201DCBE4200DADC
:103FF000374612A802F17EFE3F1A12A802F17AFE9D
:10400000024638B20090AB480021008803B217A8DE
:1040100001F053FC0168129140681390BBF80070E6
:1040200010E005EBC70112AA14A802F18DFE14A836
:1040300004F053FA20B9206814A9426B2046904737
:104040007F1CBFB2B4F8E800B84208D9E9E711E034
:10405000D8F800000168D1F88C200121904712A8FF
:1040600002F148FEB042D8F800000168A3DB096AFB
:10407000884738E190480078012879D00DE18A48D6
:104080004FF00008B5F900600088401C87B226E0B8
:1040900005EBC000814604F01BFA8246B9F906B070
:1040A00005EBC700814604F013FA5045514606DD82
:1040B000B9F90060B846084656450ADB0DE00AD15A
:1040C000B9F90610594500DDB846B9F90000B0420B
:1040D00003DB064601E0B042FBDC7F1CBFB2B4F854
:1040E000E800B8421FFA88F0D2D805EBC00738685C
:1040F000129078681390BDF94C00142801DABDF9CC
:10410000486012A804F0E4F9801BADF84C0012A836
:10411000ADF8486000F010FE12A804F0DEF938BBDC
:10412000BDF94E00142800DD1420BDF84C3081B2DA
:104130005E48BDF84A2000680091BDF84810066846
:10414000D6F88460B0470646ADF84E0012A800F0DD
:1041500023FE206812A9426B20469047B888801B36
:1041600000B2B88020B91FFA88F1284605F05AFC41
:10417000B4F8E800002882D1B5E04FF000092846E5
:1041800002F1B8FD064648480088401C87B228E086
:1041900005EBC00005EBC708B0F902A0B0F90410A8
:1041A000B8F90200504508DAB946404602F1A2FDCE
:1041B000504551460CDD0E4611E00DD1B8F9040012
:1041C000884200DDB946404602F194FDB04206DC6B
:1041D000404602F18FFD01E0B04200DA06467F1C46
:1041E000BFB2B4F8E800B8421FFA89F0D0D805EBA6
:1041F000C007B7F90600142803DA384602F17AFD41
:104200000646384604F069F9F0BB12A800F165FAD9
:104210003888ADF84800B7F90200ADF84A00B9880F
:10422000301A1428ADF84C1000DD142086B2384640
:1042300002F160FDBDF94A10401AB04205DC384673
:1042400002F158FDBDF94A10461A1848B1B2BDF83E
:104250004C30BDF84A2000680091BDF8481006684F
:10426000D6F88460B047ADF84E0012A92068426BC2
:10427000204690477888BDF84E1008447880F8882A
:10428000BDF84E10401A00E007E000B2F88020B9F7
:104290001FFA89F1284605F0C5FBB4F8E8000028AC
:1042A0007FF46BAF1FE0000050010024C401002424
:1042B000BC010024BA010024B401002405EBC600AF
:1042C000016812914068139012A804F006F920B911
:1042D000206812A9426B20469047761CB6B2B4F80B
:1042E000E800B042EAD80D48007800283FF4C2AD9B
:1042F0000020A4F82A010A48048809E001A800EB7C
:10430000C40001684268169805F09FFB641CA4B2C3
:10431000BDF84400A042F1D8ACE50000B50100248E
:10432000500100240022A0F8842011464318491CA3
:10433000202983F88820F9DB704770472DE9F04188
:10434000098800F12E07069CC1851188018619880D
:104350004186218804468186384604F02BFA06B24D
:10436000384602F111FD05B220683146426B204605
:10437000904720682946826B2046BDE8F0411047EF
:104380008162704710B526210446FBF7FBFF0E48FB
:104390002060201D00F1A1F9083000F19EF90021F4
:1043A0008160C160012201618182C1820176427611
:1043B000064A40F80C2CC16147F6FF710184FF21C9
:1043C00080F822100C3810BD74A60008B89D0008B3
:1043D00030B5044C039D04600171C28003814581A6
:1043E00030BD0000349E0008012101727047704703
:1043F00030B4029C01600021C0E90112C160C0E933
:104400000F34017401860183018730BC00F0B7B915
:1044100070B51C460B46A1F5C06605460498B6F576
:10442000407F216805D20A4601462846FEF0AEFECE
:1044300013E0A2F560637F2B05D80A4601462846A3
:1044400000F07BF809E095F8590038B1A2F510604A
:10445000023803D12846FEF061FE2060206810B1CA
:1044600002F118FE18B1002085F8590070BD012036
:10447000FAE770B500F11A050446008EB8B1A98AB2
:10448000401E35F81160E882481C80B2A8820A28D4
:1044900001D30A38A882204600F00CF9208B123490
:1044A000022801D2401CE080A08810B103E0AFF3E5
:1044B00000800220A08080B2401E80B2A08024F83C
:1044C0001060304670BD2DE9F04700F112050C4632
:1044D0000021DDF8208017E0561AB5F806C0761ED8
:1044E00034F8027BB6B2B44501D8AFF30080B5F81A
:1044F00004C06644B6B2022E00D3B61E35F816606C
:10450000BE4211D1491C89B29142E5D3002600F187
:104510001A0903EB08070CE034F8025B3146484601
:1045200003F1A0FDA84202D00020BDE8F087761C70
:10453000B6B2B742F0D80120F7E72DE9F05F5FEAA5
:1045400002088B4604464FF0000921D098F80D0070
:1045500004F1440A98F8071000F01000B8F804506D
:1045600041EA0016A5F63161F7101E2953D2DFE8A3
:1045700001F0185252181818184141415252525223
:1045800052525252525252521818181818181818DB
:10459000A4F852904846A4F85490A4F85690BDE868
:1045A000F09F04F11A0005F054F940F63361884297
:1045B00008D1DBF80000C2685846904704F018FAAA
:1045C000A4F85200F119B4F852000E2208444146F2
:1045D00024F8520F5046FBF056FDB4F90010504637
:1045E00002F0B4FF14F8050C2179401A04F8050C08
:1045F0005046D4E70E2241465046FBF044FD34F8C5
:10460000540FC01B01B2504602F0A0FF2088F119E0
:10461000401A2080ECE7A5F560601B3822D0A5F594
:1046200060601D381ED0A5F560601F381AD0404666
:1046300004F0DEF9A4F85200A5F56060093840F6F0
:10464000136A21D055451FD0A5F5606019381BD0DD
:10465000A4F85690404604F0CBF9801BA4F854000F
:1046600040469CE76D1E5A46ABB24146204603F0D9
:1046700095FA04F0BDF9A4F85200404602F10AFD93
:10468000810801EB501012E0404602F103FD554550
:10469000074602D140F60C6500E06D1E5A46ABB2EB
:1046A0004146204603F07AFA02F1F4FC381AA4F8E5
:1046B0005600CFE770B500F11A06054613E0288FC3
:1046C00005F13204B8B1A188401E34F81110E08021
:1046D000A088401C80B2A080022801D3801EA08048
:1046E000304605F0BFF8288F70B1304605F0E2F98A
:1046F0000028E4D008E0AFF300802846FEF070FE0A
:104700000146304605F0AEF8304605F0D3F90028F2
:10471000F3D070BD70B50546C06B58B305F11A00F3
:10472000044605F096F828B32846FEF00AFDE08A14
:10473000012812D9A08A401C80B20A2800D30A3866
:1047400040F63F16214634F81000B04212D1084618
:1047500005F07FF8E18A012901D8AFF30080A18A32
:10476000491C89B20A2900D3002124F81100A08A2B
:1047700024F810602846BDE87040FFF77ABEFFF7C6
:1047800099BF704710B504464068016809688847BA
:1047900000280BD1607A002808D0207A002805D1A3
:1047A0002068416A2046BDE81040084710BD70B53A
:1047B00004460120207260680168896988470546BF
:1047C0000068402832D00CDC04281CD004DC01280E
:1047D0002CD0022815D122E008281AD0202810D188
:1047E00024E0B0F5007F21D005DC80281ED0B0F594
:1047F000807F06D11AE0B0F5806F17D0B0F5006F5A
:104800000DD0AFF300802068297F826B204690474F
:1048100010E02068297F826B2046904703E02068E3
:10482000C16B204688472068426B05E02068C16B59
:10483000204688472068026B29462046BDE8704024
:10484000104700002DE9F04F87B08146DDE9178C55
:10485000DDE91367DDE911451098DDF864B0DDF896
:1048600058A08DE8F111484601F116FD0549159A49
:1048700040F8181B80E8040C1A99C16007B018387A
:10488000BDE8F08FEC8310082DE9F04705461A4487
:10489000DDE9090702EB4202541800EB400000EB8F
:1048A0000409287AFF282CD017F8010B297A10FB6D
:1048B00001F000F09CFFA97D0646C0F1FF082078BA
:1048C00011FB06F210FB082080B200F090FF207070
:1048D000697D607811FB06F210FB082080B200F0C1
:1048E00086FF6070297DA07811FB06F210FB08207E
:1048F00080B200F07CFFA070E41C4C45D4D3BDE82E
:10490000F08717F8016BFF2E23D0A97DC6F1FF08B1
:10491000207811FB06F210FB082080B200F067FF40
:104920002070697D607811FB06F210FB082080B2D0
:1049300000F05DFF6070297DA07811FB06F210FB8E
:10494000082080B200F053FFA070E41C4C45D8D37F
:10495000D5E7A87D2070687D6070287DF4E70A0C9B
:1049600002750A0A4275817570478988A0F840105F
:104970007047704710B538210446FBF703FD204609
:10498000FFF0D4FA0A4C002208494FF6FF73016089
:104990004021C0E90E240B5280F844202E21A0F8BB
:1049A0004620A0F84810C26410BD0000A88410087A
:1049B00018A800080149016070470000A884100889
:1049C000704780F8341070472DE9F0430546406980
:1049D00087B00C46D0F8148095F8340003F18EFBB4
:1049E000074622464146284602F14BF80646224633
:1049F0004146284603F08BFB0246334601A8294670
:104A0000009703F059FB002C17DD601E414602B2EF
:104A10002846164602F135F8814632464146284678
:104A200003F075FB02464B4603A82946009703F0A6
:104A300043FB03A901A800F0F5FE404601F1D7FFB2
:104A4000401EA04217DD641C414622B2284616468D
:104A500002F117F8044632464146284603F057FB58
:104A60000246234603A82946009703F025FB03A925
:104A700001A800F0D7FE404601F1BCFF06464046C3
:104A800001F1F7FF0446404601F1C2FF0021024652
:104A900005A82346009600F010FF01A9024603A8CE
:104AA00002F152F9DDE90301CDE90101286801A90C
:104AB00002692846904707B0BDE8F08310B500F0C2
:104AC000BDF803490160022180F8341010BD0000D8
:104AD000589F000838B504460D46603002F01EFDB0
:104AE000B4F96A000022B4F96830114600902846F3
:104AF00000F15CFD38BD38B504460D46E43002F0E7
:104B00000DFDB4F9EE000022B4F9EC30114600902E
:104B1000284600F14BFD38BD3EB5054608790C46E8
:104B2000022824D0E08802AA298F401A01B22868FE
:104B3000D0F8B03028469847002818D0207908B11E
:104B4000012814D1D5F82001002810D00168C968C7
:104B5000884700280BD0BDF808006A46ADF8000071
:104B60000194D5F8200101688B68294698473EBD1D
:104B7000343002F1B2B970B5D0F8E0400D460646C7
:104B800005E020682946426F20469047A469002C22
:104B9000F7D1D6F80C4105E020682946426F20463F
:104BA0009047A469002CF7D170BDC02230B41152D7
:104BB000EC221152B0F894309022CB1A1352B0F874
:104BC0006830B0F894402344CB1A8387018130BC0D
:104BD000FEF0E6BE6A2230B4115296221152B0F8AD
:104BE000EE30EA22CB1A1352B0F8C230B0F8EE40E1
:104BF0002344CB1AC387418130BCFEF0D1BE70473D
:104C000010B50446006801682046884708B1AFF334
:104C100000802069A168401C814200D8401A2061B0
:104C200010BD4168006901EB40107047D0E90310E6
:104C3000814201D1012070470020704710B5FFF775
:104C4000A1FB024901600121016310BDF08610083B
:104C5000014AC2E9000170479001002401488068C0
:104C600070470000900100240148C06870470000B0
:104C70009001002401480069704700009001002461
:104C800010B5FFF05BF9054901600A21816301213C
:104C900080F83C100021016410BD000070871008EE
:104CA00070B50446144E0020FF21A080E0802172E0
:104CB0001049E06021602061316891F8760008B108
:104CC000C86C00B988680168496A884701280DD016
:104CD00000253068C06C30B10168496A88470128F6
:104CE00000D0002005431DB1204670BD0125F0E72E
:104CF000AFF30080F8871008C401002410B5044603
:104D0000B0F91A01B4F9181188420CDB2046FEF004
:104D1000B0FE2068D0F8A810204688472046BDE89D
:104D20001040FFF725BF10BD10B5FFF0DBF80149BB
:104D3000016010BD50A1000808491CB500240A8874
:104D400007490988ADF80040ADF80420ADF80240ED
:104D5000ADF80610694600F005F81CBDBA01002444
:104D6000BC01002410B504460A48007800280FD082
:104D700001280DD12088A28810440A46401E2080B8
:104D8000A11C2046FFF046F8A088E188A180E080C1
:104D900010BD0000B4010024094910B509780029AC
:104DA0000DD001290BD1074C4388C1880288248883
:104DB0000B44E31A0380428082888180C28010BD48
:104DC000B4010024BA010024C26A5143FFF074B850
:104DD00010B59142044601D1AFF300808A4202DA55
:104DE000084611460246D4F84001884203D1D4F85F
:104DF000440190420FD0C4E9501204F1600002F166
:104E00006CF804F1340002F168F804F18C00BDE89C
:104E1000104002F162B810BD70B5C56A0446C162A7
:104E2000D0F834112A4602F08CFFC4F834012A4627
:104E3000D4F83011204602F084FFC4F8300170BD70
:104E40004163704710B526210446FBF79BFA2046C4
:104E500001F09AF90349FF22016080F82620002220
:104E6000826210BD18881008704700002DE9FF4FBE
:104E700089B0884604466846DDE91665DDE91A977B
:104E8000DDE918BAFFF054FDCDE90078ADF8146003
:104E90002046ADF81650ADF818B08DF81C9000F013
:104EA0008BF8DDE90B120346204603F07BFA0490F1
:104EB00010484089ADF81A0000F016F90168496AF7
:104EC00088478DF81E008DF81D003EB135B1206871
:104ED000416B204688470099084201D1AFF300801A
:104EE000CDF80CA0606801684A68694690470DB02B
:104EF000BDE8F08FB401002410B50446FFF050F86F
:104F00002068D0F8A0102046BDE8104008470000F7
:104F100010B504460C48407858B994F84800022867
:104F200007D06068FEF02AFB18B16168487A002853
:104F3000FCD0FDF031FE00212046FFF04EF8204667
:104F4000BDE8104000F038B8B40100242DE9F04F5E
:104F500089B0044612A81D4616468B4690E8800785
:104F600000F0C2F80168496A88470A4A0221012311
:104F70005289CDE907105946CDE905328DE8A007E1
:104F8000206800223346856B2046A84709B0BDE85B
:104F9000F08F0000B4010024012180F84B1080F84C
:104FA00069107047416801224A72406801680969C6
:104FB0000847FEF721BC000010B5044606484078BB
:104FC00040B12068C16A20468847E16B884201D120
:104FD000206C10BDE06B10BDB4010024012280F8EC
:104FE000741080F8752070472DE9FE430F46044683
:104FF000806998460A99164680B30022029202AA56
:10500000CDE90012016832460D683946A847154DB2
:105010008146A5F80A8000F067F80168496A884768
:105020000E2818D2DFE800F0070F1B1B1B1B1B1BF1
:105030001B1B1B1B1B1B6889029906FB007040424F
:1050400001EB400006E06889029906FB0070A0EBC6
:1050500080000844E0634846BDE8FE83FFE7AFF305
:1050600000800000B401002410B529B13C3080E874
:105070000E001AB1012002E0AFF3008000200449C5
:1050800008700BB1012000E000200249087010BD3B
:10509000B5010024B6010024F0B50E4A0E4B114CA8
:1050A00090F874C090F834E00C4D0D4EF445118822
:1050B0001888277805D0002F0BD129800127308050
:1050C00004E0002F05D0288000273180198010804F
:1050D0002770F0BDBA010024BC010024BE010024E9
:1050E000C0010024B40100240448016891F876004E
:1050F00010B1C86C002800D188687047C401002432
:10510000FEB504460068D0F8A41020468847594EE2
:10511000002500287ED0012000F082FB94F8660074
:1051200084F8670084F8665084F84B5094F8750052
:1051300030B12068D0F8B8102046884784F8755000
:1051400094F84A00616868B1002048720127F7703E
:10515000FDF03CFD01688A6B0121904794F86700DF
:1051600010B103E00120F0E784F86770FDF02EFD38
:1051700001684969884754F8580F016809698847E8
:10518000E07B401EC0B2E073217C583C09B100288E
:10519000ECD13079401C40B2307194F964108142F6
:1051A00014DC35716A46E0680168CB6801A998474C
:1051B0000028206806D0DDE90021D0F8B030204674
:1051C000984703E0D0F8B410204688478DF808507F
:1051D000606950B10168CA6802A9904728B1A06D02
:1051E0000168CA689DF80810904704F11C0000F19E
:1051F000EBFA94F86C0068B3206901680969884784
:105200000746206F00B92767206F1B49381A88426C
:1052100020D900E024E02069016889698847216F6E
:105220007A1A6421B2FBF1F2B0FBF2F0002802DC42
:1052300084F8651008E0642802DB84F8655003E018
:10524000C0F1640084F8650020690168CA69002122
:1052500090472767FDF0BAFC01688A6B00219047F0
:105260002068D0F8A810204688470120FFF034FAC3
:10527000F570FEBDB401002400E1F5052DE9FF4FF6
:105280008BB0064602A8DDF87880DDE91F47DDE92E
:105290001C59DDE919BAFFF04BFB0B2C08D0022C8E
:1052A00008D0FF2D02D3B9F1000F42D0042009E04D
:1052B000802007E0FF2D02D3B9F1000F01D040207C
:1052C00000E0202002900C9803900D980490ADF817
:1052D0001CB0ADF81EA01B98ADF8200030468DF82C
:1052E0002450FFF769FE189A03460E993046CDE91F
:1052F000008701F14EFC8DF82540BBF1000F0690B0
:10530000ADF822808DF8267009D0BAF1000F06D0D2
:105310003068416B304688470299084201D1AFF3AB
:105320000080706801684A6802A990470FB0BDE824
:10533000F08F0120C6E700002DE9FF4F89B0044639
:1053400016A81D46164690E8800FFFF7CDFE0168AF
:10535000496A88470849002233464989CDE9061041
:1053600008908DE8A00F20680A99856B2046A84711
:105370000DB0BDE8F08F0000B40100242DE9F04726
:105380008AB08A460DF1480EDDE918419EE8E01327
:105390000DF1040ECDE90741294600938EE8C213B2
:1053A0000168134600228C6B5146A0470AB0BDE845
:1053B000F087406801688968084704460068816F83
:1053C000204688472068016F20468847FEF704FA88
:1053D0002068816EF8E710B5002A044688B018D01E
:1053E000012A18D0022A24D0032A12D1B4F90400C9
:1053F0000090C888B4F906306188C01AB4F900205A
:10540000401A01B205A800F058FA0168216040680E
:10541000606008B010BDB4F9040000908988B4F948
:105420000630081A2188401AB4F9021002B201A805
:10543000E9E7B4F906000090CA88B4F90430101AFC
:105440006288801A02B288882188C01A401A01B284
:1054500003A8D8E72DE9FF4F00269B4681B092466E
:1054600089463446B046354621E00020009020466B
:1054700000F0CAF900B9A04601986B464A46594661
:10548000FDF001FE040014D00A2C12D0009868B17F
:10549000848801F1FFFD0746D9F80000009A4146D3
:1054A000C36B484698473844304486B26D1C554516
:1054B000DBDB05B03046BDE8F08FF0B5DDE9054532
:1054C000DDE90767DDE909CE016004714771867186
:1054D00082608581837380F80FC080F810E0F0BD92
:1054E0002DE9FF4FD9B01C468946DDE966A55FEA84
:1054F0000A0071D0206800286ED0A07B00286BD0F5
:10550000106856905068002257901146B9F906006D
:10551000009035A8B9F9043000F0CFF9A27935A987
:1055200056A8FFF758FF35A9A2790846FFF753FFA1
:1055300007A8FDF0D3FF20680168896C88470646FC
:1055400020680168496C884703462A4607A8AB468D
:1055500051460096FEF74CFF207900B101208046AD
:1055600020680168096B8847B4F90C100D18002DEC
:1055700003DDBDF95A21824201DA002602E050180B
:1055800090FBF5F61EA8FDF0A9FF207C78B12068FD
:105590000168896C8847074620680168496C88471C
:1055A00003465A461EA851460097FEF721FF217C6C
:1055B0002068BDF8D820CDE9000163791EA94EA866
:1055C00000F0C6F8207C28BB39E0BDF9DA00B0EB6A
:1055D000450F02DA012101E099E000214EA8FEF01A
:1055E0007AFFBDF84A7103E0617907A8FFF792F8E6
:1055F0007F1EBFB2F8D2BDF8D600761E2844ADF8A3
:10560000D600BDF8DA00401BADF8DA00BDF838016D
:1056100000287CD0002ED8DC13E007A8FEF729FF75
:10562000002874D00A280AD1BDF8D6002844ADF865
:10563000D600BDF8DA00401BADF8DA00761E002E69
:10564000EBDC00270DF5AC7B0DF11C0A207C00265D
:1056500050B1BDF9DA00B0EB450F01DA012100E0ED
:1056600000214EA8FEF037FFB8F1000F25D05C22D4
:1056700007A937A8FAF007FD207C10B1BDF8520148
:1056800006E02168002337A847F6FF72FFF7E2FE25
:10569000217900B2012902D0022907D00EE0BDF91C
:1056A000D810081A00EBD070401004E0E27BBDF87F
:1056B000D8101044081A06B200E0E67BBDF8D4000A
:1056C0003044ADF86001207C10B1BDF84A0101E022
:1056D00047F6FF709DF856114A46CDE9050158A9D5
:1056E000CDE9001B02A981E89004BDF9D630002164
:1056F0005998FEF0D3FD002817D1BDF8D6002844F4
:10570000ADF8D600BDF8DA00401B00B200E00CE0B6
:10571000ADF8DA00217C09B1A84206DB56A801F1F8
:10572000E9FABDF9D610884290DA5DB0BDE8F08F95
:1057300030B5C58A448AED1A2C444482848A2244B6
:10574000428362188282C382028B511A018330BD68
:1057500070B504460020DDE90456208061602372A4
:105760006672E56022826082A082E082208360838C
:10577000A083A0772868416928468847050019D08A
:10578000E0680168CA6829469047064601F182FC34
:10579000A083607A04280DD1E06832460168CB6BA3
:1057A000294698470546304601F174FCA18B2844F0
:1057B0000844A083204670BD70B514460D462BB139
:1057C000012B07D0022B09D0032B0BD0B0F902001C
:1057D000104470BDB0F90200084470BD01F18AFAAE
:1057E000001B02E001F186FA401B401E70BD00EB79
:1057F0001020401CC0F30720704783881944818023
:10580000C1881144C1807047A0F57E41FF3905D0A1
:10581000A0F500510B3901D00020704701207047DE
:10582000704770472DE9F04704460D46084602F0E0
:1058300054FE00283FD1204602F04FFE38B12888A0
:10584000208068886080A888A080E88832E0B4F969
:105850000000B5F90010884200DB0846B4F9026088
:105860008046B5F90200864200DB0646204602F07B
:105870002FFE0746284602F02BFE874201DD204618
:1058800000E0284602F024FE8146204601F132FA6B
:105890000746284601F12EFA874201DD204600E046
:1058A000284601F127FAA4F80080801B6680A9EB46
:1058B0000801A180E080BDE8F08710B5029C01805E
:1058C00042808380C48010BD0149016070470000A0
:1058D000B089100818B10021020C02D003E020208A
:1058E000704710210004020E01D100020831020F9E
:1058F00001D10001091D820F01D18000891C0028FF
:1059000000DB491C0846704777B5044690F8A400B0
:1059100081B000282CD003AA204602A901F15CFA2C
:1059200004F1080102A801F1CCFA04F10C01029083
:1059300003A801F1C6FA039004F11400031F0090BC
:1059400003AA204602A901F161FA054694F8B000C5
:1059500004F1300618B365B110EA050109D00D460F
:105960000299AC20C4F8A8100399015184F8B050F2
:105970007FBD94F8A51069B184F8B1003046D4E930
:105980002A12A534FDF746FF002020700120607028
:10599000A53C04E0D4E92A123046FDF00DF9DDE91A
:1059A00002123046FDF008F9DAE77CB5044690F8BB
:1059B000A4000D4690B394F8740008B100207CBD9B
:1059C00094F8A60050B360680168896E8847684300
:1059D00000EB1020401CC0F30725FDB12046FEF06F
:1059E000AAFF60680168096E8847B4F8A010B4F88F
:1059F000A2208180C28060680168096E88470572B4
:105A000004F1180560680168096E8847CDE9005007
:105A100004F13000694603F07FFE7CBDFFE7012002
:105A2000FBE70000F0B589B015467A4AC0E90021CD
:105A300000228260C260026142611830FDF012FEF5
:105A4000183000F081FD483001F016FD002380F889
:105A50002430A0F178040385438580F82C300120A0
:105A600084F8A500A82084F8A6300351AC20035187
:105A7000B42084F8B03084F8B1300351B820035119
:105A8000FEF0F6F8002877D060680023018940898D
:105A9000ADF81830ADF81C102946ADF81A30ADF845
:105AA0001E0006980090079801906846FEF01BFEC5
:105AB0000098049001980590DDE90401CDE9020108
:105AC000606801688A6A02A99047616804A8091D94
:105AD000FFF748F902A8FFF72FF9BDF91400FEF00F
