:020000040800F2
:10000000408E002401001008B9220008091E0008D3
:100010009529100861060008F9301008000000005A
:10002000000000000000000000000000B90200080D
:10003000210110080000000015030008B52B10086E
:100040001B0010081B0010081B0010081B001008E4
:100050001B0010081B0010081B0010081B001008D4
:100060001B0010081B0010081B0010081B001008C4
:100070001B0010081B0010081B0010081B001008B4
:100080001B0010081B0010081B0010081B001008A4
:100090001B0010081B0010081B0010081B00100894
:1000A0001B0010081B0010081B0010081B00100884
:1000B0001B0010081B0010081B0010081B00100874
:1000C0001B0010081B0010081B0010081B00100864
:1000D0001B0010081B0010081B0010081B00100854
:1000E0001B0010081B001008000000001B00100877
:1000F0001B0010081B0010081B0010081B00100834
:10010000050700081B0010081B0010081B00100842
:100110001B0010081B0010081B001008792600089F
:100120001B0010081B0010081B0010081B00100803
:100130001B0010081B0010081B0010081B001008F3
:1001400000000000000000000000000000000000AF
:100150001B0010081B0010081B0010081B001008D3
:100160001B0010081B0010081B0010081B001008C3
:100170001B0010081B0010081B0010081B001008B3
:100180001B0010081B0010081B0010081B001008A3
:100190001B0010081B0010081B0010081B00100893
:1001A000492610081B001008150110081B00100834
:1001B0001B0010081B0010081B0010081B00100873
:1001C0001B0010081B0010081B0010081B00100863
:1001D0001B0010081B0010081B0010081B00100853
:1001E0001B0010081B0010081B0010081B00100843
:1001F0001B0010081B0010081B0010081B00100833
:100200001B0010081B0010081B0010081B00100822
:100210001B0010081B0010081B0010081B00100812
:100220001B0010081B0010081B0010080000000035
:100230001B0010081B001008000000001B00100825
:100240001B0010081B0010081B0010081B001008E2
:100250001B0010081B0010081B0010081B001008D2
:100260001B0010081B0010081B0010081B001008C2
:100270001B0010081B0010081B00100800000000E5
:100280001B0010081B0010081B00100800000000D5
:10029000000000001B001008DFF818D000F0F6F88E
:1002A00000F0ACF80048004751751008AFF300802B
:1002B00000F0CAF8408E00242C4B19680868B0E89A
:1002C000F04F80F30988BFF36F8F4FF0000080F389
:1002D000118870470000000008480068006880F33B
:1002E00008884FF0000080F3148862B661B6BFF34F
:1002F0004F8FBFF36F8F00DF00BF00BF08ED00E03E
:10030000DFF80C00016841F470010160704700BF24
:1003100088ED00E0EFF30980BFF36F8F134B1A688D
:100320001EF0100F08BF20ED108A20E9F04F10607A
:1003300009B44FF0500080F31188BFF34F8FBFF323
:100340006F8F07F0BFFC4FF0000080F3118809BCED
:1003500019680868B0E8F04F1EF0100F08BFB0EC45
:10036000108A80F30988BFF36F8F70475000002414
:10037000EFF3058070472DE9F05F054600209246B7
:100380009B4688460646814640241BE02846414657
:1003900047462246FFF07EFE53465A46C01A914118
:1003A00010D3114618462246FFF065FE2D1A67EB62
:1003B00001084F46224601200021FFF05CFE17EBAA
:1003C00000094E41201EA4F10104DFDC48463146FD
:1003D0002A464346BDE8F09F40EA01039B0703D04D
:1003E00009E008C9121F08C0042AFAD203E011F874
:1003F000013B00F8013B521EF9D2704770B5054C25
:10040000054D03E0206820448047241DAC42F9D10B
:1004100070BD00001C9010082C90100830B50B46E1
:10042000014600202022012409E021FA02F59D4224
:1004300005D303FA02F5491B04FA02F52844151EF8
:10044000A2F10102F1DC30BD2DE9F0410646FFF0DA
:1004500031FE8046454613E016B1E068B0420ED149
:1004600020682860D4E90101D8F800708847204648
:1004700007F03EF9D8F80000B842EBD100E025467D
:100480002C68002CE8D1BDE8F0810000064C074D37
:1004900006E0E06840F0010394E807009847103454
:1004A000AC42F6D3FFF7FCFEEC8F00080C9000087E
:1004B0007047000070B53A4905460068884202D08E
:1004C000384A904202D1D1F8080302E03648D0F809
:1004D000080310F4403F11D001F162FB0446686844
:1004E000B0F5803F06D0B0F5003F03D0B0F5403FF7
:1004F00026D101E0000C17E0A40821E04FF4002011
:1005000000F1A6FC044668688103890B18D18114A8
:100510000C2915D2DFE801F0140606060606060BC4
:100520000D0F1113800C4000B4FBF0F408E0240917
:1005300006E0640904E0A40902E0E40900E0240AFA
:1005400000F0F6FE41F20301884208D817488442C1
:100550002868816813D821F48071816070BD1449C6
:100560006008884204D82868816821F44071F4E763
:100570001049884206D82868816821F4407141F406
:100580008071EAE70C4988422868816804D821F420
:10059000407141F40071E0E741F44071DDE7000093
:1005A000002002400021024000600258002D31016D
:1005B000105E5F0020BCBE0040787D0170B504462F
:1005C0000068816811F0010F3DD181681F4A114216
:1005D0002AD18168D5432940491C816000F1F8F88F
:1005E0001B4B064620681B49984201D0884201D126
:1005F000194A00E0194A9268884202F01F0201D1AC
:10060000194600E00146814218D0BAB11BE081686A
:1006100011F0010F03D181682940491C816000F16C
:10062000D7F8801B022809D9606D40F01000606582
:10063000A06D40F00100A065012070BD2068016838
:10064000C943C907E3D1002070BD00003F0000800E
:1006500000200240002102400023024000630258B3
:10066000FEE70000214A30B5136823F00103136050
:100670001F4A1368C3F30B140123A4F54065243DFE
:1006800006D01268C2F30B12A2F54064273C17D1C2
:10069000184A1268A2B9184A14684FF08A45B5EB97
:1006A000045F18D01468C4F30B04A4F58065833D7F
:1006B00011D01268C2F30B02A2F58064853C0AD007
:1006C0000E4A93609368002BFCD11060106888423A
:1006D00009D0002030BD0A4A13601368002BFCD1FA
:1006E000074A083AF1E7012030BD0000002000E091
:1006F00000ED00E0002004E00010005C003002404B
:10070000084C0258014801F103BD0000780500249F
:10071000F0B5D1E90843CD690A68C2B10268254342
:1007200022F4F84213431D430560D1E90125D1E9C4
:1007300003364C692A434568334389691A43EB0BF6
:100740002243DB030A431A4342600020F0BDD1E993
:10075000012ED1E9036CD1E9057142EA0E0246EAA5
:100760000C0632433A430A4301682A4322431A43A0
:100770006FF30E010A430260E7E7426943F6FE7336
:100780009A4342EA41014161002070472DE9F04758
:10079000044690F8500000270E4601289AB014D065
:1007A000DFF8F880012122684FF0000984F850102A
:1007B00042450ED13A4D0095284601F0A7FB8246EE
:1007C000206801F0A3FB60B10EE002201AB0BDE882
:1007D000F087616D84F8509041F02001616501203F
:1007E000F4E7BAF1000F09D0606D012740F0200056
:1007F000C4F85400384684F85090E7E72068414632
:10080000884201D0A84201D1264800E0264840F69F
:100810001F72D6F800C0254BBCF1000F23D0D0F8D2
:1008200008C0D6F804802CF4404C4CEA080CC0F800
:1008300008C0D4F800C08C4501D0AC4507D1896808
:10084000AB6801F0010103F00103194302E099686C
:1008500001F001010029CDD1B568316883682943D1
:100860009343194317E0866826F44046866026685D
:100870008E4201D0AE4207D18968AB6801F0010118
:1008800003F00103194302E0996801F00101002916
:10089000B0D1816891438160ACE700000020024044
:1008A0000021024000230240006302580060025809
:1008B0002DE9F84F4FF0000B0446E64E0D46CDF8FB
:1008C00000B05F4690F85000DFF88CA3012808D0F4
:1008D0004FF0010984F85090206801F1A8FE18B18A
:1008E0006BE10220BDE8F88F21682868CA6903031C
:1008F00028D090FAA0F0B0FA80F000BF00F01F03FB
:1009000009FA03F00243CA61D5E900124FF00C0C5A
:1009100020681F23C1F384610CEA921C02F01F02BD
:10092000604493409140026B9A430A4302632068FB
:1009300001F17DFE8046206801F0E4FA58EA0000EB
:1009400003D07FE0C0F38460D8E72068AA682968F4
:1009500001F0E0FAC1490968B9EB117F06D12168BD
:100960006869C968C1F38201490008E02068C1686C
:10097000C906C1686869F5D501F0100149088840C9
:10098000296904292ED023682A6803EB810102F02B
:10099000F8420B6E024303F0004010430866697E84
:1009A00020682A69012917D05FF0000100EB82005E
:1009B000026E22F000420A430266297E20682A69FC
:1009C00001290CD00021036902F01F02914023F499
:1009D000F0420A43026135E04FF00041E6E74FF490
:1009E0000061F0E720682978026E02F0F842B2EB6D
:1009F000816F03D1016E21F00041016620682978E2
:100A0000426E02F0F842B2EB816F03D1416E21F0E9
:100A10000041416620682978826E02F0F842B2EB0C
:100A2000816F03D1816E21F00041816620682978B1
:100A3000C26E02F0F842B2EB816F03D1C16E21F0B9
:100A40000041C1662068816811F0010F78D150F82B
:100A5000C03F2A7BDFF808C2296802F018022CFA8E
:100A600002FCC1F3130823EA08030CEA010C43EA71
:100A70000C0303607B48E968814277D12868010351
:100A80001BD090FAA0F1B1FA81F1491C01F01F01CD
:100A900009294FEA003131D8002911D090FAA0F18C
:100AA000B1FA81F101F1010101F01F0109FA01F22E
:100AB00009D100BFC0F3846109E0C0F38461E4E7B9
:100AC000C0F38461EEE790FAA0F1B1FA81F101F18F
:100AD000010101F01F0142EA816102D1C0F384608B
:100AE00003E090FAA0F0B0FA80F000F1010000F00D
:100AF0001F0000EB400041EA005133E000290ED016
:100B000090FAA0F1B1FA81F101F1010101F01F01A8
:100B100009FA01F206D100BFC0F3846106E0C0F318
:100B20008461F1E790FAA0F1B1FA81F101F10101DC
:100B300001F01F0142EA816103D1C0F3846004E047
:100B400040E090FAA0F0B0FA80F0474A00F10100CE
:100B500000F01F0000EB400002EB005041EA0001F2
:100B600041F00071AA68206801F0D4F9D5F800C0FE
:100B7000BCF1000F26DA3D4B20683D49DFF8F490C8
:100B8000984201D0B04201D10A4600E04A4692683C
:100B9000984202F0E07201D0B04209D19D68D6F8C7
:100BA000088005F0010508F0010845EA080503E0A2
:100BB000DAF8085005F0010545B1606D012740F0F5
:100BC00020006065384684F850B08BE62A4DAC456D
:100BD0001BD1150219D45045F4D1984202D0B0422D
:100BE00000D049468B6842F4000023F0E0720243D3
:100BF0008A60234921480968B1FBF0F0400000E019
:100C0000401E00900028FBD1DCE71E4DAC450CD106
:100C1000D5010AD45045D5D1984202D0B04200D077
:100C200049468B6842F080700EE0174DAC45C9D143
:100C30005502C7D45045C5D1984202D0B04200D029
:100C400049468B6842F4800023F0E07202438A60D8
:100C5000B8E7000000210240006002580010005C6C
:100C6000FFFF0F000000FF47000020FE00200240B1
:100C70000023024000630258000084CB400D0300B3
:100C800048000024000052C70000B8CFF8B54FF06C
:100C9000000604003546009602D0606D10B107E0F2
:100CA0000120F8BD204600F003F9A66584F85060E5
:100CB00020688168C1F3407119B181686F4A1140A1
:100CC000816020688168C1F3007179B981686C4ADC
:100CD000114041F0805181606B496A480968B1FB5D
:100CE000F0F000E0401E00900028FBD120688168F1
:100CF000C1F3007141B9616D012541F010016165D9
:100D0000A16D41F00101A16501F191FC616DC90680
:100D100000D420B1606D012540F0100093E0606DBB
:100D200020F4807040F0020060652068816811F056
:100D3000010F1FD15549564B884201D0984207D127
:100D40008A689E6802F0010206F00106324303E061
:100D5000504A926802F0010262B9884201D098427A
:100D600001D14D4800E04D488268616822F47C1250
:100D70000A43826000F0DCFA41F20301884202D9A2
:100D8000A06810280CD0617D227FA368206B4903E6
:100D900041EA024118430843217F01290CD010E0A9
:100DA000607D227F216B400340EA024241F0100047
:100DB000104340F00C00EFE7218C394A02EB41412F
:100DC0000843616A29B1A26A01F47871014342EAD9
:100DD00001002268334BD16819400143D16020687B
:100DE00001F125FC0646206801F08CF830431DD146
:100DF000216844F20303267DE26AC86842EA86322B
:100E000098431043C86094F8380001281ED0206829
:100E1000016921F0010101612068626B016921F023
:100E20007041114301612046FFF744FBE06801284F
:100E300020681CD0016B21F00F010163606D20F070
:100E4000020040F0010060652846F8BD2068A38FCD
:100E5000154FD4E9101C154E07EB0347A26C03692C
:100E600041EA0C013A43334011431943D3E7A269E5
:100E7000016B521E21F00F011143DEE7C0FFFF5F3F
:100E8000C0FFFF7F400D0300480000240020024007
:100E90000021024000600258002302400063025813
:100EA0000000FEFF03C0F0FF0100FFFF1EF800FC82
:100EB000F0B587B0054614216846FFF0BAF8294A14
:100EC000002427490326DFF8A0C02F6808311068E6
:100ED000234B6745254D00F101001CD1012810600E
:100EE00007D1186840F020001860186800F0200052
:100EF0000590086840F0010008600868694602949F
:100F000000F0010005904020CDE900062846FFF0E2
:100F10003DFB07B0F0BDDFF858C06745F9D10128A7
:100F2000106007D1186840F020001860186800F0C1
:100F300020000590086840F00100086008686946D4
:100F4000029400F0010005908020CDE900062846BB
:100F5000FFF01CFB4FF00070014601F109F9D8E7E2
:100F6000D844025818000024002002400000025813
:100F700000210240F0B50126044600201E2301E0B6
:100F80005B1E05D303F01F0706FA07F50D42F7D0E5
:100F900072B1082A0AD0102A05D0182A01D1072BCD
:100FA00006D30120F0BD082BFBD201E0102BF8D2B4
:100FB0002368596121688B6823F0180313438B6001
:100FC000F0BD000008B500680649884208D106480F
:100FD000016841F400210160006800F400200090E5
:100FE00008BD0000004C0258E0440258F0B590F8EB
:100FF0006020012A22D0C1EBC102012780F8607075
:10100000022380F8613000EB8202284D138F168E88
:10101000B2F83CC0D46A1B05283244EA064643EACB
:101020004C530A2C46EA03060AD0092C08D0137B3D
:1010300046EA036349B10B2C1AD01DE00220F0BD33
:10104000D36803F07F433343F4E701684C6AAC4351
:101050001C434C62016813688B6151680A2901D0F6
:1010600009291BD1D168026821F07F41916215E006
:10107000118B0F4D43EA81430168CC69AC431C439B
:10108000CC61016813680B6151680A2901D00929F4
:1010900004D1D168026821F07F411162002180F8FB
:1010A000617080F860100846F0BD00000F0033FF4B
:1010B0000F003FFF2DE9F0470446006800274FF07E
:1010C00004084FF0010946680568F10714D0E905E6
:1010D00012D5036823F480730360606E40F0010052
:1010E00060662068C0F8089084F8618084F86070B9
:1010F000616A09B120468847B00615D5A80413D502
:1011000020682022036823F4005303602068826073
:10111000606E40F00200606684F8618084F8607060
:10112000616A09B120468847300715D5280513D5CF
:1011300020680822036823F400630360206882604B
:10114000606E40F00400606684F8618084F860702E
:10115000616A09B12046884770070CD568050AD531
:101160002068026822F4806202602068C0F808806B
:10117000204600F071F8B00713D5A80511D52068F6
:101180000222036823F40073036020688260606EAB
:10119000606684F8619084F86070216A09B1204625
:1011A0008847F00612D5E80410D52068016821F4BC
:1011B00080510160226810219160616E616684F83F
:1011C0006190204684F86070FFF0C0F9BDE8F087B8
:1011D0002DE9F041040004D094F86100002518B115
:1011E00007E00120BDE8F081204684F86050FFF060
:1011F000AFF9184E022084F861000123D4E90010F1
:10120000D4F81CC040F207120F6840EA0C003740C7
:10121000384308602068A769A168466B3943964344
:10122000314341632068E268016C6FF30F011143A1
:1012300001642068218AA28A466B090541EA42516D
:1012400026F4401211434163656684F86130002042
:10125000C8E70000BFFFF8FF7047000070B5044604
:10126000FFF0B6FA0546601C02D00448007804443A
:10127000FFF0AEFA401BA042FAD370BD3C00002440
:10128000F0B587B014216846FEF0D3FE21484168CE
:1012900000293DD1012141601F48016841F480517E
:1012A0000160006802240025694600F48050059022
:1012B00003264FF683700C278DE8F1001748FFF0E6
:1012C00065F948F2371069468DE8F1001448FFF0DF
:1012D0005DF94CF2037069468DE8F1001148FFF0AA
:1012E00055F94FF63F0069468DE8F1000E48FFF0D2
:1012F0004DF90D2069468DE8F1000C48FFF046F9E4
:10130000002205213020FFF02DFC3020FFF01CFCD6
:1013100007B0F0BD18000024D44402580010025851
:1013200000180258000C0258001402580008025815
:1013300001480068000C70470010005C70B50400A4
:1013400004D094F84100002510B106E0012070BDE2
:10135000204684F8405000F0DFF8242084F8410053
:101360002068016821F001010160D4E9001020F03B
:10137000706008612068816821F400418160E06844
:1013800021680128A06806D040F404408860E06825
:10139000022803D006E040F40040F7E721684FF44C
:1013A0000060486020212068114A4368134343606D
:1013B0002068C26822F40042C26054F8106B0DCC61
:1013C000104340EA0320F06054F81C3CD4E90002CA
:1013D0001043186054F81C0D026842F001020260CC
:1013E000656484F84110256384F84250002070BD84
:1013F000008000022DE9F84F044690F841001F4696
:101400009046DDF828A08B4620287ED194F8400035
:1014100001287AD0012084F84000FFF0D9F9012298
:10142000064619230090D103204600F015FDE0BBCD
:101430000025212184F84110102084F842006564C1
:101440006785618DFF2732484FF00079C4F824800A
:10145000FF294FF08078656303D927853A460090CD
:1014600039E0618D218500903AE05946204600F030
:10147000DDFC13E000F01DFDB8B9606A216800785A
:101480008862606A401C6062608D401E6085208DAD
:10149000401E80B22085618D01B168B1608D3246F9
:1014A000514600282046E5D100E002E001F198F81D
:1014B000D0B10120BDE8F88F00225346802120469C
:1014C000009600F0C9FC0028F3D1608DFF2804D9F4
:1014D00027853A4600954346C7E7608D20850095ED
:1014E0004B4694F82820C0E720682021094AC161B2
:1014F000206843681340436084F8411084F84250E8
:10150000002084F84050D5E7FFE70220D2E7000032
:101510000020008000E800FE10B586B004461421CB
:101520006846FEF086FD1349206888421FD11248A4
:10153000016841F08001016000680423302100F05F
:10154000800005900020009112226946CDE901201B
:10155000CDE903030948FFF019F80748083001688E
:1015600041F480010160006800F48000059006B03D
:1015700010BD000000580040E0440258001C025812
:101580000248816802781144816070473C00002461
:1015900010B5102804468AB02CD20022014637200C
:1015A000FFF0E0FA3720FFF0CFFA17480460174841
:1015B000016841F020010160006809A900F02000E5
:1015C0000890684600F1BEFA0598B0B100F036FA0E
:1015D00040000F4900220F4CB0FBF1F10E4840F2E1
:1015E000E7330460C0E90332491EC0E9011200F18B
:1015F000C9FD28B101200AB010BD00F01FFAE8E7CC
:10160000054800F1F1FDF6E740000024E8440258E7
:1016100040420F00001400405008002470470000B2
:101620002DE9F041040004D094F8A100002518B180
:1016300007E00120BDE8F081204684F8A05000F0CA
:1016400097F83448022184F8A110012202CC8B695A
:1016500023F070438B6194E84A001943E3681E430A
:1016600054F8043D31439E693143996121688B6888
:1016700003408B602168A68AA7698B683B4343EAD5
:1016800006438B602168CB680340CB602168A38B45
:10169000276ACE683E4346EA0346CE6021680B695E
:1016A00003400B612368A68CA76A1969394341EA94
:1016B0000641196121684B6903404B612068A38D85
:1016C000266B4169314341EA03414161236894F843
:1016D000351094F83600DE6A000406F07F46DE62BC
:1016E000236840EA012094F83460D96A3143014309
:1016F000D9622068416B41F006014163206881692D
:1017000041F001018161C4F8A45084F8A1200020B7
:1017100090E7000000F800F0124910B5124A134C8F
:101720000B6C11888B4212D1518800F087F8206829
:1017300090F86610491C80F8661001F18FFE206851
:1017400002F15FFDBDE81040002003F009BE00F08B
:1017500075F8002003F1FBF920680168C969BDE84C
:10176000104008470010005030000024DC01002425
:1017700070B586B0044614216846FEF05AFC2A492A
:10178000206888424DD12948016841F00801016074
:10179000006800F0080005902448001F016841F42B
:1017A00080610160016801F480610591016841F484
:1017B00000710160016801F400710591016841F454
:1017C00080710160006800240E26694600F4807074
:1017D0000590FF20009002251548CDE90154CDE980
:1017E0000346FEF0D3FE4FF6FF700090CDE90154A2
:1017F00010486946CDE90346FEF0C8FE4FF470403C
:101800000090CDE901540C486946CDE90346FEF04D
:10181000BDFE002205215820FFF0A4F95820FFF05A
:1018200093F906B070BD000000100050E444025867
:1018300000280258002402580020025870B590F881
:10184000A020012A18D00D4D012380F8A0300222DB
:1018500080F8A120002450F8A02B566B26F001063A
:101860005663296450F8A01C4A6B42F001024A6397
:1018700043700470204670BD022070BD00100050FF
:10188000134970B50A68D243520705D5096801F0BB
:101890000701814213D118E00A6822F007020243CF
:1018A0000A60FEF095FF0A4D4FF47A760446083D33
:1018B00007E000BFFEF08CFF001BB04201D9012001
:1018C00070BD2868C0438004F4D4002070BD0000BF
:1018D0000C48025810B500F163F905490968054A3A
:1018E000C1F30211515C01F01F01C84010BD00009E
:1018F0002044025808840008494930B5484C0B1D63
:101900000A68143409681D68246802F00303C5F3EB
:101910000012C1F30531C4F3CC04002914FB02F218
:1019200000EE102AF8EE400A75D03F4A9FED3D1AAE
:10193000B7EE000A6BB1DFED3D1A012B01D0022B8F
:1019400064D002EE101A1168F8EE422A81EEA22A43
:1019500021E0334C283C23689B0612D5344B246885
:1019600001EE901A1168C4F3C104F8EE612AE34055
:1019700001EE903AC1F30801F8EE611A81EEA22A55
:101980000BE001EE901ADFED2B2A00BFF8EE611A92
:10199000116882EEA12AC1F3080101EE901A1168C4
:1019A000F8EE611A40EE811A71EE800A62EE200AAA
:1019B000C1F3462101EE101AB8EE411A31EE001AB9
:1019C000C0EE811ABCEEE11A80ED001A1168C1F375
:1019D000064101EE101AB8EE411A31EE001AC0EEBF
:1019E000811ABCEEE11A80ED011A1168C1F306619B
:1019F00001EE101AB8EE411A31EE000A80EE801A9C
:101A0000BCEEC10A80ED020A30BD04E001EE901A7E
:101A1000DFED092ABAE70021016041608160F3E748
:101A20002844025800000039384402580024744AFF
:101A30000090D0030024744C20BCBE4B00B500F1D4
:101A4000AFF805490968054AC1F30211515C01F07C
:101A50001F01C84000BD00001C4402580884000853
:101A6000454970B545480968434B103B11F03802B1
:101A700008D00111082A03D0102A0BD0182A0BD045
:101A8000084670BD19688906FBD51968C1F3C10104
:101A9000C84070BD3A4870BD3749374D18310C1DEC
:101AA00024350A68096826682D6802F0030406F0E8
:101AB0000102C1F30511C5F3CC0515FB02F200EEDE
:101AC000102AB8EE400AE9B32F4ADFED2E0AB7EE2E
:101AD000001A6CB1DFED2D1A012C01D0022C43D07D
:101AE00002EE101A1068F8EE422A81EEA22A1EE0D9
:101AF0001C68A40611D51B6801EE901A1168C3F387
:101B0000C103F8EE612AD84001EE900AC1F3080043
:101B1000F8EE611A81EEA22A0BE001EE901ADFEDD9
:101B20001C2A00BFF8EE611A106882EEA12AC0F3E9
:101B3000080001EE900AF8EE611A40EE201A31EE2C
:101B4000810A00E015E022EE000A1068C0F346208A
:101B5000401C00EE900AF8EE600A80EE201ABCEEFF
:101B6000C10A10EE100A70BD01EE901ADFED092ACD
:101B7000D8E7002070BD0000104402580090D00348
:101B800040787D0100000039304402580024744A36
:101B90000024744C20BCBE4B70B504000D4603D02D
:101BA00094F82C0010B107E0012070BD002084F8EB
:101BB0002D00204600F1BBFA022084F82C0020689A
:101BC000211DFEF7A5FDD4E900022946FEF0BCFA6E
:101BD00004480121026842F00042026084F82C109F
:101BE000002070BD0040005210B5044690F82C0053
:101BF000022804D094F82C00012801D0012010BD47
:101C0000022084F82C002068FEF7B7FD012084F83C
:101C10002C00002010BD704770477047704730B5EA
:101C200090F87C10012918D0012280F87C20242112
:101C3000C0F880100022202450F8601B0B680D684B
:101C400023F0005325F001050D60426050F8601C40
:101C50000B6004620277104630BD022030BD70B5C3
:101C6000044690F87C0001281DD0012284F87C20D5
:101C70002420C4F8800020680568026822F0010270
:101C800002602068826822F060620A438260204617
:101C900000F0F8FC2268202100201560C4F88010B4
:101CA00084F87C0070BD022070BD10B5040003D024
:101CB000D4F8800010B107E0012010BD002084F8A6
:101CC0007C00204600F026F82420C4F8800020681C
:101CD000016821F001010160204600F1E3FF0128C5
:101CE000EBD0A06A10B1204600F0FEFC20684168ED
:101CF00021F4904141602068816821F02A018160CF
:101D00002068016841F0010101602046BDE81040F3
:101D100000F04EBD2DE9F04186B00646142168461C
:101D2000FEF087F93248002532680224314B08382A
:101D30002F490826DFF8C0809A4228D10A6842F469
:101D400080120A60096801F480110591016841F070
:101D500004010160016801F004010591016841F08E
:101D6000080101600068694600F0080005909814B9
:101D70008DE831002148CDE90356FEF007FC042030
:101D800069468DE83100CDE9035640462BE01C4BF7
:101D90009A422AD10A6842F400320A60096801F4C2
:101DA00000310591016841F008010160016801F00E
:101DB00008010591016841F00101016000680727F1
:101DC000694600F00100059020208DE83100CDE942
:101DD00003574046FEF0DAFB00966946CDE901451F
:101DE0000848CDE90357FEF0D1FB06B0BDE8F0810D
:101DF000E844025800500040000C02580008025805
:101E00000044004000000258FEE701688A69D2439E
:101E1000920701D400228A6200688169C943C90718
:101E200003D0816941F001018161704770B500689C
:101E3000C1F30901074E41EA0241049C4FF4806559
:101E40004268194305EA54553543AA4321430A43DE
:101E5000426070BDFF63FF032DE9F0411D46174648
:101E60000E460446DDF8188008E0681C06D0FEF037
:101E7000AFFCA0EB0800A8420BD855B120688069E0
:101E800036EA000013D00020B842EED00020BDE8B2
:101E9000F081626C002084F84000202142F0200292
:101EA000626484F8411084F842000120EFE70120C9
:101EB000EAE770B516460D4604460FE0324629465D
:101EC000204600F105FB08B1012070BD681C05D05B
:101ED000FEF07EFC801BA84207D835B120688069DF
:101EE000C0438007EAD4002070BD626C002084F8F3
:101EF0004000202142F02002626484F8411084F8FE
:101F00004200E1E78068C0F3C00070478068C0F31A
:101F10008000704710B5042404EAD1540723C1F3AC
:101F2000045120448B408A404169994311434161E7
:101F300010BD000030B58BB0002468461C2107940A
:101F400008940994FEF075F81B480425194A0121EC
:101F5000C0E900248460C0E90345047544758161CB
:101F6000047744628462C4620463446380F8384046
:101F7000FEF78CFE08B172B6FEE70F4807A907947A
:101F8000FEF704FC08B172B6FEE70C48062140F2E9
:101F9000FF7203928DE8130007486946CDE90454A7
:101FA0008DF81940FEF784FC002801D072B6FEE7D8
:101FB0000BB030BD00200240180200240800900C35
:101FC00030B587B01C216846FEF033F8184800246D
:101FD000164A04250121C0E900248460C0E90345B4
:101FE000047544758161047744628462C462046349
:101FF000446380F83840FEF749FE08B172B6FEE748
:102000000C48062140F2FF7203928DE81300084845
:102010006946CDE904548DF81940FEF749FC0028C3
:1020200001D072B6FEE707B030BD000000210240CB
:102030007C020024020030042DE9F04786B0142110
:102040006846FDF0F6FF5248016841F48061016086
:10205000016801F480610591016841F008010160A7
:10206000016801F008010591016841F0100101606B
:10207000016801F010010591016841F400710160EF
:10208000016801F400710591016841F004010160EB
:10209000016801F004010591016841F0400101600F
:1020A000016801F040010591016841F020010160E3
:1020B000016801F020010591016841F4807101601F
:1020C000016801F480710591016841F080010160AF
:1020D000016801F080010591016841F00101016092
:1020E000016801F001010591016841F00201016000
:1020F00000684FF40056DFF89C80002200F00200D8
:10210000314605904046FEF05EFB0122DFF88890E4
:10211000D70248463946FEF056FBDFF880A0012280
:1021200002215046FEF04FFB00240096012569462F
:102130004046CDE901540394FEF028FA1848694658
:10214000CDE900540294FEF021FA022669466802A5
:102150008DE851001348FEF019FACDE90075CDE97C
:10216000025469464846FEF011FACDE90065CDE912
:10217000025469465046FEF009FACDE9005469461A
:1021800050460294FEF002FA06B0BDE8F087000067
:10219000E044025800080258000C0258000402589B
:1021A00000000258001C0258F0B58DB0342168467A
:1021B000FDF03FFF25480024234A2E2100F11C0E8C
:1021C00040F24E334FF4FC7640F27637026018222C
:1021D000446040F2022C84600125C46004618EE8F2
:1021E000CE10C0E9054580F8344080F8354080F8CD
:1021F0003640FFF715FA08B172B6FEE74FF44870A3
:1022000004954FF4F071FF22CDE90040CDE9024181
:10221000CDE9052405260994CDE90A014FF4806330
:102220000A48CDE907368DF8304000228DF831405C
:1022300069468DF83240FEF0E7FB002801D072B607
:10224000FEE70DB0F0BD000000100050B803002400
:1022500005F142BC1748002110B5154C0C224FF473
:10226000E1330460C0E90131C160C0E90412816159
:10227000C161016241628162FFF717FD08B172B668
:10228000FEE70C48002100F19DF808B172B6FEE7A8
:1022900008480021FFF7E3FC08B172B6FEE70548E5
:1022A000FFF7BDFC002801D072B6FEE710BD0000AC
:1022B0000050004060040024FEE700002DE9F047D4
:1022C000454D044689464FF0000A2868C043800700
:1022D0000AD0414E283E306820F080503060FEF039
:1022E00077FA0746B04608E00120BDE8F08700BF56
:1022F000FEF06EFAC01B022867D8D8F800008000F4
:10230000F6D4208829684FF4FE0721F07C713E0244
:1023100041EA00502860207AA389B4F804C0400242
:102320002D4D2D495B1E227CACF1010C1835091D89
:10233000A0F5007080B2521ECCF3080C07EA0343EC
:1023400040EA0C00184306EA02621043286008685D
:10235000626920F44060104308600A68A06922F4B2
:10236000007202430A60281D0A6822F480720A6023
:1023700002684FF6F873E4699A4342EAC4020260C5
:102380000868B9F1000F40F480720A6011D0086843
:10239000B9F1010F11D040F080700860D8F800004A
:1023A000444640F08050C8F80000FEF011FA05469F
:1023B0000DE0086840F48000EFE740F40000ECE72F
:1023C000FEF006FA401B022801D903208DE72068A1
:1023D0008000F5D5504688E728440258F0B587B00C
:1023E00014216846FDF025FE1E48016841F4805125
:1023F0000160006802240025694600F480500590C1
:10240000032648F237100C278DE8F1001648FEF03D
:10241000BDF84CF2037069468DE8F1001348FEF0F8
:10242000B5F84FF63F0069468DE8F1001048FEF020
:10243000ADF80D2069468DE8F1000E48FEF0A6F8D3
:102440004FF6807069468DE8F1000B48FEF09EF86B
:10245000002205213020FEF085FB3020FEF074FBC9
:1024600007B0F0BDD444025800180258000C0258BE
:1024700000140258000802580010025800F156FAE1
:10248000012005F1DBF8FBE72DE9F041CCB04C2150
:102490002FA8FDF0CEFD202142A8FDF0CAFDBC21F1
:1024A0006846FDF0C6FD0220FFF7EAF93548002432
:1024B0003549026842F44042026002680A6842F00C
:1024C00001020A60096801F001014A91016889046A
:1024D000FCD52E4802250168012308264FF0C008CC
:1024E0001F0421F00301891C016005203895CDE906
:1024F0003950CDE93B853D952FA83E95CDE93F6408
:102500004194CDE92F37FFF07FFB08B172B6FEE7AB
:102510004020449403270201CDE945603F21CDE9E5
:102520004702CDE942170421499042A8FFF0DCF9A7
:1025300008B172B6FEE70C22154B009307A82021C4
:10254000CDE901520395332204951923CDE90558AD
:10255000CDE90A2580E892004FF440661194CDE958
:102560000E6420946846CDE90C5310941D94289471
:10257000FEF05CFD002801D072B6FEE74CB0BDE86D
:10258000F0810000184802582C04005828440258D2
:102590000A0008212E48F0B52E4A016841F4700166
:1025A0000160106800F00F00072804D2106820F0C6
:1025B0000F00C01D106028490020274C10340B6804
:1025C000264D43F001030B6020600B682B400B602D
:1025D000136803F00F03072B04D9136823F00F03CC
:1025E000DB1D13601C4C1E4A18341E4B261D371D64
:1025F0002060194C1C4D28343060261D3860371D72
:1026000023603B1D35601C1D3A60251D2E1D186082
:10261000331D22602860326018600A680E4B134C2C
:1026200022F4802260330A60186020686FF30F0084
:10263000B0F1005F03D20E490120C1F8080143F256
:10264000D2000C49024B4A03803B08601A60F0BD7F
:1026500088ED00E000200052004402587FEDF6EAC9
:1026600080020101000202020000FF010010005C74
:1026700000800051004000520148FFF0D6BD00002C
:10268000500800243FB514A1D1E9002314A1CDE9DD
:102690000023D1E90021CDE90221416EB9B10168E1
:1026A00002AC8A688968C2F34262490F1DF8015082
:1026B000615C2D01B5FBF1F1A0F86A101DF8021064
:1026C000A25C0901B1FBF2F1A0F868103FBD012145
:1026D000A0F86A10F8E700000101010307010000FB
:1026E000080402040801010190F82810C90706D067
:1026F0000168C36A4A6822F400321A434A6090F8BB
:102700002810890706D50168036B4A6822F48032D5
:102710001A434A6090F82810490706D50168436BB0
:102720004A6822F480221A434A6090F82810090768
:1027300006D50168836B4A6822F400421A434A6056
:1027400090F82810C90606D50168C36B8A6822F480
:1027500080521A438A6090F82810890606D50168CD
:10276000036C8A6822F400521A438A6090F8281099
:10277000490611D50168436C4A6822F480121A4355
:102780004A60416CB1F5801F06D10168836C4A68CC
:1027900022F4C0021A434A6090F82810090606D5B0
:1027A0000168C26C486820F40020104348607047FC
:1027B000F8B500260446C0F88860FEF009F8054622
:1027C00020686FF07E470068000708D500222B467E
:1027D0004FF400112046009700F13CFC60B92068DE
:1027E000006840070AD500222B464FF4800120469E
:1027F000009700F12FFC08B10320F8BD2020C4F899
:10280000800084F87C60C4F884000020F8BD0028B3
:102810000DDB410900F01F028900012001F1E021D8
:102820009040C1F88001BFF34F8FBFF36F8F7047A7
:10283000090700284FEA116104DB00F1E02080F86D
:102840000014704700F00F0000F1E02080F8141D24
:10285000704700000E49002070B50860BFF34F8F2D
:10286000081F43F6FF7300680A4DC0F34E31C0F3F2
:10287000C90203EA4114104644EA80762E60401EE5
:10288000FAD2491EF5D2BFF34F8FBFF36F8F70BDE1
:1028900084ED00E074EF00E02DE9F0470C46497F3D
:1028A000074600F1A5FCA17F0646384600F1A0FCD2
:1028B000A17F0546384600F1AFFCDFF8548102469F
:1028C000608BA18A534FDFF85091401AC8F840003E
:1028D000608BA18A401AC8F81800208BA18A401A80
:1028E000C8F81000C8F8342060694FEA3040C8F8D2
:1028F00044002069C8F83C006068C8F80C002068F3
:10290000802827D006DC042870D020286ED04028EC
:1029100006D16BE0B0F5807F0ED0B0F5007F0ED011
:10292000207F46EA006040F40030C8F81C00607F59
:10293000A17F884258D166E0207F384902E03749BC
:10294000207F491E01EB0060C8F81C00E068C8F851
:10295000200052E0217FA06846EA016141F4003185
:10296000C8F81C10C8F82450011D2269C8F81420AA
:10297000C8F82C106FF0FF0203784FF610714FF07B
:10298000010513F0FF0303D0012B09D0AFF3008042
:102990004388D8F81C00884302EB032108430CE06D
:1029A000237FFF2B00D100254388D8F81C008843E3
:1029B00002EB0321084340F01000C8F81C00D8F8CF
:1029C0001C0040F02000C8F81C0001E000F16AFD86
:1029D000D8F81C008006F9D41020C8F808001DB1F2
:1029E000C8F80070BDE8F08748460EE0207F46EA50
:1029F000006040F40030C8F81C00C8F8245020697A
:102A0000C8F81400ECE740F20120C8F80000E9E73C
:102A10000010005201020200010201000A0002003F
:102A200070B50C46897F00F1F7FB1749486362696E
:102A30004FEA32424A642269CA63628BA38AD21A7D
:102A40000A642268082A07D00022C8610A610F4A76
:102A5000E06888630A6070BD638BA58A0C4A5B1BC3
:102A60008B61638BA58A5B1B0B614862207F02EB45
:102A70000060C861E0680862064822694A6122690C
:102A8000CA60086070BD000000100052010203001F
:102A9000090001000102020010B500F10C014160C3
:102AA000002202720B46427207496022016000F167
:102AB0002001184601F1D0F9044960232022143086
:102AC00004F1C1FB203810BD58851008815500085D
:102AD000064A054901604FF08061C2F88011BFF3DA
:102AE0004F8FBFF36F8F70475885100808E000E0E4
:102AF00000F10ABC00F12CBC00F142BC00F148BC62
:102B0000704700000A4910B5016043F210410844C3
:102B100000F006FA183801F0DBFFA0F54C50CC3875
:102B200001F0D6FF183801F0D3FF143810BD0000B3
:102B3000748610082DE9FF5F02F066FF9F490025AB
:102B4000C56340F8401B02F01BF92C3002F018F965
:102B50002C3002F015F99A4900F5C072C562016087
:102B600064210586343001F09BFD9649016000F533
:102B7000377000F19DFF383002F052F89249044658
:102B80000160294605754575857500F176FF04F1EC
:102B9000180001F189F98D4940F8441B01F09CFDB2
:102BA0008B4940F8501B01F097FD06468948A6F274
:102BB0008C4442F6E061306006F1500001F158F9B2
:102BC00004F1400000224FF4F07811464FF44879A8
:102BD000CDE900804B4603F055F90022A6F24C47A0
:102BE0001146104602F04FFC0022B86204F16C005E
:102BF0004B4611468346CDF8008003F043F99822F6
:102C00002C371146992002F03EFCB86204F198007E
:102C100040F2BF288246182243460F214FF4D47752
:102C2000009703F02FF9FF22A6F57D761146104696
:102C300002F029FC0022B0621146104602F023FC8B
:102C4000F06201200146308604F1CC00814602F09A
:102C500081F8C8224846002101F10DFA18224346A6
:102C60000F214846009703F00DF91620009013231A
:102C700048461C220A2101F091FE06200090002304
:102C800002460221484601F0D1FE534941F27072DA
:102C9000484602F01FF804F57E700121064601F156
:102CA000E5F8C5229721142002F0EDFB01463046DD
:102CB00002F064F84FF47A773046394601F0A0FF0D
:102CC0000121304601F1ECF83146484601F055FE4D
:102CD00004F23C400121064601F1C8F814213046B7
:102CE00001F0EAFCDFF8F48002A93046CDF8088054
:102CF000ADF80C5001F0EBFCC5229721142002F036
:102D0000C2FB0146304602F039F83146484600F130
:102D10007AFF012104F28C4001F1A8F804F28C4002
:102D2000394601F0C9FC0120CDF8088002A9ADF8B0
:102D30000C0004F28C4001F0CAFCC522972114203B
:102D400002F0A1FB014604F28C4002F017F804F2F5
:102D50008C41484600F11EFF04F56A7001210546CA
:102D600001F184F8C5229721142002F08CFB014662
:102D700004F57870064600F180FE3146284601F0E1
:102D800079F80221284601F0D7FC2946484601F08F
:102D9000F4FD0199204602F190F85946204602F1CF
:102DA0008CF85146204602F188F84946204602F147
:102DB00084F804B02046BDE8F09F0000208400089D
:102DC000B88500086087100874860008D887000856
:102DD0000C8500080489100860F0FFFF808D000852
:102DE000094910B5016000F28C4001F095FC5038A3
:102DF00001F092FCA0F55C7001F036F8BDE81040DF
:102E0000CC3801F1ADBE00002084000870470000FE
:102E1000044A0023836002F12003C160C0E900235B
:102E2000704700008886100870470000004870470F
:102E3000DC841008022070477CB514460D466846B5
:102E400004F156FBBDF80000002806D0BDF80200D2
:102E50002860BDF80400206001207CBD04F070BC37
:102E600003480068C00301D5FFF7F4BC70470000B9
:102E700014ED00E001F15AB95A2010B500F13DF906
:102E8000BDE81040582000F138B909215A2010B58A
:102E9000FFF7CEFC0921BDE810405820FFF7C8BC61
:102EA00002F06BB870B515460E4600F09FFF044661
:102EB000154816480021174AC4F83811C4F83C11C7
:102EC00004601348206004F5A070C0E90021124A94
:102ED000D2E90212C0E90212C4F850510F4DC4F8F1
:102EE0005461286801688A6800219047002002F038
:102EF000D1FA296891F8760008B1C86C00B98868E1
:102F000002F15FFE204670BD948600087401002423
:102F10001C871008308B0008F0841008DC010024A6
:102F200001490160704700001C8710082DE9F05F1F
:102F30004FF4007183464C48FDF040FC4B4E012895
:102F40004FF4005517D0002229463046FDF03BFCD7
:102F5000DBF8004029463046FDF030FC41B22068E5
:102F6000826820469047424D0026424C4FF014089C
:102F7000414F2E6016E00122E6E74048FDF026FAB8
:102F80003E480A21FDF094F93C48FDF08DF9B0FB74
:102F9000F8F0296844F821000220FEF75FF928685C
:102FA000401C2860296838688142E6DB3449431EAA
:102FB000AA468E460E6020E0C21BDFF8C880521E73
:102FC000CAF8006011E000BF04EB810954F82150F9
:102FD000D9F804C0654505DDC8F8005044F821C0A3
:102FE000C9F80450491CCAF80010DAF800108A42E7
:102FF000EADC7F1C7146CEF800700F689F42DBDB75
:103000000522214D411F534607E000BF54F82270AE
:10301000521CD5F800C067442F608A421A60F5DB65
:1030200029680A38194C91FBF0F020600A20FEF75D
:1030300015F917492160DBF800000268D268904753
:1030400014482E6000684121C00705D0114A803A1B
:1030500010051268D20702D1BDE8F09F00BF0268D8
:10306000002AFBD00170F7E7001C02580008025844
:103070000C000024AC050024C083000818020024C2
:103080001000002414000024000000240800002484
:1030900030F8FFFF800E00E000210160704700F172
:1030A0000DB9704770B500F54054D4F8C013491CF1
:1030B000C4F8C013CA070CD1CC30054604F092F80E
:1030C000B4F8BC132846A4F8BC13BDE8704001F066
:1030D000FDBD70BD30B5044C039D04600171C2801C
:1030E0000381458130BD0000A0840008094801210A
:1030F00010B504F099FB084C206038B10548012157
:10310000083004F091FB0028606001D1AFF300802B
:1031100010BD0000E083000834000024014800686E
:1031200004F194BA3400002402484FF0FF310068E3
:1031300004F1B4BA3400002490F84430002B01D1DB
:1031400002F1ABB9704710B500F006F80168096BE1
:10315000BDE81040084770470148C068704700004C
:103160006801002403484068002802D00268926A7F
:1031700010477047680100242DE9F74F84B081465D
:1031800005A803F137FF00287ED109F1A805B9F899
:10319000E8400AE0A0B205EBC00105A803F136FF44
:1031A00018B1A1B2284605F0D8F8641EF2D5B9F8D6
:1031B000E8604FF0000AD046761E66D4B0B205A98A
:1031C00005EBC004204603F146FF00287AD0BDF984
:1031D0001400B4F90010884232DB05A803F105FFA2
:1031E0000746204603F101FF874229DCBDF916009E
:1031F000B4F90210884212DB204604F0A6F8BDF9AB
:103200001620BDF81A10801A00B2091A09B2ADF8DA
:103210001A10002938DD1044ADF816004DE005A85D
:1032200004F093F80746204604F08FF8874207DC45
:103230006088BDF81610401A00B2ADF81A003AE0E6
:10324000BDF91600B4F90210884239DB05A804F074
:103250007CF80746204604F078F8874230DCBDF958
:103260001400B4F90010884215DB204603F1BDFEBE
:10327000BDF91420BDF81810801A00B2091A09B25D
:10328000ADF81810002901E080E098E07EDD1044E0
:10329000ADF8140011E005A803F1A7FE074620468B
:1032A00003F1A3FE87420BDC2088BDF81410401AFE
:1032B00000B2ADF81800002868DD4FF0010801E009
:1032C0004FF0010A761E7FF579AFB8F1000F7FF459
:1032D0006EAFBAF1000F72D0B9F8E8604FF0000895
:1032E000761E6CD4B0B205A905EBC004204603F1EC
:1032F000B2FE58B3BDF91400B4F90010884226DCC0
:1033000005A803F172FE0746204603F16EFE8742D0
:103310001DDBBDF91600B4F90210884205A808DCCF
:1033200004F013F86188401A01446180E188081AAA
:103330000BE004F00AF80746204604F006F887423E
:1033400005DBBDF816006188401AE0802FE0BDF96A
:103350001600B4F90210884227DC05A803F0F5FF37
:103360000746204603F0F1FF87421EDBBDF914003B
:10337000B4F90010884205A809DC03F136FE218863
:10338000401A01442180A188081A0CE070E103F181
:103390002CFE0746204603F128FE874205DBBDF8D8
:1033A00014002188401AA08001E04FF00108761E29
:1033B00098D5B8F1000F8ED0B9F8E8604CE14EE135
:1033C000B0B205EBC00405A8214603F11FFE18B1F9
:1033D000B1B2284604F0C1FF05A9204603F13BFE27
:1033E0000028EBD0BDF91400B4F900108842BDF9F3
:1033F0001600B4F902107DDD884233DDBDF81600F9
:103400006188401A21880FFA80F8BDF81400401A2C
:1034100006B205A803F1E9FD0746204603F1E5FDE4
:10342000391A05A801FB08FA03F08FFF074620466A
:1034300003F08BFF381A7043504508DCA4F806806F
:103440002088ADF81400BDF818003044D4E0A68000
:10345000BDF81A1001EB0800ADF81A006088ADF84D
:10346000160094E605A803F1C0FD0746204603F1C7
:10347000BCFD21888742BDF81400A0EB01000FFAC3
:1034800080F8204625DD03F060FF064605A803F01E
:103490005CFF301ABDF9161006B2B4F90200411AE9
:1034A00005A801FB08FA03F1A0FD0746204603F139
:1034B0009CFD381A7043824508DC05A803F045FFDF
:1034C0006080E6802088ADF8140091E0A4F80480C4
:1034D0005EE003F18AFD074605A803F186FD381A70
:1034E00007B2B9F8E80007280EDAD4F800B0D4F82B
:1034F00004A000E01CE005A803F177FD52462080FF
:10350000A78068F30F02A3E0B8450EDCBDF81810E1
:103510002088ADF8140001EB0800ADF8180005A8EC
:1035200003F163FD2080A78031E6A4F8048026E043
:10353000884231DA204603F158FD064605A803F11A
:1035400054FD301A07B2204603F0FFFE064605A8D8
:1035500003F0FBFE301ABDF9161006B2B4F90200F2
:10356000BDF91420411AB4F90000801A7943704360
:10357000814208DC05A8E68003F0E7FE6080BDF824
:103580001800384438E005A8A78003F12EFD2080FC
:10359000BDF81A00304484E005A803F126FD074673
:1035A000204603F122FD874233DA204603F11DFD58
:1035B000064605A803F119FD301A61880FFA80F854
:1035C000BDF81600401ABDF9141006B2B4F9000097
:1035D000411A05A801FB06FA03F0B7FE074620468C
:1035E00003F0B3FE381A00FB08F0504507DCE68014
:1035F000BDF8181001EB0800ADF81800C7E505A8E4
:1036000003F1F3FC2080A4F804806088ADF8160074
:10361000BEE7BDF816006188401A0FFA80F8204610
:1036200003F093FE074605A803F08FFE381A07B291
:10363000B9F8E80007281EDAD4F800B005A8D4F8D5
:1036400004A0E78003F081FE5246608068F31F42C9
:103650005946284604F102FF761E7FF5B1AEB9F84F
:10366000E860082E20D2DDE90512284604F1F6FEB6
:1036700007B0BDE8F08FB8450EDCBDF81A106088C1
:10368000ADF8160001EB0800ADF81A0005A803F02C
:103690005CFE6080E7807AE5A4F80680BDF81A0039
:1036A0003844ADF81A0072E500274FF0FF3A761E55
:1036B0006FF0004B42D4B0B2741E05EBC008B8F8EE
:1036C0000410B8F8060011FB00F002902EE0002C68
:1036D00003DBA0B205EBC00100E005A98888CA8819
:1036E00010FB02F00390D8F800200092D8F80400F4
:1036F0000190684601F036FEBDF80400BDF80610E2
:1037000010FB01F1DDE902201044CA17081A01EB91
:103710005271B0EBE10F02DA3746A2460BE0584592
:1037200003DA3746A24630B18346641EB4F1FF3F48
:10373000CDDA761EBFD5BAF1000F06DAB8B205EBC6
:10374000C00105A801F00EFE12E01FFA8AF005EB99
:10375000C004B8B2214605EBC000064601F002FEE7
:103760000598206006986060316805917068069041
:10377000B9B2284604F0F1FD09E500002DE9F04159
:10378000374D0446A86808B1017A19B194F835118B
:1037900031B114E0002184F835110168896859E0DD
:1037A00068B1007A58B1686810B101680969884742
:1037B000A8680168C9688847012084F83501002697
:1037C0000BE0A01990F8880030B1B1B2201D50F87C
:1037D00021000168C96C8847761CB4F88400B042A7
:1037E000EFDC0022104613E0211891F8883073B105
:1037F00090420BD086B2231D53F8267096B243F840
:103800002670A31891F8881083F88810521C401C69
:10381000B4F884108142E7DC13E0581E80B2211D09
:1038200083420ED905E001EB80035B6841F820304C
:10383000401CB1F880308342F5DC98B2401EA1F8FC
:103840008000B4F884309342E7DC6868002804D034
:103850000168496ABDE8F0410847BDE8F081000011
:103860006801002403484068002802D00268926979
:1038700010477047680100242DE9F04F99B00446C5
:1038800080F8341129B10020A4F8E80019B0BDE88F
:10389000F08F04F5967003F1ADFB90B9D4E94B12AB
:1038A00004F580752046FFF767FC00200090034672
:1038B0000246014601A801F14BF90168E96240683E
:1038C0002863B4F8E80098B10020FD4F80F00105AE
:1038D000386920B107F1140003F18CFB50B1002DC1
:1038E000D4D001A804F04CFD3E8804F1A80520E0E6
:1038F0000120EAE7F248143000F190FBD7E9051205
:103900002046FFF739FC002000900346024601469E
:1039100001A801F11DF9016879614068B861E0E72B
:1039200005EBC6000168426801A804F197FD761C0A
:10393000B6B2B4F8E800B042F2D8E148068804F123
:10394000EA00169009E0169800EBC600016842688C
:103950002046FFF711FC761CB6B2B4F82A01B0423B
:10396000F1D8DFF860A3DAF8000090F848000128E9
:1039700004D0022877D0D2480688BCE1DFF840B3F3
:103980000026BBF800700CE0B8B205EBC000804622
:1039900003F0DBFCB04203DD404603F0D6FC0646F4
:1039A0007F1CB4F8E800B842EEDCC74800880F2856
:1039B00001D9C00800E001208146002000900346A4
:1039C0000246014612A801F1C3F8D04653E0D1F8EF
:1039D00090108847074612A803F0B7FC4844B84245
:1039E0000BDDB74209DA12A803F0AFFCB8423BDDA9
:1039F00012A803F0AAFC002836DD12A803F0A5FCEB
:103A0000B84201DCBE4200DA374612A803F09DFC42
:103A10003F1A12A803F099FC024638B20090AB4856
:103A20000021008803B217A801F192F801681291F1
:103A300040681390BBF8007010E005EBC70112AAB4
:103A400014A803F0A1FC14A803F1D4FA20B920684B
:103A500014A9426B204690477F1CBFB2B4F8E8001F
:103A6000B84208D9E9E711E0D8F800000168D1F8B8
:103A70008C200121904712A803F067FCB042D8F8CF
:103A800000000168A3DB096A884738E190480078A4
:103A9000012879D00DE18A484FF00008B5F900609F
:103AA0000088401C87B226E005EBC000814603F188
:103AB0009CFA8246B9F906B005EBC700814603F1CE
:103AC00094FA5045514606DDB9F90060B8460846FB
:103AD00056450ADB0DE00AD1B9F90610594500DD5B
:103AE000B846B9F90000B04203DB064601E0B04237
:103AF000FBDC7F1CBFB2B4F8E800B8421FFA88F0C4
:103B0000D2D805EBC0073868129078681390BDF9D9
:103B10004C00142801DABDF9486012A803F165FAD7
:103B2000801BADF84C0012A8ADF8486000F146FAD1
:103B300012A803F15FFA38BBBDF94E00142800DD6E
:103B40001420BDF84C3081B25E48BDF84A200068B0
:103B50000091BDF848100668D6F88460B047064664
:103B6000ADF84E0012A800F159FA206812A9426B74
:103B700020469047B888801B00B2B88020B91FFA51
:103B800088F1284604F0E9FBB4F8E800002882D167
:103B9000B5E04FF00009284603F0D7FB0646484839
:103BA0000088401C87B228E005EBC00005EBC70881
:103BB000B0F902A0B0F90410B8F90200504508DAD3
:103BC000B946404603F0C1FB504551460CDD0E4658
:103BD00011E00DD1B8F90400884200DDB946404635
:103BE00003F0B3FBB04206DC404603F0AEFB01E05D
:103BF000B04200DA06467F1CBFB2B4F8E800B84213
:103C00001FFA89F0D0D805EBC007B7F906001428D1
:103C100003DA384603F099FB0646384603F1EAF921
:103C2000F0BB12A801F0E9FB3888ADF84800B7F9FD
:103C30000200ADF84A00B988301A1428ADF84C10CB
:103C400000DD142086B2384603F07FFBBDF94A1030
:103C5000401AB04205DC384603F077FBBDF94A1044
:103C6000461A1848B1B2BDF84C30BDF84A20006879
:103C70000091BDF848100668D6F88460B047ADF8EA
:103C80004E0012A92068426B204690477888BDF804
:103C90004E1008447880F888BDF84E10401A00E0B5
:103CA00007E000B2F88020B91FFA89F1284604F035
:103CB00054FBB4F8E80000287FF46BAF1FE000006D
:103CC00068010024DC010024D4010024D201002476
:103CD000CC01002405EBC6000168129140681390E6
:103CE00012A803F187F920B9206812A9426B204677
:103CF0009047761CB6B2B4F8E800B042EAD80D4856
:103D0000007800283FF4C2AD0020A4F82A010A4838
:103D1000048809E001A800EBC40001684268169815
:103D200004F19CFB641CA4B2BDF84400A042F1D88D
:103D3000ACE50000CD0100246801002470470000BC
:103D400070B50646194886B00C4600221146008818
:103D500000B200901648008803B203A800F1F8FEF4
:103D60000246214601A803F00FFB0199114D216085
:103D7000029A62606868002805D096F8343123B151
:103D80003046FFF7F9F906B070BD01688A68214630
:103D90009047286918B101688A682146904706480B
:103DA000006801688A6921469047ECE7D401002445
:103DB000D201002468010024DC0100243EB5044641
:103DC000084800221146008800B20090064800888A
:103DD00003B201A800F1BCFE206801A9426B204695
:103DE00090473EBDD4010024D2010024F8B5174904
:103DF00000250160A0F88450A83004F0C1FA4230D8
:103E000004F0BEFA0023009542301A46194600F12C
:103E10009FFE0572A0F5967445720D490D48FCF79A
:103E200021FC00B101200C4E08B1358006E04FF4B2
:103E3000806030800220706001F142F8F560204619
:103E40007560B560FFF04EFB2046F8BDB4840008F5
:103E5000CDB5E8B5C2A507F46801002401490860A2
:103E600070470000C801002401490160704700004C
:103E7000E88600088162704730B5044C039D0460F9
:103E80000171C2800381458130BD0000F8840008C3
:103E90002DE9F04F044688463C3091B0834603F04C
:103EA000D3FB00287ED0584603F0E8FB050079D00C
:103EB000204603F071F981462068816E20468847CC
:103EC0000646484602F148FE704300F133FE0028E2
:103ED00068D0204602F15EFD0246E06C08B102F1B6
:103EE00059FD002A06DD98FBF2F15143414501D10D
:103EF000012100E00021002806DD98FBF0F3434398
:103F0000434501D1012300E00023104350EA08009B
:103F100001D099436BD0484602F121FE82464946C2
:103F2000204602F192FE0646D9F800004146D0F83C
:103F3000B4204846904707464946204603F016F904
:103F4000B4F84810B4F8462007FB0063CDE900211F
:103F50001422204603A9CDF808A002F1BBFC94F876
:103F60004400E0B3022845D0584603F139F9014630
:103F7000286803AA436A284698470646584603F12C
:103F80002FF90146286803AA836A284698470746FE
:103F9000584603F125F90146286803AA036C284610
:103FA000984700E023E007FB006085B2484602F036
:103FB00021FF064642464946204602F109FE0F907F
:103FC0000FA803F180F861893044A0EB5500ADF8EB
:103FD00034000022ADF83620ADF8385000E009E09A
:103FE000ADF83A100DA9206802692046904711B03B
:103FF000BDE8F08F584603F1F3F80146286803AA9C
:104000008369284698470546D0E701210172704729
:1040100070B500F11A050446008EB8B1A98A401E99
:1040200035F81160E882481C80B2A8820A2801D3C2
:104030000A38A8822046FFF086FB208B1234022823
:1040400001D2401CE080A08810B103E0AFF30080F3
:104050000220A08080B2401E80B2A08024F81060B0
:10406000304670BD2DE9F04700F112050C460021E5
:10407000DDF8208017E0561AB5F806C0761E34F831
:10408000027BB6B2B44501D8AFF30080B5F804C0E6
:104090006644B6B2022E00D3B61E35F81660BE4294
:1040A00011D1491C89B29142E5D3002600F11A09C9
:1040B00003EB08070CE034F8025B3146484604F095
:1040C00034F9A84202D00020BDE8F087761CB6B2D1
:1040D000B742F0D80120F7E72DE9F84F9146824624
:1040E00031F8020B0C46050B31F815204A4502D079
:1040F0000020BDE8F88F00F00F082A46C0F3032720
:104100002146C0F303163B4650460096FFF7AAFF30
:1041100050B1E81942463044394604EB400350465A
:1041200000F0B4F90120E4E704EB450000EB4700A0
:1041300000EB460101EB4801D2E770B50546C06BC4
:1041400058B305F11A00044604F1CAF828B328460A
:1041500000F04BF8E08A012812D9A08A401C80B2F6
:104160000A2800D30A3840F63F16214634F81000DA
:10417000B04212D1084604F1B3F8E18A012901D80E
:10418000AFF30080A18A491C89B20A2900D300211B
:1041900024F81100A08A24F810602846BDE8704079
:1041A000FFF736BF2DE9F8431E4615460C46074675
:1041B0001A3004F195F8804621463846FFF7BDFFD6
:1041C00004000FD028682146C26828469047306016
:1041D00033462246414638460095FFF0C6F9204650
:1041E000BDE8F88300203060F9E72DE9F047C56BA2
:1041F0000646002406F11A0768884FEA500813E0C3
:10420000384604F16DF8814603462A464146304659
:1042100002F126FB00280BD005EB40014A46304650
:10422000FFF75AFF002803D02046641C0A28E7DB6A
:10423000BDE8F0872DE9F047924F160004460AD0FA
:10424000727BF07902F01002B18840EA0215042D69
:104250000ADDA81009E0A4F85270A4F85470A0F880
:1042600056701046BDE8F087012040F2DB639942AA
:104270008046A1F2DB6004F1440912D048DC40F230
:1042800053629142A1F253600BD020DC40F21962DC
:104290009142A1F2196079D004DCA1F5C26108292C
:1042A0007ED873E0352871D008DC012805D032288B
:1042B0006CD033286AD0342872D199E0362865D082
:1042C00037286ED0382861D0392869D15EE00A28B5
:1042D0005CD008DC0A2863D2DFE800F0BD588A8A87
:1042E00058585858588A832850D008DC0B284DD08D
:1042F0000C287DD01D2849D0212851D146E08428A2
:1043000044D0852842D0862840D0872848D13DE037
:10431000B0F5047F3AD029DC102837D00BDCA0F1AF
:1043200004000C283CD2DFE800F031313131633138
:1043300096963131966340F20B229042A0F20B2107
:1043400056D00ADC112821D0122851D0A0F50070D7
:1043500009381BD001287ED118E0012916D0022986
:1043600014D0032944D0042975D10FE0A0F2112004
:10437000132870D2DFE800F00A3C3C3C0A0A3C0AF1
:104380000A0A3C0A0A3C3C0A0A0A0A00B4F952002A
:10439000B8420CD1B4F95400B84208D1304601E01B
:1043A00059E025E002F1F0FEA4F852002BE00E22C5
:1043B00031464846FCF710F8B4F95600B84208D028
:1043C000304603F033F994F85610A1EB500084F80E
:1043D0004D00B4F95200B84204D0284401B2484616
:1043E00002F164F8484602F1CFFEA4F852002DE035
:1043F000B4F95200B8420AD1B4F95400B84206D117
:10440000304602F1C1FE401BA4F8540037E00E22F2
:1044100031464846FBF7E0FFB4F95600B84208D0F1
:10442000304603F003F994F85610A1EB500084F8DD
:104430004D00B4F95400B84205D0A0EB080001B219
:10444000484602F133F8484602F19EFE401BA4F8AC
:104450005400484606E7304602F196FEA4F85200A2
:10446000401BA4F854005234304603F0DFF84000FB
:104470000521B0FBF1F096F909100844A080304600
:10448000F0E600000080FFFFFFF05DB92DE9F05F6E
:104490008A469B465245164600F11A04804624D9A6
:1044A000A6EB0A001FFA80F900271CE0E18A08F158
:1044B0003205204631B3491E89B2C18203F035FF6F
:1044C0000146E888401C02281CD8E880A8880128FA
:1044D00001D2801CA880A888401E80B2A8807F1CC2
:1044E000BFB225F810104F45E0D35146204603F1E6
:1044F00016FF15E0761EE08AB6B2401C0A283BF88B
:10450000161001D9AFF30080E082A08A012801D201
:104510000A30A082A08A401E80B2A08224F8101027
:10452000002EE7D14046BDE8F05FFFF00CB9000077
:1045300070B50D460446606801684A6890470028D7
:10454000F9D10D4E30680168496F8847FEF09CFF35
:104550003068012100F06FFC606801688A682946B4
:1045600090472068C16A2046884730680168096F13
:10457000BDE8704008470000DC0100247047016876
:10458000496C084770B504460120207260680168D4
:104590008969884705460068402832D00CDC042829
:1045A0001CD004DC01282CD0022815D122E00828D8
:1045B0001AD0202810D124E0B0F5007F21D005DCEE
:1045C00080281ED0B0F5807F06D11AE0B0F5806F4C
:1045D00017D0B0F5006F0DD0AFF300802068297FB1
:1045E000826B2046904710E02068297F826B20462E
:1045F000904703E02068C16B204688472068426BE3
:1046000005E02068C16B204688472068026B294678
:104610002046BDE870401047704710B50446D0F8FA
:104620003C0100280CD00168C9688847002807D0E1
:10463000D4F83C010168896888470020C4F83C012F
:1046400010BD2DE9F0410446B0F91A010E46B4F947
:104650001831984201D1012100E00021B4F94851FC
:104660006A1C12B292FBF3F7A84203FB1722A4F8CC
:10467000482102D1401CA4F81A01D4F8280140F8BE
:10468000256031B1204600F0CEF9204600F004FA52
:1046900003E02946204600F0D4F92846BDE8F08121
:1046A00010B5FFF00DFD034901600021A0F848118D
:1046B00010BD00008C89100810B50446084603F0B0
:1046C00043FE216B484303F03FFEA06310BD898881
:1046D000A0F840107047704710B538210446FBF031
:1046E000A8FC2046FFF010FD0A4C002208494FF6B6
:1046F000FF7301604021C0E90E240B5280F8442072
:104700002E21A0F84620A0F84810C26410BD000079
:10471000B48A1008808D00080149016070470000CC
:10472000B48A100830B5DDE90345416002720C30EF
:1047300080E8380030BD704780F8341070472DE9AC
:10474000F0430546406987B00C46D0F8148095F8D0
:10475000340003F192FE074622464146284602F005
:10476000F4FC064622464146284602F12BFA024650
:10477000334601A82946009702F0BCFC002C17DD47
:10478000601E414602B22846164602F0DEFC814613
:1047900032464146284602F115FA02464B4603A826
:1047A0002946009702F0A6FC03A901A800F0DAFD53
:1047B000404602F18CF9401EA04217DD641C4146C0
:1047C00022B22846164602F0C0FC04463246414654
:1047D000284602F1F7F90246234603A82946009726
:1047E00002F088FC03A901A800F0BCFD404602F0DD
:1047F000ECFA0646404602F1ACF90446404602F1A6
:1048000077F90021024605A82346009600F1A0F999
:1048100001A9024603A802F0B7FDDDE90301CDE9D5
:104820000101286801A902692846904707B0BDE840
:10483000F08300002DE9FC411B4C0546D5E90060E2
:10484000A16969B3A06801EBD17101AF00EB610010
:10485000CDE90070A3692A68E169206800F040F89A
:1048600000970646A3696A68216A606800F038F814
:104870000644D4E9051000EBD07001EB6000CDE9EF
:104880000070A3692A68616AE06800F029F800975F
:104890008046A3696A68A16A206900F021F8404453
:1048A000C5E90060BDE8FC81A852002418B10021D0
:1048B000020C02D003E02020704710210004020EF9
:1048C00001D100020831020F01D10001091D820F40
:1048D00001D18000891C002800DB491C0846704774
:1048E0002DE9FE475FEA00081D4617468A460B9CE5
:1048F0004FF001064FF0FF3005D52168C8F10008E0
:10490000064649422160002F04DA21685742764268
:1049100049422160002D4FF0010901DA5D428146D4
:104920003846FFF7C3FF03463A4602A85146CDE991
:1049300000504046FFF0C8F821684E45029A1144E5
:1049400091FBF5F2104491FBF5F205FB1211216089
:1049500000D04042002E03DAC1F10001216005E0E1
:1049600003DD002907DA294403E004DA002902DD27
:10497000491B2160401EBDE8FE8738B504460D4640
:10498000343001F15FFDB4F93E000022B4F93C304F
:1049900011460090284601F075FA38BD2DE9F8431C
:1049A000044640890F461E46089D904632442944DD
:1049B000401A218900B20090891A3A460BB241464A
:1049C00004F1340001F05EFAB4F90830002204F179
:1049D000B8001146009701F055FAB4F90A00002218
:1049E00043461146009004F1600001F04BFA218922
:1049F0000022B4F90A003346891B009009B204F181
:104A00008C0001F03FFA60890021B4F90830401BA6
:104A1000009502B204F1E40001F034FA2046BDE84A
:104A2000F843FFF02DB9343002F0FCBC10B5029C05
:104A3000A0F81011A0F81221A0F81431A0F8164126
:104A400010BD70B50D46B0F91A11A94209DDC46D4B
:104A500005E020682946426F20469047A469002C53
:104A6000F7D170BD70B5D0F8E0400D46064605E0C0
:104A700020682946426F20469047A469002CF7D150
:104A8000D6F80C4105E020682946426F2046904741
:104A9000A469002CF7D170BD70B506460068D0F847
:104AA00090103046884704463068D0F8941030465D
:104AB0008847A042054608DA20B22C46054604E0A5
:104AC00021B23046FFF7CEFF641CAC42F8DD70BD6A
:104AD000704710B50446D4E90320801A002801DC91
:104AE000A368184401280DD9606800EB42101F220A
:104AF000FBF772FCD4E90210401C814200D8401A36
:104B0000E06010BDAFF30080D0E90321891A0029CD
:104B100001DC80680144012901DC0120704700208C
:104B20007047D0E90310814201D101207047002075
:104B30007047000010B5FEF0E1FC02490160012160
:104B4000016310BD6088000801488069704700005B
:104B5000A80100241D4B70B519469A680968904257
:104B600009D1DA688A4206D1D869102801D3012018
:104B700070BD002070BD5A68C3E90201824223D390
:104B800010F0030403D0C4F10404121B2144121AD0
:104B900001441961401C20F00100824214D310F03E
:104BA0000305C5F1040401D0121B2144121A8242EC
:104BB0000144596108D30DB1121B21440144101A5C
:104BC0001028C3E90610D2D2AFF30080A801002458
:104BD0000148406970470000A80100240148C069ED
:104BE00070470000A80100240448016819B140681A
:104BF00008B101207047002070470000A801002480
:104C000010B50446084603F09FFB216B484303F0B0
:104C10009BFBA06310BD009808704B708A707047B2
:104C200070B50446144E0020FF21A080E080217260
:104C30001049E06021602061316891F8760008B188
:104C4000C86C00B988680168496A884701280DD096
:104C500000253068C06C30B10168496A8847012876
:104C600000D0002005431DB1204670BD0125F0E7AE
:104C7000AFF30080E0880008DC0100243CB5084A5E
:104C800000251388074A1288ADF80050ADF80430AB
:104C9000ADF80250ADF806206A4600F005F83CBDBC
:104CA000D2010024D4010024074B10B51B78002B3F
:104CB00008D0012B06D103880C8804809088C01A84
:104CC000401E088010BD0000CC010024C26A514380
:104CD00000F007B8C36A5A4359430368D3F8B830A1
:104CE000184770B5044600680D46D0F808212046E4
:104CF0009047D4F82C012946401CC4F82C012068A8
:104D0000D0F80C212046BDE87040104710B5914204
:104D1000044601D1AFF300808A4202DA0846114608
:104D20000246D4F84001884203D1D4F844019042AD
:104D30000FD0C4E9501204F1600002F073FB04F1DB
:104D4000340002F06FFB04F18C00BDE8104002F06B
:104D500069BB10BD70B5C56A0446C162D0F8341194
:104D60002A4602F03DF8C4F834012A46D4F830113E
:104D7000204602F035F8C4F8300170BD4163704739
:104D800010B526210446FBF054F90C49201D216082
:104D900000F033FB083000F030FB00218160C1607F
:104DA00001220161FF238182C18201764276044A99
:104DB00040F80C2C8376C1610C3810BD488B00087C
:104DC000C08D1008704790F8771019B140680168DD
:104DD000096808470020704710B50446FFF011FA33
:104DE0002068D0F8A0102046BDE810400847000019
:104DF00010B504460C48407858B994F84800022889
:104E000007D06068FEF061FD18B16168487A00283B
:104E1000FCD0FEF789F90021204600F00CF820466E
:104E2000BDE8104000F01EB8CC0100244FF6FF7022
:104E30007047FEF773B970B5044690F878000D46D8
:104E4000A84209D0012800D13DB12068D0F8C01097
:104E50002046884784F8785070BD2068D0F8BC1090
:104E6000F6E7000010B504460648407840B12068D7
:104E7000C16A20468847E16B884201D1206C10BD91
:104E8000E06B10BDCC010024F0B50E4A0E4B114C66
:104E900090F874C090F834E00C4D0D4EF445118834
:104EA0001888277805D0002F0BD129800127308062
:104EB00004E0002F05D02880002731801980108061
:104EC0002770F0BDD2010024D4010024D6010024B3
:104ED000D8010024CC01002410B586B0044603A8F4
:104EE000CDE90312FFF7A6FC039802A9ADF8040070
:104EF0000498ADF8080001A8FFF0A8F894F86B102A
:104F000004F11C000029BDF8081016D089B20091E8
:104F1000BDF804108BB2B4F860108AB2B4F85C101B
:104F200089B200F0FFFF002805D0BDF90400E0655C
:104F3000BDF90800206606B010BD8BB2BDF80410A4
:104F40008AB2002101F02EF8012084F86B00ECE712
:104F500010B5044690F86B0000280DD0B4F860003E
:104F6000012183B2B4F85C0082B204F11C0001F0AC
:104F700019F8002084F86B0010BD10B50446406895
:104F800001688968884794F86900002802D00120E8
:104F900084F86A0010BD4068016889680847826B20
:104FA000002A01D00846104770470000F0B52F4F87
:104FB0000024DDE9056580C080E81E00046100F181
:104FC000180144610122048344838483C4830484DC
:104FD000448484848C7334318462848580F83040C6
:104FE00044638463C463046480F8444080F84520CB
:104FF00080F8464080F8474084640C804C808C8068
:10500000CC8044658465C46580F8602080F8614088
:1050100080F8624080F8632080F8644080F8654042
:1050200080F8664080F8674080F86840C46680F881
:10503000704080F8714080F8724080F8732080F8EA
:105040007420001F0B4AAE42094910600A4A0E80C4
:105050000A4915800C700A490E800A490D8001D258
:10506000012100E0002180F83410F0BD108A000812
:10507000D2010024DC010024D4010024CC0100244E
:10508000D6010024D80100240FB41CB50AA91A4681
:1050900001910999089B009105A9FFF0E5FA1CBC54
:1050A0005DF814FBF0B5DDE90545DDE90767DDE9ED
:1050B00009CE0160047147718671826085818373B6
:1050C00080F80FC080F810E0F0BD2DE9FF4F95B0DB
:1050D000DDE9224ADDF8A080DDE92459504601F1DE
:1050E00084FF11902868417A1391007A1290002071
:1050F000B4F9004006460D9007462798B8F1000F16
:105100000F9006D0287C042805D001200F99084470
:105110000F900020DAE00220F8E700200C903046E3
:1051200000F012F900B90D96279988450EDB286822
:105130000168496988470646286810AB0EAA0168CD
:10514000D1F808C03146E0470C900AE010A90EA83B
:105150000CABCDE900012A6849462698FEF023FBF6
:105160000646304600F0F0F800281DD1002E7ED013
:105170000A2E7DD00C9808B1868807E0286801685F
:105180000969884700F0E0F800280DD1B9F1000F57
:1051900000D13C440C9830B102F04FFA07B2B9F19B
:1051A000010F02D002E000278EE0E41B0D9868B1E9
:1051B0002868B9F1000F0168CB6BDDE90C2102D042
:1051C0009847241A05E09847044406E0B9F1000F17
:1051D00003D0B9F1010F06D00CE01298211A1198F2
:1051E000814278DC06E01398E1190144BAF9000025
:1051F000814270DB0C98427B817902F0080241EA1F
:1052000042110A1990F90910BAF900000A448242C1
:105210005ADB0A1911998A4256DAA0424FF0000B64
:1052200002DD001B1FFA80FB002000902868016847
:10523000C96A88470C9B01465A7B187A02F0200CF9
:1052400040EACC005FEA426C01D5A0F50070091A73
:105250001898084400B20190BAF9021081420EDD9C
:10526000DB7902F0100243EA0212024401E047E057
:1052700042E08A4228DB081A80B2CDE900012868A2
:105280000168896B88470DF1240CAB79AA7B9DF8E6
:1052900040108CE80E000C9BA9680E9A0891CDE98D
:1052A00004A3009904EB0B03CDE906201BB2009385
:1052B000CDE902B117980268436815980068D0F8E4
:1052C00040C0DDE91501E04708F101000F99804673
:1052D0008842FFF622AF9EB10A2E0DD008F10104DC
:1052E00007E026984946FEF728FF48B10A2803D070
:1052F000641C27988442F4DB002019B0BDE8F08FCD
:105300000120FAE770B514460D462BB1012B07D0EA
:10531000022B09D0032B0BD0B0F90200104470BD52
:10532000B0F90200084470BD02F00FF8001B02E063
:1053300002F00BF8401B401E70BD10B5029C0180AE
:1053400042808380C48010BDA0F57E41FF3905D026
:10535000A0F500510B3901D00020704701207047A3
:10536000704770472DE9F04704460D46084601F1A5
:1053700041FE00283FD1204601F13CFE38B128888B
:10538000208068886080A888A080E88832E0B4F92E
:105390000000B5F90010884200DB0846B4F902604D
:1053A0008046B5F90200864200DB0646204601F140
:1053B0001CFE0746284601F118FE874201DD204603
:1053C00000E0284601F111FE8146204601F0BDFFB4
:1053D0000746284601F0B9FF874201DD204600E07C
:1053E000284601F0B2FFA4F80080801B6680A9EB7C
:1053F0000801A180E080BDE8F087002101804180A4
:105400008180C18070472DE9F0418846044601F152
:1054100022FE88B3B4F90050B8F90000854200DCE0
:105420000546B4F90260B8F90200864200DC06467F
:10543000204601F1DAFD0746404601F1D6FD8742DC
:1054400001DA204600E0404601F1CFFD401BA0807C
:10545000204601F07AFF0746404601F076FF87427A
:1054600001DA204600E0404601F06FFF801BE0803B
:1054700025806680BDE8F081FFE700202080608005
:10548000A080E080F6E7000440EA0120104340F0ED
:105490007F40704770B5002821D111490A1F096863
:1054A00041B10B680B4493604B680B44D3608B682D
:1054B0005C1806E00B4991600B490968D1600B4903
:1054C0000C68002C0BD01080FDF004FF0546FDF7A2
:1054D000B1FC07490C6007490D600749088070BDA1
:1054E000B8000024149000080485100818900008E3
:1054F000E4010024EC010024F00100241F4A70B5EF
:105500001369002B39D051884FF6FE7690880144FC
:105510004C1C3440C0EBC0008D000326640006EB39
:1055200040002B44536120F003002344D360034424
:10553000936100231380166A751B2C1B201AD061FF
:1055400018464FF6FF74D38006E0156945F8203001
:10555000556925F81040401C8842F6D3D3680020D6
:1055600008E0C0EBC001401C03EB41010C7B24F0C0
:1055700020040C7391888842F3D370BD8401002409
:105580000022C26070470000F0B589B015467A4A23
:10559000C0E9002100228260C260026142611830CD
:1055A000FEF07AFA1830FFF0CDFF483000F1D6FE59
:1055B000002380F82430A0F178040385438580F827
:1055C0002C30012084F8A500A82084F8A6300351CF
:1055D000AC200351B42084F8B03084F8B1300351CA
:1055E000B8200351FFF700FB002877D06068002344
:1055F00001894089ADF81830ADF81C102946ADF886
:105600001A30ADF81E000698009007980190684681
:10561000FFF7F9FE0098049001980590DDE9040178
:10562000CDE90201606801688A6A02A99047616851
:1056300004A8091DFEF0D8FC02A8FEF0BFFCBDF9CD
:105640001400FFF787FA84F8A40004F1300000F09A
:1056500053FBBDF91000A4F8A000BDF81210A4F887
:10566000A21002F10CFFA060BDF9120002F107FFC9
:10567000E060BDF9140002F102FF2061BDF91600DF
:1056800002F1FDFE60613D4800680168496A884793
:105690000546FEF039FE0168896A884700270646FC
:1056A000FEF032FE0168496A88470E284AD2DFE8D8
:1056B00000F033385B076016264242424242606087
:1056C000BDF90800BDF90A30C11700EB517105EBB7
:1056D000E10203FB062521F007010DE049E0BDF9D9
:1056E0000800BDF90A30C11700EB917105EBA1026A
:1056F00003FB062521F00301401AC7B222E0BDF9E1
:105700000800BDF90A3000EBD07105EB610203FB24
:10571000062521F00101EFE7BDF9080005EB400087
:1057200004E0BDF9080000EB40002844BDF90A1070
:1057300001FB060506E0BDF90A10BDF9080001FBF2
:1057400006000544BDF90E0020673A46BDF90E007B
:105750002946CDE90006BDF90C3004F11800FEF72A
:10576000E1FF09B02046F0BDBDF9080005EB80005F
:10577000DCE7AFF300800000248E1008DC01002479
:1057800010B5044607482060074800680168896A28
:10579000884704F1300000F0F7FA1838FEF7CBFF25
:1057A000183810BD248E1008DC01002470477047A3
:1057B0002DE9F04F0D46016B04469BB0287911B1DD
:1057C00000287DD0A0E000287BD16248002100683D
:1057D00090F849001790A186E1861798401E03288B
:1057E00070DB0B28216301DD032002E0032190FB25
:1057F000F1F04FF0000B5A46594616904FF0FF302B
:1058000015905548008800B200905448008803B2B3
:1058100018A8FFF09DF95249482201A8FAF7DCFDCB
:10582000012060E01799A9F1010609FB01F0169922
:1058300090FBF1FA53E001A90020009031F8360006
:1058400000FB0AF00FFA80F801EBC600E9888088B7
:1058500000FB0AF007B22889384402B201EB0800C5
:1058600001B218A801F076FD68B328896B46384468
:1058700002B2E888404401B2201D00F185FD009984
:1058800009B359452AD013A801F025FEBDF95000EF
:10589000BDF94C20B5F9061000EBD070BDF94E30C3
:1058A00002EB6000B5F90820091ABDF9520000EBBF
:1058B000D07003EB6000101A494300FB001003E0B6
:1058C00045E01EE014E009E01599884206D20099EF
:1058D000159021638B46A4F83480E786B61C092E08
:1058E000A9DB09F101001699814688429ADD08E09A
:1058F000B5F90820201DB5F9061004F1300300F1B8
:1059000043FD206B002822D0216B04A801F0E3FDA9
:1059100028890026E18E0844BDF81210401AA18E95
:1059200003B2E8880844BDF81010401A297902B281
:10593000009601A8FDF7CEFB206B01680A6C01A957
:1059400090472879002802D02663A686E6861BB0F9
:10595000BDE8F08FDC010024D4010024D201002432
:105960000885100830B50C46016B85B00546002946
:105970001FD003A801F0AFFD2089AB8E2279184417
:10598000BDF80C30E188C01A6389EC8E8DF80420D4
:105990002344BDF80E40ADF808001B1B064C0094D4
:1059A000ADF80610ADF80A30286B01684A6C6946FC
:1059B000904705B030BD0000F88400081CB50A46C9
:1059C000044600F10801684601F0DEFC94F8380056
:1059D000694618B1204600F005F81CBD201D01F1F4
:1059E000A4FB1CBD38B505460C4600206A46009055
:1059F000281D00F1FBFC009A002A03D0214628460E
:105A0000FFF076FA38BD00002DE9F0411D49016034
:105A10001D4941600830FFF7F0FC0830FFF7EDFC4E
:105A200000258560C560A0F10C0605618582C582F0
:105A30000576012086F82500341FB5621349F5620A
:105A400031603586758686F834001148CA6A294661
:105A500000880FFA80F80F48008807B23046904758
:105A600030682946026B3046904730684146426BA9
:105A70003046904730683946826B30469047204622
:105A8000BDE8F081348E1008488B0008508F100854
:105A9000D2010024D401002490F82510002904D05C
:105AA00090F82410002900D01860704701E000F839
:105AB000011B521EFBD27047F8B515466B4600F02D
:105AC0001CF8040000980BD402F03EFC0646284661
:105AD00002F03AFC401CB6EB600F0CDB601CF8BD1A
