:020000040800F2
:10000000408E0024C1001008952500084F1F0008ED
:10001000192B10084D06100871331008000000005D
:1000200000000000000000000000000001001008B7
:10003000FD061008000000005D001008092E1008E1
:10004000DB001008DB001008DB001008DB001008E4
:10005000DB001008DB001008DB001008DB001008D4
:10006000DB001008DB001008DB001008DB001008C4
:10007000DB001008DB001008DB001008DB001008B4
:10008000DB001008DB001008DB001008DB001008A4
:10009000DB001008DB001008DB001008DB00100894
:1000A000DB001008DB001008DB001008DB00100884
:1000B000DB001008DB001008DB001008DB00100874
:1000C000DB001008DB001008DB001008DB00100864
:1000D000DB001008DB001008DB001008DB00100854
:1000E000DB001008DB00100800000000DB00100837
:1000F000DB001008DB001008DB001008DB00100834
:1001000079050008DB001008DB001008DB00100890
:10011000DB001008DB001008DB0010088528000851
:10012000DB001008DB001008DB001008DB00100803
:10013000DB001008DB001008DB001008DB001008F3
:1001400000000000000000000000000000000000AF
:10015000DB001008DB001008DB001008DB001008D3
:10016000DB001008DB001008DB001008DB001008C3
:10017000DB001008DB001008DB001008DB001008B3
:10018000DB001008DB001008DB001008DB001008A3
:10019000DB001008DB001008DB001008DB00100893
:1001A000A1281008DB001008F1061008DB00100879
:1001B000DB001008DB001008DB001008DB00100873
:1001C000DB001008DB001008DB001008DB00100863
:1001D000DB001008DB001008DB001008DB00100853
:1001E000DB001008DB001008DB001008DB00100843
:1001F000DB001008DB001008DB001008DB00100833
:10020000DB001008DB001008DB001008DB00100822
:10021000DB001008DB001008DB001008DB00100812
:10022000DB001008DB001008DB00100800000000F5
:10023000DB001008DB00100800000000DB001008E5
:10024000DB001008DB001008DB001008DB001008E2
:10025000DB001008DB001008DB001008DB001008D2
:10026000DB001008DB001008DB001008DB001008C2
:10027000DB001008DB001008DB00100800000000A5
:10028000DB001008DB001008DB0010080000000095
:1002900000000000DB001008DFF818D000F0D0F8F4
:1002A00000F01CF800480047657C1008AFF30080A0
:1002B000FFF092FF408E002440EA01039B0703D029
:1002C00009E008C9121F08C0042AFAD203E011F895
:1002D000013B00F8013B521EF9D2704770B5054C46
:1002E000054D03E0206820448047241DAC42F9D12D
:1002F00070BD00002C9600083C96000830B50B46F7
:10030000014600202022012409E021FA02F59D4245
:1003100005D303FA02F5491B04FA02F52844151E19
:10032000A2F10102F1DC30BD00487047F801002461
:100330002DE9F04D81EA030404F0004B21F0004563
:1003400014464FF0000A23F0004150EA050220D085
:1003500054EA01021DD0C5F30A570246C5F3130340
:10036000C1F31300C1F30A5640F4801543F480131F
:10037000A7EB0608101BD64608F2FD3873EB050004
:1003800002D308F1010801E092185B41B8F1000FB7
:1003900003DA00200146BDE8F08D00204FF4801103
:1003A000064684460EE0171B73EB050705D3121BA8
:1003B00063EB050306434CEA010C49084FEA3000A1
:1003C00092185B4150EA0107EDD152EA030012D0C6
:1003D00082EA040083EA0501084305D0101BAB4103
:1003E00006D20122002306E000224FF0004302E083
:1003F0006FF0010253101AEB06004CEB085110EBA2
:100400000A0041EB0B01BDE8F04D00F02CB8C1F340
:100410000A52C1F3130140F2FF3341F480119A42B2
:1004200002DA00200146704740F233439A42A2F2BA
:10043000334202DC5242FFF0BEBEFFF0ADBE000010
:10044000064C074D06E0E06840F0010394E8070021
:1004500098471034AC42F6D3FFF722FF0896000805
:1004600028960008704710B5141E73F1000408DACE
:10047000401C41F1000192185B411A4301D120F068
:10048000010010BD2DE9F04D92469B4611B1B1FA25
:1004900081F202E0B0FA80F220329046FFF07CFE5A
:1004A00004460F4640EA0A0041EA0B0153465A4609
:1004B000084313D0114653EA010019D0C8F1400295
:1004C0005046FFF078FE05460E46504659464246D5
:1004D000FFF062FE084305D0012004E020463946C3
:1004E000BDE8F08D0020054346EAE0762C43374313
:1004F0000A986305E40AA0EB08000022FD0A44EA1A
:1005000047540A3002D500200146E9E701051019D9
:100510006941DDE9084500196941BDE8F04DA2E7F0
:1005200070B58C1810F8015B15F0070301D110F8B5
:10053000013B2A1106D110F8012B03E010F8016BE2
:1005400001F8016B5B1EF9D12B0705D40023521E65
:100550000DD401F8013BFAE710F8013BCB1A921CCD
:1005600003E013F8015B01F8015B521EF9D5A142CB
:10057000D8D3002070BD0000014801F13DBF00004C
:1005800078050024426943F6FE739A4342EA41012A
:1005900041610020704700002DE9F04F8B8A6FF019
:1005A0000F05264C4FF07F4BD1F80C9004EB035312
:1005B0006FF0FF044FEA042A1AB386684FEA093243
:1005C0001F4FA2F580521A433E4032438260D1E968
:1005D00000278E68521E05EB07150F8A2A43C5684F
:1005E00004EB06240E7E0AEB074322431A430BEB6F
:1005F00006610A4305F070431A43C2600020BDE85B
:10060000F08F91E804110F4E521E0F8A05EB08156A
:100610002A4304EB0C2C06EB09350E7E42EA0C0251
:100620002A4385680AEB074422431A430BEB066111
:100630000A4305F070431A438260DFE70000F0FFD1
:10064000FF0F0FFF00F0FFFF7CB50E46154600219F
:100650000191020A8DF80500FF240D480223BA21FA
:100660008DF8042001AA009400F0C6FB10B109A087
:1006700007F17AFA0648BB212B463246009400F176
:1006800031FE002802D003A007F16EFA7CBD000005
:100690006C03002472656164207265672065727264
:1006A0006F720D0A000000001CB50022030A0192BF
:1006B000FF248DF8043003238DF8050001AA0648B5
:1006C0008DF80610BA21009400F096FB002802D0A5
:1006D00002A007F149FA1CBD6C030024777269740B
:1006E0006520726567206F6E65206279746520658C
:1006F00072726F720D0A00002DE9F047044690F8FF
:10070000500000270E4601289AB014D0DFF8F88078
:10071000012122684FF0000984F8501042450ED1A3
:100720003A4D0095284601F0F5FC8246206801F01C
:10073000F1FC60B10EE002201AB0BDE8F087616DF7
:1007400084F8509041F0200161650120F4E7BAF18E
:10075000000F09D0606D012740F02000C4F854005C
:10076000384684F85090E7E720684146884201D037
:10077000A84201D1264800E0264840F61F72D6F86C
:1007800000C0254BBCF1000F23D0D0F808C0D6F82C
:1007900004802CF4404C4CEA080CC0F808C0D4F893
:1007A00000C08C4501D0AC4507D18968AB6801F029
:1007B000010103F00103194302E0996801F001010E
:1007C0000029CDD1B5683168836829439343194323
:1007D00017E0866826F44046866026688E4201D07F
:1007E000AE4207D18968AB6801F0010103F0010353
:1007F000194302E0996801F001010029B0D1816834
:1008000091438160ACE700000020024000210240DB
:100810000023024000630258006002580068006C28
:1008200070470000F8B54FF000060400354600960A
:1008300002D0606D10B107E00120F8BD204600F144
:1008400093F9A66584F8506020688168C1F340710F
:1008500019B181686F4A1140816020688168C1F3D5
:10086000007179B981686C4A114041F08051816012
:100870006B496A480968B1FBF0F000E0401E009047
:100880000028FBD120688168C1F3007141B9616D16
:10089000012541F010016165A16D41F00101A165E3
:1008A00001F1F2FF616DC90600D420B1606D012530
:1008B00040F0100093E0606D20F4807040F0020082
:1008C00060652068816811F0010F1FD15549564BB2
:1008D000884201D0984207D18A689E6802F00102DE
:1008E00006F00106324303E0504A926802F001022A
:1008F00062B9884201D0984201D14D4800E04D488C
:100900008268616822F47C120A43826000F06EFA09
:1009100041F20301884202D9A06810280CD0617D01
:10092000227FA368206B490341EA02411843084330
:10093000217F01290CD010E0607D227F216B4003D4
:1009400040EA024241F01000104340F00C00EFE793
:10095000218C394A02EB41410843616A29B1A26AFC
:1009600001F47871014342EA01002268334BD168F7
:1009700019400143D160206801F186FF06462068D6
:1009800001F0C4FB30431DD1216844F20303267DEE
:10099000E26AC86842EA863298431043C86094F815
:1009A000380001281ED02068016921F00101016191
:1009B0002068626B016921F070411143016120469A
:1009C000FFF06EFDE068012820681CD0016B21F06B
:1009D0000F010163606D20F0020040F001006065CE
:1009E0002846F8BD2068A38F154FD4E9101C154E7A
:1009F00007EB0347A26C036941EA0C013A43334019
:100A000011431943D3E7A269016B521E21F00F0174
:100A10001143DEE7C0FFFF5FC0FFFF7F400D030013
:100A200048000024002002400021024000600258DB
:100A300000230240006302580000FEFF03C0F0FFE5
:100A40000100FFFF1EF800FC2DE9F047414D044670
:100A5000006888464049414BA842DFF8049101D024
:100A6000484501D10A4600E01A46926802F01F0686
:100A70002269082A14D0AEB1052E13D0092E11D048
:100A8000A84202D0484500D01946886800F440408A
:100A900058B1606D40F0200060650120BDE8F0872E
:100AA000082703E0C068C007F2E7042700F162FBF3
:100AB00082460BE0B8F1FF3F08D000F15BFBA0EBF2
:100AC0000A01414511D8B8F1000F0ED02068006826
:100AD0003842EFD0606D40F400706065206801F12D
:100AE000D7FED0B1607D48B117E0606D002184F879
:100AF000501040F0040060650320CFE720680068D4
:100B000000070AD5606D20F480706065606DC004D8
:100B100003D4606D40F0010060652068484501D154
:100B20002A4600E00246824210D07EB1052E0DD04A
:100B3000092E0BD0484500D00546E968082F07D09C
:100B4000490401D40C2101600020A7E7C168F5E742
:100B50000821F8E700200240002302400063025809
:100B60000021024008B500680649884208D10648BD
:100B7000016841F400210160006800F40020009049
:100B800008BD0000004C0258E0440258F0B590F84F
:100B90006020012A22D0C1EBC102012780F86070D9
:100BA000022380F8613000EB8202284D138F168EED
:100BB000B2F83CC0D46A1B05283244EA064643EA30
:100BC0004C530A2C46EA03060AD0092C08D0137BA2
:100BD00046EA036349B10B2C1AD01DE00220F0BD98
:100BE000D36803F07F433343F4E701684C6AAC43B6
:100BF0001C434C62016813688B6151680A2901D05B
:100C000009291BD1D168026821F07F41916215E06A
:100C1000118B0F4D43EA81430168CC69AC431C43FF
:100C2000CC61016813680B6151680A2901D0092958
:100C300004D1D168026821F07F411162002180F85F
:100C4000617080F860100846F0BD00000F0033FFAF
:100C50000F003FFF2DE9F0470446006800274FF0E2
:100C600004084FF0010946680568F10714D0E9054A
:100C700012D5036823F480730360606E40F00100B6
:100C800060662068C0F8089084F8618084F860701D
:100C9000616A09B120468847B00615D5A80413D566
:100CA00020682022036823F40053036020688260D8
:100CB000606E40F00200606684F8618084F86070C5
:100CC000616A09B120468847300715D5280513D534
:100CD00020680822036823F40063036020688260B0
:100CE000606E40F00400606684F8618084F8607093
:100CF000616A09B12046884770070CD568050AD596
:100D00002068026822F4806202602068C0F80880CF
:100D1000204600F02DF8B00713D5A80511D520689E
:100D20000222036823F40073036020688260606E0F
:100D3000606684F8619084F86070216A09B1204689
:100D40008847F00612D5E80410D52068016821F420
:100D500080510160226810219160616E616684F8A3
:100D60006190204684F8607000F148F8BDE8F08793
:100D70007047000008B500680B49884212D10B4843
:100D8000016841F01001016000680022052100F0B7
:100D9000100000905A2000F029FABDE808405A20BF
:100DA00000F14CBC08BD000000100052D4440258B1
:100DB00070B5044600F1DEF90546601C02D0044817
:100DC0000078044400F1D6F9401BA042FAD370BD6C
:100DD0003C000024426931EA020200D10904816129
:100DE00070470AB1816170470904FBE70148006858
:100DF000000C70470010005C2DE9F84F044690F895
:100E000041001F469046DDF828A08B4620287ED161
:100E100094F8400001287AD0012084F8400000F1C5
:100E2000A9F90122064619230090D103204601F0BA
:100E3000FBF8E0BB0025212184F84110102084F844
:100E4000420065646785618DFF2732484FF0007965
:100E5000C4F82480FF294FF08078656303D9278583
:100E60003A46009039E0618D218500903AE059467C
:100E7000204601F0C3F813E001F1DDFCB8B9606A67
:100E8000216800788862606A401C6062608D401E44
:100E90006085208D401E80B22085618D01B168B1D2
:100EA000608D3246514600282046E5D100E002E040
:100EB00001F19AFCD0B10120BDE8F88F0022534621
:100EC00080212046009601F0AFF80028F3D1608D14
:100ED000FF2804D927853A4600954346C7E7608D29
:100EE000208500954B4694F82820C0E720682021F3
:100EF000094AC161206843681340436084F8411087
:100F000084F84250002084F84050D5E7FFE70220E3
:100F1000D2E700000020008000E800FE10B586B097
:100F2000044614216846FFF015F9134920688842E9
:100F30001FD11248016841F080010160006804235C
:100F4000302100F0800005900020009112226946B7
:100F5000CDE90120CDE903030948FFF0EDFF074883
:100F60000830016841F480010160006800F48000ED
:100F7000059006B010BD000000580040E044025843
:100F8000001C025802488168027811448160704751
:100F90003C0000242DE9F041044690F8A0001646DC
:100FA0000F4601281DD0012584F8A050022084F8A6
:100FB000A10006EB860000EBC600342204EB8000A3
:100FC0003830FFF779F932463946204601F0B5F856
:100FD000216800204D6284F8A15084F8A000BDE88B
:100FE000F0810220FBE770472DE9F04104460068DC
:100FF00000274FF00408856B466B690715D571070C
:1010000013D5426B22F0040242632068C0F83C8092
:10101000D4F8A40040F00100C4F8A40084F8A18032
:10102000204684F8A070FFF7DEFFA80716D5B007AA
:1010300014D520680222436B23F002034363206827
:10104000C263D4F8A40040F00200C4F8A40084F8FD
:10105000A180204684F8A070FFF7C5FF05EA0600CE
:101060004FF00108C0070ED021684A6B22F0010240
:101070004A632168C1F83C8084F8A180204684F846
:10108000A07000F135FA280710D530070ED520687A
:101090000822436B23F0080343632068C26384F88B
:1010A000A180204684F8A07000F1B4FABDE8F08178
:1010B0002DE9F041040004D094F8A100002518B1F6
:1010C00007E00120BDE8F081204684F8A05000F13F
:1010D0003BFA3448022184F8A110012202CC8B692A
:1010E00023F070438B6194E84A001943E3681E4380
:1010F00054F8043D31439E693143996121688B68FE
:1011000003408B602168A68AA7698B683B4343EA4A
:1011100006438B602168CB680340CB602168A38BBA
:10112000276ACE683E4346EA0346CE6021680B69D3
:1011300003400B612368A68CA76A1969394341EA09
:101140000641196121684B6903404B612068A38DFA
:10115000266B4169314341EA03414161236894F8B8
:10116000351094F83600DE6A000406F07F46DE6231
:10117000236840EA012094F83460D96A314301437E
:10118000D9622068416B41F00601416320688169A2
:1011900041F001018161C4F8A45084F8A12000202D
:1011A00090E7000000F800F070B590F8A020012A48
:1011B00018D00D4D012380F8A030022280F8A12024
:1011C000002450F8A02B566B26F0010656632964C4
:1011D00050F8A01C4A6B42F001024A63437004704D
:1011E000204670BD022070BD001000500E4BF0B4C0
:1011F0001B680D46C3F30223C3F10706042E00D972
:101200000426191D072901D2002300E0DB1E01245A
:1012100004FA06F19C40491E2940641E994014407E
:101220002143F0BC06F1B0BC0CED00E0134970B5F1
:101230000A68D243520705D5096801F007018142C7
:1012400013D118E00A6822F0070202430A60FFF097
:1012500091FF0A4D4FF47A760446083D07E000BF3F
:10126000FFF088FF001BB04201D9012070BD286843
:10127000C0438004F4D4002070BD00000C48025824
:1012800010B500F1E9FF05490968054AC1F30211EB
:10129000515C01F01F01C84010BD000020440258FD
:1012A00084890008494930B5484C0B1D0A680C3444
:1012B00009681D68246802F0030305F00102C1F308
:1012C0000511C4F3CC04002914FB02F200EE102A2D
:1012D000F8EE400A75D03F4A9FED3D1AB7EE000A7E
:1012E0006BB1DFED3D1A012B01D0022B64D002EE71
:1012F000101A1168F8EE422A81EEA22A21E0334C3E
:10130000283C23689B0612D5344B246801EE901AC2
:101310001168C4F3C104F8EE612AE34001EE903A8B
:10132000C1F30801F8EE611A81EEA22A0BE001EE8A
:10133000901ADFED2B2A00BFF8EE611A116882EED9
:10134000A12AC1F3080101EE901A1168F8EE611AA2
:1013500040EE811A71EE800A62EE200AC1F3462146
:1013600001EE101AB8EE411A31EE001AC0EE811AE1
:10137000BCEEE11A80ED001A1168C1F3064101EEDE
:10138000101AB8EE411A31EE001AC0EE811ABCEE06
:10139000E11A80ED011A1168C1F3066101EE101A1D
:1013A000B8EE411A31EE000A80EE801ABCEEC10A96
:1013B00080ED020A30BD04E001EE901ADFED092A4B
:1013C000BAE70021016041608160F3E728440258D8
:1013D00000000039304402580024744A0090D003C1
:1013E0000024744C20BCBE4B494930B5484C0B1D01
:1013F0000A68143409681D68246802F00303C5F301
:101400000012C1F30531C4F3CC04002914FB02F22D
:1014100000EE102AF8EE400A75D03F4A9FED3D1AC3
:10142000B7EE000A6BB1DFED3D1A012B01D0022BA4
:1014300064D002EE101A1168F8EE422A81EEA22A58
:1014400021E0334C283C23689B0612D5344B24689A
:1014500001EE901A1168C4F3C104F8EE612AE3406A
:1014600001EE903AC1F30801F8EE611A81EEA22A6A
:101470000BE001EE901ADFED2B2A00BFF8EE611AA7
:10148000116882EEA12AC1F3080101EE901A1168D9
:10149000F8EE611A40EE811A71EE800A62EE200ABF
:1014A000C1F3462101EE101AB8EE411A31EE001ACE
:1014B000C0EE811ABCEEE11A80ED001A1168C1F38A
:1014C000064101EE101AB8EE411A31EE001AC0EED4
:1014D000811ABCEEE11A80ED011A1168C1F30661B0
:1014E00001EE101AB8EE411A31EE000A80EE801AB1
:1014F000BCEEC10A80ED020A30BD04E001EE901A94
:10150000DFED092ABAE70021016041608160F3E75D
:101510002844025800000039384402580024744A14
:101520000090D0030024744C20BCBE4B2DE9F05F2A
:1015300004000F467ED0DFF83882D8F8000000F0B3
:101540000F00B8420CD2D8F8001021F00F01394337
:10155000C8F80010D8F8000000F00F00B84269D1B8
:101560002078844D40070AD52069296801F0700170
:10157000884204D9296821F070010143296020784C
:101580007C4E361D00070AD56069316801F0700194
:10159000884204D9316821F070010143316020781C
:1015A000C0060AD5A069316801F4E061884204D917
:1015B000316821F4E061014331602078DFF8B4B193
:1015C00080060BF1080B0CD5E1695846DBF80020CA
:1015D00002F07002914204D9026822F070020A43BC
:1015E0000260207880070AD5E068296801F00F01C1
:1015F000884204D9296821F00F010143296020782D
:10160000C0073ED05B49A2682868183920F4706092
:10161000104328606068022818D0032819D0096890
:10162000012819D0490700294ADADFF848A1AAF1B0
:10163000080A00E044E0DAF8002022F00702024342
:10164000CAF80020FFF096FD814612E00968890380
:10165000E9E709688901E6E7C905E4E7FFF08AFDE3
:10166000A0EB090141F28830814202D90320BDE894
:10167000F09F6168DAF8000000F03800B0EBC10FAD
:10168000ECD1207880070AD5E068296801F00F01C5
:10169000884204D2296821F00F0101432960D8F85B
:1016A0000010404601F00F01B9420BD9016821F04A
:1016B0000F0139430160006800F00F00B84201D00B
:1016C0000120D4E7207840070AD52069296801F075
:1016D0007001884204D2296821F070010143296019
:1016E000207800070AD56069316801F070018842EE
:1016F00004D2316821F07001014331602078C006C6
:101700000AD5A069316801F4E061884204D23168E9
:1017100021F4E06101433160207880060CD5E16955
:101720005846DBF8002002F07002914204D20268B1
:1017300022F070020A43026000F1C2FD0E492A68DD
:101740002B68C2F3032203F00F038A5CC95C02F02A
:101750001F0201F01F01D040084A20FA01F1116078
:101760000749086007480068BDE8F05FFFF07ABEEF
:101770000020005218440258848900084C000024BC
:10178000480000244000002470B5144C3F22026041
:10179000124A24680832131D114D04F007044460F6
:1017A00016681C1D06F470668660166806F00F0643
:1017B000C660126802F0700202611A6802F07002DC
:1017C00042611A6802F4E0628261226802F07002EB
:1017D000C261286800F00F00086070BD1044025814
:1017E0000020005200B500F137FD05490968054A9F
:1017F000C1F30211515C01F01F01C84000BD00009F
:101800001C440258848900082DE9F05F04007CD054
:10181000FF4F2078FE4D1837DFF8F493103DC007D6
:1018200048D0D9F80000396800F03800102815D0E9
:10183000182803D101F0030002280FD06068B0F52A
:10184000803F12D010B1B0F5A02F18D0286820F436
:1018500080302860286820F4802009E02868800310
:1018600028D560680028D2D024E0286840F4803071
:101870002860606888B1FFF07DFC064609E02868B2
:1018800040F480202860F0E7FFF074FC801B64289F
:101890007ED828688003F7D50CE0FFF06BFC064685
:1018A00005E000BFFFF066FC801B6428F0D82868C4
:1018B0008003F7D4207841F20308D54E0C3E800710
:1018C00053D5D9F80000396810F038000ED0182828
:1018D00001D188070AD0E068A8B3296821F019016E
:1018E00001432960FFF046FC82461BE02868400760
:1018F00002D5E06800288AD0FFF778FA40451BD867
:101900002069402812D0316800E0CCE021F47C311D
:1019100041EA0030306028E0FFF02CFCA0EB0A0028
:101920000228B5D828684007F6D5E5E7306820F4E6
:101930007C3040F40030EDE7207C316821F0FE413E
:1019400041EA0060E6E7FFE7286820F00100286030
:10195000FFF010FC824605E0FFF00CFCA0EB0A0053
:10196000022895D828684007F6D42078C0065FD5AD
:10197000D9F80000DFF898B2396800F03800ABF110
:10198000040B082812D0182805D101F0030000E04C
:10199000EAE001280AD0E0690028286838D040F041
:1019A00080002860FFF0E6FB824623E02868C0053F
:1019B00023D5E069802876D11FE0206A202821D035
:1019C000316821F0F84141EA8060306030E000BFCA
:1019D00094F82010DBF8002022F07C5242EA0161EA
:1019E000CBF8001024E000BFFFF0C4FBA0EB0A001E
:1019F000022896D82868C005F6D5FFF7F7F94045C4
:101A0000E6D8DAE7306820F0F84040F08040DCE7C4
:101A100020F080002860FFF0ADFB064605E000BF27
:101A2000FFF0A8FB801B02289BD82868C005F7D4CC
:101A30002078000729D576486169643000298046FE
:101A4000016811D041F001010160FFF093FB0646EF
:101A500005E000BFFFF08EFB801B0228C9D8D8F834
:101A600000008007F6D510E021F001010160FFF0D1
:101A700081FB064605E000BFFFF07CFB801B0228CF
:101A800072D8D8F800008007F6D42078800623D5D5
:101A9000A0690028286810D040F480502860FFF02A
:101AA00069FB064605E02CE1FFF064FB801B022881
:101AB0005AD828688004F7D50EE020F480502860BA
:101AC000FFF058FB064604E0FFF054FB801B0228A1
:101AD0004AD828688004F7D4207840074FD5DFF82B
:101AE0003481D8F8001041F48071C8F80010FFF07C
:101AF00041FB064605E000BFFFF03CFB801B64286D
:101B000032D8D8F80000C005F6D5414EA06860363E
:101B100001280AD008B1052813D0306820F0010050
:101B20003060306820F0040002E0306840F00100CE
:101B30003060A06841F2883A90B1FFF01BFB80460C
:101B40000AE0306840F004003060EEE7FFF012FB7E
:101B5000A0EB0801514507D830688007F6D50EE0A4
:101B6000FFF008FB804607E084E000BFFFF002FBC7
:101B7000A0EB080151457DD830688007F6D4606A33
:101B8000F0B3DFF88C80D9F8001008F12008C1F319
:101B9000C20103296FD00228286820F080702860D5
:101BA00003D0FFF0E7FA044680E0FFF0E3FA0646D0
:101BB00005E000BFFFF0DEFA801B022873D828681A
:101BC0008001F7D4E26A40F2F331386854F8283FD4
:101BD000884340EA021018433860217B4FF4FE0C22
:101BE00022894FF0FE47208A4902267D521E401E60
:101BF000A1F5007189B20CEA0040C2F3080200E0CE
:101C000081E01143761E0143014807EA066203E0C2
:101C100010440258004802581C3011433B4AC8F88F
:101C20000010016821F00101016011684FF6F8769B
:101C3000236AB14341EAC30111600168A26921F03E
:101C40000C01114301600168E26921F002011143B6
:101C50000160016841F480310160016841F40031A4
:101C60000160016841F480210160016841F00101D7
:101C7000016001E017E01DE0286840F080702860F6
:101C8000FFF078FA044604E0FFF074FA001B022823
:101C900009D828688001F7D535E000BFFFF06AFA5F
:101CA000001B022802D90320BDE8F09F28688001AC
:101CB000F4D428E039680128D8F8000021D0A26ABD
:101CC00001F0030393421CD1E26AC1F305118A4279
:101CD00017D1216BC0F30802491E8A4211D1616BF2
:101CE000C0F34622491E91420BD1A16BC0F30642BC
:101CF000491E914205D1E16BC0F30660491E814245
:101D000001D00120D0E70020CEE700003444025883
:101D100070B504000D4603D094F82C0010B107E014
:101D2000012070BD002084F82D00204600F018F836
:101D3000022084F82C002068211DFEF0E0FCD4E98C
:101D400000022946FEF728FC04480121026842F0FF
:101D50000042026084F82C10002070BD0040005248
:101D6000FFF092B810B5044690F82C00022804D079
:101D700094F82C00012801D0012010BD022084F825
:101D80002C002068FEF7FEFB012084F82C000020C8
:101D900010BD704770477047704730B590F87C10A1
:101DA000012918D0012280F87C202421C0F880105D
:101DB0000022202450F8601B0B680D6823F00053AC
:101DC00025F001050D60426050F8601C0B60046254
:101DD0000277104630BD022030BD70B5044690F841
:101DE0007C0001281DD0012284F87C202420C4F826
:101DF000800020680568026822F001020260206805
:101E0000826822F060620A438260204600F040FD52
:101E10002268202100201560C4F8801084F87C001E
:101E200070BD022070BD10B5040003D0D4F880004E
:101E300010B107E0012010BD002084F87C0020468E
:101E400000F158FC2420C4F880002068016821F0CB
:101E500001010160204601F1B3F80128EBD0A06A2E
:101E600010B1204601F148F82068416821F4904102
:101E700041602068816821F02A0181602068016842
:101E800041F0010101602046BDE8104000F032BD84
:101E90002DE9F8430446D0F880001F4616460D464B
:101EA000202852D1DDB1D6B194F87C0001284CD065
:101EB000012084F87C0021224FF00008C4F88880BB
:101EC000C4F880201834FFF055F9814654F8100CFE
:101ED000A687E687183CB0F5805F03D004E00120B8
:101EE000BDE8F883206920B12E46002584F87C8067
:101EF00010E00026FAE78021204600F02BFDB8B95B
:101F0000C6B116F8010B21688862B4F85600401E6D
:101F1000A4F85600B4F856004B464FF00002009764
:101F20000028E8D14FF04001204600F013FD38B101
:101F30000320D5E735F8020B2168C0F30800E3E77A
:101F40002020C4F880000020CAE70220C8E7FEE78E
:101F500001688A69D243920701D400228A6200682C
:101F60008169C943C90703D0816941F001018161D9
:101F7000704700002DE9F0410446006890460E4687
:101F80008069C043C00635D40025202720688069B9
:101F9000C043800616D5701CF8D0FFF0EBF8A0EB1C
:101FA0000800B04201D8002EF0D1606C84F8405097
:101FB00040F02000606484F8417084F842500120B1
:101FC000BDE8F08121681020C8612068C761204603
:101FD000FFF7BEFF2068084942680A404260606C13
:101FE00040F00400606484F8417084F8425084F842
:101FF0004050E4E70020E3E700E800FE70B5006829
:10200000C1F30901074E41EA0241049C4FF4806587
:102010004268194305EA54553543AA4321430A430C
:10202000426070BDFF63FF032DE9F0411D46174676
:102030000E460446DDF8188008E0681C06D0FFF064
:1020400099F8A0EB0800A8420BD855B12068806928
:1020500036EA000013D00020B842EED00020BDE8E0
:10206000F081626C002084F84000202142F02002C0
:10207000626484F8411084F842000120EFE70120F7
:10208000EAE700002DE9F0410025904620260F46A2
:10209000044626E0424639462046FFF76BFF80BBE8
:1020A00020688069C043800614D420688169C943D0
:1020B000490701D4218DC9B91349C6612068426816
:1020C0000A404260656484F8416084F8425084F8B4
:1020D000405016E0FFF04EF8A0EB0800B84208D8D8
:1020E0003FB120688069C0434007D3D40020BDE8D9
:1020F000F081606C84F8405040F02000606484F807
:1021000041600120F3E7000000E800FE8068C0F3B2
:10211000C00070478068C0F38000704710B5042489
:1021200004EAD1540723C1F3045120448B408A4070
:10213000416999431143416110BD2DE9FE4F81462C
:102140000068882493468D888C2204EBCB178A463E
:10215000C3689421BE46C459C3F30B432B4404F413
:1021600070441F04019702EBCB1240F80E4001EBC4
:10217000CB13DAF800709C214FF0AC0C01EBCB14C0
:1021800040F2077102910CEBCB11D9F800C09825F1
:102190000020CDF800C0A02605EBCB15DCF80CC064
:1021A00006EBCB16CCF30B4C0CF1010C07EB0C0837
:1021B000DDF800C0019F48EA07084CF80E80D9F806
:1021C0000070BAF80CC0B846FF68C7F30A07674446
:1021D0004FEA074E58F8027007F4704C48F802C0F6
:1021E000D9F800C0DAF80870DCF80C80C8F30A08E7
:1021F00008F10108B84448EA0E084CF80280D9F802
:102200000020D75827F00707D750D9F80070DAF820
:102210001020FA509AF831209AF818304FEA022C20
:102220009AF83220120442EA0362D9F800301F59AA
:1022300018519AF8303043EA0C031343D9F80020C0
:102240001351D9F80020535923F0FF035351D9F803
:102250000020DAF814305351D9F800209359029C29
:10226000A3439351D9F80030DAE9072422439A5165
:10227000D9F8002053585050D9F80020DAF824003B
:102280005050DAF81000C8B301283AD004283AD0E8
:10229000022838D0032836D0072834D00120D9F8B6
:1022A0000030B02505EBCB11B42284245D5802EB3D
:1022B000CB1205F0E0255D50DAE9003504EBCB14D4
:1022C000EB1ABAF8285043434543D9F80000DB1D08
:1022D00043EA05434350D9F8000081586FF30A01DF
:1022E0008150D9F80000DAF82C108150D9F800009C
:1022F000015941F001010151BDE8FE8FFFE70420C3
:10230000CDE70320CBE70220C9E7000030B587B056
:102310001C216846FDF01EFF18480024164A0425BB
:102320000121C0E900248460C0E9034504754475B7
:102330008161047744628462C4620463446380F808
:102340003840FEF76FFA08B172B6FEE70C48062176
:1023500040F2FF7203928DE8130008486946CDE908
:1023600004548DF81940FEF011FA002801D072B61D
:10237000FEE707B030BD0000002102407C020024CF
:1023800002003004104801220E4B002110B50360FA
:10239000C0E90112C1608161C161C0E91112C1646B
:1023A000016541658165C165FEF02AFD08B172B61F
:1023B000FEE705480121FEF7E9FB002801D072B6CF
:1023C000FEE710BD00100052040300242DE9F04781
:1023D00086B014216846FDF0BDFE5248016841F404
:1023E00080610160016801F480610591016841F03C
:1023F00008010160016801F008010591016841F0E0
:1024000010010160016801F010010591016841F4BB
:1024100000710160016801F400710591016841F0EB
:1024200004010160016801F004010591016841F0B7
:1024300040010160016801F040010591016841F02F
:1024400020010160016801F020010591016841F45B
:1024500080710160016801F480710591016841F0AB
:1024600080010160016801F080010591016841F07F
:1024700001010160016801F001010591016841F06D
:102480000201016000684FF40056DFF89C800022D2
:1024900000F00200314605904046FEF7A2FC012202
:1024A000DFF88890D70248463946FEF79AFCDFF8F5
:1024B00080A0012202215046FEF793FC00240096E2
:1024C000012569464046CDE901540394FEF034FDF0
:1024D00018486946CDE900540294FEF02DFD02260D
:1024E000694668028DE851001348FEF025FDCDE9EC
:1024F0000075CDE9025469464846FEF01DFDCDE960
:102500000065CDE9025469465046FEF015FDCDE95F
:102510000054694650460294FEF00EFD06B0BDE838
:10252000F0870000E044025800080258000C0258EE
:102530000004025800000258001C025812480021F2
:1025400010B5104C0123114A0460C0E90121C0E913
:10255000033141618161C1610162FEF067FE08B132
:1025600072B6FEE708480021FEF00AFE08B172B616
:10257000FEE705480021FEF02FFE002801D072B6CC
:10258000FEE710BD005800406C030024B1757030A8
:1025900005F16ABDFEE700001A48F0B5016889B090
:1025A00041F480510160006800F48050079000F110
:1025B000D5FB164801274FF0100C134D02210824BB
:1025C00005604FF4C075C0E901C7C46040268F02A2
:1025D000C0F810C00C03C0E905650023C0E9073747
:1025E00007220425C0E909348DE82600032603925A
:1025F000CDE9046106916946FFF78AFB00F008F80F
:1026000009B0F0BDD444025840410052780500247E
:102610002DE9F8431C4C102600274FF6FF790125C1
:102620001A484A462146C4E90056C4E90257FFF059
:10263000F3FE17480090401E0090FCD10221134881
:10264000C4E900161049B846C4E902574A46FFF0EB
:10265000E3FE04270D4803214A4684E8C2010A49E3
:10266000FFF0DAFE40F2312007494A46C4E9025041
:102670000648C4E90076FFF0CFFEBDE8F843034802
:102680004FF44E71FFF76EBB08020024780500245A
:10269000A08601002DE9F041CCB04C212FA8FDF01F
:1026A00059FD202142A8FDF055FDBC216846FDF0F2
:1026B00051FD0220FEF7BAFD354800243549026875
:1026C00042F44042026002680A6842F001020A6075
:1026D000096801F001014A9101688904FCD52E487E
:1026E00002250168012308264FF0C0081F0421F0CD
:1026F0000301891C016005203895CDE93950CDE9E9
:102700003B853D952FA83E95CDE93F644194CDE9A9
:102710002F37FFF779F808B172B6FEE740204494EE
:1027200003270201CDE945603F21CDE94702CDE90C
:1027300042170421499042A8FEF7F8FE08B172B68C
:10274000FEE70C22154B009307A82021CDE901528A
:102750000395332204951923CDE90558CDE90A25BF
:1027600080E892004FF440661194CDE90E64209405
:102770006846CDE90C5310941D942894FFF00EF98F
:10278000002801D072B6FEE74CB0BDE8F081000031
:10279000184802582C040058284402580A000821FE
:1027A0002E48F0B52E4A016841F4700101601068AE
:1027B00000F00F00072804D2106820F00F00C01DA1
:1027C000106028490020274C10340B68264D43F038
:1027D00001030B6020600B682B400B60136803F053
:1027E0000F03072B04D9136823F00F03DB1D1360BD
:1027F0001C4C1E4A18341E4B261D371D2060194CD8
:102800001C4D28343060261D3860371D23603B1D69
:1028100035601C1D3A60251D2E1D1860331D226079
:102820002860326018600A680E4B134C22F4802234
:1028300060330A60186020686FF30F00B0F1005F2A
:1028400003D20E490120C1F8080143F2D2000C491D
:10285000024B4A03803B08601A60F0BD88ED00E03F
:1028600000200052004402587FEDF6EA8002010188
:10287000000202020000FF010010005C0080005115
:10288000004000520148FFF042BE00005008002402
:102890003FB514A1D1E9002314A1CDE90023D1E96A
:1028A0000021CDE90221416EB9B1016802AC8A680C
:1028B0008968C2F34262490F1DF80150615C2D0125
:1028C000B5FBF1F1A0F86A101DF80210A25C090135
:1028D000B1FBF2F1A0F868103FBD0121A0F86A1029
:1028E000F8E70000010101030701000008040204E9
:1028F00008010101F8B500260446C0F88860FEF022
:1029000039FC054620686FF07E470068000708D54F
:1029100000222B464FF400112046009700F01AF8D1
:1029200060B92068006840070AD500222B464FF4A2
:1029300080012046009700F00DF808B10320F8BD93
:102940002020C4F8800084F87C60C4F88400002053
:10295000F8BD00002DE9F0479A4617460E4604469A
:10296000089D4FF000094FF0200839E0681C37D06F
:10297000FEF000FCA0EB0A00A84222D80DB32068AC
:10298000016849072CD5C069C043000528D42368D5
:102990004FF40061196221680B6823F4D0730B6057
:1029A00021688B6823F001038B60C4F88080C4F831
:1029B0008480C4F8888000BF032084F87C90BDE840
:1029C000F08721680B6823F4D0730B6021688B6853
:1029D00023F001038B60C4F88080C4F88480EBE7A7
:1029E0002068C06936EA000004D00020B842BDD09B
:1029F0000020E4E70120F9E700280DDB410900F0A1
:102A00001F028900012001F1E0219040C1F88001FE
:102A1000BFF34F8FBFF36F8F7047090700284FEA4E
:102A2000116104DB00F1E02080F80014704700F031
:102A30000F0000F1E02080F8141D70470E490020BF
:102A400070B50860BFF34F8F081F43F6FF7300682F
:102A50000A4DC0F34E31C0F3C90203EA41141046D7
:102A600044EA80762E60401EFAD2491EF5D2BFF3AA
:102A70004F8FBFF36F8F70BD84ED00E074EF00E007
:102A8000154830B58BB00078C00722D1124804F049
:102A900074FBF0B10020124A3F21079101230F4936
:102AA000089004240A90022509900095069103904D
:102AB000CDE90143CDE904020A490C230A480F225B
:102AC00001F1D2FC094A0A49FDF04FFB0248AFF37D
:102AD00000800BB0044830BDB00000249C95100865
:102AE00094890008C894100880520024000000084F
:102AF000313F00080E4808B5016841F0100101603F
:102B0000006800F01000009009485838016841F052
:102B100010010160016821F01001016006490548BB
:102B200008624FF080600549C1F8000108BD00004F
:102B3000D44402588D3310080403002408E000E058
:102B400040F2EF30704700002DE9F0470C46497F16
:102B5000074600F123FCA17F0646384600F11EFC23
:102B6000A17F0546384600F12DFCDFF8548102466E
:102B7000608BA18A534FDFF85091401AC8F840008B
:102B8000608BA18A401AC8F81800208BA18A401ACD
:102B9000C8F81000C8F8342060694FEA3040C8F81F
:102BA00044002069C8F83C006068C8F80C00206840
:102BB000802827D006DC042870D020286ED040283A
:102BC00006D16BE0B0F5807F0ED0B0F5007F0ED05F
:102BD000207F46EA006040F40030C8F81C00607FA7
:102BE000A17F884258D166E0207F384902E037490A
:102BF000207F491E01EB0060C8F81C00E068C8F89F
:102C0000200052E0217FA06846EA016141F40031D2
:102C1000C8F81C10C8F82450011D2269C8F81420F7
:102C2000C8F82C106FF0FF0203784FF610714FF0C8
:102C3000010513F0FF0303D0012B09D0AFF300808F
:102C40004388D8F81C00884302EB032108430CE0BA
:102C5000237FFF2B00D100254388D8F81C00884330
:102C600002EB0321084340F01000C8F81C00D8F81C
:102C70001C0040F02000C8F81C0001E000F046FBFA
:102C8000D8F81C008006F9D41020C8F808001DB13F
:102C9000C8F80070BDE8F08748460EE0207F46EA9D
:102CA000006040F40030C8F81C00C8F824502069C7
:102CB000C8F81400ECE740F20120C8F80000E9E78A
:102CC0000010005201020200010201000A0002008D
:102CD00070B50C46897F00F175FB1749486362693E
:102CE0004FEA32424A642269CA63628BA38AD21ACB
:102CF0000A642268082A07D00022C8610A610F4AC4
:102D0000E06888630A6070BD638BA58A0C4A5B1B10
:102D10008B61638BA58A5B1B0B614862207F02EB92
:102D20000060C861E0680862064822694A61226959
:102D3000CA60086070BD000000100052010203006C
:102D400009000100010202000168896A08470000C9
:102D5000064A054901604FF08061C2F88011BFF357
:102D60004F8FBFF36F8F7047788B100808E000E03B
:102D700000F0BCB900F1EEBB00F0C1B97047000033
:102D80000A4910B5016043F21041084400F0C2F94D
:102D9000183801F08FFAA0F54C50CC3801F08AFABF
:102DA000183801F087FA143810BD0000948C100810
:102DB0002DE9FF5F02F1ACFF9F490025C56340F894
:102DC000401B01F025FC2C3001F022FC2C3001F0DE
:102DD0001FFC9A4900F5C072C56201606421058636
:102DE000343001F0BBF89649016000F5377001F10D
:102DF0009DFC383001F068FB924904460160294689
:102E000005754575857501F1C8FB04F1180001F1E0
:102E10008BFE8D4940F8441B01F0B8F88B4940F80F
:102E2000501B01F0B3F806468948A6F28C4442F6DE
:102E3000E061306006F1500001F15AFE04F14000FB
:102E400000224FF4F07811464FF44879CDE9008024
:102E50004B4602F0E2FE0022A6F24C471146104615
:102E600002F17CFB0022B86204F16C004B46114673
:102E70008346CDF8008002F0D0FE98222C37114610
:102E8000992002F16BFBB86204F1980040F2BF2870
:102E90008246182243460F214FF4D477009702F060
:102EA000BCFEFF22A6F57D761146104602F156FBC8
:102EB0000022B0621146104602F150FBF062012080
:102EC0000146308604F1CC00814601F08CFBC8221B
:102ED0004846002101F19FFE182243460F21484633
:102EE000009702F09AFE16200090132348461C22F9
:102EF0000A2101F150FD0620009000230246022124
:102F0000484601F0E1F8002141F27072484601F1B3
:102F1000A6FE04F57E700121064601F0E6F9C52201
:102F20009721142002F11AFB0146304601F1CAFE36
:102F30004FF47A773046394601F040FA01213046A5
:102F400001F1EEFD3146484601F0AAF804F23C409A
:102F50000121064601F0C9F91421304601F00AF8B2
:102F6000DFF8F08002A93046CDF80880ADF80C50AB
:102F700001F151FBC5229721142002F1EFFA01461D
:102F8000304601F19FFE3146484601F1C7FC012160
:102F900004F28C4001F0A9F904F28C40394600F0AB
:102FA000E9FF0120CDF8088002A9ADF80C0004F279
:102FB0008C4001F130FBC5229721142002F1CEFA9A
:102FC000014604F28C4001F17DFE04F28C4148463A
:102FD00001F16BFC04F56A700121054601F085F9E9
:102FE000C5229721142002F1B9FA014604F5787040
:102FF000064601F1D2FA3146284600F122FF0221AD
:10300000284600F0F3FF2946484601F049F80199A7
:10301000204602F157FD5946204602F153FD514624
:10302000204602F14FFD4946204602F14BFD04B017
:103030002046BDE8F09F0000A4890008A88C000885
:10304000C08A0008648D0008E48F1008B88D10084D
:10305000FC8B000874940008094910B5016000F267
:103060008C4000F0B3FF503800F0B0FFA0F55C706A
:1030700000F072FCBDE81040CC3802F14FBA0000FD
:10308000A48900087047C06800F1F2BA044A00231E
:10309000836002F12003C160C0E900237047000093
:1030A000A88C100870470120704700000048704746
:1030B000C40000247CB514460D46684604F1A2FD08
:1030C000BDF80000002806D0BDF802002860BDF859
:1030D0000400206001207CBD03480068C00301D5C6
:1030E000FFF7ACBC7047000014ED00E05A2010B5AB
:1030F00000F13FF9BDE81040582000F13AB909212C
:103100005A2010B5FFF789FC0921BDE8104058206E
:10311000FFF783BC0149016070470000EC8900089B
:103120002DE9F05F4FF4007183464448FEF01CF82F
:10313000434E01284FF4005517D00022294630464F
:10314000FDF74FFEDBF8004029463046FEF00CF854
:10315000014620688268204690473A4D00263A4C46
:103160004FF01408394F2E6016E00122E6E7384888
:10317000FDF05CFD36480A21FDF766FC3448FDF79A
:103180004DFBB0FBF8F0296844F821000220FDF760
:103190000FFE2868401C2860296838688142E6DBF9
:1031A0002C49431EAA468E460E6020E0C21BDFF863
:1031B000A880521ECAF8006011E000BF04EB81092C
:1031C00054F82150D9F804C0654505DDC8F8005011
:1031D00044F821C0C9F80450491CCAF80010DAF8B4
:1031E00000108A42EADC7F1C7146CEF800700F683E
:1031F0009F42DBDB0522194D411F534607E000BF0C
:1032000054F82270521CD5F800C067442F608A42DF
:103210001A60F5DB29680A38114C91FBF0F0206048
:103220000A20FDF7C5FDDBF80000218889B202689D
:10323000D26890472E60BDE8F09F0000001C025845
:10324000000802580C000024AC0500243C8900084A
:1032500018020024100000241400002400000024A0
:1032600008000024002101607047704770B500F528
:103270004054D4F8C013491CC4F8C013CA070CD179
:10328000CC30054604F181F9B4F8BC132846A4F803
:10329000BC13BDE8704001F1B9BC70BD00F54050F1
:1032A000A0F8BC137047000030B5044C039D0460C7
:1032B0000171C2800381458130BD0000688A000829
:1032C0000948012110B504F0DCFC084C206038B13D
:1032D00005480121083004F0D4FC0028606001D1C9
:1032E000AFF3008010BD00005C89000834000024AA
:1032F0000148006804F154BD3400002402484FF036
:10330000FF31006804F174BD3400002404F1A4BD51
:1033100090F84430002B01D102F1F3BD704710B595
:1033200000F008F80168096BBDE8104008474160EB
:10333000704770470148C06870470000680100246A
:1033400003484068002802D00268926A104770471C
:103350006801002403484068002802D0026892698E
:1033600010477047680100242DE9F04F99B00446DA
:1033700080F8341129B10020A4F8E80019B0BDE8A4
:10338000F08F04F5967004F15AFA90B9D4E94B1213
:1033900004F58075204600F1BFF900200090034637
:1033A0000246014601A801F062FD0168E962406839
:1033B0002863B4F8E80098B10020FD4F80F00105C3
:1033C000386920B107F1140004F139FA50B1002D29
:1033D000D4D001A805F088FA3E8804F1A80520E0C1
:1033E0000120EAE7F248143001F1E4FBD7E90512C5
:1033F000204600F191F90020009003460246014664
:1034000001A801F034FD016879614068B861E0E726
:1034100005EBC6000168426801A805F13EFB761C79
:10342000B6B2B4F8E800B042F2D8E148068804F138
:10343000EA00169009E0169800EBC60001684268A1
:10344000204600F169F9761CB6B2B4F82A01B04200
:10345000F1D8DFF860A3DAF8000090F848000128FE
:1034600004D0022877D0D2480688BCE1DFF840B308
:103470000026BBF800700CE0B8B205EBC000804637
:1034800004F1D8F9B04203DD404604F1D3F9064611
:103490007F1CB4F8E800B842EEDCC74800880F286B
:1034A00001D9C00800E001208146002000900346B9
:1034B0000246014612A801F0DAFCD04653E0D1F8EA
:1034C00090108847074612A804F1B4F94844B8425E
:1034D0000BDDB74209DA12A804F1ACF9B8423BDDC2
:1034E00012A804F1A7F9002836DD12A804F1A2F908
:1034F000B84201DCBE4200DA374612A804F19AF95C
:103500003F1A12A804F196F9024638B20090AB486F
:103510000021008803B217A801F0A9FC01681291EC
:1035200040681390BBF8007010E005EBC70112AAC9
:1035300014A803F022FD14A804F181F920B9206831
:1035400014A9426B204690477F1CBFB2B4F8E80034
:10355000B84208D9E9E711E0D8F800000168D1F8CD
:103560008C200121904712A804F164F9B042D8F8E8
:1035700000000168A3DB096A884738E190480078B9
:10358000012879D00DE18A484FF00008B5F90060B4
:103590000088401C87B226E005EBC000814603F09E
:1035A000CDFC8246B9F906B005EBC700814603F0B1
:1035B000C5FC5045514606DDB9F90060B8460846DD
:1035C00056450ADB0DE00AD1B9F90610594500DD70
:1035D000B846B9F90000B04203DB064601E0B0424C
:1035E000FBDC7F1CBFB2B4F8E800B8421FFA88F0D9
:1035F000D2D805EBC0073868129078681390BDF9EF
:103600004C00142801DABDF9486012A803F096FCBA
:10361000801BADF84C0012A8ADF8486001F19AFA91
:1036200012A804F10CF938BBBDF94E00142800DDD6
:103630001420BDF84C3081B25E48BDF84A200068C5
:103640000091BDF848100668D6F88460B047064679
:10365000ADF84E0012A801F1ADFA206812A9426B34
:1036600020469047B888801B00B2B88020B91FFA66
:1036700088F1284605F025F9B4F8E800002882D141
:10368000B5E04FF00009284604F1D4F80646484852
:103690000088401C87B228E005EBC00005EBC70896
:1036A000B0F902A0B0F90410B8F90200504508DAE8
:1036B000B946404604F1BEF8504551460CDD0E4671
:1036C00011E00DD1B8F90400884200DDB94640464A
:1036D00004F1B0F8B04206DC404604F1ABF801E07A
:1036E000B04200DA06467F1CBFB2B4F8E800B84228
:1036F0001FFA89F0D0D805EBC007B7F906001428E7
:1037000003DA384604F196F80646384604F197F88D
:10371000F0BB12A801F0B2FB3888ADF84800B7F949
:103720000200ADF84A00B988301A1428ADF84C10E0
:1037300000DD142086B2384604F17CF8BDF94A1049
:10374000401AB04205DC384604F174F8BDF94A105D
:10375000461A1848B1B2BDF84C30BDF84A2000688E
:103760000091BDF848100668D6F88460B047ADF8FF
:103770004E0012A92068426B204690477888BDF819
:103780004E1008447880F888BDF84E10401A00E0CA
:1037900007E000B2F88020B91FFA89F1284605F049
:1037A00090F8B4F8E80000287FF46BAF1FE0000049
:1037B00068010024DC010024D4010024D20100248B
:1037C000CC01002405EBC6000168129140681390FB
:1037D00012A804F134F820B9206812A9426B2046DF
:1037E0009047761CB6B2B4F8E800B042EAD80D486B
:1037F000007800283FF4C2AD0020A4F82A010A484E
:10380000048809E001A800EBC4000168426816982A
:1038100005F143F9641CA4B2BDF84400A042F1D8FC
:10382000ACE50000CD0100246801002470470000D1
:1038300070B50646194886B00C460022114600882D
:1038400000B200901648008803B203A801F00FFBF5
:103850000246214601A803F090FB0199114D216019
:10386000029A62606868002805D096F8343123B166
:103870003046FFF051FF06B070BD01688A682146EE
:103880009047286918B101688A6821469047064820
:10389000006801688A6921469047ECE7D40100245A
:1038A000D201002468010024DC0100243EB5044656
:1038B000084800221146008800B20090064800889F
:1038C00003B201A801F0D3FA206801A9426B204697
:1038D00090473EBDD4010024D2010024F8B5174919
:1038E00000250160A0F88450A83004F0FDFF4230AC
:1038F00004F0FAFF0023009542301A46194601F001
:10390000B6FA0572A0F5967445720D490D48FCF0A3
:103910009FFE00B101200C4E08B1358006E04FF447
:10392000806030800220706002F1D0F8F56020469F
:103930007560B56000F17AFA2046F8BD7C8A00080F
:10394000CDB5E8B5C2A507F46801002401490860B7
:1039500070470000C8010024014901607047000061
:10396000C08E100830B5044C039D04600171C28004
:103970000381458130BD0000E88B00082DE9F04F40
:10398000044688463C3091B0834603F0C8FB0028CB
:103990007ED0584603F0DCFB050079D0204603F0CA
:1039A000A0F981462068816E204688470646484631
:1039B00003F1D6FB704301F157FD002868D0204683
:1039C00003F166FB0246E06C08B103F161FB002ADB
:1039D00006DD98FBF2F15143414501D1012100E0A0
:1039E0000021002806DD98FBF0F34343434501D155
:1039F000012300E00023104350EA080001D099435E
:103A00006BD0484603F01AF982464946204603F037
:103A100063F90646D9F800004146D0F8B42048467C
:103A2000904707464946204603F182FDB4F8481006
:103A3000B4F8462007FB0063CDE90021142220469C
:103A400003A9CDF808A003F1C3FA94F84400E0B349
:103A5000022845D0584604F175F80146286803AAA3
:103A6000436A284698470646584604F16BF80146D3
:103A7000286803AA836A284698470746584604F1EF
:103A800061F80146286803AA036C2846984700E0BD
:103A900023E007FB006085B2484603F0C6F80646FF
:103AA00042464946204603F106FD0F900FA803F158
:103AB00030FF61893044A0EB5500ADF8340000229E
:103AC000ADF83620ADF8385000E009E0ADF83A1016
:103AD0000DA9206802692046904711B0BDE8F08F1B
:103AE000584604F12FF80146286803AA836928463E
:103AF00098470546D0E701210172704770B51C4612
:103B00000B46A1F5C06605460498B6F5407F2168CE
:103B100005D20A460146284600F080F813E0A2F5D7
:103B200060637F2B05D80A460146284600F12EFA2D
:103B300009E095F8590038B1A2F51060023803D1B8
:103B4000284600F15BFB2060206810B103F1D2FF32
:103B500018B1002085F8590070BD0120FAE770B552
:103B600000F11A050446008EB8B1A98A401E35F846
:103B70001160E882481C80B2A8820A2801D30A3862
:103B8000A882204600F1BFFA208B1234022801D20D
:103B9000401CE080A08810B103E0AFF30080022059
:103BA000A08080B2401E80B2A08024F81060304611
:103BB00070BD70B50546C06B58B305F11A000446D8
:103BC00004F1A3FE28B3284600F12BFBE08A01286C
:103BD00012D9A08A401C80B20A2800D30A3840F6C5
:103BE0003F16214634F81000B04212D1084604F1C5
:103BF0008CFEE18A012901D8AFF30080A18A491C1B
:103C000089B20A2900D3002124F81100A08A24F8DF
:103C100010602846BDE87040FFF7A1BF2DE9F047CE
:103C2000924F160004460AD0727BF07902F010021F
:103C3000B18840EA0215042D0ADDA81009E0A4F8B5
:103C40005270A4F85470A0F856701046BDE8F08782
:103C5000012040F2DB6399428046A1F2DB6004F16F
:103C6000440912D048DC40F253629142A1F2536001
:103C70000BD020DC40F219629142A1F2196079D098
:103C800004DCA1F5C26108297ED873E0352871D023
:103C900008DC012805D032286CD033286AD03428BB
:103CA00072D199E0362865D037286ED0382861D097
:103CB000392869D15EE00A285CD008DC0A2863D282
:103CC000DFE800F0BD588A8A58585858588A832827
:103CD00050D008DC0B284DD00C287DD01D2849D0B1
:103CE000212851D146E0842844D0852842D0862816
:103CF00040D0872848D13DE0B0F5047F3AD029DC98
:103D0000102837D00BDCA0F104000C283CD2DFE8EF
:103D100000F031313131633196963131966340F2A2
:103D20000B229042A0F20B2156D00ADC112821D0A0
:103D3000122851D0A0F5007009381BD001287ED17F
:103D400018E0012916D0022914D0032944D00429EF
:103D500075D10FE0A0F21120132870D2DFE800F037
:103D60000A3C3C3C0A0A3C0A0A0A3C0A0A3C3C0A55
:103D70000A0A0A00B4F95200B8420CD1B4F954004E
:103D8000B84208D1304601E059E025E003F1A0FE39
:103D9000A4F852002BE00E2231464846FCF78CFA7C
:103DA000B4F95600B84208D0304603F19CFE94F8AE
:103DB0005610A1EB500084F84D00B4F95200B842FF
:103DC00004D0284401B2484602F144FD484603F1BC
:103DD0007FFEA4F852002DE0B4F95200B8420AD197
:103DE000B4F95400B84206D1304603F171FE401BCD
:103DF000A4F8540037E00E2231464846FCF75CFA3E
:103E0000B4F95600B84208D0304603F16CFE94F87D
:103E10005610A1EB500084F84D00B4F95400B8429C
:103E200005D0A0EB080001B2484602F113FD484658
:103E300003F14EFE401BA4F85400484606E7304606
:103E400003F146FEA4F85200401BA4F8540052347B
:103E5000304603F148FE40000521B0FBF1F096F931
:103E600009100844A0803046F0E600000080FFFF03
:103E7000416811B9016831B34160017C51B1C16839
:103E800031B10A8822B10A46891CC1601088704786
:103E90000021017442681188A9B1022904D0114699
:103EA000921C426008887047921C426081680A1D1B
:103EB00082600968C1600029DAD009880029D7D05A
:103EC00001210174D4E700207047000070B50D4651
:103ED0000446606801684A6890470028F9D10D4E91
:103EE00030680168496F8847FFF000FC30680121A5
:103EF00000F031FC606801688A68294690472068B4
:103F0000C16A2046884730680168096FBDE8704083
:103F100008470000DC010024704740680168096818
:103F2000084710B5FFF7EAF9BDE81040FFF7E0B920
:103F3000704710B50446D0F83C0100280CD0016849
:103F4000C9688847002807D0D4F83C01016889680F
:103F500088470020C4F83C0110BD000010B500F1F6
:103F600085FE034901600021A0F8481110BD000042
:103F7000C88D000810B50446084604F185FD216B84
:103F8000484304F181FDA06310BD704710B538218E
:103F90000446FCF0DFF8204600F18CFE0A4C0022BB
:103FA00008494FF6FF7301604021C0E90E240B520F
:103FB00080F844202E21A0F84620A0F84810C264C2
:103FC00010BD0000F08E00087494000801490160E3
:103FD00070470000F08E000830B5DDE90345416010
:103FE00002720C3080E8380030BD704780F8341021
:103FF000704700002DE9FC411B4C0546D5E90060E7
:10400000A16969B3A06801EBD17101AF00EB610058
:10401000CDE90070A3692A68E169206800F192FB8C
:1040200000970646A3696A68216A606800F18AFB06
:104030000644D4E9051000EBD07001EB6000CDE937
:104040000070A3692A68616AE06800F17BFB009751
:104050008046A3696A68A16A206900F173FB404445
:10406000C5E90060BDE8FC81A852002418B1002118
:10407000020C02D003E02020704710210004020E41
:1040800001D100020831020F01D10001091D820F88
:1040900001D18000891C002800DB491C08467047BC
:1040A00038B504460D46343002F1A0FBB4F93E00A9
:1040B0000022B4F93C3011460090284601F0ADFDD5
:1040C00038BD343002F0A6BF10B5029CA0F8101124
:1040D000A0F81221A0F81431A0F8164110BD38B58F
:1040E000C56D04460AE0B4F93E000022B4F93C3044
:1040F00011460090284601F090FDAD69002DF2D1E7
:10410000D4F8E0500AE0B4F9C2000022B4F9C0309B
:1041100011460090284601F080FDAD69002DF2D1D6
:10412000D4F888500AE0B4F96A000022B4F9683083
:1041300011460090284601F070FDAD69002DF2D1C6
:10414000D4F8B4500AE0B4F996000022B4F99430DF
:1041500011460090284601F060FDAD69002DF2D1B6
:10416000D4F80C510AE0B4F9EE000022B4F9EC30B6
:1041700011460090284601F050FDAD69002DF2D1A6
:104180002068416901B02046BDE83040084770B55D
:104190000D46B0F91A11A94209DDC46D05E0206889
:1041A0002946426F20469047A469002CF7D170BD84
:1041B00070B5D0F8E0400D46064605E02068294677
:1041C000426F20469047A469002CF7D1D6F80C41E5
:1041D00005E020682946426F20469047A469002CDC
:1041E000F7D170BD70B506460068D0F89010304623
:1041F000884704463068D0F8941030468847A0427B
:10420000054608DA20B22C46054604E021B23046C5
:10421000FFF7CEFF641CAC42F8DD70BDF8B50E466A
:1042200002F1FCFA22490125C5620160FF2180F8F4
:104230003010343002F1F2FA2C3002F1EFFA2C3067
:1042400002F1ECFA2C3002F1E9FA2C3002F1E6FA34
:1042500000278785C785A0F1E4040786A0F1B00197
:1042600047868686C7860787C7630764204602F1AC
:10427000BDFA04F1B801204602F1B8FA04F1600178
:10428000204602F1B3FA04F18C01204602F1AEFAA5
:1042900004F1E401204602F1A9FA002320461A465F
:1042A0001946009700F177FB204684F82450F8BDAA
:1042B000C08E100870474168006901EB40107047DC
:1042C000D0E90321891A002901DC80680144012911
:1042D00001DC0120704700207047D0E903108142C3
:1042E00001D1012070470020704701637047000032
:1042F00010B5FFF0A9FD024901600121016310BD65
:10430000888F00080148806970470000A8010024D8
:104310001D4B70B519469A680968904209D1DA6850
:104320008A4206D1D869102801D3012070BD00202F
:1043300070BD5A68C3E90201824223D310F003041E
:1043400003D0C4F10404121B2144121A0144196160
:10435000401C20F00100824214D310F00305C5F187
:10436000040401D0121B2144121A824201445961F3
:1043700008D30DB1121B21440144101A1028C3E9BF
:104380000610D2D2AFF30080A80100240148406992
:1043900070470000A80100240148C0697047000070
:1043A000A80100240448016819B1406808B101203F
:1043B0007047002070470000A801002410B5044693
:1043C000084604F161FB216B484304F15DFBA063E7
:1043D00010BD012070472DE9F04F85B0044613440D
:1043E000DDE90E6003EB4303DDF840805D1800EB70
:1043F000400000EB050BB4F904001044E060B4F990
:104400000600304420612068C168204688470028A3
:104410004CD004A80090206803AB01AA02A9066949
:104420002046B047D0B3207A9DF8101010FB01F061
:1044300001F11AF898F8001010FB01F001F114F8DE
:10444000FF28064635D09DF80C10C6F1FF072878E6
:1044500095F8019011FB06F195F802A010FB0710EA
:1044600080B201F101F800909DF8040010FB06F005
:1044700019FB070080B200F1F7FF81469DF80800A4
:1044800010FB06F01AFB070080B200F1EDFF0246B8
:1044900020684B46466929462046B047E068ED1C37
:1044A00008F10108401CE0605D45B2D305B0BDE8ED
:1044B000F08F9DF80C00009020689DF804309DF866
:1044C00008204669E7E7000070B50446144E002056
:1044D000FF21A080E08021721049E060216020610E
:1044E000316891F8760008B1C86C00B98868016835
:1044F000496A884701280DD000253068C06C30B16A
:104500000168496A8847012800D0002005431DB191
:10451000204670BD0125F0E7AFF3008090900008C1
:10452000DC0100243CB5084A00251388074A12889C
:10453000ADF80050ADF80430ADF80250ADF80620EB
:104540006A4600F005F83CBDD2010024D4010024E5
:10455000074B10B51B78002B08D0012B06D1038820
:104560000C8804809088C01A401E088010BD00008E
:10457000CC01002470B5044600680D46D0F808212F
:1045800020469047D4F82C012946401CC4F82C0141
:104590002068D0F80C212046BDE87040104710B5C7
:1045A0009142044601D1AFF300808A4202DA084604
:1045B00011460246D4F84001884203D1D4F84401A0
:1045C00090420FD0C4E9501204F1600002F022FDC5
:1045D00004F1340002F01EFD04F18C00BDE810402F
:1045E00002F018BD10BD70B5C56A0446C162D0F8AE
:1045F00034112A4602F00FFBC4F834012A46D4F8DD
:104600003011204602F007FBC4F8300170BD0000F5
:1046100010B526210446FBF09DFD0C49201D2160AC
:1046200000F02CFC083000F029FC00218160C16002
:1046300001220161FF238182C18201764276044A10
:1046400040F80C2C8376C1610C3810BDE89100084D
:10465000C4921008704790F8771019B1406801684B
:1046600009680847002070472DE9FF4F89B0884648
:1046700004466846DDE91665DDE91A97DDE918BAF2
:1046800000F1EAFFCDE90078ADF814602046ADF8FE
:104690001650ADF818B08DF81C9000F073F8DDE9F5
:1046A0000B120346204602F081FB0490104840891B
:1046B000ADF81A0000F19CFB0168496A88478DF843
:1046C0001E008DF81D003EB135B12068416B2046BB
:1046D00088470099084201D1AFF30080CDF80CA0C3
:1046E000606801684A68694690470DB0BDE8F08F80
:1046F000CC01002410B5044600F115FB2068D0F869
:10470000A0102046BDE810400847000010B5044640
:104710000C48407858B994F84800022807D06068DF
:10472000FFF7FBFB18B16168487A0028FCD0FEF760
:10473000E5FD0021204600F00EF82046BDE81040BF
:1047400000F020B8CC010024416801224A72406880
:1047500001680969084770B5044690F878000D466D
:10476000A84209D0012800D13DB12068D0F8C0107E
:104770002046884784F8785070BD2068D0F8BC1077
:10478000F6E7000010B504460648407840B12068BE
:10479000C16A20468847E16B884201D1206C10BD78
:1047A000E06B10BDCC01002481651C3001F0C6BA5D
:1047B00010B529B13C3080E80E001AB1012002E0AA
:1047C000AFF300800020044908700BB1012000E025
:1047D00000200249087010BDCD010024CE01002444
:1047E000F0B50E4A0E4B114C90F874C090F834E0BE
:1047F0000C4D0D4EF44511881888277805D0002FF0
:104800000BD129800127308004E0002F05D02880BB
:1048100000273180198010802770F0BDD20100245C
:10482000D4010024D6010024D8010024CC010024A6
:1048300010B586B0044603A8CDE90312FFF7DAFBF2
:10484000039802A9ADF804000498ADF8080001A887
:1048500000F1C8F994F86B1004F11C000029BDF8B0
:10486000081016D089B20091BDF804108BB2B4F8CC
:1048700060108AB2B4F85C1089B201F01FFA002807
:1048800005D0BDF90400E065BDF90800206606B05A
:1048900010BD8BB2BDF804108AB2002101F1E6FC14
:1048A000012084F86B00ECE710B5044690F86B002B
:1048B00000280DD0B4F86000012183B2B4F85C0088
:1048C00082B204F11C0001F1D1FC002084F86B00DD
:1048D00010BD2DE9FF4F8BB08946054602A8DDF8D3
:1048E00060B0DDE91B64DDE919A700F1B5FEFF2F1B
:1048F00001D2082000E002204FF00008CDE90208B4
:104900002846FFF73FFFCDE90064DDE90D120346BD
:10491000284602F065FA8DF82470ADF81CB0ADF8A9
:1049200020808DF825400690ADF81EA0ADF82260DD
:10493000CDF814908DF826402868416B28468847AA
:104940000299084201D1AFF30080686801684A68A3
:1049500002A990470FB0BDE8F08F10B5044640683B
:1049600001688968884794F86900002802D001200E
:1049700084F86A0010BD826B002A01D008461047F7
:1049800070470FB41CB50AA91A4601910999089BF2
:10499000009105A900F1D7FB1CBC5DF814FB2DE9C3
:1049A000FF4F00269B4681B0924689463446B0466A
:1049B000354621E000200090204600F04AFA00B978
:1049C000A04601986B464A465946FFF0CCFB0400CE
:1049D00014D00A2C12D0009868B1848803F18AF8A8
:1049E0000746D9F80000009A4146C36B48469847ED
:1049F0003844304486B26D1C5545DBDB05B030468B
:104A0000BDE8F08FF0B5DDE90545DDE90767DDE9D3
:104A100009CE01600471477186718260858183735C
:104A200080F80FC080F810E0F0BD2DE9FF4F95B081
:104A3000DDE9224ADDF8A080DDE92459504602F084
:104A40007DFA11902868417A1391007A1290002023
:104A5000B4F9004006460D9007462798B8F1000FBC
:104A60000F9006D0287C042805D001200F99084417
:104A70000F900020DAE00220F8E700200C9030468A
:104A800000F0E7F900B90D96279988450EDB2868F4
:104A90000168496988470646286810AB0EAA016874
:104AA000D1F808C03146E0470C900AE010A90EA8E2
:104AB0000CABCDE900012A6849462698FFF076FB49
:104AC0000646304600F0C5F900281DD1002E7ED0E4
:104AD0000A2E7DD00C9808B1868807E02868016806
:104AE0000969884700F0B5F900280DD1B9F1000F28
:104AF00000D13C440C9830B102F1FCFF07B2B9F18F
:104B0000010F02D002E000278EE0E41B0D9868B18F
:104B10002868B9F1000F0168CB6BDDE90C2102D0E8
:104B20009847241A05E09847044406E0B9F1000FBD
:104B300003D0B9F1010F06D00CE01298211A119898
:104B4000814278DC06E01398E1190144BAF90000CB
:104B5000814270DB0C98427B817902F0080241EAC5
:104B600042110A1990F90910BAF900000A44824268
:104B70005ADB0A1911998A4256DAA0424FF0000B0B
:104B800002DD001B1FFA80FB0020009028680168EE
:104B9000C96A88470C9B01465A7B187A02F0200CA0
:104BA00040EACC005FEA426C01D5A0F50070091A1A
:104BB0001898084400B20190BAF9021081420EDD43
:104BC000DB7902F0100243EA0212024401E047E0FE
:104BD00042E08A4228DB081A80B2CDE90001286849
:104BE0000168896B88470DF1240CAB79AA7B9DF88D
:104BF00040108CE80E000C9BA9680E9A0891CDE934
:104C000004A3009904EB0B03CDE906201BB200932B
:104C1000CDE902B117980268436815980068D0F88A
:104C200040C0DDE91501E04708F101000F99804619
:104C30008842FFF622AF9EB10A2E0DD008F1010482
:104C400007E026984946FEF7B4FF48B10A2803D08A
:104C5000641C27988442F4DB002019B0BDE8F08F73
:104C60000120FAE72DE9F34F83B004460020834684
:104C700082460190814604998046607A81B103287A
:104C80000AD0042808D0012806D00021022889462D
:104C900004D0002080460FE00121F7E70120F9E76A
:104CA000032819D0042817D0002101288B4615D0DD
:104CB000022813D00020824600206082A082029049
:104CC000002000902046218800F175FB05462088D1
:104CD00000F0BFF820B105E00121E6E70120EAE796
:104CE000208801906B46217AE2686068FFF03BFA09
:104CF000208038B1E18A491CE1820A2802D000995B
:104D000041B903E0218B00230A4664E000F0A1F8DA
:104D10000028D5D00098002668B1808820800098AF
:104D200002F1E8FE0646E0680168CB6BDDE9002190
:104D30009847304486B22188204600F13CFBA843C6
:104D400001D0208B0290278BB81980B22083A18AD2
:104D50000844218A884201D9012600E000260498EF
:104D600028B3B9F1000F07D1B8F1000F0ED0218898
:104D7000204600F120FB48B1A08A218BA28B084479
:104D80001044228A90420FD9608A68B1002E97D0D1
:104D9000608A002894D00120A077608BA18B084402
:104DA000608305B0BDE8F08F00230A462BE00EB308
:104DB000BBF1000F03D03A46012311460BE0BAF1D4
:104DC000000FA6D02188204600F1F5FA854306D0D1
:104DD000029A01233946204600F1DDFAE1E72188F5
:104DE000204600F1E8FA00287FF46AAF608A0028C4
:104DF0008FD0D6E72188204600F1DDFA854388D0A0
:104E0000029A01233946204600F1C5FA58E770B5E9
:104E100014460D462BB1012B07D0022B09D0032BD2
:104E20000CD0B0F90000084470BD02F087F8001BF8
:104E300002E002F083F8401B401E70BDB0F9000094
:104E4000104470BD838819448180C1881144C18099
:104E50007047A0F57E41FF3905D0A0F500510B3910
:104E600001D000207047012070477047704710B58F
:104E7000029C018042808380C48010BD002101809B
:104E800041808180C18070472DE9F0418846044609
:104E900002F106FD88B3B4F90050B8F9000085426C
:104EA00000DC0546B4F90260B8F90200864200DC75
:104EB0000646204602F042F80746404602F03EF819
:104EC000874201DA204600E0404602F037F8401BF6
:104ED000A080204602F1AEFC0746404602F1AAFC43
:104EE000874201DA204600E0404602F1A3FC801B25
:104EF000E08025806680BDE8F081FFE7002020800B
:104F00006080A080E080F6E770B5002821D11149CB
:104F10000A1F096841B10B680B4493604B680B444E
:104F2000D3608B685C1806E00B4991600B490968F7
:104F3000D1600B490C68002C0BD01080FEF7B6F83E
:104F40000546FEF0B9FA07490C6007490D600749AC
:104F5000088070BDB8000024A89510089889000842
:104F6000AC951008E4010024EC010024F0010024B9
:104F700077B5044690F8A40081B000282CD003AA8D
:104F8000204602A902F008F804F1080102A802F084
:104F900035F804F10C01029003A802F02FF80390F9
:104FA00004F11400031F009003AA204602A902F096
:104FB0000DF8054694F8B00004F1300618B365B159
:104FC00010EA050109D00D460299AC20C4F8A810DA
:104FD0000399015184F8B0507FBD94F8A51069B1D0
:104FE00084F8B1003046D4E92A12A534FEF790F9CE
:104FF0000020207001206070A53C04E0D4E92A1252
:105000003046FEF081FBDDE902123046FEF07CFB0B
:10501000DAE777B5044690F8A40081B000283ED0C6
:1050200094F8A50010B9204600F119FB03AA204608
:1050300002A901F0B1FF04F1080102A801F0DEFFAE
:1050400004F10C01029003A801F0D8FF039004F1D1
:105050001400031F009003AA204602A901F0B6FF26
:1050600005004FF0010602D084F8A5600CE084F83A
:10507000B15004F13000DDE90212FEF749F90020D9
:1050800084F8A50084F8A66004F180000299C4F8B1
:10509000B410039A8263C0E90A1284F8B0507FBD4D
:1050A00010B5044607482060074800680168896A0F
:1050B000884704F1300000F08BFB1838FEF795FFAD
:1050C000183810BD28931008DC0100240B46014657
:1050D000091D18688269184610477047704700001C
:1050E000F0B50D46016B8DB00446002952D005A8DD
:1050F00001F0C0FF2889E18E0844A18E02B2E88841
:10510000084401B205A801F01EFFC0B1A889E18ED4
:105110000844A18E02B26889084401B205A801F0D2
:1051200012FF60B90020009002210346024607A842
:10513000FEF7BAF8206B01680A6C07A99047216B4B
:105140000AA801F097FFEA88A08EBDF828C00244A3
:10515000E78EA2EB0C032A892979B5F80AE03A44D4
:10516000BDF82A60AD897044921B8DF808103D444B
:10517000ADF80C20AD1B084EA0EB0C000196ADF86D
:105180000A30ADF80E00ADF81050206B01688A6C43
:1051900001A990470DB0F0BD5494100830B50C46ED
:1051A000016B85B0054600291FD003A801F062FFFE
:1051B0002089AB8E22791844BDF80C30E188C01AE2
:1051C0006389EC8E8DF804202344BDF80E40ADF8C1
:1051D00008001B1B064C0094ADF80610ADF80A3011
:1051E000286B01684A6C6946904705B030BD0000E5
:1051F000E88B00081CB50A46044600F10801684621
:1052000001F0BBFE94F83800694618B1204600F062
:1052100005F81CBD201D01F053FF1CBD38B5054627
:105220000C4600206A460090281D01F1B3FA009A4E
:10523000002A03D02146284600F160FC38BD90F8D2
:105240002510002904D090F82410002900D01860FF
:10525000704701E000F8011B521EFBD2704730B5C9
:105260008BB0154604AB00F1C2FD040012D40499C2
:1052700020202A4602950A91039000F01BF807901F
:10528000204603F03FFB07A9069006A801F0BCFEEC
:105290000BB030BD03F036FB00952A46049905900B
:1052A00020200991019000F005F805990890081A4E
:1052B0000290EDE708B500F179FD009008BDB0F966
:1052C0001A10B0F9182011430DD0B0F916100029AA
:1052D00009DB026C914206DAD0E901128A4203D35B
:1052E000012180F844107047016942690A608269AF
:1052F0004A600169083101618168491C8160704719
:105300002DE9F043D1B0064600EBC1086D46A8EB8D
:105310000600C01009284DDD00EBD070401006EBF0
:10532000C001304601F1A0FA06F10807A8F108040F
:105330003946204601F0A8F918B12146384601F156
:1053400093FA3946304601F09FF918B13946304694
:1053500001F18AFA3146204601F096F910B1214652
:10536000304611E008373146384601F08DF9002803
:10537000F8D1083C3046214601F086F90028F8D1E2
:10538000A742214603D8384601F16EFAEAE73046D3
:1053900001F16AFAA01BC110A8EB0700B1EBE00F06
:1053A00003DDC5E900643E4602E0C5E90078A04699
:1053B0000835ACE734460FE02146484601F154FA7F
:1053C000B44208D0083C04F108002146814601F0AF
:1053D0005BF90028F0D13C4604F108074745F2D3B9
:1053E0006846854203D975E9026080468FE751B06F
:1053F000BDE8F0832DE9FF4F87B00746551102F055
:105400001F03149800F01F0405943C6B4611AC4236
:1054100000DD3D636C1CD7F838C0A44500DABC63DE
:105420003C6BB44200DD3E63741CD7F838C0A44521
:1054300000DABC630A9C641A0294841AB54206D14D
:10544000059A0A98CDE900020A462946AEE002987C
:105450004FF001094FF0FF32F0B3DDF808C0C3F19F
:105460002000002C4FF0200B00FB0CF005DA029816
:105470004FF0000B91465843644290FBF4FC90FBC4
:10548000F4F204FB1C000490002802DA521E2044AF
:10549000049001EB02080A46CDE9008B2946384604
:1054A00000F0C2F805EB090A38464FEA6811524687
:1054B00000F082F8B24571D00298400190FBF4F1FF
:1054C000029190FBF4F104FB11000390002807DA2D
:1054D0000298401E029000E008E0039820440390E8
:1054E0000498051BCBF12000069055E04811009070
:1054F000002C4FF02008A1EB40104FEA400A02DADE
:105500004FF000089146A8EB030107F11400019049
:105510000AFB01F2FFF796FC05EB0904009922460D
:10552000384600F064F84FEA4805203D0AFB05F0D4
:105530000FFA80FB09E001984C4422468580A0F8D0
:1055400006B03846009900F052F8B442F3D10598FD
:1055500000EB0801019820390BB00AFB01F2BDE80D
:10556000F04FFFF76FBCDDE902016D1801D42D1B70
:10557000401C424640445146CDE9000B069B049036
:10558000384600F051F8DDF81080CA4452463846DB
:105590004FEA681100F02BF8B245E4D10599CBF140
:1055A00020030A984246CDE900015146384600F0F2
:1055B0003BF80BB0BDE8F08FF8B50E46B0F914100B
:1055C0000446C08A154601EB004130B200EB0540AD
:1055D00081420BD02046FFF772FE00202A46034688
:1055E0003146009004F11400FFF044FFF8BDF8B517
:1055F0000E46B0F914100446C08A154601EB00416E
:1056000030B200EB0540814201D1AFF3008020466B
:10561000FFF755FE00202A4603463146009004F16C
:105620001400FFF027FFF8BD2DE9FF4F85B0984625
:10563000571102F01F00129C139B04F01F010091F0
:1056400098454FEA641A07D1DDE9050209B05146D1
:10565000BDE8F04FFFF7B0BFA3EB0801059B143383
:105660000293574504D1009A024418464A435BE02E
:10567000C0F12003202501954B4301250395A41A71
:1056800006D501FB00F300210191491E03916442FC
:1056900093FBF4F193FBF4F504FB1136002E01DAD1
:1056A0006D1E264401994218029829466A43FFF765
:1056B000C9FB03980744DDE905023946FFF797FF68
:1056C0005745A84427D01398A0EB08002844400170
:1056D00090FBF4F190FBF4FB04FB11005FEA00097E
:1056E00002D5ABF1010BA144351B12E015EB090506
:1056F0005E4601D42D1B761C029831467201FFF7DD
:10570000A1FB0398B0440744DDE905023946FFF7E1
:105710006EFF5745EAD1DDE900021399821A02981B
:105720002032A1EB08014A4309B0BDE8F04FFFF772
:1057300089BB38B50446FEF7E5FDE060FEF72CFEB8
:10574000002547F6FF71C0082B460A46C4E901054B
:10575000E068206104F114000095FFF08BFEE06B1F
:1057600020F0010040F00200E0636FF00040E062D2
:105770002063C0076063A06384F8445038BD10B54F
:10578000044690F83C00C00708D0D4E9091220462E
:1057900000F187FBE06B20F00100E06394F83C002F
:1057A00080070CD52046FFF78AFDA068002807D0A7
:1057B000204600F006F8E06B20F00200E063E068AD
:1057C00010BD8168002902D0C068FFF799BD7047FD
:1057D000024901600021C160016170476C931008AB
:1057E0002DE9FF4F98460E4605460068DDF840A0BB
:1057F000149CDDE911B3DDE90D9700F1C3FB0EB197
:10580000012100E00021029A01441FFA81FC0021DD
:10581000692A16D006DC582A11D0632A09D0642AD6
:1058200032D10EE06F2A0AD0732A23D0782A2BD1E6
:1058300005E001204FF000094E46844624E0002692
:105840008446B8F1000F1FD04FF0000957B9012866
:1058500008D12A68B2F80080B8F1300F02D1921C4A
:105860002A600020BC450FDAA7EB0C0189B21FFAB1
:1058700087FC09E04FF000098446B8F1000F4E465E
:1058800002D0B84200DDB8B2139FDDF83C800022A0
:105890007F1E4FF0200EB8F1000F22D0D44520DA41
:1058A000AAEB0C0292B239EA0B0C03D010B11144EE
:1058B00089B215E0AAB1BBF1000F09D011E024F8BC
:1058C0001C80D3F800C00CF1010CC3F800C000E04C
:1058D000F046521E92B203D3D3F800C0BC45EEDBB3
:1058E0000022D3F800C0BC4505DA26B124F81C60BC
:1058F0001E68761C1E604FF0300C491E89B212D310
:105900001E68BE420FDA24F816C01E68761C1E60A0
:10591000F3E729688E1C2E601E68098824F816108B
:105920001968491C1960401E80B202D31968B94237
:10593000EFDB7146521E92B208D31868B84205DAFE
:1059400024F810101868401C1860F3E7BDE8FF8FBA
:105950002DE9F05F05460C4600209946DDF828B099
:1059600092460D9F0F9E108018708BF800000B99C7
:1059700008700C9908700E9908702168286800F06A
:10598000EBF84FF0010818E02B2806D0202804D0AF
:105990002D2805D0232806D011E0AAF8000004E045
:1059A00089F8008001E08BF800802146284600F04D
:1059B000C9F82168286800F0CFF80028E4D1A0F1E8
:1059C00030014FF0FF39092901D92A2832D10C9A28
:1059D0003028414682F8008009D10B980170214699
:1059E000284600F0AFF82168286800F0B5F82A28AA
:1059F00002D00021396019E021462846C7F80090FE
:105A000000F0A0F82168286800F0A6F812E03968D4
:105A100001EB810100EB4100214630383860284617
:105A200000F090F82168286800F096F8A0F13001A5
:105A30000929ECD92E282FD10E99284681F800800B
:105A4000214600F07FF82168286800F085F82A28B0
:105A500002D00021316016E021462846C6F80090A9
:105A6000BDE8F05F00F06EB8316801EB810100EB3A
:105A70004100214630383060284600F063F8216844
:105A8000286800F069F8A0F130010929ECD93068E4
:105A9000062800DB06203060BDE8F09FF0B504006A
:105AA0000E4689B04FF0000100D50121002E23D011
:105AB000022B21DB242B1FDC00206F468DF82000F9
:105AC0001F2094FBF3F503FB1545002D00DA6D4212
:105AD0000A2D01DA303500E0573594FBF3F43D54DC
